{
  "contractName": "Dash",
  "abi": [
    {
      "inputs": [
        {
          "internalType": "address",
          "name": "dashToken_",
          "type": "address"
        }
      ],
      "stateMutability": "nonpayable",
      "type": "constructor"
    },
    {
      "anonymous": false,
      "inputs": [
        {
          "indexed": false,
          "internalType": "uint256",
          "name": "id",
          "type": "uint256"
        }
      ],
      "name": "ClosedLiquidity",
      "type": "event"
    },
    {
      "anonymous": false,
      "inputs": [
        {
          "indexed": false,
          "internalType": "address",
          "name": "user",
          "type": "address"
        },
        {
          "indexed": false,
          "internalType": "uint256",
          "name": "score",
          "type": "uint256"
        }
      ],
      "name": "CreditScoreChanged",
      "type": "event"
    },
    {
      "anonymous": false,
      "inputs": [
        {
          "indexed": false,
          "internalType": "uint256",
          "name": "loanID",
          "type": "uint256"
        },
        {
          "indexed": false,
          "internalType": "uint256",
          "name": "liquidityID",
          "type": "uint256"
        },
        {
          "indexed": false,
          "internalType": "uint256",
          "name": "amount",
          "type": "uint256"
        },
        {
          "indexed": false,
          "internalType": "uint256",
          "name": "duration",
          "type": "uint256"
        },
        {
          "indexed": false,
          "internalType": "uint256",
          "name": "interestRate",
          "type": "uint256"
        },
        {
          "indexed": false,
          "internalType": "uint256",
          "name": "createdAt",
          "type": "uint256"
        },
        {
          "indexed": false,
          "internalType": "uint256",
          "name": "paidAt",
          "type": "uint256"
        },
        {
          "indexed": false,
          "internalType": "address",
          "name": "userAddress",
          "type": "address"
        },
        {
          "indexed": false,
          "internalType": "address",
          "name": "provider",
          "type": "address"
        }
      ],
      "name": "LoanCreated",
      "type": "event"
    },
    {
      "anonymous": false,
      "inputs": [
        {
          "indexed": false,
          "internalType": "address",
          "name": "user",
          "type": "address"
        },
        {
          "indexed": false,
          "internalType": "address",
          "name": "by",
          "type": "address"
        },
        {
          "indexed": false,
          "internalType": "bool",
          "name": "isAdded",
          "type": "bool"
        }
      ],
      "name": "NetworkAdded",
      "type": "event"
    },
    {
      "anonymous": false,
      "inputs": [
        {
          "indexed": false,
          "internalType": "uint256",
          "name": "liquidityID",
          "type": "uint256"
        },
        {
          "indexed": false,
          "internalType": "uint256",
          "name": "amount",
          "type": "uint256"
        },
        {
          "indexed": false,
          "internalType": "address",
          "name": "tokenAddress",
          "type": "address"
        },
        {
          "indexed": false,
          "internalType": "uint256",
          "name": "interestRate",
          "type": "uint256"
        },
        {
          "indexed": false,
          "internalType": "uint256",
          "name": "minTakeOut",
          "type": "uint256"
        },
        {
          "indexed": false,
          "internalType": "uint256",
          "name": "maxTakeOut",
          "type": "uint256"
        },
        {
          "indexed": false,
          "internalType": "uint256",
          "name": "minDays",
          "type": "uint256"
        },
        {
          "indexed": false,
          "internalType": "uint256",
          "name": "maxDays",
          "type": "uint256"
        },
        {
          "indexed": false,
          "internalType": "uint256",
          "name": "minCreditScore",
          "type": "uint256"
        },
        {
          "indexed": false,
          "internalType": "uint256",
          "name": "createdAt",
          "type": "uint256"
        },
        {
          "indexed": false,
          "internalType": "address",
          "name": "userAddress",
          "type": "address"
        }
      ],
      "name": "ProvidedLiquity",
      "type": "event"
    },
    {
      "anonymous": false,
      "inputs": [
        {
          "indexed": false,
          "internalType": "uint256",
          "name": "id",
          "type": "uint256"
        },
        {
          "indexed": false,
          "internalType": "uint256",
          "name": "amount",
          "type": "uint256"
        }
      ],
      "name": "UpdatedLiquidity",
      "type": "event"
    },
    {
      "anonymous": false,
      "inputs": [
        {
          "indexed": false,
          "internalType": "string",
          "name": "name",
          "type": "string"
        },
        {
          "indexed": false,
          "internalType": "string",
          "name": "photo",
          "type": "string"
        },
        {
          "indexed": false,
          "internalType": "string",
          "name": "email",
          "type": "string"
        },
        {
          "indexed": false,
          "internalType": "string",
          "name": "username",
          "type": "string"
        },
        {
          "indexed": false,
          "internalType": "address",
          "name": "userAddress",
          "type": "address"
        },
        {
          "indexed": false,
          "internalType": "uint256",
          "name": "creditScore",
          "type": "uint256"
        },
        {
          "indexed": false,
          "internalType": "bool",
          "name": "activeLoan",
          "type": "bool"
        },
        {
          "indexed": false,
          "internalType": "string",
          "name": "year",
          "type": "string"
        },
        {
          "indexed": false,
          "internalType": "string",
          "name": "month",
          "type": "string"
        },
        {
          "indexed": false,
          "internalType": "string",
          "name": "phone",
          "type": "string"
        },
        {
          "indexed": false,
          "internalType": "string",
          "name": "homeAddress",
          "type": "string"
        }
      ],
      "name": "UserCreated",
      "type": "event"
    },
    {
      "inputs": [
        {
          "internalType": "address",
          "name": "",
          "type": "address"
        },
        {
          "internalType": "uint256",
          "name": "",
          "type": "uint256"
        }
      ],
      "name": "liquidities",
      "outputs": [
        {
          "internalType": "uint256",
          "name": "id",
          "type": "uint256"
        },
        {
          "internalType": "uint256",
          "name": "amount",
          "type": "uint256"
        },
        {
          "internalType": "address",
          "name": "tokenAddress",
          "type": "address"
        },
        {
          "internalType": "uint256",
          "name": "interestRate",
          "type": "uint256"
        },
        {
          "internalType": "uint256",
          "name": "minTakeOut",
          "type": "uint256"
        },
        {
          "internalType": "uint256",
          "name": "maxTakeOut",
          "type": "uint256"
        },
        {
          "internalType": "uint256",
          "name": "minDays",
          "type": "uint256"
        },
        {
          "internalType": "uint256",
          "name": "maxDays",
          "type": "uint256"
        },
        {
          "internalType": "uint256",
          "name": "minCreditScore",
          "type": "uint256"
        },
        {
          "internalType": "uint256",
          "name": "createdAt",
          "type": "uint256"
        }
      ],
      "stateMutability": "view",
      "type": "function"
    },
    {
      "inputs": [
        {
          "internalType": "address",
          "name": "",
          "type": "address"
        },
        {
          "internalType": "uint256",
          "name": "",
          "type": "uint256"
        }
      ],
      "name": "loans",
      "outputs": [
        {
          "internalType": "uint256",
          "name": "id",
          "type": "uint256"
        },
        {
          "internalType": "uint256",
          "name": "liquidity",
          "type": "uint256"
        },
        {
          "internalType": "uint256",
          "name": "amount",
          "type": "uint256"
        },
        {
          "internalType": "address",
          "name": "tokenAddress",
          "type": "address"
        },
        {
          "internalType": "uint256",
          "name": "interestRate",
          "type": "uint256"
        },
        {
          "internalType": "uint256",
          "name": "duration",
          "type": "uint256"
        },
        {
          "internalType": "address",
          "name": "provider",
          "type": "address"
        },
        {
          "internalType": "uint256",
          "name": "createdAt",
          "type": "uint256"
        },
        {
          "internalType": "uint256",
          "name": "paidAt",
          "type": "uint256"
        }
      ],
      "stateMutability": "view",
      "type": "function"
    },
    {
      "inputs": [],
      "name": "platformFee",
      "outputs": [
        {
          "internalType": "uint256",
          "name": "",
          "type": "uint256"
        }
      ],
      "stateMutability": "view",
      "type": "function"
    },
    {
      "inputs": [
        {
          "internalType": "address",
          "name": "",
          "type": "address"
        }
      ],
      "name": "users",
      "outputs": [
        {
          "internalType": "uint256",
          "name": "id",
          "type": "uint256"
        },
        {
          "internalType": "uint256",
          "name": "creditScore",
          "type": "uint256"
        },
        {
          "internalType": "bool",
          "name": "activeLoan",
          "type": "bool"
        },
        {
          "internalType": "uint256",
          "name": "createdAt",
          "type": "uint256"
        }
      ],
      "stateMutability": "view",
      "type": "function"
    },
    {
      "inputs": [
        {
          "internalType": "string",
          "name": "name",
          "type": "string"
        },
        {
          "internalType": "string",
          "name": "photo",
          "type": "string"
        },
        {
          "internalType": "string",
          "name": "email",
          "type": "string"
        },
        {
          "internalType": "string",
          "name": "username",
          "type": "string"
        },
        {
          "internalType": "string",
          "name": "year",
          "type": "string"
        },
        {
          "internalType": "string",
          "name": "month",
          "type": "string"
        },
        {
          "internalType": "string",
          "name": "phone",
          "type": "string"
        },
        {
          "internalType": "string",
          "name": "homeAddress",
          "type": "string"
        }
      ],
      "name": "createUser",
      "outputs": [],
      "stateMutability": "nonpayable",
      "type": "function"
    },
    {
      "inputs": [
        {
          "internalType": "string",
          "name": "name",
          "type": "string"
        },
        {
          "internalType": "string",
          "name": "photo",
          "type": "string"
        },
        {
          "internalType": "string",
          "name": "email",
          "type": "string"
        },
        {
          "internalType": "string",
          "name": "username",
          "type": "string"
        },
        {
          "internalType": "string",
          "name": "year",
          "type": "string"
        },
        {
          "internalType": "string",
          "name": "month",
          "type": "string"
        },
        {
          "internalType": "string",
          "name": "phone",
          "type": "string"
        },
        {
          "internalType": "string",
          "name": "homeAddress",
          "type": "string"
        }
      ],
      "name": "updateUser",
      "outputs": [],
      "stateMutability": "nonpayable",
      "type": "function"
    },
    {
      "inputs": [
        {
          "internalType": "address",
          "name": "user",
          "type": "address"
        }
      ],
      "name": "addNetwork",
      "outputs": [],
      "stateMutability": "nonpayable",
      "type": "function"
    },
    {
      "inputs": [
        {
          "internalType": "address",
          "name": "user",
          "type": "address"
        }
      ],
      "name": "removeNetwork",
      "outputs": [],
      "stateMutability": "nonpayable",
      "type": "function"
    },
    {
      "inputs": [
        {
          "internalType": "uint256",
          "name": "id",
          "type": "uint256"
        },
        {
          "internalType": "uint256",
          "name": "amount",
          "type": "uint256"
        },
        {
          "internalType": "address",
          "name": "provider",
          "type": "address"
        },
        {
          "internalType": "uint256",
          "name": "duration",
          "type": "uint256"
        }
      ],
      "name": "takeLoan",
      "outputs": [],
      "stateMutability": "nonpayable",
      "type": "function"
    },
    {
      "inputs": [
        {
          "internalType": "uint256",
          "name": "id",
          "type": "uint256"
        }
      ],
      "name": "payLoan",
      "outputs": [],
      "stateMutability": "nonpayable",
      "type": "function"
    },
    {
      "inputs": [
        {
          "internalType": "uint256",
          "name": "id",
          "type": "uint256"
        }
      ],
      "name": "closeLiquidity",
      "outputs": [],
      "stateMutability": "nonpayable",
      "type": "function"
    },
    {
      "inputs": [
        {
          "internalType": "uint256",
          "name": "amount",
          "type": "uint256"
        },
        {
          "internalType": "address",
          "name": "tokenAddress",
          "type": "address"
        },
        {
          "internalType": "uint256",
          "name": "interestRate",
          "type": "uint256"
        },
        {
          "internalType": "uint256",
          "name": "minTakeOut",
          "type": "uint256"
        },
        {
          "internalType": "uint256",
          "name": "maxTakeOut",
          "type": "uint256"
        },
        {
          "internalType": "uint256",
          "name": "minDays",
          "type": "uint256"
        },
        {
          "internalType": "uint256",
          "name": "maxDays",
          "type": "uint256"
        },
        {
          "internalType": "uint256",
          "name": "minCreditScore",
          "type": "uint256"
        }
      ],
      "name": "provideLiquidity",
      "outputs": [],
      "stateMutability": "nonpayable",
      "type": "function"
    },
    {
      "inputs": [
        {
          "internalType": "uint256",
          "name": "amount",
          "type": "uint256"
        }
      ],
      "name": "withdrawPlatformFee",
      "outputs": [],
      "stateMutability": "nonpayable",
      "type": "function"
    }
  ],
  "bytecode": "0x60806040526002805560416006553480156200001a57600080fd5b5060405162002c8438038062002c848339810160408190526200003d9162000071565b60008054336001600160a01b031991821617909155600780549091166001600160a01b0392909216919091179055620000a3565b6000602082840312156200008457600080fd5b81516001600160a01b03811681146200009c57600080fd5b9392505050565b612bd180620000b36000396000f3fe608060405234801561001057600080fd5b50600436106100df5760003560e01c8063a8d7b3ec1161008c578063d7d91fe411610066578063d7d91fe41461028d578063dde7c190146102a0578063eb3b299b146102b3578063f35456ed146102c657600080fd5b8063a8d7b3ec146101fc578063d52559d01461020f578063d567e4a41461027a57600080fd5b80634a184a87116100bd5780634a184a871461012857806398c61c371461013b578063a87430ba1461019b57600080fd5b806326232a2e146100e4578063329aa414146101005780633338035914610115575b600080fd5b6100ed60025481565b6040519081526020015b60405180910390f35b61011361010e3660046126b5565b6102d9565b005b6101136101233660046126ea565b6105a3565b6101136101363660046127ca565b610e09565b61014e61014936600461290a565b610fc0565b60408051998a5260208a0198909852968801959095526001600160a01b039384166060880152608087019290925260a08601521660c084015260e0830152610100820152610120016100f7565b6101d66101a9366004612934565b60086020526000908152604090208054600182015460028301546003909301549192909160ff9091169084565b6040805194855260208501939093529015159183019190915260608201526080016100f7565b61011361020a3660046126b5565b611035565b61022261021d36600461290a565b6118d6565b604080519a8b5260208b01999099526001600160a01b03909716978901979097526060880194909452608087019290925260a086015260c085015260e0840152610100830191909152610120820152610140016100f7565b610113610288366004612934565b611950565b61011361029b3660046127ca565b611a51565b6101136102ae3660046126b5565b611b6f565b6101136102c1366004612934565b611cab565b6101136102d436600461294f565b611db5565b33600090815260086020526040812054900361033c5760405162461bcd60e51b815260206004820152601760248201527f43726561746520616e206163636f756e7420666972737400000000000000000060448201526064015b60405180910390fd5b600061034833836122fc565b905080196103985760405162461bcd60e51b815260206004820152601d60248201527f596f7520646f206e6f74206f776e2074686973206c69717569646974790000006044820152606401610333565b3360009081526009602052604081208054839081106103b9576103b96129af565b90600052602060002090600a02016001015411156104de573360009081526009602052604081208054839081106103f2576103f26129af565b600091825260208083206002600a909302019190910154338084526009909252604090922080546001600160a01b039093169350839263a9059cbb92919086908110610440576104406129af565b600091825260209091206001600a9092020101546040517fffffffff0000000000000000000000000000000000000000000000000000000060e085901b1681526001600160a01b03909216600483015260248201526044016020604051808303816000875af11580156104b7573d6000803e3d6000fd5b505050506040513d601f19601f820116820180604052508101906104db91906129c5565b50505b3360009081526009602052604090208054829081106104ff576104ff6129af565b600091825260208220600a909102018181556001810182905560028101805473ffffffffffffffffffffffffffffffffffffffff19169055600381018290556004810182905560058101829055600681018290556007810182905560088101829055600901556040517f20c48a95a2e7a5844e4f456e8d83a72af0caceb90b567ae55d0b13c7942fa798906105979084815260200190565b60405180910390a15050565b3360009081526008602052604081205490036106015760405162461bcd60e51b815260206004820152601760248201527f43726561746520616e206163636f756e742066697273740000000000000000006044820152606401610333565b600083116106515760405162461bcd60e51b815260206004820152601c60248201527f596f752063616e277420626f72726f77207a65726f20746f6b656e73000000006044820152606401610333565b600061065d83866122fc565b905080196106ad5760405162461bcd60e51b815260206004820152601960248201527f4c697175696469747920646f6573206e6f7420657869737473000000000000006044820152606401610333565b6001600160a01b03831660009081526009602052604081208054839081106106d7576106d76129af565b600091825260208083206040805161014081018252600a9094029091018054845260018101549284019290925260028201546001600160a01b0316908301526003810154606083015260048101546080830152600581015460a0830152600681015460c0830152600781015460e08301526008810154610100830152600901546101208201529150610769853361242d565b905080196107df5760405162461bcd60e51b815260206004820152602660248201527f596f7520617265206e6f74206f6e2070726f7669646572277320636f6e74616360448201527f74206c69737400000000000000000000000000000000000000000000000000006064820152608401610333565b3360009081526008602052604090206002015460ff16156108425760405162461bcd60e51b815260206004820152601960248201527f596f752061726520616c7265616479206f6e2061206c6f616e000000000000006044820152606401610333565b85826020015110156108965760405162461bcd60e51b815260206004820152601660248201527f496e73756666696369656e7420706f6f6c2073697a65000000000000000000006044820152606401610333565b858260a0015110156109105760405162461bcd60e51b815260206004820152602760248201527f416d6f756e742069732067726561746572207468616e206d6178696d756d207460448201527f616b65206f7574000000000000000000000000000000000000000000000000006064820152608401610333565b858260800151111561098a5760405162461bcd60e51b815260206004820152602660248201527f416d6f756e74206973206c6573736572207468616e206d696e696d756d20746160448201527f6b65206f757400000000000000000000000000000000000000000000000000006064820152608401610333565b838260e001511015610a045760405162461bcd60e51b815260206004820152602860248201527f4475726174696f6e206973206c6f6e676572207468616e206d6178696d756d2060448201527f6475726174696f6e0000000000000000000000000000000000000000000000006064820152608401610333565b838260c001511115610a7e5760405162461bcd60e51b815260206004820152602960248201527f4475726174696f6e2069732073686f72746572207468616e206d696e696d756d60448201527f206475726174696f6e00000000000000000000000000000000000000000000006064820152608401610333565b336000908152600860205260409020600101546101008301511115610ae55760405162461bcd60e51b815260206004820152601c60248201527f596f7572206372656469742073636f726520697320746f6f206c6f77000000006044820152606401610333565b6001600160a01b0385166000908152600960205260409020805487919085908110610b1257610b126129af565b90600052602060002090600a02016001016000828254610b3291906129fd565b9091555050336000908152600860205260408120600201805460ff191660011790556005805491610b6283612a10565b90915550506040805161012081018252600580548252845160208084019182528385018b8152878601516001600160a01b0390811660608088019182528a01516080880190815260a088018d81528e841660c08a019081524260e08b0190815260006101008c0181815233808352600a8b528e83208054600180820183559185529b9093208e516009909c02019a8b559a51918a019190915596516002890155935160038801805473ffffffffffffffffffffffffffffffffffffffff1990811683891690811790925594516004808b019190915593519a89019a909a559051600688018054909416951694909417909155905160078501559151600890930192909255945163a9059cbb60e01b815294850191909152602484018a9052919263a9059cbb906044016020604051808303816000875af1158015610caa573d6000803e3d6000fd5b505050506040513d601f19601f82011682018060405250810190610cce91906129c5565b507f558c644d7fa31e50f4a2e534d5e5793366a1941a6362d04408e62b39439a31568260000151836020015184604001518560a0015186608001518760e00151886101000151338a60c00151604051610d7599989796959493929190988952602089019790975260408801959095526060870193909352608086019190915260a085015260c08401526001600160a01b0390811660e0840152166101008201526101200190565b60405180910390a183516001600160a01b038816600090815260096020526040902080547fa78d1e81434a3d3c4b90a82e0df68035fc59d26e2185a51f8a66143c94c4814a92919088908110610dcd57610dcd6129af565b90600052602060002090600a020160010154604051610df6929190918252602082015260400190565b60405180910390a1505050505050505050565b3360009081526008602052604090205415610e665760405162461bcd60e51b815260206004820152601b60248201527f21616c72656164795f637265617465645f616e5f6163636f756e7400000000006044820152606401610333565b60038054906000610e7683612a10565b90915550506040805160a08101825260035481526006546020808301919091526000828401819052426060840152338152600882528390206004018054845181840281018401909552808552929360808501939092830182828015610f0457602002820191906000526020600020905b81546001600160a01b03168152600190910190602001808311610ee6575b50505091909252505033600090815260086020908152604091829020835181558382015160018201559183015160028301805460ff19169115159190911790556060830151600383015560808301518051610f65926004850192019061262e565b50506006546040517f676f4149b3c169700ae4fc11a98f7fa314e26c66113436c7d5f7688e340cd0549250610fae918b918b918b918b9133916000908d908d908d908d90612a6f565b60405180910390a15050505050505050565b600a6020528160005260406000208181548110610fdc57600080fd5b600091825260209091206009909102018054600182015460028301546003840154600485015460058601546006870154600788015460089098015496995094975092956001600160a01b03928316959194909216919089565b3360009081526008602052604081205490036110935760405162461bcd60e51b815260206004820152601760248201527f43726561746520616e206163636f756e742066697273740000000000000000006044820152606401610333565b600061109f33836124fd565b905080196110ef5760405162461bcd60e51b815260206004820152600c60248201527f216c6f616e5f65786973747300000000000000000000000000000000000000006044820152606401610333565b336000908152600a60205260408120805483908110611110576111106129af565b6000918252602091829020604080516101208101825260099093029091018054835260018101549383019390935260028301549082015260038201546001600160a01b03908116606083015260048301546080830152600583015460a083015260068301541660c0820152600782015460e08201526008909101546101008201819052909150156111e35760405162461bcd60e51b815260206004820152601160248201527f6c6f616e5f616c72656164795f706169640000000000000000000000000000006044820152606401610333565b60008160e00151426111f591906129fd565b905060006201518082846080015161120d9190612b47565b6112179190612b66565b60075460405163e1f21c6760e01b8152336004820152306024820152604481018390529192506001600160a01b03169063e1f21c6790606401600060405180830381600087803b15801561126a57600080fd5b505af115801561127e573d6000803e3d6000fd5b50506007546040516323b872dd60e01b8152336004820152306024820152604481018590526001600160a01b0390911692506323b872dd91506064016020604051808303816000875af11580156112d9573d6000803e3d6000fd5b505050506040513d601f19601f820116820180604052508101906112fd91906129c5565b5060006064600254836113109190612b47565b61131a9190612b66565b60075460c08601519192506001600160a01b03169063a9059cbb9061133f84866129fd565b6040517fffffffff0000000000000000000000000000000000000000000000000000000060e085901b1681526001600160a01b03909216600483015260248201526044016020604051808303816000875af11580156113a2573d6000803e3d6000fd5b505050506040513d601f19601f820116820180604052508101906113c691906129c5565b5080600160008282546113d99190612b88565b9250508190555060006113f48560c0015186602001516122fc565b905080600019146115e0576060850151604080870151905163e1f21c6760e01b815233600482015230602482015260448101919091526001600160a01b0382169063e1f21c6790606401600060405180830381600087803b15801561145857600080fd5b505af115801561146c573d6000803e3d6000fd5b5050505060408681015190516323b872dd60e01b815233600482015230602482015260448101919091526001600160a01b038216906323b872dd906064016020604051808303816000875af11580156114c9573d6000803e3d6000fd5b505050506040513d601f19601f820116820180604052508101906114ed91906129c5565b5060408087015160c08801516001600160a01b03166000908152600960205291909120805484908110611522576115226129af565b90600052602060002090600a020160010160008282546115429190612b88565b925050819055507fa78d1e81434a3d3c4b90a82e0df68035fc59d26e2185a51f8a66143c94c4814a8660200151600960008960c001516001600160a01b03166001600160a01b0316815260200190815260200160002084815481106115a9576115a96129af565b90600052602060002090600a0201600101546040516115d2929190918252602082015260400190565b60405180910390a1506116e1565b606085015160c0860151604080880151905163e1f21c6760e01b81523360048201526001600160a01b03928316602482015260448101919091529082169063e1f21c6790606401600060405180830381600087803b15801561164157600080fd5b505af1158015611655573d6000803e3d6000fd5b5050505060c086015160408088015190516323b872dd60e01b81523360048201526001600160a01b0392831660248201526044810191909152908216906323b872dd906064016020604051808303816000875af11580156116ba573d6000803e3d6000fd5b505050506040513d601f19601f820116820180604052508101906116de91906129c5565b50505b42610100860152336000908152600860205260408120600201805460ff1916905560a08601516117149062015180612b47565b90506117248660e001518261261b565b42111561178b5733600090815260086020526040902060010154600511611773573360009081526008602052604081206001018054600592906117689084906129fd565b909155506117e09050565b336000908152600860205260408120600101556117e0565b336000908152600860205260409020600101546062106117c857336000908152600860205260408120600101805460029290611768908490612b88565b33600090815260086020526040902060646001909101555b7f558c644d7fa31e50f4a2e534d5e5793366a1941a6362d04408e62b39439a31568660000151876020015188604001518960a001518a608001518b60e001518c6101000151338e60c0015160405161188699989796959493929190988952602089019790975260408801959095526060870193909352608086019190915260a085015260c08401526001600160a01b0390811660e0840152166101008201526101200190565b60405180910390a133600081815260086020908152604091829020600101548251938452908301527f05933d00429c2f5bf744590ae0bbc26dd4e984be9acbb9197eec5f7127e6da649101610fae565b600960205281600052604060002081815481106118f257600080fd5b60009182526020909120600a90910201805460018201546002830154600384015460048501546005860154600687015460078801546008890154600990990154979a509598506001600160a01b03909416969295919490939290918a565b3360009081526008602052604081205490036119ae5760405162461bcd60e51b815260206004820152601760248201527f43726561746520616e206163636f756e742066697273740000000000000000006044820152606401610333565b60006119ba338361242d565b90508019611a4d5733600081815260086020908152604080832060040180546001808201835591855293839020909301805473ffffffffffffffffffffffffffffffffffffffff19166001600160a01b038816908117909155815190815291820193909352918201527fef159a3fe67039f76f5f69589747e2f0132e5e79bc6a1ee9b3f47bfad176d00590606001610597565b5050565b336000908152600860205260408120549003611aaf5760405162461bcd60e51b815260206004820152601760248201527f43726561746520616e206163636f756e742066697273740000000000000000006044820152606401610333565b336000908152600860205260408120549003611b0d5760405162461bcd60e51b815260206004820152600a60248201527f6e6f5f6163636f756e74000000000000000000000000000000000000000000006044820152606401610333565b3360008181526008602052604090819020600181015460029091015491517f676f4149b3c169700ae4fc11a98f7fa314e26c66113436c7d5f7688e340cd05493610fae938d938d938d938d9390929160ff909116908d908d908d908d90612a6f565b6000546001600160a01b03163314611bc95760405162461bcd60e51b815260206004820152601660248201527f596f7520617265206e6f7420617574686f72697a6564000000000000000000006044820152606401610333565b806001541015611c1b5760405162461bcd60e51b815260206004820152601360248201527f696e73756669636369656e7420746f6b656e73000000000000000000000000006044820152606401610333565b8060016000828254611c2d91906129fd565b909155505060075460005460405163a9059cbb60e01b81526001600160a01b0391821660048201526024810184905291169063a9059cbb906044016020604051808303816000875af1158015611c87573d6000803e3d6000fd5b505050506040513d601f19601f82011682018060405250810190611a4d91906129c5565b336000908152600860205260408120549003611d095760405162461bcd60e51b815260206004820152601760248201527f43726561746520616e206163636f756e742066697273740000000000000000006044820152606401610333565b6000611d15338361242d565b90508060001914611a4d57336000908152600860205260409020600401805482908110611d4457611d446129af565b6000918252602080832091909101805473ffffffffffffffffffffffffffffffffffffffff19169055604080516001600160a01b038616815233928101929092528101919091527fef159a3fe67039f76f5f69589747e2f0132e5e79bc6a1ee9b3f47bfad176d00590606001610597565b336000908152600860205260408120549003611e135760405162461bcd60e51b815260206004820152601760248201527f43726561746520616e206163636f756e742066697273740000000000000000006044820152606401610333565b60008811611e635760405162461bcd60e51b815260206004820152601560248201527f416d6f756e742063616e6e6f74206265207a65726f00000000000000000000006044820152606401610333565b83851115611ed95760405162461bcd60e51b815260206004820152603860248201527f4d696e696d756d2074616b65206f69742063616e6e6f7420626520677265617460448201527f6572207468616e206d6178696d756d2074616b65206f757400000000000000006064820152608401610333565b87841115611f4f5760405162461bcd60e51b815260206004820152602e60248201527f4d6178696d756e2074616b65206f75742063616e6e6f7420626520677265617460448201527f6572207468616e20616d6f756e740000000000000000000000000000000000006064820152608401610333565b81831115611fc55760405162461bcd60e51b815260206004820152603860248201527f4d696e696d756d206475726174696f6e2063616e6e6f7420626520677265617460448201527f6572207468616e206d6178696d756d206475726174696f6e00000000000000006064820152608401610333565b606481111561203c5760405162461bcd60e51b815260206004820152602560248201527f437265646974207363726f726520697320746f6f20686967682c204d6178206960448201527f73203130300000000000000000000000000000000000000000000000000000006064820152608401610333565b6004805490600061204c83612a10565b919050555060096000336001600160a01b03166001600160a01b0316815260200190815260200160002060405180610140016040528060045481526020018a8152602001896001600160a01b031681526020018881526020018781526020018681526020018581526020018481526020018381526020014281525090806001815401808255809150506001900390600052602060002090600a0201600090919091909150600082015181600001556020820151816001015560408201518160020160006101000a8154816001600160a01b0302191690836001600160a01b03160217905550606082015181600301556080820151816004015560a0820151816005015560c0820151816006015560e082015181600701556101008201518160080155610120820151816009015550506000879050806001600160a01b031663e1f21c6733308c6040518463ffffffff1660e01b81526004016121cf939291906001600160a01b039384168152919092166020820152604081019190915260600190565b600060405180830381600087803b1580156121e957600080fd5b505af11580156121fd573d6000803e3d6000fd5b50506040516323b872dd60e01b8152336004820152306024820152604481018c90526001600160a01b03841692506323b872dd91506064016020604051808303816000875af1158015612254573d6000803e3d6000fd5b505050506040513d601f19601f8201168201806040525081019061227891906129c5565b5060045460408051918252602082018b90526001600160a01b038a1690820152606081018890526080810187905260a0810186905260c0810185905260e08101849052610100810183905242610120820152336101408201527f9c73435d730d29a508b2720903ba238df287009379a89db682694cc036aed5b79061016001610df6565b6001600160a01b038216600090815260096020908152604080832080548251818502810185019093528083528493849084015b828210156123cb5760008481526020908190206040805161014081018252600a8602909201805483526001808201548486015260028201546001600160a01b0316928401929092526003810154606084015260048101546080840152600581015460a0840152600681015460c0840152600781015460e0840152600881015461010084015260090154610120830152908352909201910161232f565b5050505090506000600019905060005b825181101561242257848382815181106123f7576123f76129af565b6020026020010151600001510361241057809150612422565b8061241a81612a10565b9150506123db565b509150505b92915050565b6001600160a01b03821660009081526008602090815260408083206004018054825181850281018501909352808352849383018282801561249757602002820191906000526020600020905b81546001600160a01b03168152600190910190602001808311612479575b505050505090506000600019905060005b825181101561242257846001600160a01b03168382815181106124cd576124cd6129af565b60200260200101516001600160a01b0316036124eb57809150612422565b806124f581612a10565b9150506124a8565b6001600160a01b0382166000908152600a6020908152604080832080548251818502810185019093528083528493849084015b828210156125c4576000848152602090819020604080516101208101825260098602909201805483526001808201548486015260028201549284019290925260038101546001600160a01b03908116606085015260048201546080850152600582015460a085015260068201541660c0840152600781015460e0840152600801546101008301529083529092019101612530565b5050505090506000600019905060005b825181101561242257848382815181106125f0576125f06129af565b6020026020010151600001510361260957809150612422565b8061261381612a10565b9150506125d4565b60006126278284612b88565b9392505050565b828054828255906000526020600020908101928215612690579160200282015b82811115612690578251825473ffffffffffffffffffffffffffffffffffffffff19166001600160a01b0390911617825560209092019160019091019061264e565b5061269c9291506126a0565b5090565b5b8082111561269c57600081556001016126a1565b6000602082840312156126c757600080fd5b5035919050565b80356001600160a01b03811681146126e557600080fd5b919050565b6000806000806080858703121561270057600080fd5b8435935060208501359250612717604086016126ce565b9396929550929360600135925050565b634e487b7160e01b600052604160045260246000fd5b600082601f83011261274e57600080fd5b813567ffffffffffffffff8082111561276957612769612727565b604051601f8301601f19908116603f0116810190828211818310171561279157612791612727565b816040528381528660208588010111156127aa57600080fd5b836020870160208301376000602085830101528094505050505092915050565b600080600080600080600080610100898b0312156127e757600080fd5b883567ffffffffffffffff808211156127ff57600080fd5b61280b8c838d0161273d565b995060208b013591508082111561282157600080fd5b61282d8c838d0161273d565b985060408b013591508082111561284357600080fd5b61284f8c838d0161273d565b975060608b013591508082111561286557600080fd5b6128718c838d0161273d565b965060808b013591508082111561288757600080fd5b6128938c838d0161273d565b955060a08b01359150808211156128a957600080fd5b6128b58c838d0161273d565b945060c08b01359150808211156128cb57600080fd5b6128d78c838d0161273d565b935060e08b01359150808211156128ed57600080fd5b506128fa8b828c0161273d565b9150509295985092959890939650565b6000806040838503121561291d57600080fd5b612926836126ce565b946020939093013593505050565b60006020828403121561294657600080fd5b612627826126ce565b600080600080600080600080610100898b03121561296c57600080fd5b8835975061297c60208a016126ce565b979a9799505050506040860135956060810135956080820135955060a0820135945060c0820135935060e0909101359150565b634e487b7160e01b600052603260045260246000fd5b6000602082840312156129d757600080fd5b8151801515811461262757600080fd5b634e487b7160e01b600052601160045260246000fd5b81810381811115612427576124276129e7565b600060018201612a2257612a226129e7565b5060010190565b6000815180845260005b81811015612a4f57602081850181015186830182015201612a33565b506000602082860101526020601f19601f83011685010191505092915050565b6000610160808352612a838184018f612a29565b90508281036020840152612a97818e612a29565b90508281036040840152612aab818d612a29565b90508281036060840152612abf818c612a29565b6001600160a01b038b16608085015290508860a0840152612ae460c084018915159052565b82810360e0840152612af68188612a29565b9050828103610100840152612b0b8187612a29565b9050828103610120840152612b208186612a29565b9050828103610140840152612b358185612a29565b9e9d5050505050505050505050505050565b6000816000190483118215151615612b6157612b616129e7565b500290565b600082612b8357634e487b7160e01b600052601260045260246000fd5b500490565b80820180821115612427576124276129e756fea2646970667358221220dc6f434b008271cc306962b639884444fd7efc6cf95dd59382e7bb139583c9be64736f6c63430008100033",
  "immutableReferences": {},
  "source": "// SPDX-License-Identifier: GPL-3.0\npragma solidity >=0.7.0 <0.9.0;\n\nimport {IStableCoin} from \"./stablecoins/IStableCoin.sol\";\nimport {DashToken} from \"./DashToken.sol\";\nimport {Models} from \"./Models.sol\";\n\nimport {SafeMath} from \"@openzeppelin/contracts/utils/math/SafeMath.sol\";\n\ncontract Dash {\n    using SafeMath for uint256;\n\n    address private deployer;\n    uint private contractRevenue;\n    uint public platformFee = 2; // 2% fee\n\n    uint private userID;\n    uint private liquidityID;\n    uint private loanID;\n\n    uint defaultCreditScore = 65;\n\n    DashToken private dashToken;\n\n    mapping(address => Models.User) public users;\n    mapping(address => Models.Liquidity[]) public liquidities;\n    mapping(address => Models.Loan[]) public loans;\n\n    constructor(address dashToken_) {\n        deployer = msg.sender;\n        dashToken = DashToken(dashToken_);\n    }\n\n    function createUser(\n        string memory name,\n        string memory photo,\n        string memory email,\n        string memory username,\n        string memory year,\n        string memory month,\n        string memory phone,\n        string memory homeAddress\n    ) public {\n        require(users[msg.sender].id == 0, \"!already_created_an_account\");\n\n        userID++;\n        users[msg.sender] = Models.User(\n            userID,\n            defaultCreditScore,\n            false,\n            block.timestamp,\n            users[msg.sender].networks\n        );\n\n        emit UserCreated(\n            name,\n            photo,\n            email,\n            username,\n            msg.sender,\n            defaultCreditScore,\n            false,\n            year,\n            month,\n            phone,\n            homeAddress\n        );\n    }\n\n    function updateUser(\n        string memory name,\n        string memory photo,\n        string memory email,\n        string memory username,\n        string memory year,\n        string memory month,\n        string memory phone,\n        string memory homeAddress\n    ) public onlyUser {\n        // verifies account exists\n        require(users[msg.sender].id != 0, \"no_account\");\n\n        // aware dependencies through event\n        emit UserCreated(\n            name,\n            photo,\n            email,\n            username,\n            msg.sender,\n            users[msg.sender].creditScore,\n            users[msg.sender].activeLoan,\n            year,\n            month,\n            phone,\n            homeAddress\n        );\n    }\n\n    function addNetwork(address user) public onlyUser {\n        int userIndex = getUserNetworkIndex(msg.sender, user);\n        if (userIndex == -1) {\n            users[msg.sender].networks.push(user);\n            emit NetworkAdded(user, msg.sender, true);\n        }\n    }\n\n    function removeNetwork(address user) public onlyUser {\n        int userIndex = getUserNetworkIndex(msg.sender, user);\n        if (userIndex != -1) {\n            delete users[msg.sender].networks[uint(userIndex)];\n            emit NetworkAdded(user, msg.sender, false);\n        }\n    }\n\n    function takeLoan(\n        uint id,\n        uint256 amount,\n        address provider,\n        uint duration\n    ) public onlyUser {\n        require(amount > 0, \"You can't borrow zero tokens\");\n\n        int liquidityIndex = getUserLiquidityIndex(provider, id);\n        require(liquidityIndex != -1, \"Liquidity does not exists\");\n\n        Models.Liquidity memory liquidity = liquidities[provider][\n            uint(liquidityIndex)\n        ];\n        int userNetworkIndex = getUserNetworkIndex(provider, msg.sender);\n\n        // verifies the user is on provider contact list\n        require(\n            userNetworkIndex != -1,\n            \"You are not on provider's contact list\"\n        );\n\n        // verifies user is not a loan before\n        require(!users[msg.sender].activeLoan, \"You are already on a loan\");\n\n        // validate loan and user inputs with liquidity properties\n        require(liquidity.amount >= amount, \"Insufficient pool size\");\n        require(\n            liquidity.maxTakeOut >= amount,\n            \"Amount is greater than maximum take out\"\n        );\n        require(\n            liquidity.minTakeOut <= amount,\n            \"Amount is lesser than minimum take out\"\n        );\n        require(\n            liquidity.maxDays >= duration,\n            \"Duration is longer than maximum duration\"\n        );\n        require(\n            liquidity.minDays <= duration,\n            \"Duration is shorter than minimum duration\"\n        );\n        require(\n            liquidity.minCreditScore <= users[msg.sender].creditScore,\n            \"Your credit score is too low\"\n        );\n\n        // decrease the liquidity pool size\n        liquidities[provider][uint(liquidityIndex)].amount -= amount;\n\n        // user is now on a loan\n        users[msg.sender].activeLoan = true;\n\n        // create a new loan id\n        loanID++;\n\n        // create a new loan\n        Models.Loan memory loan = Models.Loan(\n            loanID,\n            liquidity.id,\n            amount,\n            liquidity.tokenAddress,\n            liquidity.interestRate,\n            duration,\n            provider,\n            block.timestamp,\n            0 // unpaid\n        );\n\n        // register the new loan\n        loans[msg.sender].push(loan);\n\n        // give out the loan\n        // send tokens to user wallet\n        IStableCoin token = IStableCoin(loan.tokenAddress);\n        token.transfer(msg.sender, amount);\n\n        // aware dependencies through event\n        emit LoanCreated(\n            loan.id,\n            loan.liquidity,\n            loan.amount,\n            loan.duration,\n            loan.interestRate,\n            loan.createdAt,\n            loan.paidAt,\n            msg.sender,\n            loan.provider\n        );\n\n        // aware dependencies through event\n        emit UpdatedLiquidity(\n            liquidity.id,\n            liquidities[provider][uint(liquidityIndex)].amount\n        );\n    }\n\n    function payLoan(uint id) public onlyUser {\n        int userLoanIndex = getUserLoanIndex(msg.sender, id);\n        require(userLoanIndex != -1, \"!loan_exists\");\n\n        Models.Loan memory loan = loans[msg.sender][uint(userLoanIndex)];\n        require(loan.paidAt == 0, \"loan_already_paid\");\n\n        // pay interest\n        uint secondsDiff = block.timestamp - loan.createdAt;\n\n        // calculate interest\n        uint256 interest = ((loan.interestRate * secondsDiff) / 1 days);\n\n        // pay interest charges to smart contract in DASH tokens\n        dashToken.approve(msg.sender, address(this), interest);\n        dashToken.transferFrom(msg.sender, address(this), interest);\n\n        // charge platform fee\n        uint fee = ((interest * platformFee) / 100);\n\n        // pay interest profit to liquidity provider in DASH tokens\n        dashToken.transfer(loan.provider, (interest - fee));\n\n        // update platform profit\n        contractRevenue += fee;\n\n        // if liquidity still exists, add the funds back to the liquidty\n        int liquidityIndex = getUserLiquidityIndex(\n            loan.provider,\n            loan.liquidity\n        );\n\n        if (liquidityIndex != -1) {\n            // liquidity exists\n            // pay loan to back smart contract\n            IStableCoin token = IStableCoin(loan.tokenAddress);\n            token.approve(msg.sender, address(this), loan.amount);\n            token.transferFrom(msg.sender, address(this), loan.amount);\n\n            // increase liquidity pool back\n            liquidities[loan.provider][uint(liquidityIndex)].amount += loan\n                .amount;\n\n            // let dependecies knows pool has _changed_\n            emit UpdatedLiquidity(\n                loan.liquidity,\n                liquidities[loan.provider][uint(liquidityIndex)].amount\n            );\n        } else {\n            // else send the funds directly to the liquidity creator wallet\n            IStableCoin token = IStableCoin(loan.tokenAddress);\n            token.approve(msg.sender, loan.provider, loan.amount);\n            token.transferFrom(msg.sender, loan.provider, loan.amount);\n        }\n\n        // mark loan as paid\n        loan.paidAt = block.timestamp;\n\n        // user is not on a loan anymore\n        users[msg.sender].activeLoan = false;\n\n        // credit score mechanism\n        uint duration = (loan.duration * 1 days);\n        if (block.timestamp > SafeMath.add(loan.createdAt, duration)) {\n            // user has default, so their credit score is deducted by 5\n            if (users[msg.sender].creditScore >= 5) {\n                users[msg.sender].creditScore -= 5;\n            } else {\n                users[msg.sender].creditScore = 0;\n            }\n        } else {\n            // user repays on time so their credit score is increased by 2\n            if (users[msg.sender].creditScore <= 98) {\n                users[msg.sender].creditScore += 2;\n            } else {\n                users[msg.sender].creditScore = 100;\n            }\n        }\n\n        // aware dependencies through event\n        emit LoanCreated(\n            loan.id,\n            loan.liquidity,\n            loan.amount,\n            loan.duration,\n            loan.interestRate,\n            loan.createdAt,\n            loan.paidAt,\n            msg.sender,\n            loan.provider\n        );\n\n        // aware dependencies through event\n        emit CreditScoreChanged(msg.sender, users[msg.sender].creditScore);\n    }\n\n    function closeLiquidity(uint id) public onlyUser {\n        int liquidityIndex = getUserLiquidityIndex(msg.sender, id);\n\n        // verifies the liquidty\n        require(liquidityIndex != -1, \"You do not own this liquidity\");\n\n        if (liquidities[msg.sender][uint256(liquidityIndex)].amount > 0) {\n            // send left over tokens to back to the provider's wallet\n            IStableCoin token = IStableCoin(\n                liquidities[msg.sender][uint256(liquidityIndex)].tokenAddress\n            );\n            token.transfer(\n                msg.sender,\n                liquidities[msg.sender][uint256(liquidityIndex)].amount\n            );\n        }\n\n        // remove liquidity\n        delete liquidities[msg.sender][uint256(liquidityIndex)];\n\n        // aware dependencies through event\n        emit ClosedLiquidity(id);\n    }\n\n    function provideLiquidity(\n        uint256 amount,\n        address tokenAddress,\n        uint interestRate,\n        uint256 minTakeOut,\n        uint256 maxTakeOut,\n        uint minDays,\n        uint maxDays,\n        uint minCreditScore\n    ) public onlyUser {\n        // validates params\n        require(amount > 0, \"Amount cannot be zero\");\n        require(\n            minTakeOut <= maxTakeOut,\n            \"Minimum take oit cannot be greater than maximum take out\"\n        );\n        require(\n            maxTakeOut <= amount,\n            \"Maximun take out cannot be greater than amount\"\n        );\n        require(\n            minDays <= maxDays,\n            \"Minimum duration cannot be greater than maximum duration\"\n        );\n        require(minCreditScore <= 100, \"Credit scrore is too high, Max is 100\");\n\n        // create a new liquidity id\n        liquidityID++;\n\n        // creates and registers the liquidity\n        liquidities[msg.sender].push(\n            Models.Liquidity(\n                liquidityID,\n                amount,\n                tokenAddress,\n                interestRate,\n                minTakeOut,\n                maxTakeOut,\n                minDays,\n                maxDays,\n                minCreditScore,\n                block.timestamp\n            )\n        );\n\n        // stake tokens from user wallet to the contract\n        IStableCoin token = IStableCoin(tokenAddress);\n        token.approve(msg.sender, address(this), amount);\n        token.transferFrom(msg.sender, address(this), amount);\n\n        // aware dependencies through event\n        emit ProvidedLiquity(\n            liquidityID,\n            amount,\n            tokenAddress,\n            interestRate,\n            minTakeOut,\n            maxTakeOut,\n            minDays,\n            maxDays,\n            minCreditScore,\n            block.timestamp,\n            msg.sender\n        );\n    }\n\n    function getUserLoanIndex(address user, uint id)\n        private\n        view\n        returns (int)\n    {\n        Models.Loan[] memory loanList = loans[user];\n        int position = -1;\n\n        for (uint index = 0; index < loanList.length; index++) {\n            if (loanList[index].id == id) {\n                position = int(index);\n                break;\n            }\n        }\n\n        return position;\n    }\n\n    function getUserLiquidityIndex(address user, uint id)\n        private\n        view\n        returns (int)\n    {\n        Models.Liquidity[] memory liquidityList = liquidities[user];\n        int position = -1;\n\n        for (uint index = 0; index < liquidityList.length; index++) {\n            if (liquidityList[index].id == id) {\n                position = int(index);\n                break;\n            }\n        }\n\n        return position;\n    }\n\n    function getUserNetworkIndex(address user, address network)\n        private\n        view\n        returns (int)\n    {\n        address[] memory networks = users[user].networks;\n        int position = -1;\n\n        for (uint index = 0; index < networks.length; index++) {\n            if (networks[index] == network) {\n                position = int(index);\n                break;\n            }\n        }\n\n        return position;\n    }\n\n    /* deployer to cashout earnings */\n    function withdrawPlatformFee(uint256 amount) public onlyDeployer {\n        require(contractRevenue >= amount, \"insuficcient tokens\");\n        contractRevenue -= amount;\n        dashToken.transfer(deployer, amount);\n    }\n\n    // ====== interest calculator ====== //\n\n    function calculateSimpleInterest(uint rate, uint duration)\n        private\n        pure\n        returns (uint256)\n    {\n        return SafeMath.mul(rate, duration);\n    }\n\n    // ======= modifiers ======== //\n\n    modifier onlyUser() {\n        /* only registered user */\n        require(users[msg.sender].id != 0, \"Create an account first\");\n        _;\n    }\n\n    modifier onlyDeployer() {\n        /* only account that deployed the contract */\n        require(msg.sender == deployer, \"You are not authorized\");\n        _;\n    }\n\n    // ======== events ========= //\n\n    event UserCreated(\n        string name,\n        string photo,\n        string email,\n        string username,\n        address userAddress,\n        uint creditScore,\n        bool activeLoan,\n        string year,\n        string month,\n        string phone,\n        string homeAddress\n    );\n    event CreditScoreChanged(address user, uint score);\n    event NetworkAdded(address user, address by, bool isAdded);\n    event LoanCreated(\n        uint loanID,\n        uint liquidityID,\n        uint256 amount,\n        uint duration,\n        uint interestRate,\n        uint createdAt,\n        uint paidAt,\n        address userAddress,\n        address provider\n    );\n    event ProvidedLiquity(\n        uint liquidityID,\n        uint256 amount,\n        address tokenAddress,\n        uint interestRate,\n        uint256 minTakeOut,\n        uint256 maxTakeOut,\n        uint minDays,\n        uint maxDays,\n        uint minCreditScore,\n        uint createdAt,\n        address userAddress\n    );\n    event ClosedLiquidity(uint id);\n    event UpdatedLiquidity(uint id, uint256 amount);\n}\n",
  "sourcePath": "C:\\Users\\Arogundade Ibrahim\\Documents\\web3\\dash\\contracts\\Dash.sol",
  "compiler": {
    "name": "solc",
    "version": "0.8.16+commit.07a7930e.Emscripten.clang"
  },
  "schemaVersion": "3.4.10",
  "updatedAt": "2022-11-07T12:20:43.922Z",
  "devdoc": {
    "kind": "dev",
    "methods": {},
    "version": 1
  },
  "userdoc": {
    "kind": "user",
    "methods": {},
    "version": 1
  }
}