{
  "contractName": "Dash",
  "abi": [
    {
      "inputs": [
        {
          "internalType": "address",
          "name": "dashToken_",
          "type": "address"
        }
      ],
      "stateMutability": "nonpayable",
      "type": "constructor"
    },
    {
      "anonymous": false,
      "inputs": [
        {
          "indexed": false,
          "internalType": "uint256",
          "name": "id",
          "type": "uint256"
        }
      ],
      "name": "ClosedLiquidity",
      "type": "event"
    },
    {
      "anonymous": false,
      "inputs": [
        {
          "indexed": false,
          "internalType": "address",
          "name": "user",
          "type": "address"
        },
        {
          "indexed": false,
          "internalType": "uint256",
          "name": "score",
          "type": "uint256"
        }
      ],
      "name": "CreditScoreChanged",
      "type": "event"
    },
    {
      "anonymous": false,
      "inputs": [
        {
          "indexed": false,
          "internalType": "uint256",
          "name": "loanID",
          "type": "uint256"
        },
        {
          "indexed": false,
          "internalType": "uint256",
          "name": "liquidityID",
          "type": "uint256"
        },
        {
          "indexed": false,
          "internalType": "uint256",
          "name": "amount",
          "type": "uint256"
        },
        {
          "indexed": false,
          "internalType": "uint256",
          "name": "duration",
          "type": "uint256"
        },
        {
          "indexed": false,
          "internalType": "uint256",
          "name": "interestRate",
          "type": "uint256"
        },
        {
          "indexed": false,
          "internalType": "uint256",
          "name": "createdAt",
          "type": "uint256"
        },
        {
          "indexed": false,
          "internalType": "uint256",
          "name": "paidAt",
          "type": "uint256"
        },
        {
          "indexed": false,
          "internalType": "address",
          "name": "userAddress",
          "type": "address"
        }
      ],
      "name": "LoanCreated",
      "type": "event"
    },
    {
      "anonymous": false,
      "inputs": [
        {
          "indexed": false,
          "internalType": "address",
          "name": "user",
          "type": "address"
        },
        {
          "indexed": false,
          "internalType": "address",
          "name": "by",
          "type": "address"
        },
        {
          "indexed": false,
          "internalType": "bool",
          "name": "isAdded",
          "type": "bool"
        }
      ],
      "name": "NetworkAdded",
      "type": "event"
    },
    {
      "anonymous": false,
      "inputs": [
        {
          "indexed": false,
          "internalType": "uint256",
          "name": "liquidityID",
          "type": "uint256"
        },
        {
          "indexed": false,
          "internalType": "uint256",
          "name": "amount",
          "type": "uint256"
        },
        {
          "indexed": false,
          "internalType": "address",
          "name": "tokenAddress",
          "type": "address"
        },
        {
          "indexed": false,
          "internalType": "uint256",
          "name": "interestRate",
          "type": "uint256"
        },
        {
          "indexed": false,
          "internalType": "uint256",
          "name": "minTakeOut",
          "type": "uint256"
        },
        {
          "indexed": false,
          "internalType": "uint256",
          "name": "maxTakeOut",
          "type": "uint256"
        },
        {
          "indexed": false,
          "internalType": "uint256",
          "name": "minDays",
          "type": "uint256"
        },
        {
          "indexed": false,
          "internalType": "uint256",
          "name": "maxDays",
          "type": "uint256"
        },
        {
          "indexed": false,
          "internalType": "uint256",
          "name": "minCreditScore",
          "type": "uint256"
        },
        {
          "indexed": false,
          "internalType": "uint256",
          "name": "createdAt",
          "type": "uint256"
        },
        {
          "indexed": false,
          "internalType": "address",
          "name": "userAddress",
          "type": "address"
        }
      ],
      "name": "ProvidedLiquity",
      "type": "event"
    },
    {
      "anonymous": false,
      "inputs": [
        {
          "indexed": false,
          "internalType": "uint256",
          "name": "id",
          "type": "uint256"
        },
        {
          "indexed": false,
          "internalType": "uint256",
          "name": "amount",
          "type": "uint256"
        }
      ],
      "name": "UpdatedLiquidity",
      "type": "event"
    },
    {
      "anonymous": false,
      "inputs": [
        {
          "indexed": false,
          "internalType": "string",
          "name": "name",
          "type": "string"
        },
        {
          "indexed": false,
          "internalType": "string",
          "name": "photo",
          "type": "string"
        },
        {
          "indexed": false,
          "internalType": "string",
          "name": "email",
          "type": "string"
        },
        {
          "indexed": false,
          "internalType": "string",
          "name": "username",
          "type": "string"
        },
        {
          "indexed": false,
          "internalType": "address",
          "name": "userAddress",
          "type": "address"
        },
        {
          "indexed": false,
          "internalType": "uint256",
          "name": "creditScore",
          "type": "uint256"
        },
        {
          "indexed": false,
          "internalType": "bool",
          "name": "activeLoan",
          "type": "bool"
        },
        {
          "indexed": false,
          "internalType": "string",
          "name": "year",
          "type": "string"
        },
        {
          "indexed": false,
          "internalType": "string",
          "name": "month",
          "type": "string"
        },
        {
          "indexed": false,
          "internalType": "string",
          "name": "phone",
          "type": "string"
        },
        {
          "indexed": false,
          "internalType": "string",
          "name": "homeAddress",
          "type": "string"
        }
      ],
      "name": "UserCreated",
      "type": "event"
    },
    {
      "inputs": [
        {
          "internalType": "address",
          "name": "",
          "type": "address"
        },
        {
          "internalType": "uint256",
          "name": "",
          "type": "uint256"
        }
      ],
      "name": "liquidities",
      "outputs": [
        {
          "internalType": "uint256",
          "name": "id",
          "type": "uint256"
        },
        {
          "internalType": "uint256",
          "name": "amount",
          "type": "uint256"
        },
        {
          "internalType": "address",
          "name": "tokenAddress",
          "type": "address"
        },
        {
          "internalType": "uint256",
          "name": "interestRate",
          "type": "uint256"
        },
        {
          "internalType": "uint256",
          "name": "minTakeOut",
          "type": "uint256"
        },
        {
          "internalType": "uint256",
          "name": "maxTakeOut",
          "type": "uint256"
        },
        {
          "internalType": "uint256",
          "name": "minDays",
          "type": "uint256"
        },
        {
          "internalType": "uint256",
          "name": "maxDays",
          "type": "uint256"
        },
        {
          "internalType": "uint256",
          "name": "minCreditScore",
          "type": "uint256"
        },
        {
          "internalType": "uint256",
          "name": "createdAt",
          "type": "uint256"
        }
      ],
      "stateMutability": "view",
      "type": "function"
    },
    {
      "inputs": [
        {
          "internalType": "address",
          "name": "",
          "type": "address"
        },
        {
          "internalType": "uint256",
          "name": "",
          "type": "uint256"
        }
      ],
      "name": "loans",
      "outputs": [
        {
          "internalType": "uint256",
          "name": "id",
          "type": "uint256"
        },
        {
          "internalType": "uint256",
          "name": "liquidity",
          "type": "uint256"
        },
        {
          "internalType": "uint256",
          "name": "amount",
          "type": "uint256"
        },
        {
          "internalType": "address",
          "name": "tokenAddress",
          "type": "address"
        },
        {
          "internalType": "uint256",
          "name": "interestRate",
          "type": "uint256"
        },
        {
          "internalType": "uint256",
          "name": "duration",
          "type": "uint256"
        },
        {
          "internalType": "address",
          "name": "provider",
          "type": "address"
        },
        {
          "internalType": "uint256",
          "name": "createdAt",
          "type": "uint256"
        },
        {
          "internalType": "uint256",
          "name": "paidAt",
          "type": "uint256"
        }
      ],
      "stateMutability": "view",
      "type": "function"
    },
    {
      "inputs": [],
      "name": "platformFee",
      "outputs": [
        {
          "internalType": "uint256",
          "name": "",
          "type": "uint256"
        }
      ],
      "stateMutability": "view",
      "type": "function"
    },
    {
      "inputs": [
        {
          "internalType": "address",
          "name": "",
          "type": "address"
        }
      ],
      "name": "users",
      "outputs": [
        {
          "internalType": "uint256",
          "name": "id",
          "type": "uint256"
        },
        {
          "internalType": "uint256",
          "name": "creditScore",
          "type": "uint256"
        },
        {
          "internalType": "bool",
          "name": "activeLoan",
          "type": "bool"
        },
        {
          "internalType": "uint256",
          "name": "createdAt",
          "type": "uint256"
        }
      ],
      "stateMutability": "view",
      "type": "function"
    },
    {
      "inputs": [
        {
          "internalType": "string",
          "name": "name",
          "type": "string"
        },
        {
          "internalType": "string",
          "name": "photo",
          "type": "string"
        },
        {
          "internalType": "string",
          "name": "email",
          "type": "string"
        },
        {
          "internalType": "string",
          "name": "username",
          "type": "string"
        },
        {
          "internalType": "string",
          "name": "year",
          "type": "string"
        },
        {
          "internalType": "string",
          "name": "month",
          "type": "string"
        },
        {
          "internalType": "string",
          "name": "phone",
          "type": "string"
        },
        {
          "internalType": "string",
          "name": "homeAddress",
          "type": "string"
        }
      ],
      "name": "createUser",
      "outputs": [],
      "stateMutability": "nonpayable",
      "type": "function"
    },
    {
      "inputs": [
        {
          "internalType": "string",
          "name": "name",
          "type": "string"
        },
        {
          "internalType": "string",
          "name": "photo",
          "type": "string"
        },
        {
          "internalType": "string",
          "name": "email",
          "type": "string"
        },
        {
          "internalType": "string",
          "name": "username",
          "type": "string"
        },
        {
          "internalType": "string",
          "name": "year",
          "type": "string"
        },
        {
          "internalType": "string",
          "name": "month",
          "type": "string"
        },
        {
          "internalType": "string",
          "name": "phone",
          "type": "string"
        },
        {
          "internalType": "string",
          "name": "homeAddress",
          "type": "string"
        }
      ],
      "name": "updateUser",
      "outputs": [],
      "stateMutability": "nonpayable",
      "type": "function"
    },
    {
      "inputs": [
        {
          "internalType": "address",
          "name": "user",
          "type": "address"
        }
      ],
      "name": "addNetwork",
      "outputs": [],
      "stateMutability": "nonpayable",
      "type": "function"
    },
    {
      "inputs": [
        {
          "internalType": "address",
          "name": "user",
          "type": "address"
        }
      ],
      "name": "removeNetwork",
      "outputs": [],
      "stateMutability": "nonpayable",
      "type": "function"
    },
    {
      "inputs": [
        {
          "internalType": "uint256",
          "name": "id",
          "type": "uint256"
        },
        {
          "internalType": "uint256",
          "name": "amount",
          "type": "uint256"
        },
        {
          "internalType": "address",
          "name": "provider",
          "type": "address"
        },
        {
          "internalType": "uint256",
          "name": "duration",
          "type": "uint256"
        }
      ],
      "name": "takeLoan",
      "outputs": [],
      "stateMutability": "nonpayable",
      "type": "function"
    },
    {
      "inputs": [
        {
          "internalType": "uint256",
          "name": "id",
          "type": "uint256"
        }
      ],
      "name": "payLoan",
      "outputs": [],
      "stateMutability": "nonpayable",
      "type": "function"
    },
    {
      "inputs": [
        {
          "internalType": "uint256",
          "name": "id",
          "type": "uint256"
        }
      ],
      "name": "closeLiquidity",
      "outputs": [],
      "stateMutability": "nonpayable",
      "type": "function"
    },
    {
      "inputs": [
        {
          "internalType": "uint256",
          "name": "amount",
          "type": "uint256"
        },
        {
          "internalType": "address",
          "name": "tokenAddress",
          "type": "address"
        },
        {
          "internalType": "uint256",
          "name": "interestRate",
          "type": "uint256"
        },
        {
          "internalType": "uint256",
          "name": "minTakeOut",
          "type": "uint256"
        },
        {
          "internalType": "uint256",
          "name": "maxTakeOut",
          "type": "uint256"
        },
        {
          "internalType": "uint256",
          "name": "minDays",
          "type": "uint256"
        },
        {
          "internalType": "uint256",
          "name": "maxDays",
          "type": "uint256"
        },
        {
          "internalType": "uint256",
          "name": "minCreditScore",
          "type": "uint256"
        }
      ],
      "name": "provideLiquidity",
      "outputs": [],
      "stateMutability": "nonpayable",
      "type": "function"
    }
  ],
  "bytecode": "0x60806040526002805560416006553480156200001a57600080fd5b5060405162002701380380620027018339810160408190526200003d9162000071565b60008054336001600160a01b031991821617909155600780549091166001600160a01b0392909216919091179055620000a3565b6000602082840312156200008457600080fd5b81516001600160a01b03811681146200009c57600080fd5b9392505050565b61264e80620000b36000396000f3fe608060405234801561001057600080fd5b50600436106100d45760003560e01c8063a8d7b3ec11610081578063d7d91fe41161005b578063d7d91fe414610282578063eb3b299b14610295578063f35456ed146102a857600080fd5b8063a8d7b3ec146101f1578063d52559d014610204578063d567e4a41461026f57600080fd5b80634a184a87116100b25780634a184a871461011d57806398c61c3714610130578063a87430ba1461019057600080fd5b806326232a2e146100d9578063329aa414146100f5578063333803591461010a575b600080fd5b6100e260025481565b6040519081526020015b60405180910390f35b610108610103366004612132565b6102bb565b005b610108610118366004612167565b610566565b61010861012b366004612247565b610ca1565b61014361013e366004612387565b610e58565b60408051998a5260208a0198909852968801959095526001600160a01b039384166060880152608087019290925260a08601521660c084015260e0830152610100820152610120016100ec565b6101cb61019e3660046123b1565b60086020526000908152604090208054600182015460028301546003909301549192909160ff9091169084565b6040805194855260208501939093529015159183019190915260608201526080016100ec565b6101086101ff366004612132565b610ecd565b610217610212366004612387565b6116dd565b604080519a8b5260208b01999099526001600160a01b03909716978901979097526060880194909452608087019290925260a086015260c085015260e0840152610100830191909152610120820152610140016100ec565b61010861027d3660046123b1565b611757565b610108610290366004612247565b6117ff565b6101086102a33660046123b1565b6118bf565b6101086102b63660046123cc565b61196b565b60006102c73383611d6a565b9050801961031c5760405162461bcd60e51b815260206004820152601b60248201527f21796f755f646f5f6f776e5f74686573655f6c6971756964697479000000000060448201526064015b60405180910390fd5b33600090815260096020526040812080548390811061033d5761033d61242c565b90600052602060002090600a0201600101541161039c5760405162461bcd60e51b815260206004820152601260248201527f696e73756666696369656e745f66756e647300000000000000000000000000006044820152606401610313565b3360009081526009602052604081208054839081106103bd576103bd61242c565b600091825260208083206002600a909302019190910154338084526009909252604090922080546001600160a01b039093169350839263a9059cbb9291908690811061040b5761040b61242c565b600091825260209091206001600a9092020101546040517fffffffff0000000000000000000000000000000000000000000000000000000060e085901b1681526001600160a01b03909216600483015260248201526044016020604051808303816000875af1158015610482573d6000803e3d6000fd5b505050506040513d601f19601f820116820180604052508101906104a69190612442565b506040518381527f20c48a95a2e7a5844e4f456e8d83a72af0caceb90b567ae55d0b13c7942fa7989060200160405180910390a13360009081526009602052604090208054839081106104fb576104fb61242c565b600091825260208220600a909102018181556001810182905560028101805473ffffffffffffffffffffffffffffffffffffffff1916905560038101829055600481018290556005810182905560068101829055600781018290556008810182905560090155505050565b600083116105b65760405162461bcd60e51b815260206004820152601460248201527f2163616e5f74616b655f7a65726f5f746f6b656e0000000000000000000000006044820152606401610313565b60006105c28386611d6a565b905080196106125760405162461bcd60e51b815260206004820152601160248201527f216c69717569646974795f6578697374730000000000000000000000000000006044820152606401610313565b6001600160a01b038316600090815260096020526040812080548390811061063c5761063c61242c565b600091825260208083206040805161014081018252600a9094029091018054845260018101549284019290925260028201546001600160a01b0316908301526003810154606083015260048101546080830152600581015460a0830152600681015460c0830152600781015460e083015260088101546101008301526009015461012082015291506106ce8533611e9b565b9050801961071e5760405162461bcd60e51b815260206004820152600c60248201527f21756e6174686f72697a656400000000000000000000000000000000000000006044820152606401610313565b3360009081526008602052604090206002015460ff16156107815760405162461bcd60e51b815260206004820152601160248201527f616c72656164795f6f6e5f615f6c6f616e0000000000000000000000000000006044820152606401610313565b85826020015110156107d55760405162461bcd60e51b815260206004820152601160248201527f696e73756669636369656e745f706f6f6c0000000000000000000000000000006044820152606401610313565b858260a0015110156108295760405162461bcd60e51b815260206004820152600860248201527f746f6f5f6d7563680000000000000000000000000000000000000000000000006044820152606401610313565b858260800151111561087d5760405162461bcd60e51b815260206004820152600a60248201527f746f6f5f6c6974746c65000000000000000000000000000000000000000000006044820152606401610313565b838260e0015110156108d15760405162461bcd60e51b815260206004820152600860248201527f746f6f5f6c6f6e670000000000000000000000000000000000000000000000006044820152606401610313565b838260c0015111156109255760405162461bcd60e51b815260206004820152600960248201527f746f6f5f73686f727400000000000000000000000000000000000000000000006044820152606401610313565b33600090815260086020526040902060010154610100830151111561098c5760405162461bcd60e51b815260206004820152601460248201527f746f6f5f6c6f775f6372656469745f73636f72650000000000000000000000006044820152606401610313565b6001600160a01b03851660009081526009602052604090208054879190859081106109b9576109b961242c565b90600052602060002090600a020160010160008282546109d9919061247a565b9091555050336000908152600860205260408120600201805460ff191660011790556005805491610a098361248d565b90915550506040805161012081018252600580548252845160208084019182528385018b8152878601516001600160a01b0390811660608088019182528a01516080880190815260a088018d81528e841660c08a019081524260e08b0190815260006101008c0181815233808352600a8b528e83208054600180820183559185529b9093208e516009909c02019a8b559a51918a019190915596516002890155935160038801805473ffffffffffffffffffffffffffffffffffffffff1990811683891690811790925594516004808b019190915593519a89019a909a55905160068801805490941695169490941790915590516007850155915160089093019290925594517fa9059cbb00000000000000000000000000000000000000000000000000000000815294850191909152602484018a9052919263a9059cbb906044016020604051808303816000875af1158015610b6a573d6000803e3d6000fd5b505050506040513d601f19601f82011682018060405250810190610b8e9190612442565b50815160208084015160408086015160a0808801516080808a015160e0808c0151610100808e015189519c8d529a8c0199909952968a0195909552606089019290925287015285019190915260c084019290925233918301919091527f07f61a11ff011c0b992bf9621a45bbd40079064974d6bc645831141e11cf05d6910160405180910390a183516001600160a01b038816600090815260096020526040902080547fa78d1e81434a3d3c4b90a82e0df68035fc59d26e2185a51f8a66143c94c4814a92919088908110610c6557610c6561242c565b90600052602060002090600a020160010154604051610c8e929190918252602082015260400190565b60405180910390a1505050505050505050565b3360009081526008602052604090205415610cfe5760405162461bcd60e51b815260206004820152601b60248201527f21616c72656164795f637265617465645f616e5f6163636f756e7400000000006044820152606401610313565b60038054906000610d0e8361248d565b90915550506040805160a08101825260035481526006546020808301919091526000828401819052426060840152338152600882528390206004018054845181840281018401909552808552929360808501939092830182828015610d9c57602002820191906000526020600020905b81546001600160a01b03168152600190910190602001808311610d7e575b50505091909252505033600090815260086020908152604091829020835181558382015160018201559183015160028301805460ff19169115159190911790556060830151600383015560808301518051610dfd92600485019201906120ab565b50506006546040517f676f4149b3c169700ae4fc11a98f7fa314e26c66113436c7d5f7688e340cd0549250610e46918b918b918b918b9133916000908d908d908d908d906124ec565b60405180910390a15050505050505050565b600a6020528160005260406000208181548110610e7457600080fd5b600091825260209091206009909102018054600182015460028301546003840154600485015460058601546006870154600788015460089098015496995094975092956001600160a01b03928316959194909216919089565b6000610ed93383611f6b565b90508019610f295760405162461bcd60e51b815260206004820152600c60248201527f216c6f616e5f65786973747300000000000000000000000000000000000000006044820152606401610313565b336000908152600a60205260408120805483908110610f4a57610f4a61242c565b6000918252602091829020604080516101208101825260099093029091018054835260018101549383019390935260028301549082015260038201546001600160a01b03908116606083015260048301546080830152600583015460a083015260068301541660c0820152600782015460e082015260089091015461010082018190529091501561101d5760405162461bcd60e51b815260206004820152601160248201527f6c6f616e5f616c72656164795f706169640000000000000000000000000000006044820152606401610313565b60008160e001514261102f919061247a565b9050600061103c82612089565b9050600061104e846080015183612098565b60075460405163e1f21c6760e01b8152336004820152306024820152604481018390529192506001600160a01b03169063e1f21c6790606401600060405180830381600087803b1580156110a157600080fd5b505af11580156110b5573d6000803e3d6000fd5b50506007546040516323b872dd60e01b8152336004820152306024820152604481018590526001600160a01b0390911692506323b872dd91506064016020604051808303816000875af1158015611110573d6000803e3d6000fd5b505050506040513d601f19601f820116820180604052508101906111349190612442565b506000606460025461114691906125c4565b61115090836125e6565b60075460c08701519192506001600160a01b03169063a9059cbb90611175848661247a565b6040517fffffffff0000000000000000000000000000000000000000000000000000000060e085901b1681526001600160a01b03909216600483015260248201526044016020604051808303816000875af11580156111d8573d6000803e3d6000fd5b505050506040513d601f19601f820116820180604052508101906111fc9190612442565b50806001600082825461120f9190612605565b92505081905550600061122a8660c001518760200151611d6a565b90508060001914611416576060860151604080880151905163e1f21c6760e01b815233600482015230602482015260448101919091526001600160a01b0382169063e1f21c6790606401600060405180830381600087803b15801561128e57600080fd5b505af11580156112a2573d6000803e3d6000fd5b5050505060408781015190516323b872dd60e01b815233600482015230602482015260448101919091526001600160a01b038216906323b872dd906064016020604051808303816000875af11580156112ff573d6000803e3d6000fd5b505050506040513d601f19601f820116820180604052508101906113239190612442565b5060408088015160c08901516001600160a01b031660009081526009602052919091208054849081106113585761135861242c565b90600052602060002090600a020160010160008282546113789190612605565b925050819055507fa78d1e81434a3d3c4b90a82e0df68035fc59d26e2185a51f8a66143c94c4814a8760200151600960008a60c001516001600160a01b03166001600160a01b0316815260200190815260200160002084815481106113df576113df61242c565b90600052602060002090600a020160010154604051611408929190918252602082015260400190565b60405180910390a150611517565b606086015160c0870151604080890151905163e1f21c6760e01b81523360048201526001600160a01b03928316602482015260448101919091529082169063e1f21c6790606401600060405180830381600087803b15801561147757600080fd5b505af115801561148b573d6000803e3d6000fd5b5050505060c087015160408089015190516323b872dd60e01b81523360048201526001600160a01b0392831660248201526044810191909152908216906323b872dd906064016020604051808303816000875af11580156114f0573d6000803e3d6000fd5b505050506040513d601f19601f820116820180604052508101906115149190612442565b50505b42610100870152336000908152600860205260409020600201805460ff1916905560a08601518411156115a4573360009081526008602052604090206001015460051161158c5733600090815260086020526040812060010180546005929061158190849061247a565b909155506115f99050565b336000908152600860205260408120600101556115f9565b33600090815260086020526040902060010154605f106115e157336000908152600860205260408120600101805460059290611581908490612605565b33600090815260086020526040902060646001909101555b7f07f61a11ff011c0b992bf9621a45bbd40079064974d6bc645831141e11cf05d68660000151876020015188604001518960a001518a608001518b60e001518c61010001513360405161168d989796959493929190978852602088019690965260408701949094526060860192909252608085015260a084015260c08301526001600160a01b031660e08201526101000190565b60405180910390a133600081815260086020908152604091829020600101548251938452908301527f05933d00429c2f5bf744590ae0bbc26dd4e984be9acbb9197eec5f7127e6da649101610e46565b600960205281600052604060002081815481106116f957600080fd5b60009182526020909120600a90910201805460018201546002830154600384015460048501546005860154600687015460078801546008890154600990990154979a509598506001600160a01b03909416969295919490939290918a565b60006117633383611e9b565b905080196117fb5733600081815260086020908152604080832060040180546001808201835591855293839020909301805473ffffffffffffffffffffffffffffffffffffffff19166001600160a01b038816908117909155815190815291820193909352918201527fef159a3fe67039f76f5f69589747e2f0132e5e79bc6a1ee9b3f47bfad176d005906060015b60405180910390a15b5050565b33600090815260086020526040812054900361185d5760405162461bcd60e51b815260206004820152600a60248201527f6e6f5f6163636f756e74000000000000000000000000000000000000000000006044820152606401610313565b3360008181526008602052604090819020600181015460029091015491517f676f4149b3c169700ae4fc11a98f7fa314e26c66113436c7d5f7688e340cd05493610e46938d938d938d938d9390929160ff909116908d908d908d908d906124ec565b60006118cb3383611e9b565b905080600019146117fb573360009081526008602052604090206004018054829081106118fa576118fa61242c565b6000918252602080832091909101805473ffffffffffffffffffffffffffffffffffffffff19169055604080516001600160a01b038616815233928101929092528101919091527fef159a3fe67039f76f5f69589747e2f0132e5e79bc6a1ee9b3f47bfad176d005906060016117f2565b8385106119ba5760405162461bcd60e51b815260206004820152601760248201527f696e76616c69645f74616b655f6f75745f76616c7565730000000000000000006044820152606401610313565b818310611a095760405162461bcd60e51b815260206004820152601360248201527f696e76616c69645f646179735f76616c756573000000000000000000000000006044820152606401610313565b6064811115611a5a5760405162461bcd60e51b815260206004820152601a60248201527f696e76616c69645f6372656469745f73636f72655f76616c75650000000000006044820152606401610313565b60008811611aaa5760405162461bcd60e51b815260206004820152601460248201527f696e76616c69645f616d6f756e745f76616c75650000000000000000000000006044820152606401610313565b60048054906000611aba8361248d565b919050555060096000336001600160a01b03166001600160a01b0316815260200190815260200160002060405180610140016040528060045481526020018a8152602001896001600160a01b031681526020018881526020018781526020018681526020018581526020018481526020018381526020014281525090806001815401808255809150506001900390600052602060002090600a0201600090919091909150600082015181600001556020820151816001015560408201518160020160006101000a8154816001600160a01b0302191690836001600160a01b03160217905550606082015181600301556080820151816004015560a0820151816005015560c0820151816006015560e082015181600701556101008201518160080155610120820151816009015550506000879050806001600160a01b031663e1f21c6733308c6040518463ffffffff1660e01b8152600401611c3d939291906001600160a01b039384168152919092166020820152604081019190915260600190565b600060405180830381600087803b158015611c5757600080fd5b505af1158015611c6b573d6000803e3d6000fd5b50506040516323b872dd60e01b8152336004820152306024820152604481018c90526001600160a01b03841692506323b872dd91506064016020604051808303816000875af1158015611cc2573d6000803e3d6000fd5b505050506040513d601f19601f82011682018060405250810190611ce69190612442565b5060045460408051918252602082018b90526001600160a01b038a1690820152606081018890526080810187905260a0810186905260c0810185905260e08101849052610100810183905242610120820152336101408201527f9c73435d730d29a508b2720903ba238df287009379a89db682694cc036aed5b79061016001610c8e565b6001600160a01b038216600090815260096020908152604080832080548251818502810185019093528083528493849084015b82821015611e395760008481526020908190206040805161014081018252600a8602909201805483526001808201548486015260028201546001600160a01b0316928401929092526003810154606084015260048101546080840152600581015460a0840152600681015460c0840152600781015460e08401526008810154610100840152600901546101208301529083529092019101611d9d565b5050505090506000600019905060005b8251811015611e905784838281518110611e6557611e6561242c565b60200260200101516000015103611e7e57809150611e90565b80611e888161248d565b915050611e49565b509150505b92915050565b6001600160a01b038216600090815260086020908152604080832060040180548251818502810185019093528083528493830182828015611f0557602002820191906000526020600020905b81546001600160a01b03168152600190910190602001808311611ee7575b505050505090506000600019905060005b8251811015611e9057846001600160a01b0316838281518110611f3b57611f3b61242c565b60200260200101516001600160a01b031603611f5957809150611e90565b80611f638161248d565b915050611f16565b6001600160a01b0382166000908152600a6020908152604080832080548251818502810185019093528083528493849084015b82821015612032576000848152602090819020604080516101208101825260098602909201805483526001808201548486015260028201549284019290925260038101546001600160a01b03908116606085015260048201546080850152600582015460a085015260068201541660c0840152600781015460e0840152600801546101008301529083529092019101611f9e565b5050505090506000600019905060005b8251811015611e90578483828151811061205e5761205e61242c565b6020026020010151600001510361207757809150611e90565b806120818161248d565b915050612042565b6000611e9562015180836125c4565b60006120a482846125e6565b9392505050565b82805482825590600052602060002090810192821561210d579160200282015b8281111561210d578251825473ffffffffffffffffffffffffffffffffffffffff19166001600160a01b039091161782556020909201916001909101906120cb565b5061211992915061211d565b5090565b5b80821115612119576000815560010161211e565b60006020828403121561214457600080fd5b5035919050565b80356001600160a01b038116811461216257600080fd5b919050565b6000806000806080858703121561217d57600080fd5b84359350602085013592506121946040860161214b565b9396929550929360600135925050565b634e487b7160e01b600052604160045260246000fd5b600082601f8301126121cb57600080fd5b813567ffffffffffffffff808211156121e6576121e66121a4565b604051601f8301601f19908116603f0116810190828211818310171561220e5761220e6121a4565b8160405283815286602085880101111561222757600080fd5b836020870160208301376000602085830101528094505050505092915050565b600080600080600080600080610100898b03121561226457600080fd5b883567ffffffffffffffff8082111561227c57600080fd5b6122888c838d016121ba565b995060208b013591508082111561229e57600080fd5b6122aa8c838d016121ba565b985060408b01359150808211156122c057600080fd5b6122cc8c838d016121ba565b975060608b01359150808211156122e257600080fd5b6122ee8c838d016121ba565b965060808b013591508082111561230457600080fd5b6123108c838d016121ba565b955060a08b013591508082111561232657600080fd5b6123328c838d016121ba565b945060c08b013591508082111561234857600080fd5b6123548c838d016121ba565b935060e08b013591508082111561236a57600080fd5b506123778b828c016121ba565b9150509295985092959890939650565b6000806040838503121561239a57600080fd5b6123a38361214b565b946020939093013593505050565b6000602082840312156123c357600080fd5b6120a48261214b565b600080600080600080600080610100898b0312156123e957600080fd5b883597506123f960208a0161214b565b979a9799505050506040860135956060810135956080820135955060a0820135945060c0820135935060e0909101359150565b634e487b7160e01b600052603260045260246000fd5b60006020828403121561245457600080fd5b815180151581146120a457600080fd5b634e487b7160e01b600052601160045260246000fd5b81810381811115611e9557611e95612464565b60006001820161249f5761249f612464565b5060010190565b6000815180845260005b818110156124cc576020818501810151868301820152016124b0565b506000602082860101526020601f19601f83011685010191505092915050565b60006101608083526125008184018f6124a6565b90508281036020840152612514818e6124a6565b90508281036040840152612528818d6124a6565b9050828103606084015261253c818c6124a6565b6001600160a01b038b16608085015290508860a084015261256160c084018915159052565b82810360e084015261257381886124a6565b905082810361010084015261258881876124a6565b905082810361012084015261259d81866124a6565b90508281036101408401526125b281856124a6565b9e9d5050505050505050505050505050565b6000826125e157634e487b7160e01b600052601260045260246000fd5b500490565b600081600019048311821515161561260057612600612464565b500290565b80820180821115611e9557611e9561246456fea26469706673582212204ef5d34d89a2acfe662f99b62ea3e709e06ce01bf27dcf794ead94381d12703664736f6c63430008100033",
  "immutableReferences": {},
  "source": "// SPDX-License-Identifier: GPL-3.0\npragma solidity >=0.7.0 <0.9.0;\n\nimport {IStableCoin} from \"./stablecoins/IStableCoin.sol\";\nimport {DashToken} from \"./DashToken.sol\";\nimport {Models} from \"./Models.sol\";\n\ncontract Dash {\n    address private deployer;\n    uint private contractRevenue;\n    uint public platformFee = 2; // 2% fee\n\n    uint private userID;\n    uint private liquidityID;\n    uint private loanID;\n\n    uint defaultCreditScore = 65;\n\n    DashToken private dashToken;\n\n    mapping(address => Models.User) public users;\n    mapping(address => Models.Liquidity[]) public liquidities;\n    mapping(address => Models.Loan[]) public loans;\n\n    constructor(address dashToken_) {\n        deployer = msg.sender;\n        dashToken = DashToken(dashToken_);\n    }\n\n    function createUser(\n        string memory name,\n        string memory photo,\n        string memory email,\n        string memory username,\n        string memory year,\n        string memory month,\n        string memory phone,\n        string memory homeAddress\n    ) public {\n        require(users[msg.sender].id == 0, \"!already_created_an_account\");\n\n        userID++;\n        users[msg.sender] = Models.User(\n            userID,\n            defaultCreditScore,\n            false,\n            block.timestamp,\n            users[msg.sender].networks\n        );\n\n        emit UserCreated(\n            name,\n            photo,\n            email,\n            username,\n            msg.sender,\n            defaultCreditScore,\n            false,\n            year,\n            month,\n            phone,\n            homeAddress\n        );\n    }\n\n    function updateUser(\n        string memory name,\n        string memory photo,\n        string memory email,\n        string memory username,\n        string memory year,\n        string memory month,\n        string memory phone,\n        string memory homeAddress\n    ) public {\n        // verifies account exists\n        require(users[msg.sender].id != 0, \"no_account\");\n\n        // aware dependencies through event\n        emit UserCreated(\n            name,\n            photo,\n            email,\n            username,\n            msg.sender,\n            users[msg.sender].creditScore,\n            users[msg.sender].activeLoan,\n            year,\n            month,\n            phone,\n            homeAddress\n        );\n    }\n\n    function addNetwork(address user) public {\n        int userIndex = getUserNetworkIndex(msg.sender, user);\n        if (userIndex == -1) {\n            users[msg.sender].networks.push(user);\n            emit NetworkAdded(user, msg.sender, true);\n        }\n    }\n\n    function removeNetwork(address user) public {\n        int userIndex = getUserNetworkIndex(msg.sender, user);\n        if (userIndex != -1) {\n            delete users[msg.sender].networks[uint(userIndex)];\n            emit NetworkAdded(user, msg.sender, false);\n        }\n    }\n\n    function takeLoan(\n        uint id,\n        uint256 amount,\n        address provider,\n        uint duration\n    ) public {\n        require(amount > 0, \"!can_take_zero_token\");\n\n        int liquidityIndex = getUserLiquidityIndex(provider, id);\n        require(liquidityIndex != -1, \"!liquidity_exists\");\n\n        Models.Liquidity memory liquidity = liquidities[provider][\n            uint(liquidityIndex)\n        ];\n        int userNetworkIndex = getUserNetworkIndex(provider, msg.sender);\n\n        // verifies the user is on provider contact list\n        require(userNetworkIndex != -1, \"!unathorized\");\n\n        // verifies user is not a loan before\n        require(!users[msg.sender].activeLoan, \"already_on_a_loan\");\n\n        // validate inputs with liquidity properties\n        require(liquidity.amount >= amount, \"insuficcient_pool\");\n        require(liquidity.maxTakeOut >= amount, \"too_much\");\n        require(liquidity.minTakeOut <= amount, \"too_little\");\n        require(liquidity.maxDays >= duration, \"too_long\");\n        require(liquidity.minDays <= duration, \"too_short\");\n        require(\n            liquidity.minCreditScore <= users[msg.sender].creditScore,\n            \"too_low_credit_score\"\n        );\n\n        // decrease the liquidity pool size\n        liquidities[provider][uint(liquidityIndex)].amount -= amount;\n\n        // user is now on a loan\n        users[msg.sender].activeLoan = true;\n\n        // create a new loan id\n        loanID++;\n\n        // create a new loan\n        Models.Loan memory loan = Models.Loan(\n            loanID,\n            liquidity.id,\n            amount,\n            liquidity.tokenAddress,\n            liquidity.interestRate,\n            duration,\n            provider,\n            block.timestamp,\n            0 // unpaid\n        );\n\n        // register the new loan\n        loans[msg.sender].push(loan);\n\n        // give out the loan\n        // send tokens to user wallet\n        IStableCoin token = IStableCoin(loan.tokenAddress);\n        token.transfer(msg.sender, amount);\n\n        // aware dependencies through event\n        emit LoanCreated(\n            loan.id,\n            loan.liquidity,\n            loan.amount,\n            loan.duration,\n            loan.interestRate,\n            loan.createdAt,\n            loan.paidAt,\n            msg.sender\n        );\n\n        // aware dependencies through event\n        emit UpdatedLiquidity(\n            liquidity.id,\n            liquidities[provider][uint(liquidityIndex)].amount\n        );\n    }\n\n    function payLoan(uint id) public {\n        int userLoanIndex = getUserLoanIndex(msg.sender, id);\n        require(userLoanIndex != -1, \"!loan_exists\");\n\n        Models.Loan memory loan = loans[msg.sender][uint(userLoanIndex)];\n        require(loan.paidAt == 0, \"loan_already_paid\");\n\n        // pay interest\n        uint secondsDiff = block.timestamp - loan.createdAt;\n        uint daysElapsed = daysCount(secondsDiff);\n\n        // calculate interest\n        uint256 interest = calculateSimpleInterest(\n            loan.interestRate,\n            daysElapsed\n        );\n\n        // pay interest charges to smart contract in DASH tokens\n        dashToken.approve(msg.sender, address(this), interest);\n        dashToken.transferFrom(msg.sender, address(this), interest);\n\n        // charge platform fee\n        uint fee = (interest * (platformFee / 100));\n\n        // pay interest profit to liquidity provider in DASH tokens\n        dashToken.transfer(loan.provider, (interest - fee));\n\n        // update platform profit\n        contractRevenue += fee;\n\n        // if liquidity still exists, add the funds back to the liquidty\n        int liquidityIndex = getUserLiquidityIndex(\n            loan.provider,\n            loan.liquidity\n        );\n\n        if (liquidityIndex != -1) {\n            // liquidity exists\n            // pay loan to back smart contract\n            IStableCoin token = IStableCoin(loan.tokenAddress);\n            token.approve(msg.sender, address(this), loan.amount);\n            token.transferFrom(msg.sender, address(this), loan.amount);\n\n            // increase liquidity pool back\n            liquidities[loan.provider][uint(liquidityIndex)].amount += loan\n                .amount;\n\n            // let dependecies knows pool has _changed_\n            emit UpdatedLiquidity(\n                loan.liquidity,\n                liquidities[loan.provider][uint(liquidityIndex)].amount\n            );\n        } else {\n            // else send the funds directly to the liquidity creator wallet\n            IStableCoin token = IStableCoin(loan.tokenAddress);\n            token.approve(msg.sender, loan.provider, loan.amount);\n            token.transferFrom(msg.sender, loan.provider, loan.amount);\n        }\n\n        // mark loan as paid\n        loan.paidAt = block.timestamp;\n\n        // user is not on a loan anymore\n        users[msg.sender].activeLoan = false;\n\n        // credit score mechanism\n        if (daysElapsed > loan.duration) {\n            if (users[msg.sender].creditScore >= 5) {\n                users[msg.sender].creditScore -= 5;\n            } else {\n                users[msg.sender].creditScore = 0;\n            }\n        } else {\n            if (users[msg.sender].creditScore <= 95) {\n                users[msg.sender].creditScore += 5;\n            } else {\n                users[msg.sender].creditScore = 100;\n            }\n        }\n\n        // aware dependencies through event\n        emit LoanCreated(\n            loan.id,\n            loan.liquidity,\n            loan.amount,\n            loan.duration,\n            loan.interestRate,\n            loan.createdAt,\n            loan.paidAt,\n            msg.sender\n        );\n\n        // aware dependencies through event\n        emit CreditScoreChanged(msg.sender, users[msg.sender].creditScore);\n    }\n\n    function closeLiquidity(uint id) public {\n        int liquidityIndex = getUserLiquidityIndex(msg.sender, id);\n\n        // verifies the liquidty\n        require(liquidityIndex != -1, \"!you_do_own_these_liquidity\");\n\n        require(\n            liquidities[msg.sender][uint256(liquidityIndex)].amount > 0,\n            \"insufficient_funds\"\n        );\n\n        // send tokens to user wallet\n        IStableCoin token = IStableCoin(\n            liquidities[msg.sender][uint256(liquidityIndex)].tokenAddress\n        );\n        token.transfer(\n            msg.sender,\n            liquidities[msg.sender][uint256(liquidityIndex)].amount\n        );\n\n        // aware dependencies through event\n        emit ClosedLiquidity(id);\n\n        // remove liquidity\n        delete liquidities[msg.sender][uint256(liquidityIndex)];\n    }\n\n    function provideLiquidity(\n        uint256 amount,\n        address tokenAddress,\n        uint interestRate,\n        uint256 minTakeOut,\n        uint256 maxTakeOut,\n        uint minDays,\n        uint maxDays,\n        uint minCreditScore\n    ) public {\n        // validates params\n        require(minTakeOut < maxTakeOut, \"invalid_take_out_values\");\n        require(minDays < maxDays, \"invalid_days_values\");\n        require(minCreditScore <= 100, \"invalid_credit_score_value\");\n        require(amount > 0, \"invalid_amount_value\");\n\n        // create a new liquidity id\n        liquidityID++;\n\n        // creates and registers the liquidity\n        liquidities[msg.sender].push(\n            Models.Liquidity(\n                liquidityID,\n                amount,\n                tokenAddress,\n                interestRate,\n                minTakeOut,\n                maxTakeOut,\n                minDays,\n                maxDays,\n                minCreditScore,\n                block.timestamp\n            )\n        );\n\n        // stake tokens from user wallet to the contract\n        IStableCoin token = IStableCoin(tokenAddress);\n        token.approve(msg.sender, address(this), amount);\n        token.transferFrom(msg.sender, address(this), amount);\n\n        // aware dependencies through event\n        emit ProvidedLiquity(\n            liquidityID,\n            amount,\n            tokenAddress,\n            interestRate,\n            minTakeOut,\n            maxTakeOut,\n            minDays,\n            maxDays,\n            minCreditScore,\n            block.timestamp,\n            msg.sender\n        );\n    }\n\n    function getUserLoanIndex(address user, uint id)\n        private\n        view\n        returns (int)\n    {\n        Models.Loan[] memory loanList = loans[user];\n        int position = -1;\n\n        for (uint index = 0; index < loanList.length; index++) {\n            if (loanList[index].id == id) {\n                position = int(index);\n                break;\n            }\n        }\n\n        return position;\n    }\n\n    function getUserLiquidityIndex(address user, uint id)\n        private\n        view\n        returns (int)\n    {\n        Models.Liquidity[] memory liquidityList = liquidities[user];\n        int position = -1;\n\n        for (uint index = 0; index < liquidityList.length; index++) {\n            if (liquidityList[index].id == id) {\n                position = int(index);\n                break;\n            }\n        }\n\n        return position;\n    }\n\n    function getUserNetworkIndex(address user, address network)\n        private\n        view\n        returns (int)\n    {\n        address[] memory networks = users[user].networks;\n        int position = -1;\n\n        for (uint index = 0; index < networks.length; index++) {\n            if (networks[index] == network) {\n                position = int(index);\n                break;\n            }\n        }\n\n        return position;\n    }\n\n    function daysCount(uint _seconds) private pure returns (uint) {\n        return (_seconds / (60 * 60 * 24));\n    }\n\n    // ====== interest calculator ====== //\n\n    function calculateSimpleInterest(uint rate, uint duration)\n        private\n        pure\n        returns (uint256)\n    {\n        // amount = capital(1 + (rate * duration))\n        return (rate * duration);\n    }\n\n    // ======== events ========= //\n\n    event UserCreated(\n        string name,\n        string photo,\n        string email,\n        string username,\n        address userAddress,\n        uint creditScore,\n        bool activeLoan,\n        string year,\n        string month,\n        string phone,\n        string homeAddress\n    );\n    event CreditScoreChanged(address user, uint score);\n    event NetworkAdded(address user, address by, bool isAdded);\n    event LoanCreated(\n        uint loanID,\n        uint liquidityID,\n        uint256 amount,\n        uint duration,\n        uint interestRate,\n        uint createdAt,\n        uint paidAt,\n        address userAddress\n    );\n    event ProvidedLiquity(\n        uint liquidityID,\n        uint256 amount,\n        address tokenAddress,\n        uint interestRate,\n        uint256 minTakeOut,\n        uint256 maxTakeOut,\n        uint minDays,\n        uint maxDays,\n        uint minCreditScore,\n        uint createdAt,\n        address userAddress\n    );\n    event ClosedLiquidity(uint id);\n    event UpdatedLiquidity(uint id, uint256 amount);\n}\n",
  "sourcePath": "C:\\Users\\Arogundade Ibrahim\\Documents\\web3\\dash\\contracts\\Dash.sol",
  "compiler": {
    "name": "solc",
    "version": "0.8.16+commit.07a7930e.Emscripten.clang"
  },
  "schemaVersion": "3.4.10",
  "updatedAt": "2022-11-07T08:39:03.218Z",
  "devdoc": {
    "kind": "dev",
    "methods": {},
    "version": 1
  },
  "userdoc": {
    "kind": "user",
    "methods": {},
    "version": 1
  }
}