{
  "contractName": "Dash",
  "abi": [
    {
      "inputs": [
        {
          "internalType": "address",
          "name": "dashToken_",
          "type": "address"
        }
      ],
      "stateMutability": "nonpayable",
      "type": "constructor"
    },
    {
      "anonymous": false,
      "inputs": [
        {
          "indexed": false,
          "internalType": "uint256",
          "name": "id",
          "type": "uint256"
        }
      ],
      "name": "ClosedLiquidity",
      "type": "event"
    },
    {
      "anonymous": false,
      "inputs": [
        {
          "indexed": false,
          "internalType": "address",
          "name": "user",
          "type": "address"
        },
        {
          "indexed": false,
          "internalType": "uint256",
          "name": "score",
          "type": "uint256"
        }
      ],
      "name": "CreditScoreChanged",
      "type": "event"
    },
    {
      "anonymous": false,
      "inputs": [
        {
          "indexed": false,
          "internalType": "uint256",
          "name": "loanID",
          "type": "uint256"
        },
        {
          "indexed": false,
          "internalType": "uint256",
          "name": "liquidityID",
          "type": "uint256"
        },
        {
          "indexed": false,
          "internalType": "uint256",
          "name": "amount",
          "type": "uint256"
        },
        {
          "indexed": false,
          "internalType": "uint256",
          "name": "duration",
          "type": "uint256"
        },
        {
          "indexed": false,
          "internalType": "uint256",
          "name": "interestRate",
          "type": "uint256"
        },
        {
          "indexed": false,
          "internalType": "uint256",
          "name": "createdAt",
          "type": "uint256"
        },
        {
          "indexed": false,
          "internalType": "uint256",
          "name": "paidAt",
          "type": "uint256"
        },
        {
          "indexed": false,
          "internalType": "address",
          "name": "userAddress",
          "type": "address"
        }
      ],
      "name": "LoanCreated",
      "type": "event"
    },
    {
      "anonymous": false,
      "inputs": [
        {
          "indexed": false,
          "internalType": "address",
          "name": "user",
          "type": "address"
        },
        {
          "indexed": false,
          "internalType": "address",
          "name": "by",
          "type": "address"
        },
        {
          "indexed": false,
          "internalType": "bool",
          "name": "isAdded",
          "type": "bool"
        }
      ],
      "name": "NetworkAdded",
      "type": "event"
    },
    {
      "anonymous": false,
      "inputs": [
        {
          "indexed": false,
          "internalType": "uint256",
          "name": "liquidityID",
          "type": "uint256"
        },
        {
          "indexed": false,
          "internalType": "uint256",
          "name": "amount",
          "type": "uint256"
        },
        {
          "indexed": false,
          "internalType": "address",
          "name": "tokenAddress",
          "type": "address"
        },
        {
          "indexed": false,
          "internalType": "uint256",
          "name": "interestRate",
          "type": "uint256"
        },
        {
          "indexed": false,
          "internalType": "uint256",
          "name": "minTakeOut",
          "type": "uint256"
        },
        {
          "indexed": false,
          "internalType": "uint256",
          "name": "maxTakeOut",
          "type": "uint256"
        },
        {
          "indexed": false,
          "internalType": "uint256",
          "name": "minDays",
          "type": "uint256"
        },
        {
          "indexed": false,
          "internalType": "uint256",
          "name": "maxDays",
          "type": "uint256"
        },
        {
          "indexed": false,
          "internalType": "uint256",
          "name": "minCreditScore",
          "type": "uint256"
        },
        {
          "indexed": false,
          "internalType": "uint256",
          "name": "createdAt",
          "type": "uint256"
        },
        {
          "indexed": false,
          "internalType": "address",
          "name": "userAddress",
          "type": "address"
        }
      ],
      "name": "ProvidedLiquity",
      "type": "event"
    },
    {
      "anonymous": false,
      "inputs": [
        {
          "indexed": false,
          "internalType": "uint256",
          "name": "id",
          "type": "uint256"
        },
        {
          "indexed": false,
          "internalType": "uint256",
          "name": "amount",
          "type": "uint256"
        }
      ],
      "name": "UpdatedLiquidity",
      "type": "event"
    },
    {
      "anonymous": false,
      "inputs": [
        {
          "indexed": false,
          "internalType": "string",
          "name": "name",
          "type": "string"
        },
        {
          "indexed": false,
          "internalType": "string",
          "name": "photo",
          "type": "string"
        },
        {
          "indexed": false,
          "internalType": "string",
          "name": "email",
          "type": "string"
        },
        {
          "indexed": false,
          "internalType": "string",
          "name": "username",
          "type": "string"
        },
        {
          "indexed": false,
          "internalType": "address",
          "name": "userAddress",
          "type": "address"
        },
        {
          "indexed": false,
          "internalType": "uint256",
          "name": "creditScore",
          "type": "uint256"
        },
        {
          "indexed": false,
          "internalType": "bool",
          "name": "activeLoan",
          "type": "bool"
        },
        {
          "indexed": false,
          "internalType": "string",
          "name": "year",
          "type": "string"
        },
        {
          "indexed": false,
          "internalType": "string",
          "name": "month",
          "type": "string"
        },
        {
          "indexed": false,
          "internalType": "string",
          "name": "phone",
          "type": "string"
        },
        {
          "indexed": false,
          "internalType": "string",
          "name": "homeAddress",
          "type": "string"
        }
      ],
      "name": "UserCreated",
      "type": "event"
    },
    {
      "inputs": [
        {
          "internalType": "address",
          "name": "",
          "type": "address"
        },
        {
          "internalType": "uint256",
          "name": "",
          "type": "uint256"
        }
      ],
      "name": "liquidities",
      "outputs": [
        {
          "internalType": "uint256",
          "name": "id",
          "type": "uint256"
        },
        {
          "internalType": "uint256",
          "name": "amount",
          "type": "uint256"
        },
        {
          "internalType": "address",
          "name": "tokenAddress",
          "type": "address"
        },
        {
          "internalType": "uint256",
          "name": "interestRate",
          "type": "uint256"
        },
        {
          "internalType": "uint256",
          "name": "minTakeOut",
          "type": "uint256"
        },
        {
          "internalType": "uint256",
          "name": "maxTakeOut",
          "type": "uint256"
        },
        {
          "internalType": "uint256",
          "name": "minDays",
          "type": "uint256"
        },
        {
          "internalType": "uint256",
          "name": "maxDays",
          "type": "uint256"
        },
        {
          "internalType": "uint256",
          "name": "minCreditScore",
          "type": "uint256"
        },
        {
          "internalType": "uint256",
          "name": "createdAt",
          "type": "uint256"
        }
      ],
      "stateMutability": "view",
      "type": "function",
      "constant": true
    },
    {
      "inputs": [
        {
          "internalType": "address",
          "name": "",
          "type": "address"
        },
        {
          "internalType": "uint256",
          "name": "",
          "type": "uint256"
        }
      ],
      "name": "loans",
      "outputs": [
        {
          "internalType": "uint256",
          "name": "id",
          "type": "uint256"
        },
        {
          "internalType": "uint256",
          "name": "liquidity",
          "type": "uint256"
        },
        {
          "internalType": "uint256",
          "name": "amount",
          "type": "uint256"
        },
        {
          "internalType": "address",
          "name": "tokenAddress",
          "type": "address"
        },
        {
          "internalType": "uint256",
          "name": "interestRate",
          "type": "uint256"
        },
        {
          "internalType": "uint256",
          "name": "duration",
          "type": "uint256"
        },
        {
          "internalType": "address",
          "name": "from",
          "type": "address"
        },
        {
          "internalType": "uint256",
          "name": "createdAt",
          "type": "uint256"
        },
        {
          "internalType": "uint256",
          "name": "paidAt",
          "type": "uint256"
        }
      ],
      "stateMutability": "view",
      "type": "function",
      "constant": true
    },
    {
      "inputs": [],
      "name": "platformFee",
      "outputs": [
        {
          "internalType": "uint256",
          "name": "",
          "type": "uint256"
        }
      ],
      "stateMutability": "view",
      "type": "function",
      "constant": true
    },
    {
      "inputs": [
        {
          "internalType": "address",
          "name": "",
          "type": "address"
        }
      ],
      "name": "users",
      "outputs": [
        {
          "internalType": "uint256",
          "name": "id",
          "type": "uint256"
        },
        {
          "internalType": "uint256",
          "name": "creditScore",
          "type": "uint256"
        },
        {
          "internalType": "bool",
          "name": "activeLoan",
          "type": "bool"
        },
        {
          "internalType": "uint256",
          "name": "createdAt",
          "type": "uint256"
        }
      ],
      "stateMutability": "view",
      "type": "function",
      "constant": true
    },
    {
      "inputs": [
        {
          "internalType": "string",
          "name": "name",
          "type": "string"
        },
        {
          "internalType": "string",
          "name": "photo",
          "type": "string"
        },
        {
          "internalType": "string",
          "name": "email",
          "type": "string"
        },
        {
          "internalType": "string",
          "name": "username",
          "type": "string"
        },
        {
          "internalType": "string",
          "name": "year",
          "type": "string"
        },
        {
          "internalType": "string",
          "name": "month",
          "type": "string"
        },
        {
          "internalType": "string",
          "name": "phone",
          "type": "string"
        },
        {
          "internalType": "string",
          "name": "homeAddress",
          "type": "string"
        }
      ],
      "name": "createUser",
      "outputs": [],
      "stateMutability": "nonpayable",
      "type": "function"
    },
    {
      "inputs": [
        {
          "internalType": "string",
          "name": "name",
          "type": "string"
        },
        {
          "internalType": "string",
          "name": "photo",
          "type": "string"
        },
        {
          "internalType": "string",
          "name": "email",
          "type": "string"
        },
        {
          "internalType": "string",
          "name": "username",
          "type": "string"
        },
        {
          "internalType": "string",
          "name": "year",
          "type": "string"
        },
        {
          "internalType": "string",
          "name": "month",
          "type": "string"
        },
        {
          "internalType": "string",
          "name": "phone",
          "type": "string"
        },
        {
          "internalType": "string",
          "name": "homeAddress",
          "type": "string"
        }
      ],
      "name": "updateUser",
      "outputs": [],
      "stateMutability": "nonpayable",
      "type": "function"
    },
    {
      "inputs": [
        {
          "internalType": "address",
          "name": "user",
          "type": "address"
        }
      ],
      "name": "addNetwork",
      "outputs": [],
      "stateMutability": "nonpayable",
      "type": "function"
    },
    {
      "inputs": [
        {
          "internalType": "address",
          "name": "user",
          "type": "address"
        }
      ],
      "name": "removeNetwork",
      "outputs": [],
      "stateMutability": "nonpayable",
      "type": "function"
    },
    {
      "inputs": [
        {
          "internalType": "uint256",
          "name": "id",
          "type": "uint256"
        },
        {
          "internalType": "uint256",
          "name": "amount",
          "type": "uint256"
        },
        {
          "internalType": "address",
          "name": "owner",
          "type": "address"
        },
        {
          "internalType": "uint256",
          "name": "duration",
          "type": "uint256"
        }
      ],
      "name": "takeLoan",
      "outputs": [],
      "stateMutability": "nonpayable",
      "type": "function"
    },
    {
      "inputs": [
        {
          "internalType": "uint256",
          "name": "id",
          "type": "uint256"
        },
        {
          "internalType": "address",
          "name": "owner",
          "type": "address"
        }
      ],
      "name": "payLoan",
      "outputs": [],
      "stateMutability": "nonpayable",
      "type": "function"
    },
    {
      "inputs": [
        {
          "internalType": "uint256",
          "name": "id",
          "type": "uint256"
        }
      ],
      "name": "closeLiquidity",
      "outputs": [],
      "stateMutability": "nonpayable",
      "type": "function"
    },
    {
      "inputs": [
        {
          "internalType": "uint256",
          "name": "amount",
          "type": "uint256"
        },
        {
          "internalType": "address",
          "name": "tokenAddress",
          "type": "address"
        },
        {
          "internalType": "uint256",
          "name": "interestRate",
          "type": "uint256"
        },
        {
          "internalType": "uint256",
          "name": "minTakeOut",
          "type": "uint256"
        },
        {
          "internalType": "uint256",
          "name": "maxTakeOut",
          "type": "uint256"
        },
        {
          "internalType": "uint256",
          "name": "minDays",
          "type": "uint256"
        },
        {
          "internalType": "uint256",
          "name": "maxDays",
          "type": "uint256"
        },
        {
          "internalType": "uint256",
          "name": "minCreditScore",
          "type": "uint256"
        }
      ],
      "name": "provideLiquidity",
      "outputs": [],
      "stateMutability": "nonpayable",
      "type": "function"
    }
  ],
  "bytecode": "0x60806040526001600255604160065534801561001a57600080fd5b50604051620024ef380380620024ef83398101604081905261003b9161006e565b60008054336001600160a01b031991821617909155600780549091166001600160a01b039290921691909117905561009e565b60006020828403121561008057600080fd5b81516001600160a01b038116811461009757600080fd5b9392505050565b61244180620000ae6000396000f3fe608060405234801561001057600080fd5b50600436106100d45760003560e01c8063af03c79311610081578063d7d91fe41161005b578063d7d91fe414610282578063eb3b299b14610295578063f35456ed146102a857600080fd5b8063af03c793146101f1578063d52559d014610204578063d567e4a41461026f57600080fd5b80634a184a87116100b25780634a184a871461011d57806398c61c3714610130578063a87430ba1461019057600080fd5b806326232a2e146100d9578063329aa414146100f5578063333803591461010a575b600080fd5b6100e260025481565b6040519081526020015b60405180910390f35b610108610103366004611ef9565b6102bb565b005b610108610118366004611f2e565b61052f565b61010861012b36600461200e565b610ba8565b61014361013e36600461214e565b610d5f565b60408051998a5260208a0198909852968801959095526001600160a01b039384166060880152608087019290925260a08601521660c084015260e0830152610100820152610120016100ec565b6101cb61019e366004612178565b60086020526000908152604090208054600182015460028301546003909301549192909160ff9091169084565b6040805194855260208501939093529015159183019190915260608201526080016100ec565b6101086101ff366004612193565b610dd4565b61021761021236600461214e565b6115f2565b604080519a8b5260208b01999099526001600160a01b03909716978901979097526060880194909452608087019290925260a086015260c085015260e0840152610100830191909152610120820152610140016100ec565b61010861027d366004612178565b61166c565b61010861029036600461200e565b611714565b6101086102a3366004612178565b6117d4565b6101086102b63660046121bf565b611880565b60006102c73383611b40565b9050801961031c5760405162461bcd60e51b815260206004820152601860248201527f21796f755f646f5f6f776e5f74686573655f746f6b656e73000000000000000060448201526064015b60405180910390fd5b33600090815260096020526040812080548390811061033d5761033d61221f565b60009182526020918290206040805161014081018252600a90930290910180548352600181015493830184905260028101546001600160a01b0316918301919091526003810154606083015260048101546080830152600581015460a0830152600681015460c0830152600781015460e083015260088101546101008301526009015461012082015291506104145760405162461bcd60e51b815260206004820152601260248201527f696e73756666696369656e745f66756e647300000000000000000000000000006044820152606401610313565b6040818101516020830151915163a9059cbb60e01b81523360048201526024810192909252906001600160a01b0382169063a9059cbb906044016020604051808303816000875af115801561046d573d6000803e3d6000fd5b505050506040513d601f19601f820116820180604052508101906104919190612235565b506104f1604051806101400160405280600081526020016000815260200160006001600160a01b03168152602001600081526020016000815260200160008152602001600081526020016000815260200160008152602001600081525090565b80516040519081529092507f20c48a95a2e7a5844e4f456e8d83a72af0caceb90b567ae55d0b13c7942fa7989060200160405180910390a150505050565b6000831161057f5760405162461bcd60e51b815260206004820152601460248201527f2163616e5f74616b655f7a65726f5f746f6b656e0000000000000000000000006044820152606401610313565b600061058b8386611b40565b905080196105db5760405162461bcd60e51b815260206004820152601160248201527f216c69717569646974795f6578697374730000000000000000000000000000006044820152606401610313565b6001600160a01b03831660009081526009602052604081208054839081106106055761060561221f565b600091825260208083206040805161014081018252600a9094029091018054845260018101549284019290925260028201546001600160a01b0316908301526003810154606083015260048101546080830152600581015460a0830152600681015460c0830152600781015460e083015260088101546101008301526009015461012082015291506106978533611c71565b905080196106e75760405162461bcd60e51b815260206004820152600c60248201527f21756e6174686f72697a656400000000000000000000000000000000000000006044820152606401610313565b3360009081526008602052604090206002015460ff161561074a5760405162461bcd60e51b815260206004820152601160248201527f616c72656164795f6f6e5f615f6c6f616e0000000000000000000000000000006044820152606401610313565b858260200151101561079e5760405162461bcd60e51b815260206004820152601160248201527f696e73756669636369656e745f706f6f6c0000000000000000000000000000006044820152606401610313565b858260a0015110156107f25760405162461bcd60e51b815260206004820152600860248201527f746f6f5f6d7563680000000000000000000000000000000000000000000000006044820152606401610313565b85826080015111156108465760405162461bcd60e51b815260206004820152600a60248201527f746f6f5f6c6974746c65000000000000000000000000000000000000000000006044820152606401610313565b838260e00151101561089a5760405162461bcd60e51b815260206004820152600860248201527f746f6f5f6c6f6e670000000000000000000000000000000000000000000000006044820152606401610313565b838260c0015111156108ee5760405162461bcd60e51b815260206004820152600960248201527f746f6f5f73686f727400000000000000000000000000000000000000000000006044820152606401610313565b6001600160a01b038516600090815260096020526040902080548791908590811061091b5761091b61221f565b90600052602060002090600a0201600101600082825461093b919061226d565b9091555050336000908152600860205260408120600201805460ff19166001179055600580549161096b83612280565b90915550506040805161012081018252600580548252845160208084019182528385018b8152878601516001600160a01b0390811660608088019182528a01516080880190815260a088018d81528e841660c08a019081524260e08b0190815260006101008c0181815233808352600a8b528e83208054600180820183559185529b9093208e516009909c02019a8b559a51918a019190915596516002890155935160038801805473ffffffffffffffffffffffffffffffffffffffff1990811683891690811790925594516004808b019190915593519a89019a909a559051600688018054909416951694909417909155905160078501559151600890930192909255945163a9059cbb60e01b815294850191909152602484018a9052919263a9059cbb906044016020604051808303816000875af1158015610ab3573d6000803e3d6000fd5b505050506040513d601f19601f82011682018060405250810190610ad79190612235565b50815160208084015160408086015160a0808801516080808a015160e0808c0151610100808e015189519c8d529a8c0199909952968a0195909552606089019290925287015285019190915260c084019290925233918301919091527f07f61a11ff011c0b992bf9621a45bbd40079064974d6bc645831141e11cf05d6910160405180910390a1835160208086015160408051938452918301527fa78d1e81434a3d3c4b90a82e0df68035fc59d26e2185a51f8a66143c94c4814a91015b60405180910390a1505050505050505050565b3360009081526008602052604090205415610c055760405162461bcd60e51b815260206004820152601b60248201527f21616c72656164795f637265617465645f616e5f6163636f756e7400000000006044820152606401610313565b60038054906000610c1583612280565b90915550506040805160a08101825260035481526006546020808301919091526000828401819052426060840152338152600882528390206004018054845181840281018401909552808552929360808501939092830182828015610ca357602002820191906000526020600020905b81546001600160a01b03168152600190910190602001808311610c85575b50505091909252505033600090815260086020908152604091829020835181558382015160018201559183015160028301805460ff19169115159190911790556060830151600383015560808301518051610d049260048501920190611e72565b50506006546040517f676f4149b3c169700ae4fc11a98f7fa314e26c66113436c7d5f7688e340cd0549250610d4d918b918b918b918b9133916000908d908d908d908d906122df565b60405180910390a15050505050505050565b600a6020528160005260406000208181548110610d7b57600080fd5b600091825260209091206009909102018054600182015460028301546003840154600485015460058601546006870154600788015460089098015496995094975092956001600160a01b03928316959194909216919089565b6000610de03384611d41565b90508019610e305760405162461bcd60e51b815260206004820152600c60248201527f216c6f616e5f65786973747300000000000000000000000000000000000000006044820152606401610313565b336000908152600a60205260408120805483908110610e5157610e5161221f565b6000918252602091829020604080516101208101825260099093029091018054835260018101549383019390935260028301549082015260038201546001600160a01b03908116606083015260048301546080830152600583015460a08301526006830154811660c08301819052600784015460e0840152600890930154610100830152909250841614610f275760405162461bcd60e51b815260206004820152600c60248201527f21756e6174686f72697a656400000000000000000000000000000000000000006044820152606401610313565b6000620151808260e0015142610f3d919061226d565b610f4791906123b7565b90506000610f59836080015183611e5f565b60075460405163e1f21c6760e01b8152336004820152306024820152604481018390529192506001600160a01b03169063e1f21c6790606401600060405180830381600087803b158015610fac57600080fd5b505af1158015610fc0573d6000803e3d6000fd5b50506007546040516323b872dd60e01b8152336004820152306024820152604481018590526001600160a01b0390911692506323b872dd91506064016020604051808303816000875af115801561101b573d6000803e3d6000fd5b505050506040513d601f19601f8201168201806040525081019061103f9190612235565b506000606460025461105191906123b7565b61105b90836123d9565b60075460405163a9059cbb60e01b8152336004820152602481018390529192506001600160a01b03169063a9059cbb906044016020604051808303816000875af11580156110ad573d6000803e3d6000fd5b505050506040513d601f19601f820116820180604052508101906110d19190612235565b506110dc818361226d565b6001546110e991906123f8565b60018190555060006110ff878660200151611b40565b90508060001914611335576001600160a01b03871660009081526009602052604081208054839081106111345761113461221f565b600091825260208083206040805161014081018252600a9094029091018054845260018101548484015260028101546001600160a01b03908116858401526003820154606086015260048201546080860152600582015460a0860152600682015460c0860152600782015460e086015260088201546101008601526009918201546101208601528d16855290915290912080549192508491849081106111dc576111dc61221f565b90600052602060002090600a020160010160008282546111fc91906123f8565b90915550506060860151604080880151905163e1f21c6760e01b815233600482015230602482015260448101919091526001600160a01b0382169063e1f21c6790606401600060405180830381600087803b15801561125a57600080fd5b505af115801561126e573d6000803e3d6000fd5b5050505060408781015190516323b872dd60e01b815233600482015230602482015260448101919091526001600160a01b038216906323b872dd906064016020604051808303816000875af11580156112cb573d6000803e3d6000fd5b505050506040513d601f19601f820116820180604052508101906112ef9190612235565b50815160208084015160408051938452918301527fa78d1e81434a3d3c4b90a82e0df68035fc59d26e2185a51f8a66143c94c4814a910160405180910390a1505061142c565b6060850151604080870151905163e1f21c6760e01b81523360048201526001600160a01b038a8116602483015260448201929092529082169063e1f21c6790606401600060405180830381600087803b15801561139157600080fd5b505af11580156113a5573d6000803e3d6000fd5b5050505060408681015190516323b872dd60e01b81523360048201526001600160a01b038a811660248301526044820192909252908216906323b872dd906064016020604051808303816000875af1158015611405573d6000803e3d6000fd5b505050506040513d601f19601f820116820180604052508101906114299190612235565b50505b42610100860152336000908152600860205260409020600201805460ff1916905560a08501518411156114b957336000908152600860205260409020600101546005116114a15733600090815260086020526040812060010180546005929061149690849061226d565b9091555061150e9050565b3360009081526008602052604081206001015561150e565b33600090815260086020526040902060010154605f106114f6573360009081526008602052604081206001018054600592906114969084906123f8565b33600090815260086020526040902060646001909101555b7f07f61a11ff011c0b992bf9621a45bbd40079064974d6bc645831141e11cf05d68560000151866020015187604001518860a0015189608001518a60e001518b6101000151336040516115a2989796959493929190978852602088019690965260408701949094526060860192909252608085015260a084015260c08301526001600160a01b031660e08201526101000190565b60405180910390a133600081815260086020908152604091829020600101548251938452908301527f05933d00429c2f5bf744590ae0bbc26dd4e984be9acbb9197eec5f7127e6da649101610d4d565b6009602052816000526040600020818154811061160e57600080fd5b60009182526020909120600a90910201805460018201546002830154600384015460048501546005860154600687015460078801546008890154600990990154979a509598506001600160a01b03909416969295919490939290918a565b60006116783383611c71565b905080196117105733600081815260086020908152604080832060040180546001808201835591855293839020909301805473ffffffffffffffffffffffffffffffffffffffff19166001600160a01b038816908117909155815190815291820193909352918201527fef159a3fe67039f76f5f69589747e2f0132e5e79bc6a1ee9b3f47bfad176d005906060015b60405180910390a15b5050565b3360009081526008602052604081205490036117725760405162461bcd60e51b815260206004820152600a60248201527f6e6f5f6163636f756e74000000000000000000000000000000000000000000006044820152606401610313565b3360008181526008602052604090819020600181015460029091015491517f676f4149b3c169700ae4fc11a98f7fa314e26c66113436c7d5f7688e340cd05493610d4d938d938d938d938d9390929160ff909116908d908d908d908d906122df565b60006117e03383611c71565b905080600019146117105733600090815260086020526040902060040180548290811061180f5761180f61221f565b6000918252602080832091909101805473ffffffffffffffffffffffffffffffffffffffff19169055604080516001600160a01b038616815233928101929092528101919091527fef159a3fe67039f76f5f69589747e2f0132e5e79bc6a1ee9b3f47bfad176d00590606001611707565b6004805490600061189083612280565b919050555060096000336001600160a01b03166001600160a01b0316815260200190815260200160002060405180610140016040528060045481526020018a8152602001896001600160a01b031681526020018881526020018781526020018681526020018581526020018481526020018381526020014281525090806001815401808255809150506001900390600052602060002090600a0201600090919091909150600082015181600001556020820151816001015560408201518160020160006101000a8154816001600160a01b0302191690836001600160a01b03160217905550606082015181600301556080820151816004015560a0820151816005015560c0820151816006015560e082015181600701556101008201518160080155610120820151816009015550506000879050806001600160a01b031663e1f21c6733308c6040518463ffffffff1660e01b8152600401611a13939291906001600160a01b039384168152919092166020820152604081019190915260600190565b600060405180830381600087803b158015611a2d57600080fd5b505af1158015611a41573d6000803e3d6000fd5b50506040516323b872dd60e01b8152336004820152306024820152604481018c90526001600160a01b03841692506323b872dd91506064016020604051808303816000875af1158015611a98573d6000803e3d6000fd5b505050506040513d601f19601f82011682018060405250810190611abc9190612235565b5060045460408051918252602082018b90526001600160a01b038a1690820152606081018890526080810187905260a0810186905260c0810185905260e08101849052610100810183905242610120820152336101408201527f9c73435d730d29a508b2720903ba238df287009379a89db682694cc036aed5b79061016001610b95565b6001600160a01b038216600090815260096020908152604080832080548251818502810185019093528083528493849084015b82821015611c0f5760008481526020908190206040805161014081018252600a8602909201805483526001808201548486015260028201546001600160a01b0316928401929092526003810154606084015260048101546080840152600581015460a0840152600681015460c0840152600781015460e08401526008810154610100840152600901546101208301529083529092019101611b73565b5050505090506000600019905060005b8251811015611c665784838281518110611c3b57611c3b61221f565b60200260200101516000015103611c5457809150611c66565b80611c5e81612280565b915050611c1f565b509150505b92915050565b6001600160a01b038216600090815260086020908152604080832060040180548251818502810185019093528083528493830182828015611cdb57602002820191906000526020600020905b81546001600160a01b03168152600190910190602001808311611cbd575b505050505090506000600019905060005b8251811015611c6657846001600160a01b0316838281518110611d1157611d1161221f565b60200260200101516001600160a01b031603611d2f57809150611c66565b80611d3981612280565b915050611cec565b6001600160a01b0382166000908152600a6020908152604080832080548251818502810185019093528083528493849084015b82821015611e08576000848152602090819020604080516101208101825260098602909201805483526001808201548486015260028201549284019290925260038101546001600160a01b03908116606085015260048201546080850152600582015460a085015260068201541660c0840152600781015460e0840152600801546101008301529083529092019101611d74565b5050505090506000600019905060005b8251811015611c665784838281518110611e3457611e3461221f565b60200260200101516000015103611e4d57809150611c66565b80611e5781612280565b915050611e18565b6000611e6b82846123d9565b9392505050565b828054828255906000526020600020908101928215611ed4579160200282015b82811115611ed4578251825473ffffffffffffffffffffffffffffffffffffffff19166001600160a01b03909116178255602090920191600190910190611e92565b50611ee0929150611ee4565b5090565b5b80821115611ee05760008155600101611ee5565b600060208284031215611f0b57600080fd5b5035919050565b80356001600160a01b0381168114611f2957600080fd5b919050565b60008060008060808587031215611f4457600080fd5b8435935060208501359250611f5b60408601611f12565b9396929550929360600135925050565b634e487b7160e01b600052604160045260246000fd5b600082601f830112611f9257600080fd5b813567ffffffffffffffff80821115611fad57611fad611f6b565b604051601f8301601f19908116603f01168101908282118183101715611fd557611fd5611f6b565b81604052838152866020858801011115611fee57600080fd5b836020870160208301376000602085830101528094505050505092915050565b600080600080600080600080610100898b03121561202b57600080fd5b883567ffffffffffffffff8082111561204357600080fd5b61204f8c838d01611f81565b995060208b013591508082111561206557600080fd5b6120718c838d01611f81565b985060408b013591508082111561208757600080fd5b6120938c838d01611f81565b975060608b01359150808211156120a957600080fd5b6120b58c838d01611f81565b965060808b01359150808211156120cb57600080fd5b6120d78c838d01611f81565b955060a08b01359150808211156120ed57600080fd5b6120f98c838d01611f81565b945060c08b013591508082111561210f57600080fd5b61211b8c838d01611f81565b935060e08b013591508082111561213157600080fd5b5061213e8b828c01611f81565b9150509295985092959890939650565b6000806040838503121561216157600080fd5b61216a83611f12565b946020939093013593505050565b60006020828403121561218a57600080fd5b611e6b82611f12565b600080604083850312156121a657600080fd5b823591506121b660208401611f12565b90509250929050565b600080600080600080600080610100898b0312156121dc57600080fd5b883597506121ec60208a01611f12565b979a9799505050506040860135956060810135956080820135955060a0820135945060c0820135935060e0909101359150565b634e487b7160e01b600052603260045260246000fd5b60006020828403121561224757600080fd5b81518015158114611e6b57600080fd5b634e487b7160e01b600052601160045260246000fd5b81810381811115611c6b57611c6b612257565b60006001820161229257612292612257565b5060010190565b6000815180845260005b818110156122bf576020818501810151868301820152016122a3565b506000602082860101526020601f19601f83011685010191505092915050565b60006101608083526122f38184018f612299565b90508281036020840152612307818e612299565b9050828103604084015261231b818d612299565b9050828103606084015261232f818c612299565b6001600160a01b038b16608085015290508860a084015261235460c084018915159052565b82810360e08401526123668188612299565b905082810361010084015261237b8187612299565b90508281036101208401526123908186612299565b90508281036101408401526123a58185612299565b9e9d5050505050505050505050505050565b6000826123d457634e487b7160e01b600052601260045260246000fd5b500490565b60008160001904831182151516156123f3576123f3612257565b500290565b80820180821115611c6b57611c6b61225756fea2646970667358221220efffad0981d82d7416dd5df1e91e197e1303f1e615ea34a384e79ff2eda70ca764736f6c63430008100033",
  "immutableReferences": {},
  "source": "// SPDX-License-Identifier: GPL-3.0\npragma solidity >=0.7.0 <0.9.0;\n\nimport {IStableCoin} from \"./stablecoins/IStableCoin.sol\";\nimport {DashToken} from \"./DashToken.sol\";\n\ncontract Dash {\n    address private deployer;\n    uint private contractRevenue;\n    uint public platformFee = 1; // 1% fee\n\n    uint private userID;\n    uint private liquidityID;\n    uint private loanID;\n\n    uint defaultCreditScore = 65;\n\n    DashToken private dashToken;\n\n    mapping(address => User) public users;\n    mapping(address => Liquidity[]) public liquidities;\n    mapping(address => Loan[]) public loans;\n\n    constructor(address dashToken_) {\n        deployer = msg.sender;\n        dashToken = DashToken(dashToken_);\n    }\n\n    struct Liquidity {\n        uint id;\n        uint256 amount;\n        address tokenAddress;\n        uint interestRate;\n        uint256 minTakeOut;\n        uint256 maxTakeOut;\n        uint minDays;\n        uint maxDays;\n        uint minCreditScore;\n        uint createdAt;\n    }\n\n    struct Loan {\n        uint id;\n        uint liquidity;\n        uint256 amount;\n        address tokenAddress;\n        uint interestRate;\n        uint duration;\n        address from;\n        uint createdAt;\n        uint paidAt;\n    }\n\n    struct User {\n        uint id;\n        uint creditScore;\n        bool activeLoan;\n        uint createdAt;\n        address[] networks;\n    }\n\n    function createUser(\n        string memory name,\n        string memory photo,\n        string memory email,\n        string memory username,\n        string memory year,\n        string memory month,\n        string memory phone,\n        string memory homeAddress\n    ) public {\n        require(users[msg.sender].id == 0, \"!already_created_an_account\");\n\n        userID++;\n        users[msg.sender] = User(\n            userID,\n            defaultCreditScore,\n            false,\n            block.timestamp,\n            users[msg.sender].networks\n        );\n\n        emit UserCreated(\n            name,\n            photo,\n            email,\n            username,\n            msg.sender,\n            defaultCreditScore,\n            false,\n            year,\n            month,\n            phone,\n            homeAddress\n        );\n    }\n\n    function updateUser(\n        string memory name,\n        string memory photo,\n        string memory email,\n        string memory username,\n        string memory year,\n        string memory month,\n        string memory phone,\n        string memory homeAddress\n    ) public {\n        require(users[msg.sender].id != 0, \"no_account\");\n\n        emit UserCreated(\n            name,\n            photo,\n            email,\n            username,\n            msg.sender,\n            users[msg.sender].creditScore,\n            users[msg.sender].activeLoan,\n            year,\n            month,\n            phone,\n            homeAddress\n        );\n    }\n\n    function addNetwork(address user) public {\n        int userIndex = getUserNetworkIndex(msg.sender, user);\n        if (userIndex == -1) {\n            users[msg.sender].networks.push(user);\n            emit NetworkAdded(user, msg.sender, true);\n        }\n    }\n\n    function removeNetwork(address user) public {\n        int userIndex = getUserNetworkIndex(msg.sender, user);\n        if (userIndex != -1) {\n            delete users[msg.sender].networks[uint(userIndex)];\n            emit NetworkAdded(user, msg.sender, false);\n        }\n    }\n\n    function takeLoan(\n        uint id,\n        uint256 amount,\n        address owner,\n        uint duration\n    ) public {\n        require(amount > 0, \"!can_take_zero_token\");\n        int liquidityIndex = getUserLiquidityIndex(owner, id);\n        require(liquidityIndex != -1, \"!liquidity_exists\");\n\n        Liquidity memory liquidity = liquidities[owner][uint(liquidityIndex)];\n\n        int userNetworkIndex = getUserNetworkIndex(owner, msg.sender);\n        require(userNetworkIndex != -1, \"!unathorized\");\n\n        require(!users[msg.sender].activeLoan, \"already_on_a_loan\");\n\n        require(liquidity.amount >= amount, \"insuficcient_pool\");\n        require(liquidity.maxTakeOut >= amount, \"too_much\");\n        require(liquidity.minTakeOut <= amount, \"too_little\");\n        require(liquidity.maxDays >= duration, \"too_long\");\n        require(liquidity.minDays <= duration, \"too_short\");\n\n        liquidities[owner][uint(liquidityIndex)].amount -= amount;\n\n        // user is now on a loan\n        users[msg.sender].activeLoan = true;\n\n        loanID++;\n\n        Loan memory loan = Loan(\n            loanID,\n            liquidity.id,\n            amount,\n            liquidity.tokenAddress,\n            liquidity.interestRate,\n            duration,\n            owner,\n            block.timestamp,\n            0\n        );\n\n        loans[msg.sender].push(loan);\n\n        // send tokens to user wallet\n        IStableCoin token = IStableCoin(loan.tokenAddress);\n        token.transfer(msg.sender, amount);\n\n        emit LoanCreated(\n            loan.id,\n            loan.liquidity,\n            loan.amount,\n            loan.duration,\n            loan.interestRate,\n            loan.createdAt,\n            loan.paidAt,\n            msg.sender\n        );\n\n        emit UpdatedLiquidity(liquidity.id, liquidity.amount);\n    }\n\n    function payLoan(uint id, address owner) public {\n        int userLoanIndex = getUserLoanIndex(msg.sender, id);\n        require(userLoanIndex != -1, \"!loan_exists\");\n\n        Loan memory loan = loans[msg.sender][uint(userLoanIndex)];\n        require(loan.from == owner, \"!unathorized\");\n\n        // pay interest\n        uint durationInDays = ((block.timestamp - loan.createdAt) / 1 days);\n        uint256 interest = calculateSimpleInterest(\n            loan.interestRate,\n            durationInDays\n        );\n\n        // pay to smart contract\n        dashToken.approve(msg.sender, address(this), interest);\n        dashToken.transferFrom(msg.sender, address(this), interest);\n\n        // pay interest to liquidity provider\n        // charge platform fee\n        uint amount = (interest * (platformFee / 100));\n        dashToken.transfer(msg.sender, amount);\n\n        // update profit\n        contractRevenue = (contractRevenue + (interest - amount));\n\n        // if liquidity still exist, add the funds back to the liquidty\n        int liquidityIndex = getUserLiquidityIndex(owner, loan.liquidity);\n\n        if (liquidityIndex != -1) {\n            // liquidity exists\n            Liquidity memory liquidity = liquidities[owner][\n                uint(liquidityIndex)\n            ];\n\n            // increase liquidity pool back\n            liquidities[owner][uint(liquidityIndex)].amount += amount;\n\n            // pay loan to smart contract\n            IStableCoin token = IStableCoin(loan.tokenAddress);\n            token.approve(msg.sender, address(this), loan.amount);\n            token.transferFrom(msg.sender, address(this), loan.amount);\n\n            // let dependecies knows pool has _changed_\n            emit UpdatedLiquidity(liquidity.id, liquidity.amount);\n        } else {\n            // else send the funds to the liquidity creator wallet\n            IStableCoin token = IStableCoin(loan.tokenAddress);\n            token.approve(msg.sender, owner, loan.amount);\n            token.transferFrom(msg.sender, owner, loan.amount);\n        }\n\n        // mark loan as paid\n        loan.paidAt = block.timestamp;\n\n        // user is not on a loan\n        users[msg.sender].activeLoan = false;\n\n        // credit score mechanism\n        if (durationInDays > loan.duration) {\n            if (users[msg.sender].creditScore >= 5) {\n                users[msg.sender].creditScore -= 5;\n            } else {\n                users[msg.sender].creditScore = 0;\n            }\n        } else {\n            if (users[msg.sender].creditScore <= 95) {\n                users[msg.sender].creditScore += 5;\n            } else {\n                users[msg.sender].creditScore = 100;\n            }\n        }\n\n        emit LoanCreated(\n            loan.id,\n            loan.liquidity,\n            loan.amount,\n            loan.duration,\n            loan.interestRate,\n            loan.createdAt,\n            loan.paidAt,\n            msg.sender\n        );\n\n        emit CreditScoreChanged(msg.sender, users[msg.sender].creditScore);\n    }\n\n    function closeLiquidity(uint id) public {\n        int liquidityIndex = getUserLiquidityIndex(msg.sender, id);\n        require(liquidityIndex != -1, \"!you_do_own_these_tokens\");\n\n        Liquidity memory liquidity = liquidities[msg.sender][\n            uint256(liquidityIndex)\n        ];\n\n        require(liquidity.amount > 0, \"insufficient_funds\");\n\n        // send tokens to user wallet\n        IStableCoin token = IStableCoin(liquidity.tokenAddress);\n        token.transfer(msg.sender, liquidity.amount);\n\n        delete liquidity;\n\n        emit ClosedLiquidity(liquidity.id);\n    }\n\n    function provideLiquidity(\n        uint256 amount,\n        address tokenAddress,\n        uint interestRate,\n        uint256 minTakeOut,\n        uint256 maxTakeOut,\n        uint minDays,\n        uint maxDays,\n        uint minCreditScore\n    ) public {\n        liquidityID++;\n        liquidities[msg.sender].push(\n            Liquidity(\n                liquidityID,\n                amount,\n                tokenAddress,\n                interestRate,\n                minTakeOut,\n                maxTakeOut,\n                minDays,\n                maxDays,\n                minCreditScore,\n                block.timestamp\n            )\n        );\n\n        // stake tokens from user wallet to the contract\n        IStableCoin token = IStableCoin(tokenAddress);\n        token.approve(msg.sender, address(this), amount);\n        token.transferFrom(msg.sender, address(this), amount);\n\n        emit ProvidedLiquity(\n            liquidityID,\n            amount,\n            tokenAddress,\n            interestRate,\n            minTakeOut,\n            maxTakeOut,\n            minDays,\n            maxDays,\n            minCreditScore,\n            block.timestamp,\n            msg.sender\n        );\n    }\n\n    function getUserLoanIndex(address user, uint id)\n        private\n        view\n        returns (int)\n    {\n        Loan[] memory loanList = loans[user];\n        int position = -1;\n\n        for (uint index = 0; index < loanList.length; index++) {\n            if (loanList[index].id == id) {\n                position = int(index);\n                break;\n            }\n        }\n\n        return position;\n    }\n\n    function getUserLiquidityIndex(address user, uint id)\n        private\n        view\n        returns (int)\n    {\n        Liquidity[] memory liquidityList = liquidities[user];\n        int position = -1;\n\n        for (uint index = 0; index < liquidityList.length; index++) {\n            if (liquidityList[index].id == id) {\n                position = int(index);\n                break;\n            }\n        }\n\n        return position;\n    }\n\n    function getUserNetworkIndex(address user, address network)\n        private\n        view\n        returns (int)\n    {\n        address[] memory networks = users[user].networks;\n        int position = -1;\n\n        for (uint index = 0; index < networks.length; index++) {\n            if (networks[index] == network) {\n                position = int(index);\n                break;\n            }\n        }\n\n        return position;\n    }\n\n    function calculateSimpleInterest(uint rate, uint duration)\n        private\n        pure\n        returns (uint256)\n    {\n        // amount = capital(1 + (rate * duration))\n        return (rate * duration);\n    }\n\n    event UserCreated(\n        string name,\n        string photo,\n        string email,\n        string username,\n        address userAddress,\n        uint creditScore,\n        bool activeLoan,\n        string year,\n        string month,\n        string phone,\n        string homeAddress\n    );\n    event CreditScoreChanged(address user, uint score);\n    event NetworkAdded(address user, address by, bool isAdded);\n    event LoanCreated(\n        uint loanID,\n        uint liquidityID,\n        uint256 amount,\n        uint duration,\n        uint interestRate,\n        uint createdAt,\n        uint paidAt,\n        address userAddress\n    );\n    event ProvidedLiquity(\n        uint liquidityID,\n        uint256 amount,\n        address tokenAddress,\n        uint interestRate,\n        uint256 minTakeOut,\n        uint256 maxTakeOut,\n        uint minDays,\n        uint maxDays,\n        uint minCreditScore,\n        uint createdAt,\n        address userAddress\n    );\n    event ClosedLiquidity(uint id);\n    event UpdatedLiquidity(uint id, uint256 amount);\n}\n",
  "sourcePath": "C:\\Users\\Arogundade Ibrahim\\Documents\\web3\\dash\\contracts\\Dash.sol",
  "compiler": {
    "name": "solc",
    "version": "0.8.16+commit.07a7930e.Emscripten.clang"
  },
  "schemaVersion": "3.4.10",
  "updatedAt": "2022-11-06T14:47:08.637Z",
  "networkType": "ethereum",
  "devdoc": {
    "kind": "dev",
    "methods": {},
    "version": 1
  },
  "userdoc": {
    "kind": "user",
    "methods": {},
    "version": 1
  }
}