{
  "contractName": "DashToken",
  "abi": [
    {
      "inputs": [
        {
          "internalType": "string",
          "name": "name",
          "type": "string"
        },
        {
          "internalType": "string",
          "name": "symbol",
          "type": "string"
        }
      ],
      "stateMutability": "nonpayable",
      "type": "constructor"
    },
    {
      "anonymous": false,
      "inputs": [
        {
          "indexed": true,
          "internalType": "address",
          "name": "owner",
          "type": "address"
        },
        {
          "indexed": true,
          "internalType": "address",
          "name": "spender",
          "type": "address"
        },
        {
          "indexed": false,
          "internalType": "uint256",
          "name": "value",
          "type": "uint256"
        }
      ],
      "name": "Approval",
      "type": "event"
    },
    {
      "anonymous": false,
      "inputs": [
        {
          "indexed": true,
          "internalType": "address",
          "name": "from",
          "type": "address"
        },
        {
          "indexed": true,
          "internalType": "address",
          "name": "to",
          "type": "address"
        },
        {
          "indexed": false,
          "internalType": "uint256",
          "name": "value",
          "type": "uint256"
        }
      ],
      "name": "Transfer",
      "type": "event"
    },
    {
      "inputs": [
        {
          "internalType": "address",
          "name": "owner",
          "type": "address"
        },
        {
          "internalType": "address",
          "name": "spender",
          "type": "address"
        }
      ],
      "name": "allowance",
      "outputs": [
        {
          "internalType": "uint256",
          "name": "",
          "type": "uint256"
        }
      ],
      "stateMutability": "view",
      "type": "function"
    },
    {
      "inputs": [
        {
          "internalType": "address",
          "name": "spender",
          "type": "address"
        },
        {
          "internalType": "uint256",
          "name": "amount",
          "type": "uint256"
        }
      ],
      "name": "approve",
      "outputs": [
        {
          "internalType": "bool",
          "name": "",
          "type": "bool"
        }
      ],
      "stateMutability": "nonpayable",
      "type": "function"
    },
    {
      "inputs": [
        {
          "internalType": "address",
          "name": "account",
          "type": "address"
        }
      ],
      "name": "balanceOf",
      "outputs": [
        {
          "internalType": "uint256",
          "name": "",
          "type": "uint256"
        }
      ],
      "stateMutability": "view",
      "type": "function"
    },
    {
      "inputs": [],
      "name": "decimals",
      "outputs": [
        {
          "internalType": "uint8",
          "name": "",
          "type": "uint8"
        }
      ],
      "stateMutability": "view",
      "type": "function"
    },
    {
      "inputs": [
        {
          "internalType": "address",
          "name": "spender",
          "type": "address"
        },
        {
          "internalType": "uint256",
          "name": "subtractedValue",
          "type": "uint256"
        }
      ],
      "name": "decreaseAllowance",
      "outputs": [
        {
          "internalType": "bool",
          "name": "",
          "type": "bool"
        }
      ],
      "stateMutability": "nonpayable",
      "type": "function"
    },
    {
      "inputs": [
        {
          "internalType": "address",
          "name": "spender",
          "type": "address"
        },
        {
          "internalType": "uint256",
          "name": "addedValue",
          "type": "uint256"
        }
      ],
      "name": "increaseAllowance",
      "outputs": [
        {
          "internalType": "bool",
          "name": "",
          "type": "bool"
        }
      ],
      "stateMutability": "nonpayable",
      "type": "function"
    },
    {
      "inputs": [],
      "name": "name",
      "outputs": [
        {
          "internalType": "string",
          "name": "",
          "type": "string"
        }
      ],
      "stateMutability": "view",
      "type": "function"
    },
    {
      "inputs": [],
      "name": "symbol",
      "outputs": [
        {
          "internalType": "string",
          "name": "",
          "type": "string"
        }
      ],
      "stateMutability": "view",
      "type": "function"
    },
    {
      "inputs": [],
      "name": "totalSupply",
      "outputs": [
        {
          "internalType": "uint256",
          "name": "",
          "type": "uint256"
        }
      ],
      "stateMutability": "view",
      "type": "function"
    },
    {
      "inputs": [
        {
          "internalType": "address",
          "name": "to",
          "type": "address"
        },
        {
          "internalType": "uint256",
          "name": "amount",
          "type": "uint256"
        }
      ],
      "name": "transfer",
      "outputs": [
        {
          "internalType": "bool",
          "name": "",
          "type": "bool"
        }
      ],
      "stateMutability": "nonpayable",
      "type": "function"
    },
    {
      "inputs": [
        {
          "internalType": "address",
          "name": "from",
          "type": "address"
        },
        {
          "internalType": "address",
          "name": "to",
          "type": "address"
        },
        {
          "internalType": "uint256",
          "name": "amount",
          "type": "uint256"
        }
      ],
      "name": "transferFrom",
      "outputs": [
        {
          "internalType": "bool",
          "name": "",
          "type": "bool"
        }
      ],
      "stateMutability": "nonpayable",
      "type": "function"
    },
    {
      "inputs": [],
      "name": "faucetMint",
      "outputs": [],
      "stateMutability": "nonpayable",
      "type": "function"
    }
  ],
  "bytecode": "0x6080604052620000146200013b60201b60201c565b600a62000022919062000460565b6107d0620000319190620004b1565b6006553480156200004157600080fd5b5060405162001eec38038062001eec83398181016040528101906200006791906200068f565b818181600390816200007a919062000955565b5080600490816200008c919062000955565b50505033600560006101000a81548173ffffffffffffffffffffffffffffffffffffffff021916908373ffffffffffffffffffffffffffffffffffffffff16021790555062000133600560009054906101000a900473ffffffffffffffffffffffffffffffffffffffff16620001076200013b60201b60201c565b600a62000115919062000460565b64e8d4a51000620001279190620004b1565b6200014460201b60201c565b505062000b28565b60006012905090565b600073ffffffffffffffffffffffffffffffffffffffff168273ffffffffffffffffffffffffffffffffffffffff1603620001b6576040517f08c379a0000000000000000000000000000000000000000000000000000000008152600401620001ad9062000a9d565b60405180910390fd5b620001ca60008383620002bc60201b60201c565b8060026000828254620001de919062000abf565b92505081905550806000808473ffffffffffffffffffffffffffffffffffffffff1673ffffffffffffffffffffffffffffffffffffffff168152602001908152602001600020600082825462000235919062000abf565b925050819055508173ffffffffffffffffffffffffffffffffffffffff16600073ffffffffffffffffffffffffffffffffffffffff167fddf252ad1be2c89b69c2b068fc378daa952ba7f163c4a11628f55a4df523b3ef836040516200029c919062000b0b565b60405180910390a3620002b860008383620002c160201b60201c565b5050565b505050565b505050565b7f4e487b7100000000000000000000000000000000000000000000000000000000600052601160045260246000fd5b60008160011c9050919050565b6000808291508390505b600185111562000354578086048111156200032c576200032b620002c6565b5b60018516156200033c5780820291505b80810290506200034c85620002f5565b94506200030c565b94509492505050565b6000826200036f576001905062000442565b816200037f576000905062000442565b8160018114620003985760028114620003a357620003d9565b600191505062000442565b60ff841115620003b857620003b7620002c6565b5b8360020a915084821115620003d257620003d1620002c6565b5b5062000442565b5060208310610133831016604e8410600b8410161715620004135782820a9050838111156200040d576200040c620002c6565b5b62000442565b62000422848484600162000302565b925090508184048111156200043c576200043b620002c6565b5b81810290505b9392505050565b6000819050919050565b600060ff82169050919050565b60006200046d8262000449565b91506200047a8362000453565b9250620004a97fffffffffffffffffffffffffffffffffffffffffffffffffffffffffffffffff84846200035d565b905092915050565b6000620004be8262000449565b9150620004cb8362000449565b9250828202620004db8162000449565b91508282048414831517620004f557620004f4620002c6565b5b5092915050565b6000604051905090565b600080fd5b600080fd5b600080fd5b600080fd5b6000601f19601f8301169050919050565b7f4e487b7100000000000000000000000000000000000000000000000000000000600052604160045260246000fd5b62000565826200051a565b810181811067ffffffffffffffff821117156200058757620005866200052b565b5b80604052505050565b60006200059c620004fc565b9050620005aa82826200055a565b919050565b600067ffffffffffffffff821115620005cd57620005cc6200052b565b5b620005d8826200051a565b9050602081019050919050565b60005b8381101562000605578082015181840152602081019050620005e8565b60008484015250505050565b6000620006286200062284620005af565b62000590565b90508281526020810184848401111562000647576200064662000515565b5b62000654848285620005e5565b509392505050565b600082601f83011262000674576200067362000510565b5b81516200068684826020860162000611565b91505092915050565b60008060408385031215620006a957620006a862000506565b5b600083015167ffffffffffffffff811115620006ca57620006c96200050b565b5b620006d8858286016200065c565b925050602083015167ffffffffffffffff811115620006fc57620006fb6200050b565b5b6200070a858286016200065c565b9150509250929050565b600081519050919050565b7f4e487b7100000000000000000000000000000000000000000000000000000000600052602260045260246000fd5b600060028204905060018216806200076757607f821691505b6020821081036200077d576200077c6200071f565b5b50919050565b60008190508160005260206000209050919050565b60006020601f8301049050919050565b600082821b905092915050565b600060088302620007e77fffffffffffffffffffffffffffffffffffffffffffffffffffffffffffffffff82620007a8565b620007f38683620007a8565b95508019841693508086168417925050509392505050565b6000819050919050565b600062000836620008306200082a8462000449565b6200080b565b62000449565b9050919050565b6000819050919050565b620008528362000815565b6200086a62000861826200083d565b848454620007b5565b825550505050565b600090565b6200088162000872565b6200088e81848462000847565b505050565b5b81811015620008b657620008aa60008262000877565b60018101905062000894565b5050565b601f8211156200090557620008cf8162000783565b620008da8462000798565b81016020851015620008ea578190505b62000902620008f98562000798565b83018262000893565b50505b505050565b600082821c905092915050565b60006200092a600019846008026200090a565b1980831691505092915050565b600062000945838362000917565b9150826002028217905092915050565b620009608262000714565b67ffffffffffffffff8111156200097c576200097b6200052b565b5b6200098882546200074e565b62000995828285620008ba565b600060209050601f831160018114620009cd5760008415620009b8578287015190505b620009c4858262000937565b86555062000a34565b601f198416620009dd8662000783565b60005b8281101562000a0757848901518255600182019150602085019450602081019050620009e0565b8683101562000a27578489015162000a23601f89168262000917565b8355505b6001600288020188555050505b505050505050565b600082825260208201905092915050565b7f45524332303a206d696e7420746f20746865207a65726f206164647265737300600082015250565b600062000a85601f8362000a3c565b915062000a928262000a4d565b602082019050919050565b6000602082019050818103600083015262000ab88162000a76565b9050919050565b600062000acc8262000449565b915062000ad98362000449565b925082820190508082111562000af45762000af3620002c6565b5b92915050565b62000b058162000449565b82525050565b600060208201905062000b22600083018462000afa565b92915050565b6113b48062000b386000396000f3fe608060405234801561001057600080fd5b50600436106100b45760003560e01c80633950935111610071578063395093511461017d57806370a08231146101ad57806395d89b41146101dd578063a457c2d7146101fb578063a9059cbb1461022b578063dd62ed3e1461025b576100b4565b806306fdde03146100b9578063095ea7b3146100d757806313eda8fc1461010757806318160ddd1461011157806323b872dd1461012f578063313ce5671461015f575b600080fd5b6100c161028b565b6040516100ce9190610c25565b60405180910390f35b6100f160048036038101906100ec9190610ce0565b61031d565b6040516100fe9190610d3b565b60405180910390f35b61010f610340565b005b61011961043b565b6040516101269190610d65565b60405180910390f35b61014960048036038101906101449190610d80565b610445565b6040516101569190610d3b565b60405180910390f35b610167610474565b6040516101749190610def565b60405180910390f35b61019760048036038101906101929190610ce0565b61047d565b6040516101a49190610d3b565b60405180910390f35b6101c760048036038101906101c29190610e0a565b6104b4565b6040516101d49190610d65565b60405180910390f35b6101e56104fc565b6040516101f29190610c25565b60405180910390f35b61021560048036038101906102109190610ce0565b61058e565b6040516102229190610d3b565b60405180910390f35b61024560048036038101906102409190610ce0565b610605565b6040516102529190610d3b565b60405180910390f35b61027560048036038101906102709190610e37565b610628565b6040516102829190610d65565b60405180910390f35b60606003805461029a90610ea6565b80601f01602080910402602001604051908101604052809291908181526020018280546102c690610ea6565b80156103135780601f106102e857610100808354040283529160200191610313565b820191906000526020600020905b8154815290600101906020018083116102f657829003601f168201915b5050505050905090565b6000806103286106af565b90506103358185856106b7565b600191505092915050565b600654600760003373ffffffffffffffffffffffffffffffffffffffff1673ffffffffffffffffffffffffffffffffffffffff16815260200190815260200160002054106103c3576040517f08c379a00000000000000000000000000000000000000000000000000000000081526004016103ba90610f23565b60405180910390fd5b600654600760003373ffffffffffffffffffffffffffffffffffffffff1673ffffffffffffffffffffffffffffffffffffffff16815260200190815260200160002081905550610438600560009054906101000a900473ffffffffffffffffffffffffffffffffffffffff1633600654610445565b50565b6000600254905090565b6000806104506106af565b905061045d858285610880565b61046885858561090c565b60019150509392505050565b60006012905090565b6000806104886106af565b90506104a981858561049a8589610628565b6104a49190610f72565b6106b7565b600191505092915050565b60008060008373ffffffffffffffffffffffffffffffffffffffff1673ffffffffffffffffffffffffffffffffffffffff168152602001908152602001600020549050919050565b60606004805461050b90610ea6565b80601f016020809104026020016040519081016040528092919081815260200182805461053790610ea6565b80156105845780601f1061055957610100808354040283529160200191610584565b820191906000526020600020905b81548152906001019060200180831161056757829003601f168201915b5050505050905090565b6000806105996106af565b905060006105a78286610628565b9050838110156105ec576040517f08c379a00000000000000000000000000000000000000000000000000000000081526004016105e390611018565b60405180910390fd5b6105f982868684036106b7565b60019250505092915050565b6000806106106106af565b905061061d81858561090c565b600191505092915050565b6000600160008473ffffffffffffffffffffffffffffffffffffffff1673ffffffffffffffffffffffffffffffffffffffff16815260200190815260200160002060008373ffffffffffffffffffffffffffffffffffffffff1673ffffffffffffffffffffffffffffffffffffffff16815260200190815260200160002054905092915050565b600033905090565b600073ffffffffffffffffffffffffffffffffffffffff168373ffffffffffffffffffffffffffffffffffffffff1603610726576040517f08c379a000000000000000000000000000000000000000000000000000000000815260040161071d906110aa565b60405180910390fd5b600073ffffffffffffffffffffffffffffffffffffffff168273ffffffffffffffffffffffffffffffffffffffff1603610795576040517f08c379a000000000000000000000000000000000000000000000000000000000815260040161078c9061113c565b60405180910390fd5b80600160008573ffffffffffffffffffffffffffffffffffffffff1673ffffffffffffffffffffffffffffffffffffffff16815260200190815260200160002060008473ffffffffffffffffffffffffffffffffffffffff1673ffffffffffffffffffffffffffffffffffffffff168152602001908152602001600020819055508173ffffffffffffffffffffffffffffffffffffffff168373ffffffffffffffffffffffffffffffffffffffff167f8c5be1e5ebec7d5bd14f71427d1e84f3dd0314c0f7b2291e5b200ac8c7c3b925836040516108739190610d65565b60405180910390a3505050565b600061088c8484610628565b90507fffffffffffffffffffffffffffffffffffffffffffffffffffffffffffffffff811461090657818110156108f8576040517f08c379a00000000000000000000000000000000000000000000000000000000081526004016108ef906111a8565b60405180910390fd5b61090584848484036106b7565b5b50505050565b600073ffffffffffffffffffffffffffffffffffffffff168373ffffffffffffffffffffffffffffffffffffffff160361097b576040517f08c379a00000000000000000000000000000000000000000000000000000000081526004016109729061123a565b60405180910390fd5b600073ffffffffffffffffffffffffffffffffffffffff168273ffffffffffffffffffffffffffffffffffffffff16036109ea576040517f08c379a00000000000000000000000000000000000000000000000000000000081526004016109e1906112cc565b60405180910390fd5b6109f5838383610b8b565b60008060008573ffffffffffffffffffffffffffffffffffffffff1673ffffffffffffffffffffffffffffffffffffffff16815260200190815260200160002054905081811015610a7b576040517f08c379a0000000000000000000000000000000000000000000000000000000008152600401610a729061135e565b60405180910390fd5b8181036000808673ffffffffffffffffffffffffffffffffffffffff1673ffffffffffffffffffffffffffffffffffffffff16815260200190815260200160002081905550816000808573ffffffffffffffffffffffffffffffffffffffff1673ffffffffffffffffffffffffffffffffffffffff1681526020019081526020016000206000828254610b0e9190610f72565b925050819055508273ffffffffffffffffffffffffffffffffffffffff168473ffffffffffffffffffffffffffffffffffffffff167fddf252ad1be2c89b69c2b068fc378daa952ba7f163c4a11628f55a4df523b3ef84604051610b729190610d65565b60405180910390a3610b85848484610b90565b50505050565b505050565b505050565b600081519050919050565b600082825260208201905092915050565b60005b83811015610bcf578082015181840152602081019050610bb4565b60008484015250505050565b6000601f19601f8301169050919050565b6000610bf782610b95565b610c018185610ba0565b9350610c11818560208601610bb1565b610c1a81610bdb565b840191505092915050565b60006020820190508181036000830152610c3f8184610bec565b905092915050565b600080fd5b600073ffffffffffffffffffffffffffffffffffffffff82169050919050565b6000610c7782610c4c565b9050919050565b610c8781610c6c565b8114610c9257600080fd5b50565b600081359050610ca481610c7e565b92915050565b6000819050919050565b610cbd81610caa565b8114610cc857600080fd5b50565b600081359050610cda81610cb4565b92915050565b60008060408385031215610cf757610cf6610c47565b5b6000610d0585828601610c95565b9250506020610d1685828601610ccb565b9150509250929050565b60008115159050919050565b610d3581610d20565b82525050565b6000602082019050610d506000830184610d2c565b92915050565b610d5f81610caa565b82525050565b6000602082019050610d7a6000830184610d56565b92915050565b600080600060608486031215610d9957610d98610c47565b5b6000610da786828701610c95565b9350506020610db886828701610c95565b9250506040610dc986828701610ccb565b9150509250925092565b600060ff82169050919050565b610de981610dd3565b82525050565b6000602082019050610e046000830184610de0565b92915050565b600060208284031215610e2057610e1f610c47565b5b6000610e2e84828501610c95565b91505092915050565b60008060408385031215610e4e57610e4d610c47565b5b6000610e5c85828601610c95565b9250506020610e6d85828601610c95565b9150509250929050565b7f4e487b7100000000000000000000000000000000000000000000000000000000600052602260045260246000fd5b60006002820490506001821680610ebe57607f821691505b602082108103610ed157610ed0610e77565b5b50919050565b7f2163616e745f6d696e745f6d6f72655f746f6b656e7300000000000000000000600082015250565b6000610f0d601683610ba0565b9150610f1882610ed7565b602082019050919050565b60006020820190508181036000830152610f3c81610f00565b9050919050565b7f4e487b7100000000000000000000000000000000000000000000000000000000600052601160045260246000fd5b6000610f7d82610caa565b9150610f8883610caa565b9250828201905080821115610fa057610f9f610f43565b5b92915050565b7f45524332303a2064656372656173656420616c6c6f77616e63652062656c6f7760008201527f207a65726f000000000000000000000000000000000000000000000000000000602082015250565b6000611002602583610ba0565b915061100d82610fa6565b604082019050919050565b6000602082019050818103600083015261103181610ff5565b9050919050565b7f45524332303a20617070726f76652066726f6d20746865207a65726f2061646460008201527f7265737300000000000000000000000000000000000000000000000000000000602082015250565b6000611094602483610ba0565b915061109f82611038565b604082019050919050565b600060208201905081810360008301526110c381611087565b9050919050565b7f45524332303a20617070726f766520746f20746865207a65726f20616464726560008201527f7373000000000000000000000000000000000000000000000000000000000000602082015250565b6000611126602283610ba0565b9150611131826110ca565b604082019050919050565b6000602082019050818103600083015261115581611119565b9050919050565b7f45524332303a20696e73756666696369656e7420616c6c6f77616e6365000000600082015250565b6000611192601d83610ba0565b915061119d8261115c565b602082019050919050565b600060208201905081810360008301526111c181611185565b9050919050565b7f45524332303a207472616e736665722066726f6d20746865207a65726f20616460008201527f6472657373000000000000000000000000000000000000000000000000000000602082015250565b6000611224602583610ba0565b915061122f826111c8565b604082019050919050565b6000602082019050818103600083015261125381611217565b9050919050565b7f45524332303a207472616e7366657220746f20746865207a65726f206164647260008201527f6573730000000000000000000000000000000000000000000000000000000000602082015250565b60006112b6602383610ba0565b91506112c18261125a565b604082019050919050565b600060208201905081810360008301526112e5816112a9565b9050919050565b7f45524332303a207472616e7366657220616d6f756e742065786365656473206260008201527f616c616e63650000000000000000000000000000000000000000000000000000602082015250565b6000611348602683610ba0565b9150611353826112ec565b604082019050919050565b600060208201905081810360008301526113778161133b565b905091905056fea2646970667358221220b34405ce17a3715fffdcef91ea27136ff76436e61f71a2dc78837a6777c088d764736f6c63430008110033",
  "immutableReferences": {},
  "source": "// SPDX-License-Identifier: GPL-3.0\npragma solidity >=0.7.0 <0.9.0;\n\nimport {ERC20} from \"@openzeppelin/contracts/token/ERC20/ERC20.sol\";\n\ncontract DashToken is ERC20 {\n    address private deployer;\n    uint256 private allocation = 2000 * 10**decimals();\n    mapping(address => uint) private allocations;\n\n    constructor(string memory name, string memory symbol) ERC20(name, symbol) {\n        deployer = msg.sender;\n        _mint(deployer, 1000000000000 * 10**decimals());\n    }\n\n    function faucetMint() public {\n        require(allocations[msg.sender] < allocation, \"!cant_mint_more_tokens\");\n        allocations[msg.sender] = allocation;\n        transferFrom(deployer, msg.sender, allocation);\n    }\n}\n",
  "sourcePath": "C:\\Users\\Arogundade Ibrahim\\Documents\\web3\\dash\\contracts\\DashToken.sol",
  "compiler": {
    "name": "solc",
    "version": "0.8.17+commit.8df45f5f.Emscripten.clang"
  },
  "schemaVersion": "3.4.10",
  "updatedAt": "2022-11-04T15:12:00.411Z",
  "devdoc": {
    "kind": "dev",
    "methods": {
      "allowance(address,address)": {
        "details": "See {IERC20-allowance}."
      },
      "approve(address,uint256)": {
        "details": "See {IERC20-approve}. NOTE: If `amount` is the maximum `uint256`, the allowance is not updated on `transferFrom`. This is semantically equivalent to an infinite approval. Requirements: - `spender` cannot be the zero address."
      },
      "balanceOf(address)": {
        "details": "See {IERC20-balanceOf}."
      },
      "decimals()": {
        "details": "Returns the number of decimals used to get its user representation. For example, if `decimals` equals `2`, a balance of `505` tokens should be displayed to a user as `5.05` (`505 / 10 ** 2`). Tokens usually opt for a value of 18, imitating the relationship between Ether and Wei. This is the value {ERC20} uses, unless this function is overridden; NOTE: This information is only used for _display_ purposes: it in no way affects any of the arithmetic of the contract, including {IERC20-balanceOf} and {IERC20-transfer}."
      },
      "decreaseAllowance(address,uint256)": {
        "details": "Atomically decreases the allowance granted to `spender` by the caller. This is an alternative to {approve} that can be used as a mitigation for problems described in {IERC20-approve}. Emits an {Approval} event indicating the updated allowance. Requirements: - `spender` cannot be the zero address. - `spender` must have allowance for the caller of at least `subtractedValue`."
      },
      "increaseAllowance(address,uint256)": {
        "details": "Atomically increases the allowance granted to `spender` by the caller. This is an alternative to {approve} that can be used as a mitigation for problems described in {IERC20-approve}. Emits an {Approval} event indicating the updated allowance. Requirements: - `spender` cannot be the zero address."
      },
      "name()": {
        "details": "Returns the name of the token."
      },
      "symbol()": {
        "details": "Returns the symbol of the token, usually a shorter version of the name."
      },
      "totalSupply()": {
        "details": "See {IERC20-totalSupply}."
      },
      "transfer(address,uint256)": {
        "details": "See {IERC20-transfer}. Requirements: - `to` cannot be the zero address. - the caller must have a balance of at least `amount`."
      },
      "transferFrom(address,address,uint256)": {
        "details": "See {IERC20-transferFrom}. Emits an {Approval} event indicating the updated allowance. This is not required by the EIP. See the note at the beginning of {ERC20}. NOTE: Does not update the allowance if the current allowance is the maximum `uint256`. Requirements: - `from` and `to` cannot be the zero address. - `from` must have a balance of at least `amount`. - the caller must have allowance for ``from``'s tokens of at least `amount`."
      }
    },
    "version": 1
  },
  "userdoc": {
    "kind": "user",
    "methods": {},
    "version": 1
  }
}