{
  "contractName": "Dash",
  "abi": [
    {
      "inputs": [
        {
          "internalType": "address",
          "name": "dashToken_",
          "type": "address"
        }
      ],
      "stateMutability": "nonpayable",
      "type": "constructor"
    },
    {
      "anonymous": false,
      "inputs": [
        {
          "indexed": false,
          "internalType": "address",
          "name": "user",
          "type": "address"
        },
        {
          "indexed": false,
          "internalType": "uint256",
          "name": "amount",
          "type": "uint256"
        },
        {
          "indexed": false,
          "internalType": "address",
          "name": "tokenAddress",
          "type": "address"
        }
      ],
      "name": "ClosedLiquidity",
      "type": "event"
    },
    {
      "anonymous": false,
      "inputs": [
        {
          "indexed": false,
          "internalType": "uint256",
          "name": "id",
          "type": "uint256"
        },
        {
          "indexed": false,
          "internalType": "uint256",
          "name": "amount",
          "type": "uint256"
        },
        {
          "indexed": false,
          "internalType": "address",
          "name": "userAddress",
          "type": "address"
        },
        {
          "indexed": false,
          "internalType": "address",
          "name": "owner",
          "type": "address"
        }
      ],
      "name": "PaidLoan",
      "type": "event"
    },
    {
      "anonymous": false,
      "inputs": [
        {
          "indexed": false,
          "internalType": "address",
          "name": "user",
          "type": "address"
        },
        {
          "indexed": false,
          "internalType": "uint256",
          "name": "amount",
          "type": "uint256"
        },
        {
          "indexed": false,
          "internalType": "address",
          "name": "tokenAddress",
          "type": "address"
        }
      ],
      "name": "ProvidedLiquity",
      "type": "event"
    },
    {
      "anonymous": false,
      "inputs": [
        {
          "indexed": false,
          "internalType": "uint256",
          "name": "id",
          "type": "uint256"
        },
        {
          "indexed": false,
          "internalType": "uint256",
          "name": "amount",
          "type": "uint256"
        },
        {
          "indexed": false,
          "internalType": "address",
          "name": "userAddress",
          "type": "address"
        },
        {
          "indexed": false,
          "internalType": "address",
          "name": "owner",
          "type": "address"
        }
      ],
      "name": "TookLoan",
      "type": "event"
    },
    {
      "anonymous": false,
      "inputs": [
        {
          "indexed": false,
          "internalType": "string",
          "name": "name",
          "type": "string"
        },
        {
          "indexed": false,
          "internalType": "string",
          "name": "photo",
          "type": "string"
        },
        {
          "indexed": false,
          "internalType": "string",
          "name": "email",
          "type": "string"
        },
        {
          "indexed": false,
          "internalType": "string",
          "name": "username",
          "type": "string"
        },
        {
          "indexed": false,
          "internalType": "address",
          "name": "userAddress",
          "type": "address"
        },
        {
          "indexed": false,
          "internalType": "uint256",
          "name": "creditScore",
          "type": "uint256"
        },
        {
          "indexed": false,
          "internalType": "bool",
          "name": "activeLoan",
          "type": "bool"
        }
      ],
      "name": "UserCreated",
      "type": "event"
    },
    {
      "inputs": [
        {
          "internalType": "address",
          "name": "",
          "type": "address"
        },
        {
          "internalType": "uint256",
          "name": "",
          "type": "uint256"
        }
      ],
      "name": "liquidities",
      "outputs": [
        {
          "internalType": "uint256",
          "name": "id",
          "type": "uint256"
        },
        {
          "internalType": "uint256",
          "name": "amount",
          "type": "uint256"
        },
        {
          "internalType": "address",
          "name": "tokenAddress",
          "type": "address"
        },
        {
          "internalType": "uint256",
          "name": "interestRate",
          "type": "uint256"
        },
        {
          "internalType": "uint256",
          "name": "minTakeOut",
          "type": "uint256"
        },
        {
          "internalType": "uint256",
          "name": "maxTakeOut",
          "type": "uint256"
        },
        {
          "internalType": "uint256",
          "name": "minDays",
          "type": "uint256"
        },
        {
          "internalType": "uint256",
          "name": "maxDays",
          "type": "uint256"
        },
        {
          "internalType": "uint256",
          "name": "minCreditScore",
          "type": "uint256"
        },
        {
          "internalType": "uint256",
          "name": "createdAt",
          "type": "uint256"
        }
      ],
      "stateMutability": "view",
      "type": "function",
      "constant": true
    },
    {
      "inputs": [
        {
          "internalType": "address",
          "name": "",
          "type": "address"
        },
        {
          "internalType": "uint256",
          "name": "",
          "type": "uint256"
        }
      ],
      "name": "loans",
      "outputs": [
        {
          "internalType": "uint256",
          "name": "id",
          "type": "uint256"
        },
        {
          "internalType": "uint256",
          "name": "amount",
          "type": "uint256"
        },
        {
          "internalType": "address",
          "name": "tokenAddress",
          "type": "address"
        },
        {
          "internalType": "uint256",
          "name": "interestRate",
          "type": "uint256"
        },
        {
          "internalType": "address",
          "name": "from",
          "type": "address"
        },
        {
          "internalType": "uint256",
          "name": "createdAt",
          "type": "uint256"
        },
        {
          "internalType": "uint256",
          "name": "paidAt",
          "type": "uint256"
        }
      ],
      "stateMutability": "view",
      "type": "function",
      "constant": true
    },
    {
      "inputs": [],
      "name": "platformFee",
      "outputs": [
        {
          "internalType": "uint256",
          "name": "",
          "type": "uint256"
        }
      ],
      "stateMutability": "view",
      "type": "function",
      "constant": true
    },
    {
      "inputs": [
        {
          "internalType": "address",
          "name": "",
          "type": "address"
        }
      ],
      "name": "users",
      "outputs": [
        {
          "internalType": "uint256",
          "name": "id",
          "type": "uint256"
        },
        {
          "internalType": "uint256",
          "name": "creditScore",
          "type": "uint256"
        },
        {
          "internalType": "bool",
          "name": "activeLoan",
          "type": "bool"
        },
        {
          "internalType": "uint256",
          "name": "createdAt",
          "type": "uint256"
        }
      ],
      "stateMutability": "view",
      "type": "function",
      "constant": true
    },
    {
      "inputs": [
        {
          "internalType": "string",
          "name": "name",
          "type": "string"
        },
        {
          "internalType": "string",
          "name": "photo",
          "type": "string"
        },
        {
          "internalType": "string",
          "name": "email",
          "type": "string"
        },
        {
          "internalType": "string",
          "name": "username",
          "type": "string"
        }
      ],
      "name": "createUser",
      "outputs": [],
      "stateMutability": "nonpayable",
      "type": "function"
    },
    {
      "inputs": [
        {
          "internalType": "uint256",
          "name": "id",
          "type": "uint256"
        },
        {
          "internalType": "uint256",
          "name": "amount",
          "type": "uint256"
        },
        {
          "internalType": "address",
          "name": "owner",
          "type": "address"
        },
        {
          "internalType": "uint256",
          "name": "duration",
          "type": "uint256"
        }
      ],
      "name": "takeLoan",
      "outputs": [],
      "stateMutability": "nonpayable",
      "type": "function"
    },
    {
      "inputs": [
        {
          "internalType": "uint256",
          "name": "id",
          "type": "uint256"
        },
        {
          "internalType": "address",
          "name": "owner",
          "type": "address"
        }
      ],
      "name": "payLoan",
      "outputs": [],
      "stateMutability": "nonpayable",
      "type": "function"
    },
    {
      "inputs": [
        {
          "internalType": "uint256",
          "name": "id",
          "type": "uint256"
        }
      ],
      "name": "closeLiquidity",
      "outputs": [],
      "stateMutability": "nonpayable",
      "type": "function"
    },
    {
      "inputs": [
        {
          "internalType": "uint256",
          "name": "amount",
          "type": "uint256"
        },
        {
          "internalType": "address",
          "name": "tokenAddress",
          "type": "address"
        },
        {
          "internalType": "uint256",
          "name": "interestRate",
          "type": "uint256"
        },
        {
          "internalType": "uint256",
          "name": "minTakeOut",
          "type": "uint256"
        },
        {
          "internalType": "uint256",
          "name": "maxTakeOut",
          "type": "uint256"
        },
        {
          "internalType": "uint256",
          "name": "minDays",
          "type": "uint256"
        },
        {
          "internalType": "uint256",
          "name": "maxDays",
          "type": "uint256"
        },
        {
          "internalType": "uint256",
          "name": "minCreditScore",
          "type": "uint256"
        }
      ],
      "name": "provideLiquity",
      "outputs": [],
      "stateMutability": "nonpayable",
      "type": "function"
    }
  ],
  "bytecode": "0x60806040526028600455600160095534801561001a57600080fd5b5060405161193a38038061193a8339810160408190526100399161006c565b60008054336001600160a01b031991821617909155600580549091166001600160a01b039290921691909117905561009c565b60006020828403121561007e57600080fd5b81516001600160a01b038116811461009557600080fd5b9392505050565b61188f806100ab6000396000f3fe608060405234801561001057600080fd5b50600436106100a35760003560e01c806398c61c3711610076578063af03c7931161005b578063af03c793146101b6578063d52559d0146101c9578063d988cb6c1461023457600080fd5b806398c61c37146100ff578063a87430ba1461015557600080fd5b806326232a2e146100a8578063329aa414146100c457806333380359146100d95780636f7fcddb146100ec575b600080fd5b6100b160095481565b6040519081526020015b60405180910390f35b6100d76100d2366004611487565b610247565b005b6100d76100e73660046114bc565b6104f4565b6100d76100fa36600461159c565b610a43565b61011261010d366004611649565b610b84565b6040805197885260208801969096526001600160a01b03948516958701959095526060860192909252909116608084015260a083015260c082015260e0016100bb565b610190610163366004611673565b60066020526000908152604090208054600182015460028301546003909301549192909160ff9091169084565b6040805194855260208501939093529015159183019190915260608201526080016100bb565b6100d76101c4366004611695565b610bed565b6101dc6101d7366004611649565b610e46565b604080519a8b5260208b01999099526001600160a01b03909716978901979097526060880194909452608087019290925260a086015260c085015260e0840152610100830191909152610120820152610140016100bb565b6100d76102423660046116c1565b610ec0565b600061025333836110ea565b905080196102a85760405162461bcd60e51b815260206004820152601860248201527f21796f755f646f5f6f776e5f74686573655f746f6b656e73000000000000000060448201526064015b60405180910390fd5b3360009081526007602052604081208054839081106102c9576102c9611721565b60009182526020918290206040805161014081018252600a90930290910180548352600181015493830184905260028101546001600160a01b0316918301919091526003810154606083015260048101546080830152600581015460a0830152600681015460c0830152600781015460e083015260088101546101008301526009015461012082015291506103a05760405162461bcd60e51b815260206004820152601360248201527f696e7375666669656365696e745f66756e647300000000000000000000000000604482015260640161029f565b604081810151602083015191517fa9059cbb0000000000000000000000000000000000000000000000000000000081523360048201526024810192909252906001600160a01b0382169063a9059cbb906044016020604051808303816000875af1158015610412573d6000803e3d6000fd5b505050506040513d601f19601f820116820180604052508101906104369190611737565b50610496604051806101400160405280600081526020016000815260200160006001600160a01b03168152602001600081526020016000815260200160008152602001600081526020016000815260200160008152602001600081525090565b6020808201516040808401518151338152938401929092526001600160a01b03909116908201529092507f3c9a00f6dceadb903739b6ec85afbd4ab4259c6959dd3d14e7bec5af7d901e7c906060015b60405180910390a150505050565b600083116105445760405162461bcd60e51b815260206004820152601460248201527f2163616e5f74616b655f7a65726f5f746f6b656e000000000000000000000000604482015260640161029f565b600061055083866110ea565b905080196105a05760405162461bcd60e51b815260206004820152601160248201527f216c69717569646974795f657869737473000000000000000000000000000000604482015260640161029f565b6001600160a01b03831660009081526007602052604081208054839081106105ca576105ca611721565b600091825260208083206040805161014081018252600a9094029091018054845260018101549284019290925260028201546001600160a01b0316908301526003810154606083015260048101546080830152600581015460a0830152600681015460c0830152600781015460e0830152600881015461010083015260090154610120820152915061065c853361121b565b905080196106ac5760405162461bcd60e51b815260206004820152600c60248201527f21756e6174686f72697a65640000000000000000000000000000000000000000604482015260640161029f565b3360009081526006602052604090206002015460ff161561070f5760405162461bcd60e51b815260206004820152601260248201527f21616c72656164795f6f6e5f615f6c6f616e0000000000000000000000000000604482015260640161029f565b85826020015110156107635760405162461bcd60e51b815260206004820152601160248201527f696e73756669636369656e745f706f6f6c000000000000000000000000000000604482015260640161029f565b858260a0015110156107b75760405162461bcd60e51b815260206004820152600860248201527f746f6f5f6d756368000000000000000000000000000000000000000000000000604482015260640161029f565b858260800151111561080b5760405162461bcd60e51b815260206004820152600a60248201527f746f6f5f6c6974746c6500000000000000000000000000000000000000000000604482015260640161029f565b838260e00151101561085f5760405162461bcd60e51b815260206004820152600860248201527f746f6f5f6c6f6e67000000000000000000000000000000000000000000000000604482015260640161029f565b838260c0015111156108b35760405162461bcd60e51b815260206004820152600960248201527f746f6f5f73686f72740000000000000000000000000000000000000000000000604482015260640161029f565b85826020018181516108c5919061176f565b905250336000908152600660205260408120600201805460ff1916600117905560038054916108f383611782565b9091555050336000818152600860209081526040808320815160e0810183526003805482528185018d8152898501516001600160a01b039081168487019081526060808d01519086019081528f8316608087019081524260a0880190815260c088018c8152895460018181018c559a8e529b909c2097516007909b02909701998a55935196890196909655516002880180549183167fffffffffffffffffffffffff00000000000000000000000000000000000000009283161790559451878401559051600487018054919092169416939093179092555160058401559251600690920191909155905490517fa0ebc41a23816f010249130cc1339f5639811d23db706ce8da5a0ef2f0d68af992610a3292918a91908a9093845260208401929092526001600160a01b03908116604084015216606082015260800190565b60405180910390a150505050505050565b60018054906000610a5383611782565b90915550506040805160a0810182526001548152600480546020808401919091526000838501819052426060850152338152600682528490209091018054845181840281018401909552808552929360808501939092830182828015610ae257602002820191906000526020600020905b81546001600160a01b03168152600190910190602001808311610ac4575b50505091909252505033600090815260066020908152604091829020835181558382015160018201559183015160028301805460ff19169115159190911790556060830151600383015560808301518051610b4392600485019201906113f5565b50506004546040517f40fa39fbc689c7335d40997dbcee411c5edc8db0900d3043c99b1cccb9b0721192506104e691879187918791879133916000906117e1565b60086020528160005260406000208181548110610ba057600080fd5b600091825260209091206007909102018054600182015460028301546003840154600485015460058601546006909601549497509295506001600160a01b03918216949093929091169187565b6000610bf933846112eb565b90508019610c495760405162461bcd60e51b815260206004820152600c60248201527f216c6f616e5f6578697374730000000000000000000000000000000000000000604482015260640161029f565b336000908152600860205260408120805483908110610c6a57610c6a611721565b60009182526020918290206040805160e08101825260079093029091018054835260018101549383019390935260028301546001600160a01b0390811691830191909152600383015460608301526004830154811660808301819052600584015460a084015260069093015460c0830152909250841614610d2d5760405162461bcd60e51b815260206004820152600c60248201527f21756e6174686f72697a65640000000000000000000000000000000000000000604482015260640161029f565b604081810151602083015191517f23b872dd0000000000000000000000000000000000000000000000000000000081523360048201526001600160a01b038681166024830152604482019390935290918216906323b872dd906064016020604051808303816000875af1158015610da8573d6000803e3d6000fd5b505050506040513d601f19601f82011682018060405250810190610dcc9190611737565b504260c083015233600081815260066020908152604091829020600201805460ff1916905580850151825189815291820152808201929092526001600160a01b0386166060830152517fc587e9e3e3efb794f68123bb71353a50af3e53fec0cdd4a4424d65aee62a1cd69181900360800190a15050505050565b60076020528160005260406000208181548110610e6257600080fd5b60009182526020909120600a90910201805460018201546002830154600384015460048501546005860154600687015460078801546008890154600990990154979a509598506001600160a01b03909416969295919490939290918a565b60028054906000610ed083611782565b919050555060076000336001600160a01b03166001600160a01b0316815260200190815260200160002060405180610140016040528060025481526020018a8152602001896001600160a01b031681526020018881526020018781526020018681526020018581526020018481526020018381526020014281525090806001815401808255809150506001900390600052602060002090600a0201600090919091909150600082015181600001556020820151816001015560408201518160020160006101000a8154816001600160a01b0302191690836001600160a01b03160217905550606082015181600301556080820151816004015560a0820151816005015560c0820151816006015560e082015181600701556101008201518160080155610120820151816009015550506000879050806001600160a01b03166323b872dd33308c6040518463ffffffff1660e01b8152600401611053939291906001600160a01b039384168152919092166020820152604081019190915260600190565b6020604051808303816000875af1158015611072573d6000803e3d6000fd5b505050506040513d601f19601f820116820180604052508101906110969190611737565b5060408051338152602081018b90526001600160a01b038a168183015290517fc642049f66e09db93436b1d16b612a8674630d4c4e0c5c6b63d18166e83207ad9181900360600190a1505050505050505050565b6001600160a01b038216600090815260076020908152604080832080548251818502810185019093528083528493849084015b828210156111b95760008481526020908190206040805161014081018252600a8602909201805483526001808201548486015260028201546001600160a01b0316928401929092526003810154606084015260048101546080840152600581015460a0840152600681015460c0840152600781015460e0840152600881015461010084015260090154610120830152908352909201910161111d565b5050505090506000600019905060005b825181101561121057848382815181106111e5576111e5611721565b602002602001015160000151036111fe57809150611210565b8061120881611782565b9150506111c9565b509150505b92915050565b6001600160a01b03821660009081526006602090815260408083206004018054825181850281018501909352808352849383018282801561128557602002820191906000526020600020905b81546001600160a01b03168152600190910190602001808311611267575b505050505090506000600019905060005b825181101561121057846001600160a01b03168382815181106112bb576112bb611721565b60200260200101516001600160a01b0316036112d957809150611210565b806112e381611782565b915050611296565b6001600160a01b038216600090815260086020908152604080832080548251818502810185019093528083528493849084015b8282101561139e5760008481526020908190206040805160e08101825260078602909201805483526001808201548486015260028201546001600160a01b03908116938501939093526003820154606085015260048201549092166080840152600581015460a08401526006015460c0830152908352909201910161131e565b5050505090506000600019905060005b825181101561121057848382815181106113ca576113ca611721565b602002602001015160000151036113e357809150611210565b806113ed81611782565b9150506113ae565b828054828255906000526020600020908101928215611462579160200282015b8281111561146257825182547fffffffffffffffffffffffff0000000000000000000000000000000000000000166001600160a01b03909116178255602090920191600190910190611415565b5061146e929150611472565b5090565b5b8082111561146e5760008155600101611473565b60006020828403121561149957600080fd5b5035919050565b80356001600160a01b03811681146114b757600080fd5b919050565b600080600080608085870312156114d257600080fd5b84359350602085013592506114e9604086016114a0565b9396929550929360600135925050565b634e487b7160e01b600052604160045260246000fd5b600082601f83011261152057600080fd5b813567ffffffffffffffff8082111561153b5761153b6114f9565b604051601f8301601f19908116603f01168101908282118183101715611563576115636114f9565b8160405283815286602085880101111561157c57600080fd5b836020870160208301376000602085830101528094505050505092915050565b600080600080608085870312156115b257600080fd5b843567ffffffffffffffff808211156115ca57600080fd5b6115d68883890161150f565b955060208701359150808211156115ec57600080fd5b6115f88883890161150f565b9450604087013591508082111561160e57600080fd5b61161a8883890161150f565b9350606087013591508082111561163057600080fd5b5061163d8782880161150f565b91505092959194509250565b6000806040838503121561165c57600080fd5b611665836114a0565b946020939093013593505050565b60006020828403121561168557600080fd5b61168e826114a0565b9392505050565b600080604083850312156116a857600080fd5b823591506116b8602084016114a0565b90509250929050565b600080600080600080600080610100898b0312156116de57600080fd5b883597506116ee60208a016114a0565b979a9799505050506040860135956060810135956080820135955060a0820135945060c0820135935060e0909101359150565b634e487b7160e01b600052603260045260246000fd5b60006020828403121561174957600080fd5b8151801515811461168e57600080fd5b634e487b7160e01b600052601160045260246000fd5b8181038181111561121557611215611759565b60006001820161179457611794611759565b5060010190565b6000815180845260005b818110156117c1576020818501810151868301820152016117a5565b506000602082860101526020601f19601f83011685010191505092915050565b60e0815260006117f460e083018a61179b565b8281036020840152611806818a61179b565b9050828103604084015261181a818961179b565b9050828103606084015261182e818861179b565b6001600160a01b03969096166080840152505060a0810192909252151560c09091015294935050505056fea2646970667358221220f8266efaf6fff23e0da4e8ec534516402a83918a5dfbf06c799abda85fd906fa64736f6c63430008100033",
  "immutableReferences": {},
  "source": "// SPDX-License-Identifier: GPL-3.0\npragma solidity >=0.7.0 <0.9.0;\n\nimport {IERC20} from \"@openzeppelin/contracts/token/ERC20/iERC20.sol\";\nimport {DashToken} from \"./DashToken.sol\";\n\ncontract Dash {\n    address private deployer;\n\n    uint private userID;\n    uint private liquidityID;\n    uint private loanID;\n\n    uint defaultCreditScore = 40;\n\n    DashToken private dashToken;\n\n    mapping(address => User) public users;\n    mapping(address => Liquidity[]) public liquidities;\n    mapping(address => Loan[]) public loans;\n\n    uint public platformFee = 1; // 1% fee\n\n    constructor(address dashToken_) {\n        deployer = msg.sender;\n        dashToken = DashToken(dashToken_);\n    }\n\n    struct Liquidity {\n        uint id;\n        uint256 amount;\n        address tokenAddress;\n        uint interestRate;\n        uint256 minTakeOut;\n        uint256 maxTakeOut;\n        uint minDays;\n        uint maxDays;\n        uint minCreditScore;\n        uint createdAt;\n    }\n\n    struct Loan {\n        uint id;\n        uint256 amount;\n        address tokenAddress;\n        uint interestRate;\n        address from;\n        uint createdAt;\n        uint paidAt;\n    }\n\n    struct User {\n        uint id;\n        uint creditScore;\n        bool activeLoan;\n        uint createdAt;\n        address[] networks;\n    }\n\n    function createUser(\n        string memory name,\n        string memory photo,\n        string memory email,\n        string memory username\n    ) public {\n        // require(users[msg.sender].id == 0, \"!already_created_an_account\");\n\n        userID++;\n        users[msg.sender] = User(\n            userID,\n            defaultCreditScore,\n            false,\n            block.timestamp,\n            users[msg.sender].networks\n        );\n\n        emit UserCreated(\n            name,\n            photo,\n            email,\n            username,\n            msg.sender,\n            defaultCreditScore,\n            false\n        );\n    }\n\n    function takeLoan(\n        uint id,\n        uint256 amount,\n        address owner,\n        uint duration\n    ) public {\n        require(amount > 0, \"!can_take_zero_token\");\n        int ownerLiquidityIndex = getUserLiquidityIndex(owner, id);\n        require(ownerLiquidityIndex != -1, \"!liquidity_exists\");\n\n        Liquidity memory liquidity = liquidities[owner][\n            uint(ownerLiquidityIndex)\n        ];\n\n        int userNetworkIndex = getUserNetworkIndex(owner, msg.sender);\n        require(userNetworkIndex != -1, \"!unathorized\");\n\n        require(!users[msg.sender].activeLoan, \"!already_on_a_loan\");\n\n        require(liquidity.amount >= amount, \"insuficcient_pool\");\n        require(liquidity.maxTakeOut >= amount, \"too_much\");\n        require(liquidity.minTakeOut <= amount, \"too_little\");\n        require(liquidity.maxDays >= duration, \"too_long\");\n        require(liquidity.minDays <= duration, \"too_short\");\n\n        liquidity.amount -= amount;\n        users[msg.sender].activeLoan = true;\n\n        loanID++;\n        loans[msg.sender].push(\n            Loan(\n                loanID,\n                amount,\n                liquidity.tokenAddress,\n                liquidity.interestRate,\n                owner,\n                block.timestamp,\n                0\n            )\n        );\n\n        emit TookLoan(loanID, amount, msg.sender, owner);\n    }\n\n    function payLoan(uint id, address owner) public {\n        int userLoanIndex = getUserLoanIndex(msg.sender, id);\n        require(userLoanIndex != -1, \"!loan_exists\");\n\n        Loan memory loan = loans[msg.sender][uint(userLoanIndex)];\n        require(loan.from == owner, \"!unathorized\");\n\n        // stake tokens from user wallet to the contract\n        IERC20 token = IERC20(loan.tokenAddress);\n        token.transferFrom(msg.sender, owner, loan.amount);\n\n        loan.paidAt = block.timestamp;\n        users[msg.sender].activeLoan = false;\n\n        emit PaidLoan(id, loan.amount, msg.sender, owner);\n    }\n\n    function closeLiquidity(uint id) public {\n        int userLiquidityIndex = getUserLiquidityIndex(msg.sender, id);\n        require(userLiquidityIndex != -1, \"!you_do_own_these_tokens\");\n\n        Liquidity memory liquidity = liquidities[msg.sender][\n            uint256(userLiquidityIndex)\n        ];\n\n        require(liquidity.amount > 0, \"insuffieceint_funds\");\n\n        // send tokens to user wallet\n        IERC20 token = IERC20(liquidity.tokenAddress);\n        token.transfer(msg.sender, liquidity.amount);\n\n        delete liquidity;\n\n        emit ClosedLiquidity(\n            msg.sender,\n            liquidity.amount,\n            liquidity.tokenAddress\n        );\n    }\n\n    function provideLiquity(\n        uint256 amount,\n        address tokenAddress,\n        uint interestRate,\n        uint256 minTakeOut,\n        uint256 maxTakeOut,\n        uint minDays,\n        uint maxDays,\n        uint minCreditScore\n    ) public {\n        liquidityID++;\n        liquidities[msg.sender].push(\n            Liquidity(\n                liquidityID,\n                amount,\n                tokenAddress,\n                interestRate,\n                minTakeOut,\n                maxTakeOut,\n                minDays,\n                maxDays,\n                minCreditScore,\n                block.timestamp\n            )\n        );\n\n        // stake tokens from user wallet to the contract\n        IERC20 token = IERC20(tokenAddress);\n        token.transferFrom(msg.sender, address(this), amount);\n\n        emit ProvidedLiquity(msg.sender, amount, tokenAddress);\n    }\n\n    function getUserLoanIndex(address user, uint id)\n        private\n        view\n        returns (int)\n    {\n        Loan[] memory loanList = loans[user];\n        int position = -1;\n\n        for (uint index = 0; index < loanList.length; index++) {\n            if (loanList[index].id == id) {\n                position = int(index);\n                break;\n            }\n        }\n\n        return position;\n    }\n\n    function getUserLiquidityIndex(address user, uint id)\n        private\n        view\n        returns (int)\n    {\n        Liquidity[] memory liquidityList = liquidities[user];\n        int position = -1;\n\n        for (uint index = 0; index < liquidityList.length; index++) {\n            if (liquidityList[index].id == id) {\n                position = int(index);\n                break;\n            }\n        }\n\n        return position;\n    }\n\n    function getUserNetworkIndex(address user, address network)\n        private\n        view\n        returns (int)\n    {\n        address[] memory networks = users[user].networks;\n        int position = -1;\n\n        for (uint index = 0; index < networks.length; index++) {\n            if (networks[index] == network) {\n                position = int(index);\n                break;\n            }\n        }\n\n        return position;\n    }\n\n    function calculateSimpleInterest(\n        uint256 capital,\n        uint rate,\n        uint duration\n    ) private pure returns (uint256) {\n        // amount = capital(1 + (rate * duration))\n        return capital * (1 + (rate * duration));\n    }\n\n    event UserCreated(\n        string name,\n        string photo,\n        string email,\n        string username,\n        address userAddress,\n        uint creditScore,\n        bool activeLoan\n    );\n    event TookLoan(uint id, uint256 amount, address userAddress, address owner);\n    event PaidLoan(uint id, uint256 amount, address userAddress, address owner);\n    event ClosedLiquidity(address user, uint256 amount, address tokenAddress);\n    event ProvidedLiquity(address user, uint256 amount, address tokenAddress);\n}\n",
  "sourcePath": "C:\\Users\\Arogundade Ibrahim\\Documents\\web3\\dash\\contracts\\Dash.sol",
  "compiler": {
    "name": "solc",
    "version": "0.8.16+commit.07a7930e.Emscripten.clang"
  },
  "schemaVersion": "3.4.10",
  "updatedAt": "2022-11-05T08:57:07.475Z",
  "networkType": "ethereum",
  "devdoc": {
    "kind": "dev",
    "methods": {},
    "version": 1
  },
  "userdoc": {
    "kind": "user",
    "methods": {},
    "version": 1
  }
}