{
  "contractName": "Dash",
  "abi": [
    {
      "inputs": [
        {
          "internalType": "address",
          "name": "dashToken_",
          "type": "address"
        }
      ],
      "stateMutability": "nonpayable",
      "type": "constructor"
    },
    {
      "anonymous": false,
      "inputs": [
        {
          "indexed": false,
          "internalType": "uint256",
          "name": "id",
          "type": "uint256"
        }
      ],
      "name": "ClosedLiquidity",
      "type": "event"
    },
    {
      "anonymous": false,
      "inputs": [
        {
          "indexed": false,
          "internalType": "address",
          "name": "user",
          "type": "address"
        },
        {
          "indexed": false,
          "internalType": "uint256",
          "name": "score",
          "type": "uint256"
        }
      ],
      "name": "CreditScoreChanged",
      "type": "event"
    },
    {
      "anonymous": false,
      "inputs": [
        {
          "indexed": false,
          "internalType": "uint256",
          "name": "loanID",
          "type": "uint256"
        },
        {
          "indexed": false,
          "internalType": "uint256",
          "name": "liquidityID",
          "type": "uint256"
        },
        {
          "indexed": false,
          "internalType": "uint256",
          "name": "amount",
          "type": "uint256"
        },
        {
          "indexed": false,
          "internalType": "uint256",
          "name": "duration",
          "type": "uint256"
        },
        {
          "indexed": false,
          "internalType": "uint256",
          "name": "interestRate",
          "type": "uint256"
        },
        {
          "indexed": false,
          "internalType": "uint256",
          "name": "createdAt",
          "type": "uint256"
        },
        {
          "indexed": false,
          "internalType": "uint256",
          "name": "paidAt",
          "type": "uint256"
        },
        {
          "indexed": false,
          "internalType": "address",
          "name": "userAddress",
          "type": "address"
        },
        {
          "indexed": false,
          "internalType": "address",
          "name": "provider",
          "type": "address"
        }
      ],
      "name": "LoanCreated",
      "type": "event"
    },
    {
      "anonymous": false,
      "inputs": [
        {
          "indexed": false,
          "internalType": "address",
          "name": "user",
          "type": "address"
        },
        {
          "indexed": false,
          "internalType": "address",
          "name": "by",
          "type": "address"
        },
        {
          "indexed": false,
          "internalType": "bool",
          "name": "isAdded",
          "type": "bool"
        }
      ],
      "name": "NetworkAdded",
      "type": "event"
    },
    {
      "anonymous": false,
      "inputs": [
        {
          "indexed": false,
          "internalType": "uint256",
          "name": "liquidityID",
          "type": "uint256"
        },
        {
          "indexed": false,
          "internalType": "uint256",
          "name": "amount",
          "type": "uint256"
        },
        {
          "indexed": false,
          "internalType": "address",
          "name": "tokenAddress",
          "type": "address"
        },
        {
          "indexed": false,
          "internalType": "uint256",
          "name": "interestRate",
          "type": "uint256"
        },
        {
          "indexed": false,
          "internalType": "uint256",
          "name": "minTakeOut",
          "type": "uint256"
        },
        {
          "indexed": false,
          "internalType": "uint256",
          "name": "maxTakeOut",
          "type": "uint256"
        },
        {
          "indexed": false,
          "internalType": "uint256",
          "name": "minDays",
          "type": "uint256"
        },
        {
          "indexed": false,
          "internalType": "uint256",
          "name": "maxDays",
          "type": "uint256"
        },
        {
          "indexed": false,
          "internalType": "uint256",
          "name": "minCreditScore",
          "type": "uint256"
        },
        {
          "indexed": false,
          "internalType": "uint256",
          "name": "createdAt",
          "type": "uint256"
        },
        {
          "indexed": false,
          "internalType": "address",
          "name": "userAddress",
          "type": "address"
        }
      ],
      "name": "ProvidedLiquity",
      "type": "event"
    },
    {
      "anonymous": false,
      "inputs": [
        {
          "indexed": false,
          "internalType": "uint256",
          "name": "id",
          "type": "uint256"
        },
        {
          "indexed": false,
          "internalType": "uint256",
          "name": "amount",
          "type": "uint256"
        }
      ],
      "name": "UpdatedLiquidity",
      "type": "event"
    },
    {
      "anonymous": false,
      "inputs": [
        {
          "indexed": false,
          "internalType": "string",
          "name": "name",
          "type": "string"
        },
        {
          "indexed": false,
          "internalType": "string",
          "name": "photo",
          "type": "string"
        },
        {
          "indexed": false,
          "internalType": "string",
          "name": "email",
          "type": "string"
        },
        {
          "indexed": false,
          "internalType": "string",
          "name": "username",
          "type": "string"
        },
        {
          "indexed": false,
          "internalType": "address",
          "name": "userAddress",
          "type": "address"
        },
        {
          "indexed": false,
          "internalType": "uint256",
          "name": "creditScore",
          "type": "uint256"
        },
        {
          "indexed": false,
          "internalType": "bool",
          "name": "activeLoan",
          "type": "bool"
        },
        {
          "indexed": false,
          "internalType": "string",
          "name": "year",
          "type": "string"
        },
        {
          "indexed": false,
          "internalType": "string",
          "name": "month",
          "type": "string"
        },
        {
          "indexed": false,
          "internalType": "string",
          "name": "phone",
          "type": "string"
        },
        {
          "indexed": false,
          "internalType": "string",
          "name": "homeAddress",
          "type": "string"
        }
      ],
      "name": "UserCreated",
      "type": "event"
    },
    {
      "inputs": [
        {
          "internalType": "address",
          "name": "",
          "type": "address"
        },
        {
          "internalType": "uint256",
          "name": "",
          "type": "uint256"
        }
      ],
      "name": "liquidities",
      "outputs": [
        {
          "internalType": "uint256",
          "name": "id",
          "type": "uint256"
        },
        {
          "internalType": "uint256",
          "name": "amount",
          "type": "uint256"
        },
        {
          "internalType": "address",
          "name": "tokenAddress",
          "type": "address"
        },
        {
          "internalType": "uint256",
          "name": "interestRate",
          "type": "uint256"
        },
        {
          "internalType": "uint256",
          "name": "minTakeOut",
          "type": "uint256"
        },
        {
          "internalType": "uint256",
          "name": "maxTakeOut",
          "type": "uint256"
        },
        {
          "internalType": "uint256",
          "name": "minDays",
          "type": "uint256"
        },
        {
          "internalType": "uint256",
          "name": "maxDays",
          "type": "uint256"
        },
        {
          "internalType": "uint256",
          "name": "minCreditScore",
          "type": "uint256"
        },
        {
          "internalType": "uint256",
          "name": "createdAt",
          "type": "uint256"
        }
      ],
      "stateMutability": "view",
      "type": "function",
      "constant": true
    },
    {
      "inputs": [
        {
          "internalType": "address",
          "name": "",
          "type": "address"
        },
        {
          "internalType": "uint256",
          "name": "",
          "type": "uint256"
        }
      ],
      "name": "loans",
      "outputs": [
        {
          "internalType": "uint256",
          "name": "id",
          "type": "uint256"
        },
        {
          "internalType": "uint256",
          "name": "liquidity",
          "type": "uint256"
        },
        {
          "internalType": "uint256",
          "name": "amount",
          "type": "uint256"
        },
        {
          "internalType": "address",
          "name": "tokenAddress",
          "type": "address"
        },
        {
          "internalType": "uint256",
          "name": "interestRate",
          "type": "uint256"
        },
        {
          "internalType": "uint256",
          "name": "duration",
          "type": "uint256"
        },
        {
          "internalType": "address",
          "name": "provider",
          "type": "address"
        },
        {
          "internalType": "uint256",
          "name": "createdAt",
          "type": "uint256"
        },
        {
          "internalType": "uint256",
          "name": "paidAt",
          "type": "uint256"
        }
      ],
      "stateMutability": "view",
      "type": "function",
      "constant": true
    },
    {
      "inputs": [],
      "name": "platformFee",
      "outputs": [
        {
          "internalType": "uint256",
          "name": "",
          "type": "uint256"
        }
      ],
      "stateMutability": "view",
      "type": "function",
      "constant": true
    },
    {
      "inputs": [
        {
          "internalType": "address",
          "name": "",
          "type": "address"
        }
      ],
      "name": "users",
      "outputs": [
        {
          "internalType": "uint256",
          "name": "id",
          "type": "uint256"
        },
        {
          "internalType": "uint256",
          "name": "creditScore",
          "type": "uint256"
        },
        {
          "internalType": "bool",
          "name": "activeLoan",
          "type": "bool"
        },
        {
          "internalType": "uint256",
          "name": "createdAt",
          "type": "uint256"
        }
      ],
      "stateMutability": "view",
      "type": "function",
      "constant": true
    },
    {
      "inputs": [
        {
          "internalType": "string",
          "name": "name",
          "type": "string"
        },
        {
          "internalType": "string",
          "name": "photo",
          "type": "string"
        },
        {
          "internalType": "string",
          "name": "email",
          "type": "string"
        },
        {
          "internalType": "string",
          "name": "username",
          "type": "string"
        },
        {
          "internalType": "string",
          "name": "year",
          "type": "string"
        },
        {
          "internalType": "string",
          "name": "month",
          "type": "string"
        },
        {
          "internalType": "string",
          "name": "phone",
          "type": "string"
        },
        {
          "internalType": "string",
          "name": "homeAddress",
          "type": "string"
        }
      ],
      "name": "createUser",
      "outputs": [],
      "stateMutability": "nonpayable",
      "type": "function"
    },
    {
      "inputs": [
        {
          "internalType": "string",
          "name": "name",
          "type": "string"
        },
        {
          "internalType": "string",
          "name": "photo",
          "type": "string"
        },
        {
          "internalType": "string",
          "name": "email",
          "type": "string"
        },
        {
          "internalType": "string",
          "name": "username",
          "type": "string"
        },
        {
          "internalType": "string",
          "name": "year",
          "type": "string"
        },
        {
          "internalType": "string",
          "name": "month",
          "type": "string"
        },
        {
          "internalType": "string",
          "name": "phone",
          "type": "string"
        },
        {
          "internalType": "string",
          "name": "homeAddress",
          "type": "string"
        }
      ],
      "name": "updateUser",
      "outputs": [],
      "stateMutability": "nonpayable",
      "type": "function"
    },
    {
      "inputs": [
        {
          "internalType": "address",
          "name": "user",
          "type": "address"
        }
      ],
      "name": "addNetwork",
      "outputs": [],
      "stateMutability": "nonpayable",
      "type": "function"
    },
    {
      "inputs": [
        {
          "internalType": "address",
          "name": "user",
          "type": "address"
        }
      ],
      "name": "removeNetwork",
      "outputs": [],
      "stateMutability": "nonpayable",
      "type": "function"
    },
    {
      "inputs": [
        {
          "internalType": "uint256",
          "name": "id",
          "type": "uint256"
        },
        {
          "internalType": "uint256",
          "name": "amount",
          "type": "uint256"
        },
        {
          "internalType": "address",
          "name": "provider",
          "type": "address"
        },
        {
          "internalType": "uint256",
          "name": "duration",
          "type": "uint256"
        }
      ],
      "name": "takeLoan",
      "outputs": [],
      "stateMutability": "nonpayable",
      "type": "function"
    },
    {
      "inputs": [
        {
          "internalType": "uint256",
          "name": "id",
          "type": "uint256"
        }
      ],
      "name": "payLoan",
      "outputs": [],
      "stateMutability": "nonpayable",
      "type": "function"
    },
    {
      "inputs": [
        {
          "internalType": "uint256",
          "name": "id",
          "type": "uint256"
        }
      ],
      "name": "closeLiquidity",
      "outputs": [],
      "stateMutability": "nonpayable",
      "type": "function"
    },
    {
      "inputs": [
        {
          "internalType": "uint256",
          "name": "amount",
          "type": "uint256"
        },
        {
          "internalType": "address",
          "name": "tokenAddress",
          "type": "address"
        },
        {
          "internalType": "uint256",
          "name": "interestRate",
          "type": "uint256"
        },
        {
          "internalType": "uint256",
          "name": "minTakeOut",
          "type": "uint256"
        },
        {
          "internalType": "uint256",
          "name": "maxTakeOut",
          "type": "uint256"
        },
        {
          "internalType": "uint256",
          "name": "minDays",
          "type": "uint256"
        },
        {
          "internalType": "uint256",
          "name": "maxDays",
          "type": "uint256"
        },
        {
          "internalType": "uint256",
          "name": "minCreditScore",
          "type": "uint256"
        }
      ],
      "name": "provideLiquidity",
      "outputs": [],
      "stateMutability": "nonpayable",
      "type": "function"
    },
    {
      "inputs": [
        {
          "internalType": "uint256",
          "name": "amount",
          "type": "uint256"
        }
      ],
      "name": "withdrawPlatformFee",
      "outputs": [],
      "stateMutability": "nonpayable",
      "type": "function"
    },
    {
      "inputs": [
        {
          "internalType": "uint256",
          "name": "percentage",
          "type": "uint256"
        }
      ],
      "name": "changeDeployer",
      "outputs": [],
      "stateMutability": "nonpayable",
      "type": "function"
    },
    {
      "inputs": [
        {
          "internalType": "address",
          "name": "_address",
          "type": "address"
        }
      ],
      "name": "changeDeployer",
      "outputs": [],
      "stateMutability": "nonpayable",
      "type": "function"
    }
  ],
  "bytecode": "0x6080604052600560025560416006553480156200001b57600080fd5b5060405162002e5038038062002e508339810160408190526200003e9162000072565b60008054336001600160a01b031991821617909155600780549091166001600160a01b0392909216919091179055620000a4565b6000602082840312156200008557600080fd5b81516001600160a01b03811681146200009d57600080fd5b9392505050565b612d9c80620000b46000396000f3fe608060405234801561001057600080fd5b50600436106100f55760003560e01c8063a8d7b3ec11610097578063dde7c19011610066578063dde7c190146102c9578063defdfae6146102dc578063eb3b299b146102ef578063f35456ed1461030257600080fd5b8063a8d7b3ec14610225578063d52559d014610238578063d567e4a4146102a3578063d7d91fe4146102b657600080fd5b806344caa924116100d357806344caa9241461013e5780634a184a871461015157806398c61c3714610164578063a87430ba146101c457600080fd5b806326232a2e146100fa578063329aa41414610116578063333803591461012b575b600080fd5b61010360025481565b6040519081526020015b60405180910390f35b610129610124366004612880565b610315565b005b6101296101393660046128b5565b6105df565b61012961014c366004612880565b610e45565b61012961015f366004612995565b610ef5565b610177610172366004612ad5565b6110ac565b60408051998a5260208a0198909852968801959095526001600160a01b039384166060880152608087019290925260a08601521660c084015260e08301526101008201526101200161010d565b6101ff6101d2366004612aff565b60086020526000908152604090208054600182015460028301546003909301549192909160ff9091169084565b60408051948552602085019390935290151591830191909152606082015260800161010d565b610129610233366004612880565b611121565b61024b610246366004612ad5565b6119c2565b604080519a8b5260208b01999099526001600160a01b03909716978901979097526060880194909452608087019290925260a086015260c085015260e08401526101008301919091526101208201526101400161010d565b6101296102b1366004612aff565b611a3c565b6101296102c4366004612995565b611b3d565b6101296102d7366004612880565b611c5b565b6101296102ea366004612aff565b611d97565b6101296102fd366004612aff565b611e76565b610129610310366004612b1a565b611f80565b3360009081526008602052604081205490036103785760405162461bcd60e51b815260206004820152601760248201527f43726561746520616e206163636f756e7420666972737400000000000000000060448201526064015b60405180910390fd5b600061038433836124c7565b905080196103d45760405162461bcd60e51b815260206004820152601d60248201527f596f7520646f206e6f74206f776e2074686973206c6971756964697479000000604482015260640161036f565b3360009081526009602052604081208054839081106103f5576103f5612b7a565b90600052602060002090600a020160010154111561051a5733600090815260096020526040812080548390811061042e5761042e612b7a565b600091825260208083206002600a909302019190910154338084526009909252604090922080546001600160a01b039093169350839263a9059cbb9291908690811061047c5761047c612b7a565b600091825260209091206001600a9092020101546040517fffffffff0000000000000000000000000000000000000000000000000000000060e085901b1681526001600160a01b03909216600483015260248201526044016020604051808303816000875af11580156104f3573d6000803e3d6000fd5b505050506040513d601f19601f820116820180604052508101906105179190612b90565b50505b33600090815260096020526040902080548290811061053b5761053b612b7a565b600091825260208220600a909102018181556001810182905560028101805473ffffffffffffffffffffffffffffffffffffffff19169055600381018290556004810182905560058101829055600681018290556007810182905560088101829055600901556040517f20c48a95a2e7a5844e4f456e8d83a72af0caceb90b567ae55d0b13c7942fa798906105d39084815260200190565b60405180910390a15050565b33600090815260086020526040812054900361063d5760405162461bcd60e51b815260206004820152601760248201527f43726561746520616e206163636f756e74206669727374000000000000000000604482015260640161036f565b6000831161068d5760405162461bcd60e51b815260206004820152601c60248201527f596f752063616e277420626f72726f77207a65726f20746f6b656e7300000000604482015260640161036f565b600061069983866124c7565b905080196106e95760405162461bcd60e51b815260206004820152601960248201527f4c697175696469747920646f6573206e6f742065786973747300000000000000604482015260640161036f565b6001600160a01b038316600090815260096020526040812080548390811061071357610713612b7a565b600091825260208083206040805161014081018252600a9094029091018054845260018101549284019290925260028201546001600160a01b0316908301526003810154606083015260048101546080830152600581015460a0830152600681015460c0830152600781015460e083015260088101546101008301526009015461012082015291506107a585336125f8565b9050801961081b5760405162461bcd60e51b815260206004820152602660248201527f596f7520617265206e6f74206f6e2070726f7669646572277320636f6e74616360448201527f74206c6973740000000000000000000000000000000000000000000000000000606482015260840161036f565b3360009081526008602052604090206002015460ff161561087e5760405162461bcd60e51b815260206004820152601960248201527f596f752061726520616c7265616479206f6e2061206c6f616e00000000000000604482015260640161036f565b85826020015110156108d25760405162461bcd60e51b815260206004820152601660248201527f496e73756666696369656e7420706f6f6c2073697a6500000000000000000000604482015260640161036f565b858260a00151101561094c5760405162461bcd60e51b815260206004820152602760248201527f416d6f756e742069732067726561746572207468616e206d6178696d756d207460448201527f616b65206f757400000000000000000000000000000000000000000000000000606482015260840161036f565b85826080015111156109c65760405162461bcd60e51b815260206004820152602660248201527f416d6f756e74206973206c6573736572207468616e206d696e696d756d20746160448201527f6b65206f75740000000000000000000000000000000000000000000000000000606482015260840161036f565b838260e001511015610a405760405162461bcd60e51b815260206004820152602860248201527f4475726174696f6e206973206c6f6e676572207468616e206d6178696d756d2060448201527f6475726174696f6e000000000000000000000000000000000000000000000000606482015260840161036f565b838260c001511115610aba5760405162461bcd60e51b815260206004820152602960248201527f4475726174696f6e2069732073686f72746572207468616e206d696e696d756d60448201527f206475726174696f6e0000000000000000000000000000000000000000000000606482015260840161036f565b336000908152600860205260409020600101546101008301511115610b215760405162461bcd60e51b815260206004820152601c60248201527f596f7572206372656469742073636f726520697320746f6f206c6f7700000000604482015260640161036f565b6001600160a01b0385166000908152600960205260409020805487919085908110610b4e57610b4e612b7a565b90600052602060002090600a02016001016000828254610b6e9190612bc8565b9091555050336000908152600860205260408120600201805460ff191660011790556005805491610b9e83612bdb565b90915550506040805161012081018252600580548252845160208084019182528385018b8152878601516001600160a01b0390811660608088019182528a01516080880190815260a088018d81528e841660c08a019081524260e08b0190815260006101008c0181815233808352600a8b528e83208054600180820183559185529b9093208e516009909c02019a8b559a51918a019190915596516002890155935160038801805473ffffffffffffffffffffffffffffffffffffffff1990811683891690811790925594516004808b019190915593519a89019a909a559051600688018054909416951694909417909155905160078501559151600890930192909255945163a9059cbb60e01b815294850191909152602484018a9052919263a9059cbb906044016020604051808303816000875af1158015610ce6573d6000803e3d6000fd5b505050506040513d601f19601f82011682018060405250810190610d0a9190612b90565b507f558c644d7fa31e50f4a2e534d5e5793366a1941a6362d04408e62b39439a31568260000151836020015184604001518560a0015186608001518760e00151886101000151338a60c00151604051610db199989796959493929190988952602089019790975260408801959095526060870193909352608086019190915260a085015260c08401526001600160a01b0390811660e0840152166101008201526101200190565b60405180910390a183516001600160a01b038816600090815260096020526040902080547fa78d1e81434a3d3c4b90a82e0df68035fc59d26e2185a51f8a66143c94c4814a92919088908110610e0957610e09612b7a565b90600052602060002090600a020160010154604051610e32929190918252602082015260400190565b60405180910390a1505050505050505050565b6000546001600160a01b03163314610e9f5760405162461bcd60e51b815260206004820152601660248201527f596f7520617265206e6f7420617574686f72697a656400000000000000000000604482015260640161036f565b6064811115610ef05760405162461bcd60e51b815260206004820152601660248201527f50657263656e7461676520697320746f6f206869676800000000000000000000604482015260640161036f565b600255565b3360009081526008602052604090205415610f525760405162461bcd60e51b815260206004820152601b60248201527f21616c72656164795f637265617465645f616e5f6163636f756e740000000000604482015260640161036f565b60038054906000610f6283612bdb565b90915550506040805160a08101825260035481526006546020808301919091526000828401819052426060840152338152600882528390206004018054845181840281018401909552808552929360808501939092830182828015610ff057602002820191906000526020600020905b81546001600160a01b03168152600190910190602001808311610fd2575b50505091909252505033600090815260086020908152604091829020835181558382015160018201559183015160028301805460ff1916911515919091179055606083015160038301556080830151805161105192600485019201906127f9565b50506006546040517f676f4149b3c169700ae4fc11a98f7fa314e26c66113436c7d5f7688e340cd054925061109a918b918b918b918b9133916000908d908d908d908d90612c3a565b60405180910390a15050505050505050565b600a60205281600052604060002081815481106110c857600080fd5b600091825260209091206009909102018054600182015460028301546003840154600485015460058601546006870154600788015460089098015496995094975092956001600160a01b03928316959194909216919089565b33600090815260086020526040812054900361117f5760405162461bcd60e51b815260206004820152601760248201527f43726561746520616e206163636f756e74206669727374000000000000000000604482015260640161036f565b600061118b33836126c8565b905080196111db5760405162461bcd60e51b815260206004820152600c60248201527f216c6f616e5f6578697374730000000000000000000000000000000000000000604482015260640161036f565b336000908152600a602052604081208054839081106111fc576111fc612b7a565b6000918252602091829020604080516101208101825260099093029091018054835260018101549383019390935260028301549082015260038201546001600160a01b03908116606083015260048301546080830152600583015460a083015260068301541660c0820152600782015460e08201526008909101546101008201819052909150156112cf5760405162461bcd60e51b815260206004820152601160248201527f6c6f616e5f616c72656164795f70616964000000000000000000000000000000604482015260640161036f565b60008160e00151426112e19190612bc8565b90506000620151808284608001516112f99190612d12565b6113039190612d31565b60075460405163e1f21c6760e01b8152336004820152306024820152604481018390529192506001600160a01b03169063e1f21c6790606401600060405180830381600087803b15801561135657600080fd5b505af115801561136a573d6000803e3d6000fd5b50506007546040516323b872dd60e01b8152336004820152306024820152604481018590526001600160a01b0390911692506323b872dd91506064016020604051808303816000875af11580156113c5573d6000803e3d6000fd5b505050506040513d601f19601f820116820180604052508101906113e99190612b90565b5060006064600254836113fc9190612d12565b6114069190612d31565b60075460c08601519192506001600160a01b03169063a9059cbb9061142b8486612bc8565b6040517fffffffff0000000000000000000000000000000000000000000000000000000060e085901b1681526001600160a01b03909216600483015260248201526044016020604051808303816000875af115801561148e573d6000803e3d6000fd5b505050506040513d601f19601f820116820180604052508101906114b29190612b90565b5080600160008282546114c59190612d53565b9250508190555060006114e08560c0015186602001516124c7565b905080600019146116cc576060850151604080870151905163e1f21c6760e01b815233600482015230602482015260448101919091526001600160a01b0382169063e1f21c6790606401600060405180830381600087803b15801561154457600080fd5b505af1158015611558573d6000803e3d6000fd5b5050505060408681015190516323b872dd60e01b815233600482015230602482015260448101919091526001600160a01b038216906323b872dd906064016020604051808303816000875af11580156115b5573d6000803e3d6000fd5b505050506040513d601f19601f820116820180604052508101906115d99190612b90565b5060408087015160c08801516001600160a01b0316600090815260096020529190912080548490811061160e5761160e612b7a565b90600052602060002090600a0201600101600082825461162e9190612d53565b925050819055507fa78d1e81434a3d3c4b90a82e0df68035fc59d26e2185a51f8a66143c94c4814a8660200151600960008960c001516001600160a01b03166001600160a01b03168152602001908152602001600020848154811061169557611695612b7a565b90600052602060002090600a0201600101546040516116be929190918252602082015260400190565b60405180910390a1506117cd565b606085015160c0860151604080880151905163e1f21c6760e01b81523360048201526001600160a01b03928316602482015260448101919091529082169063e1f21c6790606401600060405180830381600087803b15801561172d57600080fd5b505af1158015611741573d6000803e3d6000fd5b5050505060c086015160408088015190516323b872dd60e01b81523360048201526001600160a01b0392831660248201526044810191909152908216906323b872dd906064016020604051808303816000875af11580156117a6573d6000803e3d6000fd5b505050506040513d601f19601f820116820180604052508101906117ca9190612b90565b50505b42610100860152336000908152600860205260408120600201805460ff1916905560a08601516118009062015180612d12565b90506118108660e00151826127e6565b421115611877573360009081526008602052604090206001015460051161185f57336000908152600860205260408120600101805460059290611854908490612bc8565b909155506118cc9050565b336000908152600860205260408120600101556118cc565b336000908152600860205260409020600101546062106118b457336000908152600860205260408120600101805460029290611854908490612d53565b33600090815260086020526040902060646001909101555b7f558c644d7fa31e50f4a2e534d5e5793366a1941a6362d04408e62b39439a31568660000151876020015188604001518960a001518a608001518b60e001518c6101000151338e60c0015160405161197299989796959493929190988952602089019790975260408801959095526060870193909352608086019190915260a085015260c08401526001600160a01b0390811660e0840152166101008201526101200190565b60405180910390a133600081815260086020908152604091829020600101548251938452908301527f05933d00429c2f5bf744590ae0bbc26dd4e984be9acbb9197eec5f7127e6da64910161109a565b600960205281600052604060002081815481106119de57600080fd5b60009182526020909120600a90910201805460018201546002830154600384015460048501546005860154600687015460078801546008890154600990990154979a509598506001600160a01b03909416969295919490939290918a565b336000908152600860205260408120549003611a9a5760405162461bcd60e51b815260206004820152601760248201527f43726561746520616e206163636f756e74206669727374000000000000000000604482015260640161036f565b6000611aa633836125f8565b90508019611b395733600081815260086020908152604080832060040180546001808201835591855293839020909301805473ffffffffffffffffffffffffffffffffffffffff19166001600160a01b038816908117909155815190815291820193909352918201527fef159a3fe67039f76f5f69589747e2f0132e5e79bc6a1ee9b3f47bfad176d005906060016105d3565b5050565b336000908152600860205260408120549003611b9b5760405162461bcd60e51b815260206004820152601760248201527f43726561746520616e206163636f756e74206669727374000000000000000000604482015260640161036f565b336000908152600860205260408120549003611bf95760405162461bcd60e51b815260206004820152600a60248201527f6e6f5f6163636f756e7400000000000000000000000000000000000000000000604482015260640161036f565b3360008181526008602052604090819020600181015460029091015491517f676f4149b3c169700ae4fc11a98f7fa314e26c66113436c7d5f7688e340cd0549361109a938d938d938d938d9390929160ff909116908d908d908d908d90612c3a565b6000546001600160a01b03163314611cb55760405162461bcd60e51b815260206004820152601660248201527f596f7520617265206e6f7420617574686f72697a656400000000000000000000604482015260640161036f565b806001541015611d075760405162461bcd60e51b815260206004820152601360248201527f696e73756669636369656e7420746f6b656e7300000000000000000000000000604482015260640161036f565b8060016000828254611d199190612bc8565b909155505060075460005460405163a9059cbb60e01b81526001600160a01b0391821660048201526024810184905291169063a9059cbb906044016020604051808303816000875af1158015611d73573d6000803e3d6000fd5b505050506040513d601f19601f82011682018060405250810190611b399190612b90565b6000546001600160a01b03163314611df15760405162461bcd60e51b815260206004820152601660248201527f596f7520617265206e6f7420617574686f72697a656400000000000000000000604482015260640161036f565b6001600160a01b038116611e475760405162461bcd60e51b815260206004820152600f60248201527f496e76616c696420616464726573730000000000000000000000000000000000604482015260640161036f565b6000805473ffffffffffffffffffffffffffffffffffffffff19166001600160a01b0392909216919091179055565b336000908152600860205260408120549003611ed45760405162461bcd60e51b815260206004820152601760248201527f43726561746520616e206163636f756e74206669727374000000000000000000604482015260640161036f565b6000611ee033836125f8565b90508060001914611b3957336000908152600860205260409020600401805482908110611f0f57611f0f612b7a565b6000918252602080832091909101805473ffffffffffffffffffffffffffffffffffffffff19169055604080516001600160a01b038616815233928101929092528101919091527fef159a3fe67039f76f5f69589747e2f0132e5e79bc6a1ee9b3f47bfad176d005906060016105d3565b336000908152600860205260408120549003611fde5760405162461bcd60e51b815260206004820152601760248201527f43726561746520616e206163636f756e74206669727374000000000000000000604482015260640161036f565b6000881161202e5760405162461bcd60e51b815260206004820152601560248201527f416d6f756e742063616e6e6f74206265207a65726f0000000000000000000000604482015260640161036f565b838511156120a45760405162461bcd60e51b815260206004820152603860248201527f4d696e696d756d2074616b65206f69742063616e6e6f7420626520677265617460448201527f6572207468616e206d6178696d756d2074616b65206f75740000000000000000606482015260840161036f565b8784111561211a5760405162461bcd60e51b815260206004820152602e60248201527f4d6178696d756e2074616b65206f75742063616e6e6f7420626520677265617460448201527f6572207468616e20616d6f756e74000000000000000000000000000000000000606482015260840161036f565b818311156121905760405162461bcd60e51b815260206004820152603860248201527f4d696e696d756d206475726174696f6e2063616e6e6f7420626520677265617460448201527f6572207468616e206d6178696d756d206475726174696f6e0000000000000000606482015260840161036f565b60648111156122075760405162461bcd60e51b815260206004820152602560248201527f437265646974207363726f726520697320746f6f20686967682c204d6178206960448201527f7320313030000000000000000000000000000000000000000000000000000000606482015260840161036f565b6004805490600061221783612bdb565b919050555060096000336001600160a01b03166001600160a01b0316815260200190815260200160002060405180610140016040528060045481526020018a8152602001896001600160a01b031681526020018881526020018781526020018681526020018581526020018481526020018381526020014281525090806001815401808255809150506001900390600052602060002090600a0201600090919091909150600082015181600001556020820151816001015560408201518160020160006101000a8154816001600160a01b0302191690836001600160a01b03160217905550606082015181600301556080820151816004015560a0820151816005015560c0820151816006015560e082015181600701556101008201518160080155610120820151816009015550506000879050806001600160a01b031663e1f21c6733308c6040518463ffffffff1660e01b815260040161239a939291906001600160a01b039384168152919092166020820152604081019190915260600190565b600060405180830381600087803b1580156123b457600080fd5b505af11580156123c8573d6000803e3d6000fd5b50506040516323b872dd60e01b8152336004820152306024820152604481018c90526001600160a01b03841692506323b872dd91506064016020604051808303816000875af115801561241f573d6000803e3d6000fd5b505050506040513d601f19601f820116820180604052508101906124439190612b90565b5060045460408051918252602082018b90526001600160a01b038a1690820152606081018890526080810187905260a0810186905260c0810185905260e08101849052610100810183905242610120820152336101408201527f9c73435d730d29a508b2720903ba238df287009379a89db682694cc036aed5b79061016001610e32565b6001600160a01b038216600090815260096020908152604080832080548251818502810185019093528083528493849084015b828210156125965760008481526020908190206040805161014081018252600a8602909201805483526001808201548486015260028201546001600160a01b0316928401929092526003810154606084015260048101546080840152600581015460a0840152600681015460c0840152600781015460e084015260088101546101008401526009015461012083015290835290920191016124fa565b5050505090506000600019905060005b82518110156125ed57848382815181106125c2576125c2612b7a565b602002602001015160000151036125db578091506125ed565b806125e581612bdb565b9150506125a6565b509150505b92915050565b6001600160a01b03821660009081526008602090815260408083206004018054825181850281018501909352808352849383018282801561266257602002820191906000526020600020905b81546001600160a01b03168152600190910190602001808311612644575b505050505090506000600019905060005b82518110156125ed57846001600160a01b031683828151811061269857612698612b7a565b60200260200101516001600160a01b0316036126b6578091506125ed565b806126c081612bdb565b915050612673565b6001600160a01b0382166000908152600a6020908152604080832080548251818502810185019093528083528493849084015b8282101561278f576000848152602090819020604080516101208101825260098602909201805483526001808201548486015260028201549284019290925260038101546001600160a01b03908116606085015260048201546080850152600582015460a085015260068201541660c0840152600781015460e08401526008015461010083015290835290920191016126fb565b5050505090506000600019905060005b82518110156125ed57848382815181106127bb576127bb612b7a565b602002602001015160000151036127d4578091506125ed565b806127de81612bdb565b91505061279f565b60006127f28284612d53565b9392505050565b82805482825590600052602060002090810192821561285b579160200282015b8281111561285b578251825473ffffffffffffffffffffffffffffffffffffffff19166001600160a01b03909116178255602090920191600190910190612819565b5061286792915061286b565b5090565b5b80821115612867576000815560010161286c565b60006020828403121561289257600080fd5b5035919050565b80356001600160a01b03811681146128b057600080fd5b919050565b600080600080608085870312156128cb57600080fd5b84359350602085013592506128e260408601612899565b9396929550929360600135925050565b634e487b7160e01b600052604160045260246000fd5b600082601f83011261291957600080fd5b813567ffffffffffffffff80821115612934576129346128f2565b604051601f8301601f19908116603f0116810190828211818310171561295c5761295c6128f2565b8160405283815286602085880101111561297557600080fd5b836020870160208301376000602085830101528094505050505092915050565b600080600080600080600080610100898b0312156129b257600080fd5b883567ffffffffffffffff808211156129ca57600080fd5b6129d68c838d01612908565b995060208b01359150808211156129ec57600080fd5b6129f88c838d01612908565b985060408b0135915080821115612a0e57600080fd5b612a1a8c838d01612908565b975060608b0135915080821115612a3057600080fd5b612a3c8c838d01612908565b965060808b0135915080821115612a5257600080fd5b612a5e8c838d01612908565b955060a08b0135915080821115612a7457600080fd5b612a808c838d01612908565b945060c08b0135915080821115612a9657600080fd5b612aa28c838d01612908565b935060e08b0135915080821115612ab857600080fd5b50612ac58b828c01612908565b9150509295985092959890939650565b60008060408385031215612ae857600080fd5b612af183612899565b946020939093013593505050565b600060208284031215612b1157600080fd5b6127f282612899565b600080600080600080600080610100898b031215612b3757600080fd5b88359750612b4760208a01612899565b979a9799505050506040860135956060810135956080820135955060a0820135945060c0820135935060e0909101359150565b634e487b7160e01b600052603260045260246000fd5b600060208284031215612ba257600080fd5b815180151581146127f257600080fd5b634e487b7160e01b600052601160045260246000fd5b818103818111156125f2576125f2612bb2565b600060018201612bed57612bed612bb2565b5060010190565b6000815180845260005b81811015612c1a57602081850181015186830182015201612bfe565b506000602082860101526020601f19601f83011685010191505092915050565b6000610160808352612c4e8184018f612bf4565b90508281036020840152612c62818e612bf4565b90508281036040840152612c76818d612bf4565b90508281036060840152612c8a818c612bf4565b6001600160a01b038b16608085015290508860a0840152612caf60c084018915159052565b82810360e0840152612cc18188612bf4565b9050828103610100840152612cd68187612bf4565b9050828103610120840152612ceb8186612bf4565b9050828103610140840152612d008185612bf4565b9e9d5050505050505050505050505050565b6000816000190483118215151615612d2c57612d2c612bb2565b500290565b600082612d4e57634e487b7160e01b600052601260045260246000fd5b500490565b808201808211156125f2576125f2612bb256fea26469706673582212203b6faf5a0970aae2a10cce9cf2de382d610e88823498d3263542ae12ca46d63a64736f6c63430008100033",
  "immutableReferences": {},
  "source": "// SPDX-License-Identifier: GPL-3.0\npragma solidity >=0.7.0 <0.9.0;\n\nimport {IStableCoin} from \"./stablecoins/IStableCoin.sol\";\nimport {DashToken} from \"./DashToken.sol\";\nimport {Models} from \"./Models.sol\";\n\nimport {SafeMath} from \"@openzeppelin/contracts/utils/math/SafeMath.sol\";\n\ncontract Dash {\n    using SafeMath for uint256;\n\n    address private deployer;\n    uint private contractRevenue;\n\n    /*\n      We charge a 5% fee on every interest a liquidity provider earned from giving out a loan.\n    */\n    uint public platformFee = 5; // 5% fee\n\n    uint private userID;\n    uint private liquidityID;\n    uint private loanID;\n\n    /*\n    Default credit score of a user is 65\n    When they do well on the platfrom by paying back loans on time\n    their credit score will increase by 2 otherwise will decrease by 5\n    */\n    uint defaultCreditScore = 65;\n\n    /*\n    DASH is the native cryptocurrency of the platform, it is use for paying loan interests.\n    */\n    DashToken private dashToken;\n\n    mapping(address => Models.User) public users;\n    mapping(address => Models.Liquidity[]) public liquidities;\n    mapping(address => Models.Loan[]) public loans;\n\n    constructor(address dashToken_) {\n        deployer = msg.sender;\n        dashToken = DashToken(dashToken_);\n    }\n\n    /*\n    We are using moralis stream to pick up user creation events and\n    sync the data to our firebase backend.\n    */\n    function createUser(\n        string memory name,\n        string memory photo,\n        string memory email,\n        string memory username,\n        string memory year,\n        string memory month,\n        string memory phone,\n        string memory homeAddress\n    ) public {\n        require(users[msg.sender].id == 0, \"!already_created_an_account\");\n\n        // create a new id\n        userID++;\n\n        users[msg.sender] = Models.User(\n            userID,\n            defaultCreditScore,\n            false,\n            block.timestamp,\n            users[msg.sender].networks\n        );\n\n        // aware dependencies\n        emit UserCreated(\n            name,\n            photo,\n            email,\n            username,\n            msg.sender,\n            defaultCreditScore,\n            false,\n            year,\n            month,\n            phone,\n            homeAddress\n        );\n    }\n\n    function updateUser(\n        string memory name,\n        string memory photo,\n        string memory email,\n        string memory username,\n        string memory year,\n        string memory month,\n        string memory phone,\n        string memory homeAddress\n    ) public onlyUser {\n        // verifies account exists\n        require(users[msg.sender].id != 0, \"no_account\");\n\n        // aware dependencies through event\n        emit UserCreated(\n            name,\n            photo,\n            email,\n            username,\n            msg.sender,\n            users[msg.sender].creditScore,\n            users[msg.sender].activeLoan,\n            year,\n            month,\n            phone,\n            homeAddress\n        );\n    }\n\n    /* adding a new contact */\n    function addNetwork(address user) public onlyUser {\n        int userIndex = getUserNetworkIndex(msg.sender, user);\n        if (userIndex == -1) {\n            users[msg.sender].networks.push(user);\n            emit NetworkAdded(user, msg.sender, true);\n        }\n    }\n\n    /* removing an existing contact */\n    function removeNetwork(address user) public onlyUser {\n        int userIndex = getUserNetworkIndex(msg.sender, user);\n        if (userIndex != -1) {\n            delete users[msg.sender].networks[uint(userIndex)];\n            emit NetworkAdded(user, msg.sender, false);\n        }\n    }\n\n    function takeLoan(\n        uint id,\n        uint256 amount,\n        address provider,\n        uint duration\n    ) public onlyUser {\n        require(amount > 0, \"You can't borrow zero tokens\");\n\n        int liquidityIndex = getUserLiquidityIndex(provider, id);\n        require(liquidityIndex != -1, \"Liquidity does not exists\");\n\n        Models.Liquidity memory liquidity = liquidities[provider][\n            uint(liquidityIndex)\n        ];\n        int userNetworkIndex = getUserNetworkIndex(provider, msg.sender);\n\n        // verifies the user is on provider contact list\n        require(\n            userNetworkIndex != -1,\n            \"You are not on provider's contact list\"\n        );\n\n        // verifies user is not a loan before\n        require(!users[msg.sender].activeLoan, \"You are already on a loan\");\n\n        // validate loan and user inputs with liquidity properties\n        require(liquidity.amount >= amount, \"Insufficient pool size\");\n        require(\n            liquidity.maxTakeOut >= amount,\n            \"Amount is greater than maximum take out\"\n        );\n        require(\n            liquidity.minTakeOut <= amount,\n            \"Amount is lesser than minimum take out\"\n        );\n        require(\n            liquidity.maxDays >= duration,\n            \"Duration is longer than maximum duration\"\n        );\n        require(\n            liquidity.minDays <= duration,\n            \"Duration is shorter than minimum duration\"\n        );\n        require(\n            liquidity.minCreditScore <= users[msg.sender].creditScore,\n            \"Your credit score is too low\"\n        );\n\n        // decrease the liquidity pool size\n        liquidities[provider][uint(liquidityIndex)].amount -= amount;\n\n        // user is now on a loan\n        users[msg.sender].activeLoan = true;\n\n        // create a new loan id\n        loanID++;\n\n        // create a new loan\n        Models.Loan memory loan = Models.Loan(\n            loanID,\n            liquidity.id,\n            amount,\n            liquidity.tokenAddress,\n            liquidity.interestRate,\n            duration,\n            provider,\n            block.timestamp,\n            0 // unpaid\n        );\n\n        // register the new loan\n        loans[msg.sender].push(loan);\n\n        // give out the loan\n        // send tokens to user wallet\n        IStableCoin token = IStableCoin(loan.tokenAddress);\n        token.transfer(msg.sender, amount);\n\n        // aware dependencies through event\n        emit LoanCreated(\n            loan.id,\n            loan.liquidity,\n            loan.amount,\n            loan.duration,\n            loan.interestRate,\n            loan.createdAt,\n            loan.paidAt,\n            msg.sender,\n            loan.provider\n        );\n\n        // aware dependencies through event\n        emit UpdatedLiquidity(\n            liquidity.id,\n            liquidities[provider][uint(liquidityIndex)].amount\n        );\n    }\n\n    function payLoan(uint id) public onlyUser {\n        int userLoanIndex = getUserLoanIndex(msg.sender, id);\n        require(userLoanIndex != -1, \"!loan_exists\");\n\n        Models.Loan memory loan = loans[msg.sender][uint(userLoanIndex)];\n        require(loan.paidAt == 0, \"loan_already_paid\");\n\n        // pay interest\n        uint secondsDiff = block.timestamp - loan.createdAt;\n\n        // calculate interest\n        uint256 interest = ((loan.interestRate * secondsDiff) / 1 days);\n\n        // pay interest charges to smart contract in DASH tokens\n        dashToken.approve(msg.sender, address(this), interest);\n        dashToken.transferFrom(msg.sender, address(this), interest);\n\n        // charge platform fee\n        uint fee = ((interest * platformFee) / 100);\n\n        // pay interest profit to liquidity provider in DASH tokens\n        dashToken.transfer(loan.provider, (interest - fee));\n\n        // update platform profit\n        contractRevenue += fee;\n\n        // if liquidity still exists, add the funds back to the liquidty\n        int liquidityIndex = getUserLiquidityIndex(\n            loan.provider,\n            loan.liquidity\n        );\n\n        if (liquidityIndex != -1) {\n            // liquidity exists\n            // pay loan to back smart contract\n            IStableCoin token = IStableCoin(loan.tokenAddress);\n            token.approve(msg.sender, address(this), loan.amount);\n            token.transferFrom(msg.sender, address(this), loan.amount);\n\n            // increase liquidity pool back\n            liquidities[loan.provider][uint(liquidityIndex)].amount += loan\n                .amount;\n\n            // let dependecies knows pool has _changed_\n            emit UpdatedLiquidity(\n                loan.liquidity,\n                liquidities[loan.provider][uint(liquidityIndex)].amount\n            );\n        } else {\n            // else send the funds directly to the liquidity creator wallet\n            IStableCoin token = IStableCoin(loan.tokenAddress);\n            token.approve(msg.sender, loan.provider, loan.amount);\n            token.transferFrom(msg.sender, loan.provider, loan.amount);\n        }\n\n        // mark loan as paid\n        loan.paidAt = block.timestamp;\n\n        // user is not on a loan anymore\n        users[msg.sender].activeLoan = false;\n\n        // credit score mechanism\n        uint duration = (loan.duration * 1 days);\n        if (block.timestamp > SafeMath.add(loan.createdAt, duration)) {\n            // user has default, so their credit score is deducted by 5\n            if (users[msg.sender].creditScore >= 5) {\n                users[msg.sender].creditScore -= 5;\n            } else {\n                users[msg.sender].creditScore = 0;\n            }\n        } else {\n            // user repays on time so their credit score is increased by 2\n            if (users[msg.sender].creditScore <= 98) {\n                users[msg.sender].creditScore += 2;\n            } else {\n                users[msg.sender].creditScore = 100;\n            }\n        }\n\n        // aware dependencies through event\n        emit LoanCreated(\n            loan.id,\n            loan.liquidity,\n            loan.amount,\n            loan.duration,\n            loan.interestRate,\n            loan.createdAt,\n            loan.paidAt,\n            msg.sender,\n            loan.provider\n        );\n\n        // aware dependencies through event\n        emit CreditScoreChanged(msg.sender, users[msg.sender].creditScore);\n    }\n\n    function closeLiquidity(uint id) public onlyUser {\n        int liquidityIndex = getUserLiquidityIndex(msg.sender, id);\n\n        // verifies the liquidty\n        require(liquidityIndex != -1, \"You do not own this liquidity\");\n\n        if (liquidities[msg.sender][uint256(liquidityIndex)].amount > 0) {\n            // send left over tokens to back to the provider's wallet\n            IStableCoin token = IStableCoin(\n                liquidities[msg.sender][uint256(liquidityIndex)].tokenAddress\n            );\n            token.transfer(\n                msg.sender,\n                liquidities[msg.sender][uint256(liquidityIndex)].amount\n            );\n        }\n\n        // remove liquidity\n        delete liquidities[msg.sender][uint256(liquidityIndex)];\n\n        // aware dependencies through event\n        emit ClosedLiquidity(id);\n    }\n\n    /* provide liquidity */\n    function provideLiquidity(\n        uint256 amount,\n        address tokenAddress,\n        uint interestRate,\n        uint256 minTakeOut,\n        uint256 maxTakeOut,\n        uint minDays,\n        uint maxDays,\n        uint minCreditScore\n    ) public onlyUser {\n        // validates params\n        require(amount > 0, \"Amount cannot be zero\");\n        require(\n            minTakeOut <= maxTakeOut,\n            \"Minimum take oit cannot be greater than maximum take out\"\n        );\n        require(\n            maxTakeOut <= amount,\n            \"Maximun take out cannot be greater than amount\"\n        );\n        require(\n            minDays <= maxDays,\n            \"Minimum duration cannot be greater than maximum duration\"\n        );\n        require(minCreditScore <= 100, \"Credit scrore is too high, Max is 100\");\n\n        // create a new liquidity id\n        liquidityID++;\n\n        // creates and registers the liquidity\n        liquidities[msg.sender].push(\n            Models.Liquidity(\n                liquidityID,\n                amount,\n                tokenAddress,\n                interestRate,\n                minTakeOut,\n                maxTakeOut,\n                minDays,\n                maxDays,\n                minCreditScore,\n                block.timestamp\n            )\n        );\n\n        // stake tokens from user wallet to the contract\n        IStableCoin token = IStableCoin(tokenAddress);\n        token.approve(msg.sender, address(this), amount);\n        token.transferFrom(msg.sender, address(this), amount);\n\n        // aware dependencies through event\n        emit ProvidedLiquity(\n            liquidityID,\n            amount,\n            tokenAddress,\n            interestRate,\n            minTakeOut,\n            maxTakeOut,\n            minDays,\n            maxDays,\n            minCreditScore,\n            block.timestamp,\n            msg.sender\n        );\n    }\n\n    // ========= helper functions\n\n    function getUserLoanIndex(address user, uint id)\n        private\n        view\n        returns (int)\n    {\n        Models.Loan[] memory loanList = loans[user];\n        int position = -1;\n\n        for (uint index = 0; index < loanList.length; index++) {\n            if (loanList[index].id == id) {\n                position = int(index);\n                break;\n            }\n        }\n\n        return position;\n    }\n\n    function getUserLiquidityIndex(address user, uint id)\n        private\n        view\n        returns (int)\n    {\n        Models.Liquidity[] memory liquidityList = liquidities[user];\n        int position = -1;\n\n        for (uint index = 0; index < liquidityList.length; index++) {\n            if (liquidityList[index].id == id) {\n                position = int(index);\n                break;\n            }\n        }\n\n        return position;\n    }\n\n    function getUserNetworkIndex(address user, address network)\n        private\n        view\n        returns (int)\n    {\n        address[] memory networks = users[user].networks;\n        int position = -1;\n\n        for (uint index = 0; index < networks.length; index++) {\n            if (networks[index] == network) {\n                position = int(index);\n                break;\n            }\n        }\n\n        return position;\n    }\n\n    /* deployer to cashout earnings */\n    function withdrawPlatformFee(uint256 amount) public onlyDeployer {\n        require(contractRevenue >= amount, \"insuficcient tokens\");\n        contractRevenue -= amount;\n        dashToken.transfer(deployer, amount);\n    }\n\n    /* deployer to change deployer */\n    function changeDeployer(address _address) public onlyDeployer {\n        require(_address != address(0), \"Invalid address\");\n        deployer = _address;\n    }\n\n    /* deployer to change platfrom fee */\n    function changeDeployer(uint percentage) public onlyDeployer {\n        require(percentage <= 100, \"Percentage is too high\");\n        platformFee = percentage;\n    }\n\n    // ====== interest calculator ====== //\n\n    function calculateSimpleInterest(uint rate, uint duration)\n        private\n        pure\n        returns (uint256)\n    {\n        return SafeMath.mul(rate, duration);\n    }\n\n    // ======= modifiers ======== //\n\n    modifier onlyUser() {\n        /* only registered user */\n        require(users[msg.sender].id != 0, \"Create an account first\");\n        _;\n    }\n\n    modifier onlyDeployer() {\n        /* only account that deployed the contract */\n        require(msg.sender == deployer, \"You are not authorized\");\n        _;\n    }\n\n    // ======== events ========= //\n\n    event UserCreated(\n        string name,\n        string photo,\n        string email,\n        string username,\n        address userAddress,\n        uint creditScore,\n        bool activeLoan,\n        string year,\n        string month,\n        string phone,\n        string homeAddress\n    );\n    event CreditScoreChanged(address user, uint score);\n    event NetworkAdded(address user, address by, bool isAdded);\n    event LoanCreated(\n        uint loanID,\n        uint liquidityID,\n        uint256 amount,\n        uint duration,\n        uint interestRate,\n        uint createdAt,\n        uint paidAt,\n        address userAddress,\n        address provider\n    );\n    event ProvidedLiquity(\n        uint liquidityID,\n        uint256 amount,\n        address tokenAddress,\n        uint interestRate,\n        uint256 minTakeOut,\n        uint256 maxTakeOut,\n        uint minDays,\n        uint maxDays,\n        uint minCreditScore,\n        uint createdAt,\n        address userAddress\n    );\n    event ClosedLiquidity(uint id);\n    event UpdatedLiquidity(uint id, uint256 amount);\n}\n",
  "sourcePath": "C:\\Users\\Arogundade Ibrahim\\Documents\\web3\\dash\\contracts\\Dash.sol",
  "compiler": {
    "name": "solc",
    "version": "0.8.16+commit.07a7930e.Emscripten.clang"
  },
  "schemaVersion": "3.4.10",
  "updatedAt": "2022-11-09T03:44:34.078Z",
  "networkType": "ethereum",
  "devdoc": {
    "kind": "dev",
    "methods": {},
    "version": 1
  },
  "userdoc": {
    "kind": "user",
    "methods": {},
    "version": 1
  }
}