{
  "contractName": "Dash",
  "abi": [
    {
      "inputs": [
        {
          "internalType": "address",
          "name": "dashToken_",
          "type": "address"
        }
      ],
      "stateMutability": "nonpayable",
      "type": "constructor"
    },
    {
      "anonymous": false,
      "inputs": [
        {
          "indexed": false,
          "internalType": "address",
          "name": "user",
          "type": "address"
        },
        {
          "indexed": false,
          "internalType": "uint256",
          "name": "amount",
          "type": "uint256"
        },
        {
          "indexed": false,
          "internalType": "address",
          "name": "tokenAddress",
          "type": "address"
        }
      ],
      "name": "ClosedLiquidity",
      "type": "event"
    },
    {
      "anonymous": false,
      "inputs": [
        {
          "indexed": false,
          "internalType": "uint256",
          "name": "id",
          "type": "uint256"
        },
        {
          "indexed": false,
          "internalType": "uint256",
          "name": "amount",
          "type": "uint256"
        },
        {
          "indexed": false,
          "internalType": "address",
          "name": "userAddress",
          "type": "address"
        },
        {
          "indexed": false,
          "internalType": "address",
          "name": "owner",
          "type": "address"
        }
      ],
      "name": "PaidLoan",
      "type": "event"
    },
    {
      "anonymous": false,
      "inputs": [
        {
          "indexed": false,
          "internalType": "address",
          "name": "user",
          "type": "address"
        },
        {
          "indexed": false,
          "internalType": "uint256",
          "name": "amount",
          "type": "uint256"
        },
        {
          "indexed": false,
          "internalType": "address",
          "name": "tokenAddress",
          "type": "address"
        }
      ],
      "name": "ProvidedLiquity",
      "type": "event"
    },
    {
      "anonymous": false,
      "inputs": [
        {
          "indexed": false,
          "internalType": "uint256",
          "name": "id",
          "type": "uint256"
        },
        {
          "indexed": false,
          "internalType": "uint256",
          "name": "amount",
          "type": "uint256"
        },
        {
          "indexed": false,
          "internalType": "address",
          "name": "userAddress",
          "type": "address"
        },
        {
          "indexed": false,
          "internalType": "address",
          "name": "owner",
          "type": "address"
        }
      ],
      "name": "TookLoan",
      "type": "event"
    },
    {
      "anonymous": false,
      "inputs": [
        {
          "indexed": false,
          "internalType": "string",
          "name": "name",
          "type": "string"
        },
        {
          "indexed": false,
          "internalType": "string",
          "name": "photo",
          "type": "string"
        },
        {
          "indexed": false,
          "internalType": "string",
          "name": "email",
          "type": "string"
        },
        {
          "indexed": false,
          "internalType": "string",
          "name": "username",
          "type": "string"
        },
        {
          "indexed": false,
          "internalType": "address",
          "name": "userAddress",
          "type": "address"
        },
        {
          "indexed": false,
          "internalType": "uint256",
          "name": "creditScore",
          "type": "uint256"
        },
        {
          "indexed": false,
          "internalType": "bool",
          "name": "activeLoan",
          "type": "bool"
        }
      ],
      "name": "UserCreated",
      "type": "event"
    },
    {
      "inputs": [
        {
          "internalType": "address",
          "name": "",
          "type": "address"
        },
        {
          "internalType": "uint256",
          "name": "",
          "type": "uint256"
        }
      ],
      "name": "liquidities",
      "outputs": [
        {
          "internalType": "uint256",
          "name": "id",
          "type": "uint256"
        },
        {
          "internalType": "uint256",
          "name": "amount",
          "type": "uint256"
        },
        {
          "internalType": "address",
          "name": "tokenAddress",
          "type": "address"
        },
        {
          "internalType": "uint256",
          "name": "interestRate",
          "type": "uint256"
        },
        {
          "internalType": "uint256",
          "name": "minTakeOut",
          "type": "uint256"
        },
        {
          "internalType": "uint256",
          "name": "maxTakeOut",
          "type": "uint256"
        },
        {
          "internalType": "uint256",
          "name": "minDays",
          "type": "uint256"
        },
        {
          "internalType": "uint256",
          "name": "maxDays",
          "type": "uint256"
        },
        {
          "internalType": "uint256",
          "name": "minCreditScore",
          "type": "uint256"
        },
        {
          "internalType": "uint256",
          "name": "createdAt",
          "type": "uint256"
        }
      ],
      "stateMutability": "view",
      "type": "function",
      "constant": true
    },
    {
      "inputs": [
        {
          "internalType": "address",
          "name": "",
          "type": "address"
        },
        {
          "internalType": "uint256",
          "name": "",
          "type": "uint256"
        }
      ],
      "name": "loans",
      "outputs": [
        {
          "internalType": "uint256",
          "name": "id",
          "type": "uint256"
        },
        {
          "internalType": "uint256",
          "name": "amount",
          "type": "uint256"
        },
        {
          "internalType": "address",
          "name": "tokenAddress",
          "type": "address"
        },
        {
          "internalType": "uint256",
          "name": "interestRate",
          "type": "uint256"
        },
        {
          "internalType": "address",
          "name": "from",
          "type": "address"
        },
        {
          "internalType": "uint256",
          "name": "createdAt",
          "type": "uint256"
        },
        {
          "internalType": "uint256",
          "name": "paidAt",
          "type": "uint256"
        }
      ],
      "stateMutability": "view",
      "type": "function",
      "constant": true
    },
    {
      "inputs": [],
      "name": "platformFee",
      "outputs": [
        {
          "internalType": "uint256",
          "name": "",
          "type": "uint256"
        }
      ],
      "stateMutability": "view",
      "type": "function",
      "constant": true
    },
    {
      "inputs": [
        {
          "internalType": "address",
          "name": "",
          "type": "address"
        }
      ],
      "name": "users",
      "outputs": [
        {
          "internalType": "uint256",
          "name": "id",
          "type": "uint256"
        },
        {
          "internalType": "uint256",
          "name": "creditScore",
          "type": "uint256"
        },
        {
          "internalType": "bool",
          "name": "activeLoan",
          "type": "bool"
        },
        {
          "internalType": "uint256",
          "name": "createdAt",
          "type": "uint256"
        }
      ],
      "stateMutability": "view",
      "type": "function",
      "constant": true
    },
    {
      "inputs": [
        {
          "internalType": "string",
          "name": "name",
          "type": "string"
        },
        {
          "internalType": "string",
          "name": "photo",
          "type": "string"
        },
        {
          "internalType": "string",
          "name": "email",
          "type": "string"
        },
        {
          "internalType": "string",
          "name": "username",
          "type": "string"
        }
      ],
      "name": "createUser",
      "outputs": [],
      "stateMutability": "nonpayable",
      "type": "function"
    },
    {
      "inputs": [
        {
          "internalType": "uint256",
          "name": "id",
          "type": "uint256"
        },
        {
          "internalType": "uint256",
          "name": "amount",
          "type": "uint256"
        },
        {
          "internalType": "address",
          "name": "owner",
          "type": "address"
        },
        {
          "internalType": "uint256",
          "name": "duration",
          "type": "uint256"
        }
      ],
      "name": "takeLoan",
      "outputs": [],
      "stateMutability": "nonpayable",
      "type": "function"
    },
    {
      "inputs": [
        {
          "internalType": "uint256",
          "name": "id",
          "type": "uint256"
        },
        {
          "internalType": "address",
          "name": "owner",
          "type": "address"
        }
      ],
      "name": "payLoan",
      "outputs": [],
      "stateMutability": "nonpayable",
      "type": "function"
    },
    {
      "inputs": [
        {
          "internalType": "uint256",
          "name": "id",
          "type": "uint256"
        }
      ],
      "name": "closeLiquidity",
      "outputs": [],
      "stateMutability": "nonpayable",
      "type": "function"
    },
    {
      "inputs": [
        {
          "internalType": "uint256",
          "name": "amount",
          "type": "uint256"
        },
        {
          "internalType": "address",
          "name": "tokenAddress",
          "type": "address"
        },
        {
          "internalType": "uint256",
          "name": "interestRate",
          "type": "uint256"
        },
        {
          "internalType": "uint256",
          "name": "minTakeOut",
          "type": "uint256"
        },
        {
          "internalType": "uint256",
          "name": "maxTakeOut",
          "type": "uint256"
        },
        {
          "internalType": "uint256",
          "name": "minDays",
          "type": "uint256"
        },
        {
          "internalType": "uint256",
          "name": "maxDays",
          "type": "uint256"
        },
        {
          "internalType": "uint256",
          "name": "minCreditScore",
          "type": "uint256"
        }
      ],
      "name": "provideLiquity",
      "outputs": [],
      "stateMutability": "nonpayable",
      "type": "function"
    }
  ],
  "bytecode": "0x6080604052602860045560016009553480156200001b57600080fd5b5060405162002bb938038062002bb9833981810160405281019062000041919062000133565b336000806101000a81548173ffffffffffffffffffffffffffffffffffffffff021916908373ffffffffffffffffffffffffffffffffffffffff16021790555080600560006101000a81548173ffffffffffffffffffffffffffffffffffffffff021916908373ffffffffffffffffffffffffffffffffffffffff1602179055505062000165565b600080fd5b600073ffffffffffffffffffffffffffffffffffffffff82169050919050565b6000620000fb82620000ce565b9050919050565b6200010d81620000ee565b81146200011957600080fd5b50565b6000815190506200012d8162000102565b92915050565b6000602082840312156200014c576200014b620000c9565b5b60006200015c848285016200011c565b91505092915050565b612a4480620001756000396000f3fe608060405234801561001057600080fd5b50600436106100935760003560e01c806398c61c371161006657806398c61c371461010a578063a87430ba14610140578063af03c79314610173578063d52559d01461018f578063d988cb6c146101c857610093565b806326232a2e14610098578063329aa414146100b657806333380359146100d25780636f7fcddb146100ee575b600080fd5b6100a06101e4565b6040516100ad9190611b32565b60405180910390f35b6100d060048036038101906100cb9190611b8d565b6101ea565b005b6100ec60048036038101906100e79190611c18565b61049f565b005b61010860048036038101906101039190611dc5565b610b3c565b005b610124600480360381019061011f9190611e9c565b610db6565b6040516101379796959493929190611eeb565b60405180910390f35b61015a60048036038101906101559190611f5a565b610e55565b60405161016a9493929190611fa2565b60405180910390f35b61018d60048036038101906101889190611fe7565b610e92565b005b6101a960048036038101906101a49190611e9c565b6111fb565b6040516101bf9a99989796959493929190612027565b60405180910390f35b6101e260048036038101906101dd91906120c3565b61128c565b005b60095481565b60006101f633836114db565b90507fffffffffffffffffffffffffffffffffffffffffffffffffffffffffffffffff810361025a576040517f08c379a0000000000000000000000000000000000000000000000000000000008152600401610251906121d6565b60405180910390fd5b6000600760003373ffffffffffffffffffffffffffffffffffffffff1673ffffffffffffffffffffffffffffffffffffffff16815260200190815260200160002082815481106102ad576102ac6121f6565b5b90600052602060002090600a02016040518061014001604052908160008201548152602001600182015481526020016002820160009054906101000a900473ffffffffffffffffffffffffffffffffffffffff1673ffffffffffffffffffffffffffffffffffffffff1673ffffffffffffffffffffffffffffffffffffffff168152602001600382015481526020016004820154815260200160058201548152602001600682015481526020016007820154815260200160088201548152602001600982015481525050905060008160200151116103c0576040517f08c379a00000000000000000000000000000000000000000000000000000000081526004016103b790612271565b60405180910390fd5b6000816040015190508073ffffffffffffffffffffffffffffffffffffffff1663a9059cbb3384602001516040518363ffffffff1660e01b8152600401610408929190612291565b6020604051808303816000875af1158015610427573d6000803e3d6000fd5b505050506040513d601f19601f8201168201806040525081019061044b91906122e6565b50610454611a09565b91507f3c9a00f6dceadb903739b6ec85afbd4ab4259c6959dd3d14e7bec5af7d901e7c338360200151846040015160405161049193929190612313565b60405180910390a150505050565b600083116104e2576040517f08c379a00000000000000000000000000000000000000000000000000000000081526004016104d990612396565b60405180910390fd5b60006104ee83866114db565b90507fffffffffffffffffffffffffffffffffffffffffffffffffffffffffffffffff8103610552576040517f08c379a000000000000000000000000000000000000000000000000000000000815260040161054990612402565b60405180910390fd5b6000600760008573ffffffffffffffffffffffffffffffffffffffff1673ffffffffffffffffffffffffffffffffffffffff16815260200190815260200160002082815481106105a5576105a46121f6565b5b90600052602060002090600a02016040518061014001604052908160008201548152602001600182015481526020016002820160009054906101000a900473ffffffffffffffffffffffffffffffffffffffff1673ffffffffffffffffffffffffffffffffffffffff1673ffffffffffffffffffffffffffffffffffffffff1681526020016003820154815260200160048201548152602001600582015481526020016006820154815260200160078201548152602001600882015481526020016009820154815250509050600061067d85336116a3565b90507fffffffffffffffffffffffffffffffffffffffffffffffffffffffffffffffff81036106e1576040517f08c379a00000000000000000000000000000000000000000000000000000000081526004016106d89061246e565b60405180910390fd5b600660003373ffffffffffffffffffffffffffffffffffffffff1673ffffffffffffffffffffffffffffffffffffffff16815260200190815260200160002060020160009054906101000a900460ff1615610771576040517f08c379a0000000000000000000000000000000000000000000000000000000008152600401610768906124da565b60405180910390fd5b85826020015110156107b8576040517f08c379a00000000000000000000000000000000000000000000000000000000081526004016107af90612546565b60405180910390fd5b858260a0015110156107ff576040517f08c379a00000000000000000000000000000000000000000000000000000000081526004016107f6906125b2565b60405180910390fd5b8582608001511115610846576040517f08c379a000000000000000000000000000000000000000000000000000000000815260040161083d9061261e565b60405180910390fd5b838260e00151101561088d576040517f08c379a00000000000000000000000000000000000000000000000000000000081526004016108849061268a565b60405180910390fd5b838260c0015111156108d4576040517f08c379a00000000000000000000000000000000000000000000000000000000081526004016108cb906126f6565b60405180910390fd5b85826020018181516108e69190612745565b915081815250506001600660003373ffffffffffffffffffffffffffffffffffffffff1673ffffffffffffffffffffffffffffffffffffffff16815260200190815260200160002060020160006101000a81548160ff0219169083151502179055506003600081548092919061095b90612779565b9190505550600860003373ffffffffffffffffffffffffffffffffffffffff1673ffffffffffffffffffffffffffffffffffffffff1681526020019081526020016000206040518060e001604052806003548152602001888152602001846040015173ffffffffffffffffffffffffffffffffffffffff168152602001846060015181526020018773ffffffffffffffffffffffffffffffffffffffff16815260200142815260200160008152509080600181540180825580915050600190039060005260206000209060070201600090919091909150600082015181600001556020820151816001015560408201518160020160006101000a81548173ffffffffffffffffffffffffffffffffffffffff021916908373ffffffffffffffffffffffffffffffffffffffff1602179055506060820151816003015560808201518160040160006101000a81548173ffffffffffffffffffffffffffffffffffffffff021916908373ffffffffffffffffffffffffffffffffffffffff16021790555060a0820151816005015560c0820151816006015550507fa0ebc41a23816f010249130cc1339f5639811d23db706ce8da5a0ef2f0d68af9600354873388604051610b2b94939291906127c1565b60405180910390a150505050505050565b6000600660003373ffffffffffffffffffffffffffffffffffffffff1673ffffffffffffffffffffffffffffffffffffffff1681526020019081526020016000206000015414610bc1576040517f08c379a0000000000000000000000000000000000000000000000000000000008152600401610bb890612852565b60405180910390fd5b60016000815480929190610bd490612779565b91905055506040518060a0016040528060015481526020016004548152602001600015158152602001428152602001600660003373ffffffffffffffffffffffffffffffffffffffff1673ffffffffffffffffffffffffffffffffffffffff168152602001908152602001600020600401805480602002602001604051908101604052809291908181526020018280548015610cc557602002820191906000526020600020905b8160009054906101000a900473ffffffffffffffffffffffffffffffffffffffff1673ffffffffffffffffffffffffffffffffffffffff1681526020019060010190808311610c7b575b5050505050815250600660003373ffffffffffffffffffffffffffffffffffffffff1673ffffffffffffffffffffffffffffffffffffffff168152602001908152602001600020600082015181600001556020820151816001015560408201518160020160006101000a81548160ff021916908315150217905550606082015181600301556080820151816004019080519060200190610d66929190611a72565b509050507f40fa39fbc689c7335d40997dbcee411c5edc8db0900d3043c99b1cccb9b0721184848484336004546000604051610da897969594939291906128e0565b60405180910390a150505050565b60086020528160005260406000208181548110610dd257600080fd5b9060005260206000209060070201600091509150508060000154908060010154908060020160009054906101000a900473ffffffffffffffffffffffffffffffffffffffff16908060030154908060040160009054906101000a900473ffffffffffffffffffffffffffffffffffffffff16908060050154908060060154905087565b60066020528060005260406000206000915090508060000154908060010154908060020160009054906101000a900460ff16908060030154905084565b6000610e9e3384611814565b90507fffffffffffffffffffffffffffffffffffffffffffffffffffffffffffffffff8103610f02576040517f08c379a0000000000000000000000000000000000000000000000000000000008152600401610ef9906129b7565b60405180910390fd5b6000600860003373ffffffffffffffffffffffffffffffffffffffff1673ffffffffffffffffffffffffffffffffffffffff1681526020019081526020016000208281548110610f5557610f546121f6565b5b90600052602060002090600702016040518060e001604052908160008201548152602001600182015481526020016002820160009054906101000a900473ffffffffffffffffffffffffffffffffffffffff1673ffffffffffffffffffffffffffffffffffffffff1673ffffffffffffffffffffffffffffffffffffffff168152602001600382015481526020016004820160009054906101000a900473ffffffffffffffffffffffffffffffffffffffff1673ffffffffffffffffffffffffffffffffffffffff1673ffffffffffffffffffffffffffffffffffffffff1681526020016005820154815260200160068201548152505090508273ffffffffffffffffffffffffffffffffffffffff16816080015173ffffffffffffffffffffffffffffffffffffffff16146110c0576040517f08c379a00000000000000000000000000000000000000000000000000000000081526004016110b79061246e565b60405180910390fd5b6000816040015190508073ffffffffffffffffffffffffffffffffffffffff166323b872dd338685602001516040518463ffffffff1660e01b815260040161110a939291906129d7565b6020604051808303816000875af1158015611129573d6000803e3d6000fd5b505050506040513d601f19601f8201168201806040525081019061114d91906122e6565b50428260c00181815250506000600660003373ffffffffffffffffffffffffffffffffffffffff1673ffffffffffffffffffffffffffffffffffffffff16815260200190815260200160002060020160006101000a81548160ff0219169083151502179055507fc587e9e3e3efb794f68123bb71353a50af3e53fec0cdd4a4424d65aee62a1cd685836020015133876040516111ec94939291906127c1565b60405180910390a15050505050565b6007602052816000526040600020818154811061121757600080fd5b90600052602060002090600a0201600091509150508060000154908060010154908060020160009054906101000a900473ffffffffffffffffffffffffffffffffffffffff1690806003015490806004015490806005015490806006015490806007015490806008015490806009015490508a565b6002600081548092919061129f90612779565b9190505550600760003373ffffffffffffffffffffffffffffffffffffffff1673ffffffffffffffffffffffffffffffffffffffff16815260200190815260200160002060405180610140016040528060025481526020018a81526020018973ffffffffffffffffffffffffffffffffffffffff1681526020018881526020018781526020018681526020018581526020018481526020018381526020014281525090806001815401808255809150506001900390600052602060002090600a0201600090919091909150600082015181600001556020820151816001015560408201518160020160006101000a81548173ffffffffffffffffffffffffffffffffffffffff021916908373ffffffffffffffffffffffffffffffffffffffff160217905550606082015181600301556080820151816004015560a0820151816005015560c0820151816006015560e0820151816007015561010082015181600801556101208201518160090155505060008790508073ffffffffffffffffffffffffffffffffffffffff166323b872dd33308c6040518463ffffffff1660e01b8152600401611451939291906129d7565b6020604051808303816000875af1158015611470573d6000803e3d6000fd5b505050506040513d601f19601f8201168201806040525081019061149491906122e6565b507fc642049f66e09db93436b1d16b612a8674630d4c4e0c5c6b63d18166e83207ad338a8a6040516114c893929190612313565b60405180910390a1505050505050505050565b600080600760008573ffffffffffffffffffffffffffffffffffffffff1673ffffffffffffffffffffffffffffffffffffffff168152602001908152602001600020805480602002602001604051908101604052809291908181526020016000905b8282101561162057838290600052602060002090600a02016040518061014001604052908160008201548152602001600182015481526020016002820160009054906101000a900473ffffffffffffffffffffffffffffffffffffffff1673ffffffffffffffffffffffffffffffffffffffff1673ffffffffffffffffffffffffffffffffffffffff1681526020016003820154815260200160048201548152602001600582015481526020016006820154815260200160078201548152602001600882015481526020016009820154815250508152602001906001019061153d565b50505050905060007fffffffffffffffffffffffffffffffffffffffffffffffffffffffffffffffff905060005b8251811015611697578483828151811061166b5761166a6121f6565b5b6020026020010151600001510361168457809150611697565b808061168f90612779565b91505061164e565b50809250505092915050565b600080600660008573ffffffffffffffffffffffffffffffffffffffff1673ffffffffffffffffffffffffffffffffffffffff16815260200190815260200160002060040180548060200260200160405190810160405280929190818152602001828054801561176857602002820191906000526020600020905b8160009054906101000a900473ffffffffffffffffffffffffffffffffffffffff1673ffffffffffffffffffffffffffffffffffffffff168152602001906001019080831161171e575b5050505050905060007fffffffffffffffffffffffffffffffffffffffffffffffffffffffffffffffff905060005b8251811015611808578473ffffffffffffffffffffffffffffffffffffffff168382815181106117ca576117c96121f6565b5b602002602001015173ffffffffffffffffffffffffffffffffffffffff16036117f557809150611808565b808061180090612779565b915050611797565b50809250505092915050565b600080600860008573ffffffffffffffffffffffffffffffffffffffff1673ffffffffffffffffffffffffffffffffffffffff168152602001908152602001600020805480602002602001604051908101604052809291908181526020016000905b8282101561198657838290600052602060002090600702016040518060e001604052908160008201548152602001600182015481526020016002820160009054906101000a900473ffffffffffffffffffffffffffffffffffffffff1673ffffffffffffffffffffffffffffffffffffffff1673ffffffffffffffffffffffffffffffffffffffff168152602001600382015481526020016004820160009054906101000a900473ffffffffffffffffffffffffffffffffffffffff1673ffffffffffffffffffffffffffffffffffffffff1673ffffffffffffffffffffffffffffffffffffffff1681526020016005820154815260200160068201548152505081526020019060010190611876565b50505050905060007fffffffffffffffffffffffffffffffffffffffffffffffffffffffffffffffff905060005b82518110156119fd57848382815181106119d1576119d06121f6565b5b602002602001015160000151036119ea578091506119fd565b80806119f590612779565b9150506119b4565b50809250505092915050565b6040518061014001604052806000815260200160008152602001600073ffffffffffffffffffffffffffffffffffffffff168152602001600081526020016000815260200160008152602001600081526020016000815260200160008152602001600081525090565b828054828255906000526020600020908101928215611aeb579160200282015b82811115611aea5782518260006101000a81548173ffffffffffffffffffffffffffffffffffffffff021916908373ffffffffffffffffffffffffffffffffffffffff16021790555091602001919060010190611a92565b5b509050611af89190611afc565b5090565b5b80821115611b15576000816000905550600101611afd565b5090565b6000819050919050565b611b2c81611b19565b82525050565b6000602082019050611b476000830184611b23565b92915050565b6000604051905090565b600080fd5b600080fd5b611b6a81611b19565b8114611b7557600080fd5b50565b600081359050611b8781611b61565b92915050565b600060208284031215611ba357611ba2611b57565b5b6000611bb184828501611b78565b91505092915050565b600073ffffffffffffffffffffffffffffffffffffffff82169050919050565b6000611be582611bba565b9050919050565b611bf581611bda565b8114611c0057600080fd5b50565b600081359050611c1281611bec565b92915050565b60008060008060808587031215611c3257611c31611b57565b5b6000611c4087828801611b78565b9450506020611c5187828801611b78565b9350506040611c6287828801611c03565b9250506060611c7387828801611b78565b91505092959194509250565b600080fd5b600080fd5b6000601f19601f8301169050919050565b7f4e487b7100000000000000000000000000000000000000000000000000000000600052604160045260246000fd5b611cd282611c89565b810181811067ffffffffffffffff82111715611cf157611cf0611c9a565b5b80604052505050565b6000611d04611b4d565b9050611d108282611cc9565b919050565b600067ffffffffffffffff821115611d3057611d2f611c9a565b5b611d3982611c89565b9050602081019050919050565b82818337600083830152505050565b6000611d68611d6384611d15565b611cfa565b905082815260208101848484011115611d8457611d83611c84565b5b611d8f848285611d46565b509392505050565b600082601f830112611dac57611dab611c7f565b5b8135611dbc848260208601611d55565b91505092915050565b60008060008060808587031215611ddf57611dde611b57565b5b600085013567ffffffffffffffff811115611dfd57611dfc611b5c565b5b611e0987828801611d97565b945050602085013567ffffffffffffffff811115611e2a57611e29611b5c565b5b611e3687828801611d97565b935050604085013567ffffffffffffffff811115611e5757611e56611b5c565b5b611e6387828801611d97565b925050606085013567ffffffffffffffff811115611e8457611e83611b5c565b5b611e9087828801611d97565b91505092959194509250565b60008060408385031215611eb357611eb2611b57565b5b6000611ec185828601611c03565b9250506020611ed285828601611b78565b9150509250929050565b611ee581611bda565b82525050565b600060e082019050611f00600083018a611b23565b611f0d6020830189611b23565b611f1a6040830188611edc565b611f276060830187611b23565b611f346080830186611edc565b611f4160a0830185611b23565b611f4e60c0830184611b23565b98975050505050505050565b600060208284031215611f7057611f6f611b57565b5b6000611f7e84828501611c03565b91505092915050565b60008115159050919050565b611f9c81611f87565b82525050565b6000608082019050611fb76000830187611b23565b611fc46020830186611b23565b611fd16040830185611f93565b611fde6060830184611b23565b95945050505050565b60008060408385031215611ffe57611ffd611b57565b5b600061200c85828601611b78565b925050602061201d85828601611c03565b9150509250929050565b60006101408201905061203d600083018d611b23565b61204a602083018c611b23565b612057604083018b611edc565b612064606083018a611b23565b6120716080830189611b23565b61207e60a0830188611b23565b61208b60c0830187611b23565b61209860e0830186611b23565b6120a6610100830185611b23565b6120b4610120830184611b23565b9b9a5050505050505050505050565b600080600080600080600080610100898b0312156120e4576120e3611b57565b5b60006120f28b828c01611b78565b98505060206121038b828c01611c03565b97505060406121148b828c01611b78565b96505060606121258b828c01611b78565b95505060806121368b828c01611b78565b94505060a06121478b828c01611b78565b93505060c06121588b828c01611b78565b92505060e06121698b828c01611b78565b9150509295985092959890939650565b600082825260208201905092915050565b7f21796f755f646f5f6f776e5f74686573655f746f6b656e730000000000000000600082015250565b60006121c0601883612179565b91506121cb8261218a565b602082019050919050565b600060208201905081810360008301526121ef816121b3565b9050919050565b7f4e487b7100000000000000000000000000000000000000000000000000000000600052603260045260246000fd5b7f696e7375666669656365696e745f66756e647300000000000000000000000000600082015250565b600061225b601383612179565b915061226682612225565b602082019050919050565b6000602082019050818103600083015261228a8161224e565b9050919050565b60006040820190506122a66000830185611edc565b6122b36020830184611b23565b9392505050565b6122c381611f87565b81146122ce57600080fd5b50565b6000815190506122e0816122ba565b92915050565b6000602082840312156122fc576122fb611b57565b5b600061230a848285016122d1565b91505092915050565b60006060820190506123286000830186611edc565b6123356020830185611b23565b6123426040830184611edc565b949350505050565b7f2163616e5f74616b655f7a65726f5f746f6b656e000000000000000000000000600082015250565b6000612380601483612179565b915061238b8261234a565b602082019050919050565b600060208201905081810360008301526123af81612373565b9050919050565b7f216c69717569646974795f657869737473000000000000000000000000000000600082015250565b60006123ec601183612179565b91506123f7826123b6565b602082019050919050565b6000602082019050818103600083015261241b816123df565b9050919050565b7f21756e6174686f72697a65640000000000000000000000000000000000000000600082015250565b6000612458600c83612179565b915061246382612422565b602082019050919050565b600060208201905081810360008301526124878161244b565b9050919050565b7f21616c72656164795f6f6e5f615f6c6f616e0000000000000000000000000000600082015250565b60006124c4601283612179565b91506124cf8261248e565b602082019050919050565b600060208201905081810360008301526124f3816124b7565b9050919050565b7f696e73756669636369656e745f706f6f6c000000000000000000000000000000600082015250565b6000612530601183612179565b915061253b826124fa565b602082019050919050565b6000602082019050818103600083015261255f81612523565b9050919050565b7f746f6f5f6d756368000000000000000000000000000000000000000000000000600082015250565b600061259c600883612179565b91506125a782612566565b602082019050919050565b600060208201905081810360008301526125cb8161258f565b9050919050565b7f746f6f5f6c6974746c6500000000000000000000000000000000000000000000600082015250565b6000612608600a83612179565b9150612613826125d2565b602082019050919050565b60006020820190508181036000830152612637816125fb565b9050919050565b7f746f6f5f6c6f6e67000000000000000000000000000000000000000000000000600082015250565b6000612674600883612179565b915061267f8261263e565b602082019050919050565b600060208201905081810360008301526126a381612667565b9050919050565b7f746f6f5f73686f72740000000000000000000000000000000000000000000000600082015250565b60006126e0600983612179565b91506126eb826126aa565b602082019050919050565b6000602082019050818103600083015261270f816126d3565b9050919050565b7f4e487b7100000000000000000000000000000000000000000000000000000000600052601160045260246000fd5b600061275082611b19565b915061275b83611b19565b925082820390508181111561277357612772612716565b5b92915050565b600061278482611b19565b91507fffffffffffffffffffffffffffffffffffffffffffffffffffffffffffffffff82036127b6576127b5612716565b5b600182019050919050565b60006080820190506127d66000830187611b23565b6127e36020830186611b23565b6127f06040830185611edc565b6127fd6060830184611edc565b95945050505050565b7f21616c72656164795f637265617465645f616e5f6163636f756e740000000000600082015250565b600061283c601b83612179565b915061284782612806565b602082019050919050565b6000602082019050818103600083015261286b8161282f565b9050919050565b600081519050919050565b60005b8381101561289b578082015181840152602081019050612880565b60008484015250505050565b60006128b282612872565b6128bc8185612179565b93506128cc81856020860161287d565b6128d581611c89565b840191505092915050565b600060e08201905081810360008301526128fa818a6128a7565b9050818103602083015261290e81896128a7565b9050818103604083015261292281886128a7565b9050818103606083015261293681876128a7565b90506129456080830186611edc565b61295260a0830185611b23565b61295f60c0830184611f93565b98975050505050505050565b7f216c6f616e5f6578697374730000000000000000000000000000000000000000600082015250565b60006129a1600c83612179565b91506129ac8261296b565b602082019050919050565b600060208201905081810360008301526129d081612994565b9050919050565b60006060820190506129ec6000830186611edc565b6129f96020830185611edc565b612a066040830184611b23565b94935050505056fea26469706673582212205f7bc471b53d805525fc83acb0c788ab31841d2e50c0f93460b2ba97bbae461964736f6c63430008110033",
  "immutableReferences": {},
  "source": "// SPDX-License-Identifier: GPL-3.0\npragma solidity >=0.7.0 <0.9.0;\n\nimport {IERC20} from \"@openzeppelin/contracts/token/ERC20/iERC20.sol\";\nimport {DashToken} from \"./DashToken.sol\";\n\ncontract Dash {\n    address private deployer;\n\n    uint private userID;\n    uint private liquidityID;\n    uint private loanID;\n\n    uint defaultCreditScore = 40;\n\n    DashToken private dashToken;\n\n    mapping(address => User) public users;\n    mapping(address => Liquidity[]) public liquidities;\n    mapping(address => Loan[]) public loans;\n\n    uint public platformFee = 1; // 1% fee\n\n    constructor(address dashToken_) {\n        deployer = msg.sender;\n        dashToken = DashToken(dashToken_);\n    }\n\n    struct Liquidity {\n        uint id;\n        uint256 amount;\n        address tokenAddress;\n        uint interestRate;\n        uint256 minTakeOut;\n        uint256 maxTakeOut;\n        uint minDays;\n        uint maxDays;\n        uint minCreditScore;\n        uint createdAt;\n    }\n\n    struct Loan {\n        uint id;\n        uint256 amount;\n        address tokenAddress;\n        uint interestRate;\n        address from;\n        uint createdAt;\n        uint paidAt;\n    }\n\n    struct User {\n      uint id;\n        uint creditScore;\n        bool activeLoan;\n        uint createdAt;\n        address[] networks;\n    }\n\n    function createUser(\n        string memory name,\n        string memory photo,\n        string memory email,\n        string memory username\n    ) public {\n      require(users[msg.sender].id == 0, \"!already_created_an_account\");\n\n      userID++;\n      users[msg.sender] = User(\n          userID,\n          defaultCreditScore,\n          false,\n          block.timestamp,\n          users[msg.sender].networks\n      );\n\n      emit UserCreated(\n          name,\n          photo,\n          email,\n          username,\n         msg.sender,\n        defaultCreditScore,\n        false\n      );\n    }\n\n    function takeLoan(\n        uint id,\n        uint256 amount,\n        address owner,\n        uint duration\n    ) public {\n        require(amount > 0, \"!can_take_zero_token\");\n        int ownerLiquidityIndex = getUserLiquidityIndex(owner, id);\n        require(ownerLiquidityIndex != -1, \"!liquidity_exists\");\n\n        Liquidity memory liquidity = liquidities[owner][\n            uint(ownerLiquidityIndex)\n        ];\n\n        int userNetworkIndex = getUserNetworkIndex(owner, msg.sender);\n        require(userNetworkIndex != -1, \"!unathorized\");\n\n        require(!users[msg.sender].activeLoan, \"!already_on_a_loan\");\n\n        require(liquidity.amount >= amount, \"insuficcient_pool\");\n        require(liquidity.maxTakeOut >= amount, \"too_much\");\n        require(liquidity.minTakeOut <= amount, \"too_little\");\n        require(liquidity.maxDays >= duration, \"too_long\");\n        require(liquidity.minDays <= duration, \"too_short\");\n\n        liquidity.amount -= amount;\n        users[msg.sender].activeLoan = true;\n\n        loanID++;\n        loans[msg.sender].push(\n            Loan(\n                loanID,\n                amount,\n                liquidity.tokenAddress,\n                liquidity.interestRate,\n                owner,\n                block.timestamp,\n                0\n            )\n        );\n\n        emit TookLoan(loanID, amount, msg.sender, owner);\n    }\n\n    function payLoan(uint id, address owner) public {\n        int userLoanIndex = getUserLoanIndex(msg.sender, id);\n        require(userLoanIndex != -1, \"!loan_exists\");\n\n        Loan memory loan = loans[msg.sender][uint(userLoanIndex)];\n        require(loan.from == owner, \"!unathorized\");\n\n        // stake tokens from user wallet to the contract\n        IERC20 token = IERC20(loan.tokenAddress);\n        token.transferFrom(msg.sender, owner, loan.amount);\n\n        loan.paidAt = block.timestamp;\n        users[msg.sender].activeLoan = false;\n\n        emit PaidLoan(id, loan.amount, msg.sender, owner);\n    }\n\n    function closeLiquidity(uint id) public {\n        int userLiquidityIndex = getUserLiquidityIndex(msg.sender, id);\n        require(userLiquidityIndex != -1, \"!you_do_own_these_tokens\");\n\n        Liquidity memory liquidity = liquidities[msg.sender][\n            uint256(userLiquidityIndex)\n        ];\n\n        require(liquidity.amount > 0, \"insuffieceint_funds\");\n\n        // send tokens to user wallet\n        IERC20 token = IERC20(liquidity.tokenAddress);\n        token.transfer(msg.sender, liquidity.amount);\n\n        delete liquidity;\n\n        emit ClosedLiquidity(\n            msg.sender,\n            liquidity.amount,\n            liquidity.tokenAddress\n        );\n    }\n\n    function provideLiquity(\n        uint256 amount,\n        address tokenAddress,\n        uint interestRate,\n        uint256 minTakeOut,\n        uint256 maxTakeOut,\n        uint minDays,\n        uint maxDays,\n        uint minCreditScore\n    ) public {\n        liquidityID++;\n        liquidities[msg.sender].push(\n            Liquidity(\n                liquidityID,\n                amount,\n                tokenAddress,\n                interestRate,\n                minTakeOut,\n                maxTakeOut,\n                minDays,\n                maxDays,\n                minCreditScore,\n                block.timestamp\n            )\n        );\n\n        // stake tokens from user wallet to the contract\n        IERC20 token = IERC20(tokenAddress);\n        token.transferFrom(msg.sender, address(this), amount);\n\n        emit ProvidedLiquity(msg.sender, amount, tokenAddress);\n    }\n\n    function getUserLoanIndex(address user, uint id)\n        private\n        view\n        returns (int)\n    {\n        Loan[] memory loanList = loans[user];\n        int position = -1;\n\n        for (uint index = 0; index < loanList.length; index++) {\n            if (loanList[index].id == id) {\n                position = int(index);\n                break;\n            }\n        }\n\n        return position;\n    }\n\n    function getUserLiquidityIndex(address user, uint id)\n        private\n        view\n        returns (int)\n    {\n        Liquidity[] memory liquidityList = liquidities[user];\n        int position = -1;\n\n        for (uint index = 0; index < liquidityList.length; index++) {\n            if (liquidityList[index].id == id) {\n                position = int(index);\n                break;\n            }\n        }\n\n        return position;\n    }\n\n    function getUserNetworkIndex(address user, address network)\n        private\n        view\n        returns (int)\n    {\n        address[] memory networks = users[user].networks;\n        int position = -1;\n\n        for (uint index = 0; index < networks.length; index++) {\n            if (networks[index] == network) {\n                position = int(index);\n                break;\n            }\n        }\n\n        return position;\n    }\n\n    function calculateSimpleInterest(\n        uint256 capital,\n        uint rate,\n        uint duration\n    ) private pure returns (uint256) {\n        // amount = capital(1 + (rate * duration))\n        return capital * (1 + (rate * duration));\n    }\n\n    event UserCreated(\n        string name,\n        string photo,\n        string email,\n        string username,\n        address userAddress,\n        uint creditScore,\n        bool activeLoan\n    );\n    event TookLoan(uint id, uint256 amount, address userAddress, address owner);\n    event PaidLoan(uint id, uint256 amount, address userAddress, address owner);\n    event ClosedLiquidity(address user, uint256 amount, address tokenAddress);\n    event ProvidedLiquity(address user, uint256 amount, address tokenAddress);\n}\n",
  "sourcePath": "C:\\Users\\Arogundade Ibrahim\\Documents\\web3\\dash\\contracts\\Dash.sol",
  "compiler": {
    "name": "solc",
    "version": "0.8.17+commit.8df45f5f.Emscripten.clang"
  },
  "schemaVersion": "3.4.10",
  "updatedAt": "2022-11-05T04:26:38.255Z",
  "networkType": "ethereum",
  "devdoc": {
    "kind": "dev",
    "methods": {},
    "version": 1
  },
  "userdoc": {
    "kind": "user",
    "methods": {},
    "version": 1
  }
}