{
  "contractName": "Dash",
  "abi": [
    {
      "inputs": [
        {
          "internalType": "address",
          "name": "dashToken_",
          "type": "address"
        }
      ],
      "stateMutability": "nonpayable",
      "type": "constructor"
    },
    {
      "anonymous": false,
      "inputs": [
        {
          "indexed": false,
          "internalType": "uint256",
          "name": "id",
          "type": "uint256"
        }
      ],
      "name": "ClosedLiquidity",
      "type": "event"
    },
    {
      "anonymous": false,
      "inputs": [
        {
          "indexed": false,
          "internalType": "address",
          "name": "user",
          "type": "address"
        },
        {
          "indexed": false,
          "internalType": "uint256",
          "name": "score",
          "type": "uint256"
        }
      ],
      "name": "CreditScoreChanged",
      "type": "event"
    },
    {
      "anonymous": false,
      "inputs": [
        {
          "indexed": false,
          "internalType": "uint256",
          "name": "loanID",
          "type": "uint256"
        },
        {
          "indexed": false,
          "internalType": "uint256",
          "name": "liquidityID",
          "type": "uint256"
        },
        {
          "indexed": false,
          "internalType": "uint256",
          "name": "amount",
          "type": "uint256"
        },
        {
          "indexed": false,
          "internalType": "uint256",
          "name": "duration",
          "type": "uint256"
        },
        {
          "indexed": false,
          "internalType": "uint256",
          "name": "interestRate",
          "type": "uint256"
        },
        {
          "indexed": false,
          "internalType": "uint256",
          "name": "createdAt",
          "type": "uint256"
        },
        {
          "indexed": false,
          "internalType": "uint256",
          "name": "paidAt",
          "type": "uint256"
        },
        {
          "indexed": false,
          "internalType": "address",
          "name": "userAddress",
          "type": "address"
        },
        {
          "indexed": false,
          "internalType": "address",
          "name": "provider",
          "type": "address"
        }
      ],
      "name": "LoanCreated",
      "type": "event"
    },
    {
      "anonymous": false,
      "inputs": [
        {
          "indexed": false,
          "internalType": "address",
          "name": "user",
          "type": "address"
        },
        {
          "indexed": false,
          "internalType": "address",
          "name": "by",
          "type": "address"
        },
        {
          "indexed": false,
          "internalType": "bool",
          "name": "isAdded",
          "type": "bool"
        }
      ],
      "name": "NetworkAdded",
      "type": "event"
    },
    {
      "anonymous": false,
      "inputs": [
        {
          "indexed": false,
          "internalType": "uint256",
          "name": "liquidityID",
          "type": "uint256"
        },
        {
          "indexed": false,
          "internalType": "uint256",
          "name": "amount",
          "type": "uint256"
        },
        {
          "indexed": false,
          "internalType": "address",
          "name": "tokenAddress",
          "type": "address"
        },
        {
          "indexed": false,
          "internalType": "uint256",
          "name": "interestRate",
          "type": "uint256"
        },
        {
          "indexed": false,
          "internalType": "uint256",
          "name": "minTakeOut",
          "type": "uint256"
        },
        {
          "indexed": false,
          "internalType": "uint256",
          "name": "maxTakeOut",
          "type": "uint256"
        },
        {
          "indexed": false,
          "internalType": "uint256",
          "name": "minDays",
          "type": "uint256"
        },
        {
          "indexed": false,
          "internalType": "uint256",
          "name": "maxDays",
          "type": "uint256"
        },
        {
          "indexed": false,
          "internalType": "uint256",
          "name": "minCreditScore",
          "type": "uint256"
        },
        {
          "indexed": false,
          "internalType": "uint256",
          "name": "createdAt",
          "type": "uint256"
        },
        {
          "indexed": false,
          "internalType": "address",
          "name": "userAddress",
          "type": "address"
        }
      ],
      "name": "ProvidedLiquity",
      "type": "event"
    },
    {
      "anonymous": false,
      "inputs": [
        {
          "indexed": false,
          "internalType": "uint256",
          "name": "id",
          "type": "uint256"
        },
        {
          "indexed": false,
          "internalType": "uint256",
          "name": "amount",
          "type": "uint256"
        }
      ],
      "name": "UpdatedLiquidity",
      "type": "event"
    },
    {
      "anonymous": false,
      "inputs": [
        {
          "indexed": false,
          "internalType": "string",
          "name": "name",
          "type": "string"
        },
        {
          "indexed": false,
          "internalType": "string",
          "name": "photo",
          "type": "string"
        },
        {
          "indexed": false,
          "internalType": "string",
          "name": "email",
          "type": "string"
        },
        {
          "indexed": false,
          "internalType": "string",
          "name": "username",
          "type": "string"
        },
        {
          "indexed": false,
          "internalType": "address",
          "name": "userAddress",
          "type": "address"
        },
        {
          "indexed": false,
          "internalType": "uint256",
          "name": "creditScore",
          "type": "uint256"
        },
        {
          "indexed": false,
          "internalType": "bool",
          "name": "activeLoan",
          "type": "bool"
        },
        {
          "indexed": false,
          "internalType": "string",
          "name": "year",
          "type": "string"
        },
        {
          "indexed": false,
          "internalType": "string",
          "name": "month",
          "type": "string"
        },
        {
          "indexed": false,
          "internalType": "string",
          "name": "phone",
          "type": "string"
        },
        {
          "indexed": false,
          "internalType": "string",
          "name": "homeAddress",
          "type": "string"
        }
      ],
      "name": "UserCreated",
      "type": "event"
    },
    {
      "inputs": [
        {
          "internalType": "address",
          "name": "",
          "type": "address"
        },
        {
          "internalType": "uint256",
          "name": "",
          "type": "uint256"
        }
      ],
      "name": "liquidities",
      "outputs": [
        {
          "internalType": "uint256",
          "name": "id",
          "type": "uint256"
        },
        {
          "internalType": "uint256",
          "name": "amount",
          "type": "uint256"
        },
        {
          "internalType": "address",
          "name": "tokenAddress",
          "type": "address"
        },
        {
          "internalType": "uint256",
          "name": "interestRate",
          "type": "uint256"
        },
        {
          "internalType": "uint256",
          "name": "minTakeOut",
          "type": "uint256"
        },
        {
          "internalType": "uint256",
          "name": "maxTakeOut",
          "type": "uint256"
        },
        {
          "internalType": "uint256",
          "name": "minDays",
          "type": "uint256"
        },
        {
          "internalType": "uint256",
          "name": "maxDays",
          "type": "uint256"
        },
        {
          "internalType": "uint256",
          "name": "minCreditScore",
          "type": "uint256"
        },
        {
          "internalType": "uint256",
          "name": "createdAt",
          "type": "uint256"
        }
      ],
      "stateMutability": "view",
      "type": "function"
    },
    {
      "inputs": [
        {
          "internalType": "address",
          "name": "",
          "type": "address"
        },
        {
          "internalType": "uint256",
          "name": "",
          "type": "uint256"
        }
      ],
      "name": "loans",
      "outputs": [
        {
          "internalType": "uint256",
          "name": "id",
          "type": "uint256"
        },
        {
          "internalType": "uint256",
          "name": "liquidity",
          "type": "uint256"
        },
        {
          "internalType": "uint256",
          "name": "amount",
          "type": "uint256"
        },
        {
          "internalType": "address",
          "name": "tokenAddress",
          "type": "address"
        },
        {
          "internalType": "uint256",
          "name": "interestRate",
          "type": "uint256"
        },
        {
          "internalType": "uint256",
          "name": "duration",
          "type": "uint256"
        },
        {
          "internalType": "address",
          "name": "provider",
          "type": "address"
        },
        {
          "internalType": "uint256",
          "name": "createdAt",
          "type": "uint256"
        },
        {
          "internalType": "uint256",
          "name": "paidAt",
          "type": "uint256"
        }
      ],
      "stateMutability": "view",
      "type": "function"
    },
    {
      "inputs": [],
      "name": "platformFee",
      "outputs": [
        {
          "internalType": "uint256",
          "name": "",
          "type": "uint256"
        }
      ],
      "stateMutability": "view",
      "type": "function"
    },
    {
      "inputs": [
        {
          "internalType": "address",
          "name": "",
          "type": "address"
        }
      ],
      "name": "users",
      "outputs": [
        {
          "internalType": "uint256",
          "name": "id",
          "type": "uint256"
        },
        {
          "internalType": "uint256",
          "name": "creditScore",
          "type": "uint256"
        },
        {
          "internalType": "bool",
          "name": "activeLoan",
          "type": "bool"
        },
        {
          "internalType": "uint256",
          "name": "createdAt",
          "type": "uint256"
        }
      ],
      "stateMutability": "view",
      "type": "function"
    },
    {
      "inputs": [
        {
          "internalType": "string",
          "name": "name",
          "type": "string"
        },
        {
          "internalType": "string",
          "name": "photo",
          "type": "string"
        },
        {
          "internalType": "string",
          "name": "email",
          "type": "string"
        },
        {
          "internalType": "string",
          "name": "username",
          "type": "string"
        },
        {
          "internalType": "string",
          "name": "year",
          "type": "string"
        },
        {
          "internalType": "string",
          "name": "month",
          "type": "string"
        },
        {
          "internalType": "string",
          "name": "phone",
          "type": "string"
        },
        {
          "internalType": "string",
          "name": "homeAddress",
          "type": "string"
        }
      ],
      "name": "createUser",
      "outputs": [],
      "stateMutability": "nonpayable",
      "type": "function"
    },
    {
      "inputs": [
        {
          "internalType": "string",
          "name": "name",
          "type": "string"
        },
        {
          "internalType": "string",
          "name": "photo",
          "type": "string"
        },
        {
          "internalType": "string",
          "name": "email",
          "type": "string"
        },
        {
          "internalType": "string",
          "name": "username",
          "type": "string"
        },
        {
          "internalType": "string",
          "name": "year",
          "type": "string"
        },
        {
          "internalType": "string",
          "name": "month",
          "type": "string"
        },
        {
          "internalType": "string",
          "name": "phone",
          "type": "string"
        },
        {
          "internalType": "string",
          "name": "homeAddress",
          "type": "string"
        }
      ],
      "name": "updateUser",
      "outputs": [],
      "stateMutability": "nonpayable",
      "type": "function"
    },
    {
      "inputs": [
        {
          "internalType": "address",
          "name": "user",
          "type": "address"
        }
      ],
      "name": "addNetwork",
      "outputs": [],
      "stateMutability": "nonpayable",
      "type": "function"
    },
    {
      "inputs": [
        {
          "internalType": "address",
          "name": "user",
          "type": "address"
        }
      ],
      "name": "removeNetwork",
      "outputs": [],
      "stateMutability": "nonpayable",
      "type": "function"
    },
    {
      "inputs": [
        {
          "internalType": "uint256",
          "name": "id",
          "type": "uint256"
        },
        {
          "internalType": "uint256",
          "name": "amount",
          "type": "uint256"
        },
        {
          "internalType": "address",
          "name": "provider",
          "type": "address"
        },
        {
          "internalType": "uint256",
          "name": "duration",
          "type": "uint256"
        }
      ],
      "name": "takeLoan",
      "outputs": [],
      "stateMutability": "nonpayable",
      "type": "function"
    },
    {
      "inputs": [
        {
          "internalType": "uint256",
          "name": "id",
          "type": "uint256"
        }
      ],
      "name": "payLoan",
      "outputs": [],
      "stateMutability": "nonpayable",
      "type": "function"
    },
    {
      "inputs": [
        {
          "internalType": "uint256",
          "name": "id",
          "type": "uint256"
        }
      ],
      "name": "closeLiquidity",
      "outputs": [],
      "stateMutability": "nonpayable",
      "type": "function"
    },
    {
      "inputs": [
        {
          "internalType": "uint256",
          "name": "amount",
          "type": "uint256"
        },
        {
          "internalType": "address",
          "name": "tokenAddress",
          "type": "address"
        },
        {
          "internalType": "uint256",
          "name": "interestRate",
          "type": "uint256"
        },
        {
          "internalType": "uint256",
          "name": "minTakeOut",
          "type": "uint256"
        },
        {
          "internalType": "uint256",
          "name": "maxTakeOut",
          "type": "uint256"
        },
        {
          "internalType": "uint256",
          "name": "minDays",
          "type": "uint256"
        },
        {
          "internalType": "uint256",
          "name": "maxDays",
          "type": "uint256"
        },
        {
          "internalType": "uint256",
          "name": "minCreditScore",
          "type": "uint256"
        }
      ],
      "name": "provideLiquidity",
      "outputs": [],
      "stateMutability": "nonpayable",
      "type": "function"
    }
  ],
  "bytecode": "0x60806040526002805560416006553480156200001a57600080fd5b506040516200273b3803806200273b8339810160408190526200003d9162000071565b60008054336001600160a01b031991821617909155600780549091166001600160a01b0392909216919091179055620000a3565b6000602082840312156200008457600080fd5b81516001600160a01b03811681146200009c57600080fd5b9392505050565b61268880620000b36000396000f3fe608060405234801561001057600080fd5b50600436106100d45760003560e01c8063a8d7b3ec11610081578063d7d91fe41161005b578063d7d91fe414610282578063eb3b299b14610295578063f35456ed146102a857600080fd5b8063a8d7b3ec146101f1578063d52559d014610204578063d567e4a41461026f57600080fd5b80634a184a87116100b25780634a184a871461011d57806398c61c3714610130578063a87430ba1461019057600080fd5b806326232a2e146100d9578063329aa414146100f5578063333803591461010a575b600080fd5b6100e260025481565b6040519081526020015b60405180910390f35b61010861010336600461216c565b6102bb565b005b6101086101183660046121a1565b610566565b61010861012b366004612281565b610cc9565b61014361013e3660046123c1565b610e80565b60408051998a5260208a0198909852968801959095526001600160a01b039384166060880152608087019290925260a08601521660c084015260e0830152610100820152610120016100ec565b6101cb61019e3660046123eb565b60086020526000908152604090208054600182015460028301546003909301549192909160ff9091169084565b6040805194855260208501939093529015159183019190915260608201526080016100ec565b6101086101ff36600461216c565b610ef5565b6102176102123660046123c1565b611717565b604080519a8b5260208b01999099526001600160a01b03909716978901979097526060880194909452608087019290925260a086015260c085015260e0840152610100830191909152610120820152610140016100ec565b61010861027d3660046123eb565b611791565b610108610290366004612281565b611839565b6101086102a33660046123eb565b6118f9565b6101086102b6366004612406565b6119a5565b60006102c73383611da4565b9050801961031c5760405162461bcd60e51b815260206004820152601b60248201527f21796f755f646f5f6f776e5f74686573655f6c6971756964697479000000000060448201526064015b60405180910390fd5b33600090815260096020526040812080548390811061033d5761033d612466565b90600052602060002090600a0201600101541161039c5760405162461bcd60e51b815260206004820152601260248201527f696e73756666696369656e745f66756e647300000000000000000000000000006044820152606401610313565b3360009081526009602052604081208054839081106103bd576103bd612466565b600091825260208083206002600a909302019190910154338084526009909252604090922080546001600160a01b039093169350839263a9059cbb9291908690811061040b5761040b612466565b600091825260209091206001600a9092020101546040517fffffffff0000000000000000000000000000000000000000000000000000000060e085901b1681526001600160a01b03909216600483015260248201526044016020604051808303816000875af1158015610482573d6000803e3d6000fd5b505050506040513d601f19601f820116820180604052508101906104a6919061247c565b506040518381527f20c48a95a2e7a5844e4f456e8d83a72af0caceb90b567ae55d0b13c7942fa7989060200160405180910390a13360009081526009602052604090208054839081106104fb576104fb612466565b600091825260208220600a909102018181556001810182905560028101805473ffffffffffffffffffffffffffffffffffffffff1916905560038101829055600481018290556005810182905560068101829055600781018290556008810182905560090155505050565b600083116105b65760405162461bcd60e51b815260206004820152601460248201527f2163616e5f74616b655f7a65726f5f746f6b656e0000000000000000000000006044820152606401610313565b60006105c28386611da4565b905080196106125760405162461bcd60e51b815260206004820152601160248201527f216c69717569646974795f6578697374730000000000000000000000000000006044820152606401610313565b6001600160a01b038316600090815260096020526040812080548390811061063c5761063c612466565b600091825260208083206040805161014081018252600a9094029091018054845260018101549284019290925260028201546001600160a01b0316908301526003810154606083015260048101546080830152600581015460a0830152600681015460c0830152600781015460e083015260088101546101008301526009015461012082015291506106ce8533611ed5565b9050801961071e5760405162461bcd60e51b815260206004820152600c60248201527f21756e6174686f72697a656400000000000000000000000000000000000000006044820152606401610313565b3360009081526008602052604090206002015460ff16156107815760405162461bcd60e51b815260206004820152601160248201527f616c72656164795f6f6e5f615f6c6f616e0000000000000000000000000000006044820152606401610313565b85826020015110156107d55760405162461bcd60e51b815260206004820152601160248201527f696e73756669636369656e745f706f6f6c0000000000000000000000000000006044820152606401610313565b858260a0015110156108295760405162461bcd60e51b815260206004820152600860248201527f746f6f5f6d7563680000000000000000000000000000000000000000000000006044820152606401610313565b858260800151111561087d5760405162461bcd60e51b815260206004820152600a60248201527f746f6f5f6c6974746c65000000000000000000000000000000000000000000006044820152606401610313565b838260e0015110156108d15760405162461bcd60e51b815260206004820152600860248201527f746f6f5f6c6f6e670000000000000000000000000000000000000000000000006044820152606401610313565b838260c0015111156109255760405162461bcd60e51b815260206004820152600960248201527f746f6f5f73686f727400000000000000000000000000000000000000000000006044820152606401610313565b33600090815260086020526040902060010154610100830151111561098c5760405162461bcd60e51b815260206004820152601460248201527f746f6f5f6c6f775f6372656469745f73636f72650000000000000000000000006044820152606401610313565b6001600160a01b03851660009081526009602052604090208054879190859081106109b9576109b9612466565b90600052602060002090600a020160010160008282546109d991906124b4565b9091555050336000908152600860205260408120600201805460ff191660011790556005805491610a09836124c7565b90915550506040805161012081018252600580548252845160208084019182528385018b8152878601516001600160a01b0390811660608088019182528a01516080880190815260a088018d81528e841660c08a019081524260e08b0190815260006101008c0181815233808352600a8b528e83208054600180820183559185529b9093208e516009909c02019a8b559a51918a019190915596516002890155935160038801805473ffffffffffffffffffffffffffffffffffffffff1990811683891690811790925594516004808b019190915593519a89019a909a55905160068801805490941695169490941790915590516007850155915160089093019290925594517fa9059cbb00000000000000000000000000000000000000000000000000000000815294850191909152602484018a9052919263a9059cbb906044016020604051808303816000875af1158015610b6a573d6000803e3d6000fd5b505050506040513d601f19601f82011682018060405250810190610b8e919061247c565b507f558c644d7fa31e50f4a2e534d5e5793366a1941a6362d04408e62b39439a31568260000151836020015184604001518560a0015186608001518760e00151886101000151338a60c00151604051610c3599989796959493929190988952602089019790975260408801959095526060870193909352608086019190915260a085015260c08401526001600160a01b0390811660e0840152166101008201526101200190565b60405180910390a183516001600160a01b038816600090815260096020526040902080547fa78d1e81434a3d3c4b90a82e0df68035fc59d26e2185a51f8a66143c94c4814a92919088908110610c8d57610c8d612466565b90600052602060002090600a020160010154604051610cb6929190918252602082015260400190565b60405180910390a1505050505050505050565b3360009081526008602052604090205415610d265760405162461bcd60e51b815260206004820152601b60248201527f21616c72656164795f637265617465645f616e5f6163636f756e7400000000006044820152606401610313565b60038054906000610d36836124c7565b90915550506040805160a08101825260035481526006546020808301919091526000828401819052426060840152338152600882528390206004018054845181840281018401909552808552929360808501939092830182828015610dc457602002820191906000526020600020905b81546001600160a01b03168152600190910190602001808311610da6575b50505091909252505033600090815260086020908152604091829020835181558382015160018201559183015160028301805460ff19169115159190911790556060830151600383015560808301518051610e2592600485019201906120e5565b50506006546040517f676f4149b3c169700ae4fc11a98f7fa314e26c66113436c7d5f7688e340cd0549250610e6e918b918b918b918b9133916000908d908d908d908d90612526565b60405180910390a15050505050505050565b600a6020528160005260406000208181548110610e9c57600080fd5b600091825260209091206009909102018054600182015460028301546003840154600485015460058601546006870154600788015460089098015496995094975092956001600160a01b03928316959194909216919089565b6000610f013383611fa5565b90508019610f515760405162461bcd60e51b815260206004820152600c60248201527f216c6f616e5f65786973747300000000000000000000000000000000000000006044820152606401610313565b336000908152600a60205260408120805483908110610f7257610f72612466565b6000918252602091829020604080516101208101825260099093029091018054835260018101549383019390935260028301549082015260038201546001600160a01b03908116606083015260048301546080830152600583015460a083015260068301541660c0820152600782015460e08201526008909101546101008201819052909150156110455760405162461bcd60e51b815260206004820152601160248201527f6c6f616e5f616c72656164795f706169640000000000000000000000000000006044820152606401610313565b60008160e001514261105791906124b4565b90506000611064826120c3565b905060006110768460800151836120d2565b60075460405163e1f21c6760e01b8152336004820152306024820152604481018390529192506001600160a01b03169063e1f21c6790606401600060405180830381600087803b1580156110c957600080fd5b505af11580156110dd573d6000803e3d6000fd5b50506007546040516323b872dd60e01b8152336004820152306024820152604481018590526001600160a01b0390911692506323b872dd91506064016020604051808303816000875af1158015611138573d6000803e3d6000fd5b505050506040513d601f19601f8201168201806040525081019061115c919061247c565b506000606460025461116e91906125fe565b6111789083612620565b60075460c08701519192506001600160a01b03169063a9059cbb9061119d84866124b4565b6040517fffffffff0000000000000000000000000000000000000000000000000000000060e085901b1681526001600160a01b03909216600483015260248201526044016020604051808303816000875af1158015611200573d6000803e3d6000fd5b505050506040513d601f19601f82011682018060405250810190611224919061247c565b508060016000828254611237919061263f565b9250508190555060006112528660c001518760200151611da4565b9050806000191461143e576060860151604080880151905163e1f21c6760e01b815233600482015230602482015260448101919091526001600160a01b0382169063e1f21c6790606401600060405180830381600087803b1580156112b657600080fd5b505af11580156112ca573d6000803e3d6000fd5b5050505060408781015190516323b872dd60e01b815233600482015230602482015260448101919091526001600160a01b038216906323b872dd906064016020604051808303816000875af1158015611327573d6000803e3d6000fd5b505050506040513d601f19601f8201168201806040525081019061134b919061247c565b5060408088015160c08901516001600160a01b0316600090815260096020529190912080548490811061138057611380612466565b90600052602060002090600a020160010160008282546113a0919061263f565b925050819055507fa78d1e81434a3d3c4b90a82e0df68035fc59d26e2185a51f8a66143c94c4814a8760200151600960008a60c001516001600160a01b03166001600160a01b03168152602001908152602001600020848154811061140757611407612466565b90600052602060002090600a020160010154604051611430929190918252602082015260400190565b60405180910390a15061153f565b606086015160c0870151604080890151905163e1f21c6760e01b81523360048201526001600160a01b03928316602482015260448101919091529082169063e1f21c6790606401600060405180830381600087803b15801561149f57600080fd5b505af11580156114b3573d6000803e3d6000fd5b5050505060c087015160408089015190516323b872dd60e01b81523360048201526001600160a01b0392831660248201526044810191909152908216906323b872dd906064016020604051808303816000875af1158015611518573d6000803e3d6000fd5b505050506040513d601f19601f8201168201806040525081019061153c919061247c565b50505b42610100870152336000908152600860205260409020600201805460ff1916905560a08601518411156115cc57336000908152600860205260409020600101546005116115b4573360009081526008602052604081206001018054600592906115a99084906124b4565b909155506116219050565b33600090815260086020526040812060010155611621565b33600090815260086020526040902060010154605f10611609573360009081526008602052604081206001018054600592906115a990849061263f565b33600090815260086020526040902060646001909101555b7f558c644d7fa31e50f4a2e534d5e5793366a1941a6362d04408e62b39439a31568660000151876020015188604001518960a001518a608001518b60e001518c6101000151338e60c001516040516116c799989796959493929190988952602089019790975260408801959095526060870193909352608086019190915260a085015260c08401526001600160a01b0390811660e0840152166101008201526101200190565b60405180910390a133600081815260086020908152604091829020600101548251938452908301527f05933d00429c2f5bf744590ae0bbc26dd4e984be9acbb9197eec5f7127e6da649101610e6e565b6009602052816000526040600020818154811061173357600080fd5b60009182526020909120600a90910201805460018201546002830154600384015460048501546005860154600687015460078801546008890154600990990154979a509598506001600160a01b03909416969295919490939290918a565b600061179d3383611ed5565b905080196118355733600081815260086020908152604080832060040180546001808201835591855293839020909301805473ffffffffffffffffffffffffffffffffffffffff19166001600160a01b038816908117909155815190815291820193909352918201527fef159a3fe67039f76f5f69589747e2f0132e5e79bc6a1ee9b3f47bfad176d005906060015b60405180910390a15b5050565b3360009081526008602052604081205490036118975760405162461bcd60e51b815260206004820152600a60248201527f6e6f5f6163636f756e74000000000000000000000000000000000000000000006044820152606401610313565b3360008181526008602052604090819020600181015460029091015491517f676f4149b3c169700ae4fc11a98f7fa314e26c66113436c7d5f7688e340cd05493610e6e938d938d938d938d9390929160ff909116908d908d908d908d90612526565b60006119053383611ed5565b905080600019146118355733600090815260086020526040902060040180548290811061193457611934612466565b6000918252602080832091909101805473ffffffffffffffffffffffffffffffffffffffff19169055604080516001600160a01b038616815233928101929092528101919091527fef159a3fe67039f76f5f69589747e2f0132e5e79bc6a1ee9b3f47bfad176d0059060600161182c565b8385106119f45760405162461bcd60e51b815260206004820152601760248201527f696e76616c69645f74616b655f6f75745f76616c7565730000000000000000006044820152606401610313565b818310611a435760405162461bcd60e51b815260206004820152601360248201527f696e76616c69645f646179735f76616c756573000000000000000000000000006044820152606401610313565b6064811115611a945760405162461bcd60e51b815260206004820152601a60248201527f696e76616c69645f6372656469745f73636f72655f76616c75650000000000006044820152606401610313565b60008811611ae45760405162461bcd60e51b815260206004820152601460248201527f696e76616c69645f616d6f756e745f76616c75650000000000000000000000006044820152606401610313565b60048054906000611af4836124c7565b919050555060096000336001600160a01b03166001600160a01b0316815260200190815260200160002060405180610140016040528060045481526020018a8152602001896001600160a01b031681526020018881526020018781526020018681526020018581526020018481526020018381526020014281525090806001815401808255809150506001900390600052602060002090600a0201600090919091909150600082015181600001556020820151816001015560408201518160020160006101000a8154816001600160a01b0302191690836001600160a01b03160217905550606082015181600301556080820151816004015560a0820151816005015560c0820151816006015560e082015181600701556101008201518160080155610120820151816009015550506000879050806001600160a01b031663e1f21c6733308c6040518463ffffffff1660e01b8152600401611c77939291906001600160a01b039384168152919092166020820152604081019190915260600190565b600060405180830381600087803b158015611c9157600080fd5b505af1158015611ca5573d6000803e3d6000fd5b50506040516323b872dd60e01b8152336004820152306024820152604481018c90526001600160a01b03841692506323b872dd91506064016020604051808303816000875af1158015611cfc573d6000803e3d6000fd5b505050506040513d601f19601f82011682018060405250810190611d20919061247c565b5060045460408051918252602082018b90526001600160a01b038a1690820152606081018890526080810187905260a0810186905260c0810185905260e08101849052610100810183905242610120820152336101408201527f9c73435d730d29a508b2720903ba238df287009379a89db682694cc036aed5b79061016001610cb6565b6001600160a01b038216600090815260096020908152604080832080548251818502810185019093528083528493849084015b82821015611e735760008481526020908190206040805161014081018252600a8602909201805483526001808201548486015260028201546001600160a01b0316928401929092526003810154606084015260048101546080840152600581015460a0840152600681015460c0840152600781015460e08401526008810154610100840152600901546101208301529083529092019101611dd7565b5050505090506000600019905060005b8251811015611eca5784838281518110611e9f57611e9f612466565b60200260200101516000015103611eb857809150611eca565b80611ec2816124c7565b915050611e83565b509150505b92915050565b6001600160a01b038216600090815260086020908152604080832060040180548251818502810185019093528083528493830182828015611f3f57602002820191906000526020600020905b81546001600160a01b03168152600190910190602001808311611f21575b505050505090506000600019905060005b8251811015611eca57846001600160a01b0316838281518110611f7557611f75612466565b60200260200101516001600160a01b031603611f9357809150611eca565b80611f9d816124c7565b915050611f50565b6001600160a01b0382166000908152600a6020908152604080832080548251818502810185019093528083528493849084015b8282101561206c576000848152602090819020604080516101208101825260098602909201805483526001808201548486015260028201549284019290925260038101546001600160a01b03908116606085015260048201546080850152600582015460a085015260068201541660c0840152600781015460e0840152600801546101008301529083529092019101611fd8565b5050505090506000600019905060005b8251811015611eca578483828151811061209857612098612466565b602002602001015160000151036120b157809150611eca565b806120bb816124c7565b91505061207c565b6000611ecf62015180836125fe565b60006120de8284612620565b9392505050565b828054828255906000526020600020908101928215612147579160200282015b82811115612147578251825473ffffffffffffffffffffffffffffffffffffffff19166001600160a01b03909116178255602090920191600190910190612105565b50612153929150612157565b5090565b5b808211156121535760008155600101612158565b60006020828403121561217e57600080fd5b5035919050565b80356001600160a01b038116811461219c57600080fd5b919050565b600080600080608085870312156121b757600080fd5b84359350602085013592506121ce60408601612185565b9396929550929360600135925050565b634e487b7160e01b600052604160045260246000fd5b600082601f83011261220557600080fd5b813567ffffffffffffffff80821115612220576122206121de565b604051601f8301601f19908116603f01168101908282118183101715612248576122486121de565b8160405283815286602085880101111561226157600080fd5b836020870160208301376000602085830101528094505050505092915050565b600080600080600080600080610100898b03121561229e57600080fd5b883567ffffffffffffffff808211156122b657600080fd5b6122c28c838d016121f4565b995060208b01359150808211156122d857600080fd5b6122e48c838d016121f4565b985060408b01359150808211156122fa57600080fd5b6123068c838d016121f4565b975060608b013591508082111561231c57600080fd5b6123288c838d016121f4565b965060808b013591508082111561233e57600080fd5b61234a8c838d016121f4565b955060a08b013591508082111561236057600080fd5b61236c8c838d016121f4565b945060c08b013591508082111561238257600080fd5b61238e8c838d016121f4565b935060e08b01359150808211156123a457600080fd5b506123b18b828c016121f4565b9150509295985092959890939650565b600080604083850312156123d457600080fd5b6123dd83612185565b946020939093013593505050565b6000602082840312156123fd57600080fd5b6120de82612185565b600080600080600080600080610100898b03121561242357600080fd5b8835975061243360208a01612185565b979a9799505050506040860135956060810135956080820135955060a0820135945060c0820135935060e0909101359150565b634e487b7160e01b600052603260045260246000fd5b60006020828403121561248e57600080fd5b815180151581146120de57600080fd5b634e487b7160e01b600052601160045260246000fd5b81810381811115611ecf57611ecf61249e565b6000600182016124d9576124d961249e565b5060010190565b6000815180845260005b81811015612506576020818501810151868301820152016124ea565b506000602082860101526020601f19601f83011685010191505092915050565b600061016080835261253a8184018f6124e0565b9050828103602084015261254e818e6124e0565b90508281036040840152612562818d6124e0565b90508281036060840152612576818c6124e0565b6001600160a01b038b16608085015290508860a084015261259b60c084018915159052565b82810360e08401526125ad81886124e0565b90508281036101008401526125c281876124e0565b90508281036101208401526125d781866124e0565b90508281036101408401526125ec81856124e0565b9e9d5050505050505050505050505050565b60008261261b57634e487b7160e01b600052601260045260246000fd5b500490565b600081600019048311821515161561263a5761263a61249e565b500290565b80820180821115611ecf57611ecf61249e56fea26469706673582212203064801d8c6bbaa5bd997f5ec7385c00e2bb57be58f57a7dd0f2bdc5c970e4f764736f6c63430008100033",
  "immutableReferences": {},
  "source": "// SPDX-License-Identifier: GPL-3.0\npragma solidity >=0.7.0 <0.9.0;\n\nimport {IStableCoin} from \"./stablecoins/IStableCoin.sol\";\nimport {DashToken} from \"./DashToken.sol\";\nimport {Models} from \"./Models.sol\";\n\ncontract Dash {\n    address private deployer;\n    uint private contractRevenue;\n    uint public platformFee = 2; // 2% fee\n\n    uint private userID;\n    uint private liquidityID;\n    uint private loanID;\n\n    uint defaultCreditScore = 65;\n\n    DashToken private dashToken;\n\n    mapping(address => Models.User) public users;\n    mapping(address => Models.Liquidity[]) public liquidities;\n    mapping(address => Models.Loan[]) public loans;\n\n    constructor(address dashToken_) {\n        deployer = msg.sender;\n        dashToken = DashToken(dashToken_);\n    }\n\n    function createUser(\n        string memory name,\n        string memory photo,\n        string memory email,\n        string memory username,\n        string memory year,\n        string memory month,\n        string memory phone,\n        string memory homeAddress\n    ) public {\n        require(users[msg.sender].id == 0, \"!already_created_an_account\");\n\n        userID++;\n        users[msg.sender] = Models.User(\n            userID,\n            defaultCreditScore,\n            false,\n            block.timestamp,\n            users[msg.sender].networks\n        );\n\n        emit UserCreated(\n            name,\n            photo,\n            email,\n            username,\n            msg.sender,\n            defaultCreditScore,\n            false,\n            year,\n            month,\n            phone,\n            homeAddress\n        );\n    }\n\n    function updateUser(\n        string memory name,\n        string memory photo,\n        string memory email,\n        string memory username,\n        string memory year,\n        string memory month,\n        string memory phone,\n        string memory homeAddress\n    ) public {\n        // verifies account exists\n        require(users[msg.sender].id != 0, \"no_account\");\n\n        // aware dependencies through event\n        emit UserCreated(\n            name,\n            photo,\n            email,\n            username,\n            msg.sender,\n            users[msg.sender].creditScore,\n            users[msg.sender].activeLoan,\n            year,\n            month,\n            phone,\n            homeAddress\n        );\n    }\n\n    function addNetwork(address user) public {\n        int userIndex = getUserNetworkIndex(msg.sender, user);\n        if (userIndex == -1) {\n            users[msg.sender].networks.push(user);\n            emit NetworkAdded(user, msg.sender, true);\n        }\n    }\n\n    function removeNetwork(address user) public {\n        int userIndex = getUserNetworkIndex(msg.sender, user);\n        if (userIndex != -1) {\n            delete users[msg.sender].networks[uint(userIndex)];\n            emit NetworkAdded(user, msg.sender, false);\n        }\n    }\n\n    function takeLoan(\n        uint id,\n        uint256 amount,\n        address provider,\n        uint duration\n    ) public {\n        require(amount > 0, \"!can_take_zero_token\");\n\n        int liquidityIndex = getUserLiquidityIndex(provider, id);\n        require(liquidityIndex != -1, \"!liquidity_exists\");\n\n        Models.Liquidity memory liquidity = liquidities[provider][\n            uint(liquidityIndex)\n        ];\n        int userNetworkIndex = getUserNetworkIndex(provider, msg.sender);\n\n        // verifies the user is on provider contact list\n        require(userNetworkIndex != -1, \"!unathorized\");\n\n        // verifies user is not a loan before\n        require(!users[msg.sender].activeLoan, \"already_on_a_loan\");\n\n        // validate inputs with liquidity properties\n        require(liquidity.amount >= amount, \"insuficcient_pool\");\n        require(liquidity.maxTakeOut >= amount, \"too_much\");\n        require(liquidity.minTakeOut <= amount, \"too_little\");\n        require(liquidity.maxDays >= duration, \"too_long\");\n        require(liquidity.minDays <= duration, \"too_short\");\n        require(\n            liquidity.minCreditScore <= users[msg.sender].creditScore,\n            \"too_low_credit_score\"\n        );\n\n        // decrease the liquidity pool size\n        liquidities[provider][uint(liquidityIndex)].amount -= amount;\n\n        // user is now on a loan\n        users[msg.sender].activeLoan = true;\n\n        // create a new loan id\n        loanID++;\n\n        // create a new loan\n        Models.Loan memory loan = Models.Loan(\n            loanID,\n            liquidity.id,\n            amount,\n            liquidity.tokenAddress,\n            liquidity.interestRate,\n            duration,\n            provider,\n            block.timestamp,\n            0 // unpaid\n        );\n\n        // register the new loan\n        loans[msg.sender].push(loan);\n\n        // give out the loan\n        // send tokens to user wallet\n        IStableCoin token = IStableCoin(loan.tokenAddress);\n        token.transfer(msg.sender, amount);\n\n        // aware dependencies through event\n        emit LoanCreated(\n            loan.id,\n            loan.liquidity,\n            loan.amount,\n            loan.duration,\n            loan.interestRate,\n            loan.createdAt,\n            loan.paidAt,\n            msg.sender,\n            loan.provider\n        );\n\n        // aware dependencies through event\n        emit UpdatedLiquidity(\n            liquidity.id,\n            liquidities[provider][uint(liquidityIndex)].amount\n        );\n    }\n\n    function payLoan(uint id) public {\n        int userLoanIndex = getUserLoanIndex(msg.sender, id);\n        require(userLoanIndex != -1, \"!loan_exists\");\n\n        Models.Loan memory loan = loans[msg.sender][uint(userLoanIndex)];\n        require(loan.paidAt == 0, \"loan_already_paid\");\n\n        // pay interest\n        uint secondsDiff = block.timestamp - loan.createdAt;\n        uint daysElapsed = daysCount(secondsDiff);\n\n        // calculate interest\n        uint256 interest = calculateSimpleInterest(\n            loan.interestRate,\n            daysElapsed\n        );\n\n        // pay interest charges to smart contract in DASH tokens\n        dashToken.approve(msg.sender, address(this), interest);\n        dashToken.transferFrom(msg.sender, address(this), interest);\n\n        // charge platform fee\n        uint fee = (interest * (platformFee / 100));\n\n        // pay interest profit to liquidity provider in DASH tokens\n        dashToken.transfer(loan.provider, (interest - fee));\n\n        // update platform profit\n        contractRevenue += fee;\n\n        // if liquidity still exists, add the funds back to the liquidty\n        int liquidityIndex = getUserLiquidityIndex(\n            loan.provider,\n            loan.liquidity\n        );\n\n        if (liquidityIndex != -1) {\n            // liquidity exists\n            // pay loan to back smart contract\n            IStableCoin token = IStableCoin(loan.tokenAddress);\n            token.approve(msg.sender, address(this), loan.amount);\n            token.transferFrom(msg.sender, address(this), loan.amount);\n\n            // increase liquidity pool back\n            liquidities[loan.provider][uint(liquidityIndex)].amount += loan\n                .amount;\n\n            // let dependecies knows pool has _changed_\n            emit UpdatedLiquidity(\n                loan.liquidity,\n                liquidities[loan.provider][uint(liquidityIndex)].amount\n            );\n        } else {\n            // else send the funds directly to the liquidity creator wallet\n            IStableCoin token = IStableCoin(loan.tokenAddress);\n            token.approve(msg.sender, loan.provider, loan.amount);\n            token.transferFrom(msg.sender, loan.provider, loan.amount);\n        }\n\n        // mark loan as paid\n        loan.paidAt = block.timestamp;\n\n        // user is not on a loan anymore\n        users[msg.sender].activeLoan = false;\n\n        // credit score mechanism\n        if (daysElapsed > loan.duration) {\n            if (users[msg.sender].creditScore >= 5) {\n                users[msg.sender].creditScore -= 5;\n            } else {\n                users[msg.sender].creditScore = 0;\n            }\n        } else {\n            if (users[msg.sender].creditScore <= 95) {\n                users[msg.sender].creditScore += 5;\n            } else {\n                users[msg.sender].creditScore = 100;\n            }\n        }\n\n        // aware dependencies through event\n        emit LoanCreated(\n            loan.id,\n            loan.liquidity,\n            loan.amount,\n            loan.duration,\n            loan.interestRate,\n            loan.createdAt,\n            loan.paidAt,\n            msg.sender,\n            loan.provider\n        );\n\n        // aware dependencies through event\n        emit CreditScoreChanged(msg.sender, users[msg.sender].creditScore);\n    }\n\n    function closeLiquidity(uint id) public {\n        int liquidityIndex = getUserLiquidityIndex(msg.sender, id);\n\n        // verifies the liquidty\n        require(liquidityIndex != -1, \"!you_do_own_these_liquidity\");\n\n        require(\n            liquidities[msg.sender][uint256(liquidityIndex)].amount > 0,\n            \"insufficient_funds\"\n        );\n\n        // send tokens to user wallet\n        IStableCoin token = IStableCoin(\n            liquidities[msg.sender][uint256(liquidityIndex)].tokenAddress\n        );\n        token.transfer(\n            msg.sender,\n            liquidities[msg.sender][uint256(liquidityIndex)].amount\n        );\n\n        // aware dependencies through event\n        emit ClosedLiquidity(id);\n\n        // remove liquidity\n        delete liquidities[msg.sender][uint256(liquidityIndex)];\n    }\n\n    function provideLiquidity(\n        uint256 amount,\n        address tokenAddress,\n        uint interestRate,\n        uint256 minTakeOut,\n        uint256 maxTakeOut,\n        uint minDays,\n        uint maxDays,\n        uint minCreditScore\n    ) public {\n        // validates params\n        require(minTakeOut < maxTakeOut, \"invalid_take_out_values\");\n        require(minDays < maxDays, \"invalid_days_values\");\n        require(minCreditScore <= 100, \"invalid_credit_score_value\");\n        require(amount > 0, \"invalid_amount_value\");\n\n        // create a new liquidity id\n        liquidityID++;\n\n        // creates and registers the liquidity\n        liquidities[msg.sender].push(\n            Models.Liquidity(\n                liquidityID,\n                amount,\n                tokenAddress,\n                interestRate,\n                minTakeOut,\n                maxTakeOut,\n                minDays,\n                maxDays,\n                minCreditScore,\n                block.timestamp\n            )\n        );\n\n        // stake tokens from user wallet to the contract\n        IStableCoin token = IStableCoin(tokenAddress);\n        token.approve(msg.sender, address(this), amount);\n        token.transferFrom(msg.sender, address(this), amount);\n\n        // aware dependencies through event\n        emit ProvidedLiquity(\n            liquidityID,\n            amount,\n            tokenAddress,\n            interestRate,\n            minTakeOut,\n            maxTakeOut,\n            minDays,\n            maxDays,\n            minCreditScore,\n            block.timestamp,\n            msg.sender\n        );\n    }\n\n    function getUserLoanIndex(address user, uint id)\n        private\n        view\n        returns (int)\n    {\n        Models.Loan[] memory loanList = loans[user];\n        int position = -1;\n\n        for (uint index = 0; index < loanList.length; index++) {\n            if (loanList[index].id == id) {\n                position = int(index);\n                break;\n            }\n        }\n\n        return position;\n    }\n\n    function getUserLiquidityIndex(address user, uint id)\n        private\n        view\n        returns (int)\n    {\n        Models.Liquidity[] memory liquidityList = liquidities[user];\n        int position = -1;\n\n        for (uint index = 0; index < liquidityList.length; index++) {\n            if (liquidityList[index].id == id) {\n                position = int(index);\n                break;\n            }\n        }\n\n        return position;\n    }\n\n    function getUserNetworkIndex(address user, address network)\n        private\n        view\n        returns (int)\n    {\n        address[] memory networks = users[user].networks;\n        int position = -1;\n\n        for (uint index = 0; index < networks.length; index++) {\n            if (networks[index] == network) {\n                position = int(index);\n                break;\n            }\n        }\n\n        return position;\n    }\n\n    function daysCount(uint _seconds) private pure returns (uint) {\n        return (_seconds / (60 * 60 * 24));\n    }\n\n    // ====== interest calculator ====== //\n\n    function calculateSimpleInterest(uint rate, uint duration)\n        private\n        pure\n        returns (uint256)\n    {\n        // amount = capital(1 + (rate * duration))\n        return (rate * duration);\n    }\n\n    // ======== events ========= //\n\n    event UserCreated(\n        string name,\n        string photo,\n        string email,\n        string username,\n        address userAddress,\n        uint creditScore,\n        bool activeLoan,\n        string year,\n        string month,\n        string phone,\n        string homeAddress\n    );\n    event CreditScoreChanged(address user, uint score);\n    event NetworkAdded(address user, address by, bool isAdded);\n    event LoanCreated(\n        uint loanID,\n        uint liquidityID,\n        uint256 amount,\n        uint duration,\n        uint interestRate,\n        uint createdAt,\n        uint paidAt,\n        address userAddress,\n        address provider\n    );\n    event ProvidedLiquity(\n        uint liquidityID,\n        uint256 amount,\n        address tokenAddress,\n        uint interestRate,\n        uint256 minTakeOut,\n        uint256 maxTakeOut,\n        uint minDays,\n        uint maxDays,\n        uint minCreditScore,\n        uint createdAt,\n        address userAddress\n    );\n    event ClosedLiquidity(uint id);\n    event UpdatedLiquidity(uint id, uint256 amount);\n}\n",
  "sourcePath": "C:\\Users\\Arogundade Ibrahim\\Documents\\web3\\dash\\contracts\\Dash.sol",
  "compiler": {
    "name": "solc",
    "version": "0.8.16+commit.07a7930e.Emscripten.clang"
  },
  "schemaVersion": "3.4.10",
  "updatedAt": "2022-11-07T09:20:56.427Z",
  "devdoc": {
    "kind": "dev",
    "methods": {},
    "version": 1
  },
  "userdoc": {
    "kind": "user",
    "methods": {},
    "version": 1
  }
}