{
  "contractName": "Dash",
  "abi": [
    {
      "inputs": [],
      "stateMutability": "nonpayable",
      "type": "constructor"
    },
    {
      "anonymous": false,
      "inputs": [
        {
          "indexed": false,
          "internalType": "address",
          "name": "user",
          "type": "address"
        },
        {
          "indexed": false,
          "internalType": "uint256",
          "name": "amount",
          "type": "uint256"
        },
        {
          "indexed": false,
          "internalType": "address",
          "name": "tokenAddress",
          "type": "address"
        }
      ],
      "name": "Deposit",
      "type": "event"
    },
    {
      "anonymous": false,
      "inputs": [
        {
          "indexed": false,
          "internalType": "address",
          "name": "from",
          "type": "address"
        },
        {
          "indexed": false,
          "internalType": "address",
          "name": "to",
          "type": "address"
        },
        {
          "indexed": false,
          "internalType": "address",
          "name": "tokenAddress",
          "type": "address"
        },
        {
          "indexed": false,
          "internalType": "string",
          "name": "message",
          "type": "string"
        },
        {
          "indexed": false,
          "internalType": "uint256",
          "name": "amount",
          "type": "uint256"
        },
        {
          "indexed": false,
          "internalType": "uint256",
          "name": "timestamp",
          "type": "uint256"
        }
      ],
      "name": "NewTransaction",
      "type": "event"
    },
    {
      "anonymous": false,
      "inputs": [
        {
          "indexed": false,
          "internalType": "address",
          "name": "user",
          "type": "address"
        },
        {
          "indexed": false,
          "internalType": "uint256",
          "name": "amount",
          "type": "uint256"
        },
        {
          "indexed": false,
          "internalType": "address",
          "name": "tokenAddress",
          "type": "address"
        }
      ],
      "name": "WithDraw",
      "type": "event"
    },
    {
      "inputs": [
        {
          "internalType": "address",
          "name": "",
          "type": "address"
        },
        {
          "internalType": "uint256",
          "name": "",
          "type": "uint256"
        }
      ],
      "name": "balances",
      "outputs": [
        {
          "internalType": "address",
          "name": "tokenAddress",
          "type": "address"
        },
        {
          "internalType": "uint256",
          "name": "amount",
          "type": "uint256"
        }
      ],
      "stateMutability": "view",
      "type": "function"
    },
    {
      "inputs": [],
      "name": "platformFee",
      "outputs": [
        {
          "internalType": "uint256",
          "name": "",
          "type": "uint256"
        }
      ],
      "stateMutability": "view",
      "type": "function"
    },
    {
      "inputs": [
        {
          "internalType": "uint256",
          "name": "",
          "type": "uint256"
        }
      ],
      "name": "transactions",
      "outputs": [
        {
          "internalType": "address",
          "name": "from",
          "type": "address"
        },
        {
          "internalType": "address",
          "name": "to",
          "type": "address"
        },
        {
          "internalType": "address",
          "name": "tokenAddress",
          "type": "address"
        },
        {
          "internalType": "string",
          "name": "message",
          "type": "string"
        },
        {
          "internalType": "uint256",
          "name": "amount",
          "type": "uint256"
        },
        {
          "internalType": "uint256",
          "name": "timestamp",
          "type": "uint256"
        }
      ],
      "stateMutability": "view",
      "type": "function"
    },
    {
      "inputs": [
        {
          "internalType": "address",
          "name": "",
          "type": "address"
        }
      ],
      "name": "users",
      "outputs": [
        {
          "internalType": "string",
          "name": "name",
          "type": "string"
        },
        {
          "internalType": "string",
          "name": "username",
          "type": "string"
        },
        {
          "internalType": "uint256",
          "name": "createdAt",
          "type": "uint256"
        }
      ],
      "stateMutability": "view",
      "type": "function"
    },
    {
      "inputs": [
        {
          "internalType": "address",
          "name": "to",
          "type": "address"
        },
        {
          "internalType": "address",
          "name": "tokenAddress",
          "type": "address"
        },
        {
          "internalType": "uint256",
          "name": "amount",
          "type": "uint256"
        },
        {
          "internalType": "string",
          "name": "message",
          "type": "string"
        }
      ],
      "name": "send",
      "outputs": [],
      "stateMutability": "nonpayable",
      "type": "function"
    },
    {
      "inputs": [
        {
          "internalType": "uint256",
          "name": "amount",
          "type": "uint256"
        },
        {
          "internalType": "address",
          "name": "tokenAddress",
          "type": "address"
        }
      ],
      "name": "withdraw",
      "outputs": [],
      "stateMutability": "nonpayable",
      "type": "function"
    },
    {
      "inputs": [
        {
          "internalType": "uint256",
          "name": "amount",
          "type": "uint256"
        },
        {
          "internalType": "address",
          "name": "tokenAddress",
          "type": "address"
        }
      ],
      "name": "deposit",
      "outputs": [],
      "stateMutability": "nonpayable",
      "type": "function"
    }
  ],
  "bytecode": "0x6080604052600160045534801561001557600080fd5b50336000806101000a81548173ffffffffffffffffffffffffffffffffffffffff021916908373ffffffffffffffffffffffffffffffffffffffff1602179055506119b6806100656000396000f3fe608060405234801561001057600080fd5b506004361061007c5760003560e01c80639a67edad1161005b5780639a67edad146100d75780639ace38c2146100f3578063a87430ba14610128578063cbf1304d1461015a5761007c565b8062f714ce1461008157806326232a2e1461009d5780636e553f65146100bb575b600080fd5b61009b60048036038101906100969190611128565b61018b565b005b6100a56103d6565b6040516100b29190611177565b60405180910390f35b6100d560048036038101906100d09190611128565b6103dc565b005b6100f160048036038101906100ec91906112d8565b610778565b005b61010d6004803603810190610108919061135b565b610c1e565b60405161011f96959493929190611416565b60405180910390f35b610142600480360381019061013d919061147e565b610d42565b604051610151939291906114ab565b60405180910390f35b610174600480360381019061016f91906114f0565b610e7c565b604051610182929190611530565b60405180910390f35b60006101973383610edd565b90507fffffffffffffffffffffffffffffffffffffffffffffffffffffffffffffffff81036101fb576040517f08c379a00000000000000000000000000000000000000000000000000000000081526004016101f2906115a5565b60405180910390fd5b6000600360003373ffffffffffffffffffffffffffffffffffffffff1673ffffffffffffffffffffffffffffffffffffffff168152602001908152602001600020828154811061024e5761024d6115c5565b5b90600052602060002090600202016040518060400160405290816000820160009054906101000a900473ffffffffffffffffffffffffffffffffffffffff1673ffffffffffffffffffffffffffffffffffffffff1673ffffffffffffffffffffffffffffffffffffffff16815260200160018201548152505090508381602001511015610310576040517f08c379a000000000000000000000000000000000000000000000000000000000815260040161030790611640565b60405180910390fd5b60008390508073ffffffffffffffffffffffffffffffffffffffff1663a9059cbb33876040518363ffffffff1660e01b8152600401610350929190611530565b6020604051808303816000875af115801561036f573d6000803e3d6000fd5b505050506040513d601f19601f820116820180604052508101906103939190611698565b507fd432fbc5f79eaeefd01acbebd76cf4b0d5f43d8372c2fd3e23761c06a60a75f13386866040516103c7939291906116c5565b60405180910390a15050505050565b60045481565b60006103e83383610edd565b90507fffffffffffffffffffffffffffffffffffffffffffffffffffffffffffffffff810361054a57600360003373ffffffffffffffffffffffffffffffffffffffff1673ffffffffffffffffffffffffffffffffffffffff16815260200190815260200160002060405180604001604052808473ffffffffffffffffffffffffffffffffffffffff1681526020016000815250908060018154018082558091505060019003906000526020600020906002020160009091909190915060008201518160000160006101000a81548173ffffffffffffffffffffffffffffffffffffffff021916908373ffffffffffffffffffffffffffffffffffffffff1602179055506020820151816001015550506001600360003373ffffffffffffffffffffffffffffffffffffffff1673ffffffffffffffffffffffffffffffffffffffff16815260200190815260200160002080549050610547919061172b565b90505b6000600360003373ffffffffffffffffffffffffffffffffffffffff1673ffffffffffffffffffffffffffffffffffffffff168152602001908152602001600020828154811061059d5761059c6115c5565b5b90600052602060002090600202016040518060400160405290816000820160009054906101000a900473ffffffffffffffffffffffffffffffffffffffff1673ffffffffffffffffffffffffffffffffffffffff1673ffffffffffffffffffffffffffffffffffffffff168152602001600182015481525050905060008390508073ffffffffffffffffffffffffffffffffffffffff1663095ea7b330876040518363ffffffff1660e01b8152600401610658929190611530565b6020604051808303816000875af1158015610677573d6000803e3d6000fd5b505050506040513d601f19601f8201168201806040525081019061069b9190611698565b508073ffffffffffffffffffffffffffffffffffffffff166323b872dd3330886040518463ffffffff1660e01b81526004016106d99392919061175f565b6020604051808303816000875af11580156106f8573d6000803e3d6000fd5b505050506040513d601f19601f8201168201806040525081019061071c9190611698565b50848260200181815161072f9190611796565b915081815250507fe31c7b8d08ee7db0afa68782e1028ef92305caeea8626633ad44d413e30f6b2f338686604051610769939291906116c5565b60405180910390a15050505050565b6000429050600083116107c0576040517f08c379a00000000000000000000000000000000000000000000000000000000081526004016107b790611816565b60405180910390fd5b60006107cc3386610edd565b905060006107da8787610edd565b90507fffffffffffffffffffffffffffffffffffffffffffffffffffffffffffffffff820361083e576040517f08c379a0000000000000000000000000000000000000000000000000000000008152600401610835906115a5565b60405180910390fd5b6000600360003373ffffffffffffffffffffffffffffffffffffffff1673ffffffffffffffffffffffffffffffffffffffff1681526020019081526020016000208381548110610891576108906115c5565b5b90600052602060002090600202016040518060400160405290816000820160009054906101000a900473ffffffffffffffffffffffffffffffffffffffff1673ffffffffffffffffffffffffffffffffffffffff1673ffffffffffffffffffffffffffffffffffffffff16815260200160018201548152505090508581602001511015610953576040517f08c379a000000000000000000000000000000000000000000000000000000000815260040161094a90611640565b60405180910390fd5b7fffffffffffffffffffffffffffffffffffffffffffffffffffffffffffffffff8203610ab357600360008973ffffffffffffffffffffffffffffffffffffffff1673ffffffffffffffffffffffffffffffffffffffff16815260200190815260200160002060405180604001604052808973ffffffffffffffffffffffffffffffffffffffff1681526020016000815250908060018154018082558091505060019003906000526020600020906002020160009091909190915060008201518160000160006101000a81548173ffffffffffffffffffffffffffffffffffffffff021916908373ffffffffffffffffffffffffffffffffffffffff1602179055506020820151816001015550506001600360008a73ffffffffffffffffffffffffffffffffffffffff1673ffffffffffffffffffffffffffffffffffffffff16815260200190815260200160002080549050610ab0919061172b565b91505b6000600360008a73ffffffffffffffffffffffffffffffffffffffff1673ffffffffffffffffffffffffffffffffffffffff1681526020019081526020016000208381548110610b0657610b056115c5565b5b90600052602060002090600202016040518060400160405290816000820160009054906101000a900473ffffffffffffffffffffffffffffffffffffffff1673ffffffffffffffffffffffffffffffffffffffff1673ffffffffffffffffffffffffffffffffffffffff16815260200160018201548152505090508682602001818151610b93919061172b565b9150818152505060006064600454610bab9190611865565b88610bb69190611896565b90508082602001818151610bca9190611796565b915081815250507f4b6d32b86d2607dd382a790063b9da528a38c304d66b6faa6d53f51750141b90338b8b8a8c8b604051610c0a96959493929190611416565b60405180910390a150505050505050505050565b60026020528060005260406000206000915090508060000160009054906101000a900473ffffffffffffffffffffffffffffffffffffffff16908060010160009054906101000a900473ffffffffffffffffffffffffffffffffffffffff16908060020160009054906101000a900473ffffffffffffffffffffffffffffffffffffffff1690806003018054610cb390611907565b80601f0160208091040260200160405190810160405280929190818152602001828054610cdf90611907565b8015610d2c5780601f10610d0157610100808354040283529160200191610d2c565b820191906000526020600020905b815481529060010190602001808311610d0f57829003601f168201915b5050505050908060040154908060050154905086565b6001602052806000526040600020600091509050806000018054610d6590611907565b80601f0160208091040260200160405190810160405280929190818152602001828054610d9190611907565b8015610dde5780601f10610db357610100808354040283529160200191610dde565b820191906000526020600020905b815481529060010190602001808311610dc157829003601f168201915b505050505090806001018054610df390611907565b80601f0160208091040260200160405190810160405280929190818152602001828054610e1f90611907565b8015610e6c5780601f10610e4157610100808354040283529160200191610e6c565b820191906000526020600020905b815481529060010190602001808311610e4f57829003601f168201915b5050505050908060020154905083565b60036020528160005260406000208181548110610e9857600080fd5b9060005260206000209060020201600091509150508060000160009054906101000a900473ffffffffffffffffffffffffffffffffffffffff16908060010154905082565b600080600360008573ffffffffffffffffffffffffffffffffffffffff1673ffffffffffffffffffffffffffffffffffffffff168152602001908152602001600020805480602002602001604051908101604052809291908181526020016000905b82821015610fd157838290600052602060002090600202016040518060400160405290816000820160009054906101000a900473ffffffffffffffffffffffffffffffffffffffff1673ffffffffffffffffffffffffffffffffffffffff1673ffffffffffffffffffffffffffffffffffffffff16815260200160018201548152505081526020019060010190610f3f565b50505050905060007fffffffffffffffffffffffffffffffffffffffffffffffffffffffffffffffff905060005b8251811015611074578473ffffffffffffffffffffffffffffffffffffffff16838281518110611032576110316115c5565b5b60200260200101516000015173ffffffffffffffffffffffffffffffffffffffff160361106157809150611074565b808061106c90611938565b915050610fff565b50809250505092915050565b6000604051905090565b600080fd5b600080fd5b6000819050919050565b6110a781611094565b81146110b257600080fd5b50565b6000813590506110c48161109e565b92915050565b600073ffffffffffffffffffffffffffffffffffffffff82169050919050565b60006110f5826110ca565b9050919050565b611105816110ea565b811461111057600080fd5b50565b600081359050611122816110fc565b92915050565b6000806040838503121561113f5761113e61108a565b5b600061114d858286016110b5565b925050602061115e85828601611113565b9150509250929050565b61117181611094565b82525050565b600060208201905061118c6000830184611168565b92915050565b600080fd5b600080fd5b6000601f19601f8301169050919050565b7f4e487b7100000000000000000000000000000000000000000000000000000000600052604160045260246000fd5b6111e58261119c565b810181811067ffffffffffffffff82111715611204576112036111ad565b5b80604052505050565b6000611217611080565b905061122382826111dc565b919050565b600067ffffffffffffffff821115611243576112426111ad565b5b61124c8261119c565b9050602081019050919050565b82818337600083830152505050565b600061127b61127684611228565b61120d565b90508281526020810184848401111561129757611296611197565b5b6112a2848285611259565b509392505050565b600082601f8301126112bf576112be611192565b5b81356112cf848260208601611268565b91505092915050565b600080600080608085870312156112f2576112f161108a565b5b600061130087828801611113565b945050602061131187828801611113565b9350506040611322878288016110b5565b925050606085013567ffffffffffffffff8111156113435761134261108f565b5b61134f878288016112aa565b91505092959194509250565b6000602082840312156113715761137061108a565b5b600061137f848285016110b5565b91505092915050565b611391816110ea565b82525050565b600081519050919050565b600082825260208201905092915050565b60005b838110156113d15780820151818401526020810190506113b6565b60008484015250505050565b60006113e882611397565b6113f281856113a2565b93506114028185602086016113b3565b61140b8161119c565b840191505092915050565b600060c08201905061142b6000830189611388565b6114386020830188611388565b6114456040830187611388565b818103606083015261145781866113dd565b90506114666080830185611168565b61147360a0830184611168565b979650505050505050565b6000602082840312156114945761149361108a565b5b60006114a284828501611113565b91505092915050565b600060608201905081810360008301526114c581866113dd565b905081810360208301526114d981856113dd565b90506114e86040830184611168565b949350505050565b600080604083850312156115075761150661108a565b5b600061151585828601611113565b9250506020611526858286016110b5565b9150509250929050565b60006040820190506115456000830185611388565b6115526020830184611168565b9392505050565b7f21796f755f646f5f6f776e5f74686573655f746f6b656e730000000000000000600082015250565b600061158f6018836113a2565b915061159a82611559565b602082019050919050565b600060208201905081810360008301526115be81611582565b9050919050565b7f4e487b7100000000000000000000000000000000000000000000000000000000600052603260045260246000fd5b7f696e7375666669656365696e745f66756e647300000000000000000000000000600082015250565b600061162a6013836113a2565b9150611635826115f4565b602082019050919050565b600060208201905081810360008301526116598161161d565b9050919050565b60008115159050919050565b61167581611660565b811461168057600080fd5b50565b6000815190506116928161166c565b92915050565b6000602082840312156116ae576116ad61108a565b5b60006116bc84828501611683565b91505092915050565b60006060820190506116da6000830186611388565b6116e76020830185611168565b6116f46040830184611388565b949350505050565b7f4e487b7100000000000000000000000000000000000000000000000000000000600052601160045260246000fd5b600061173682611094565b915061174183611094565b9250828203905081811115611759576117586116fc565b5b92915050565b60006060820190506117746000830186611388565b6117816020830185611388565b61178e6040830184611168565b949350505050565b60006117a182611094565b91506117ac83611094565b92508282019050808211156117c4576117c36116fc565b5b92915050565b7f2163616e5f73656e645f7a65726f5f746f6b656e000000000000000000000000600082015250565b60006118006014836113a2565b915061180b826117ca565b602082019050919050565b6000602082019050818103600083015261182f816117f3565b9050919050565b7f4e487b7100000000000000000000000000000000000000000000000000000000600052601260045260246000fd5b600061187082611094565b915061187b83611094565b92508261188b5761188a611836565b5b828204905092915050565b60006118a182611094565b91506118ac83611094565b92508282026118ba81611094565b915082820484148315176118d1576118d06116fc565b5b5092915050565b7f4e487b7100000000000000000000000000000000000000000000000000000000600052602260045260246000fd5b6000600282049050600182168061191f57607f821691505b602082108103611932576119316118d8565b5b50919050565b600061194382611094565b91507fffffffffffffffffffffffffffffffffffffffffffffffffffffffffffffffff8203611975576119746116fc565b5b60018201905091905056fea26469706673582212205ab64e0df8e93b306addfa7bd0fe52313e2a4410722875166b2129d61bf77ecc64736f6c63430008110033",
  "immutableReferences": {},
  "source": "// SPDX-License-Identifier: GPL-3.0\npragma solidity >=0.7.0 <0.9.0;\n\nimport {IERC20} from \"@openzeppelin/contracts/token/ERC20/iERC20.sol\";\n\ncontract Dash {\n    address private deployer;\n\n    mapping(address => User) public users;\n    mapping(uint => Transaction) public transactions;\n    mapping(address => Balance[]) public balances;\n\n    uint public platformFee = 1; // 1% fee\n\n    struct User {\n        string name;\n        string username;\n        uint createdAt;\n    }\n\n    struct Transaction {\n        address from;\n        address to;\n        address tokenAddress;\n        string message;\n        uint256 amount;\n        uint timestamp;\n    }\n\n    struct Balance {\n        address tokenAddress;\n        uint256 amount;\n    }\n\n    constructor() {\n        deployer = msg.sender;\n    }\n\n    function send(\n        address to,\n        address tokenAddress,\n        uint256 amount,\n        string memory message\n    ) public {\n        uint timestamp = block.timestamp;\n\n        require(amount > 0, \"!can_send_zero_token\");\n\n        int senderBalanceIndex = getUserBalanceIndex(msg.sender, tokenAddress);\n        int receiverBalanceIndex = getUserBalanceIndex(to, tokenAddress);\n\n        require(senderBalanceIndex != -1, \"!you_do_own_these_tokens\");\n\n        Balance memory senderBalance = balances[msg.sender][\n            uint256(senderBalanceIndex)\n        ];\n\n        require(senderBalance.amount >= amount, \"insuffieceint_funds\");\n\n        if (receiverBalanceIndex == -1) {\n            // create balance for receiver\n            balances[to].push(Balance(tokenAddress, 0));\n            // balance is at last index\n            receiverBalanceIndex = int(balances[to].length - 1);\n        }\n\n        Balance memory receiverBalance = balances[to][\n            uint256(receiverBalanceIndex)\n        ];\n\n        // charge sender\n        senderBalance.amount -= amount;\n\n        // deduct platform fee\n        uint paidAmount = amount * (platformFee / 100);\n\n        // credit receiver\n        receiverBalance.amount += paidAmount;\n\n        emit NewTransaction(\n            msg.sender,\n            to,\n            tokenAddress,\n            message,\n            amount,\n            timestamp\n        );\n    }\n\n    function withdraw(uint256 amount, address tokenAddress) public {\n        int userBalanceIndex = getUserBalanceIndex(msg.sender, tokenAddress);\n        require(userBalanceIndex != -1, \"!you_do_own_these_tokens\");\n\n        Balance memory userBalance = balances[msg.sender][\n            uint256(userBalanceIndex)\n        ];\n        require(userBalance.amount >= amount, \"insuffieceint_funds\");\n\n        IERC20 token = IERC20(tokenAddress);\n\n        // send tokens to user wallet\n        token.transfer(msg.sender, amount);\n\n        emit WithDraw(msg.sender, amount, tokenAddress);\n    }\n\n    function deposit(uint256 amount, address tokenAddress) public {\n        int userBalanceIndex = getUserBalanceIndex(msg.sender, tokenAddress);\n\n        if (userBalanceIndex == -1) {\n            // create balance for receiver\n            balances[msg.sender].push(Balance(tokenAddress, 0));\n            // balance is at last index\n            userBalanceIndex = int(balances[msg.sender].length - 1);\n        }\n\n        Balance memory userBalance = balances[msg.sender][\n            uint256(userBalanceIndex)\n        ];\n        IERC20 token = IERC20(tokenAddress);\n\n        // stake tokens from user wallet to the contract\n        token.approve(address(this), amount);\n        token.transferFrom(msg.sender, address(this), amount);\n\n        userBalance.amount += amount;\n\n        emit Deposit(msg.sender, amount, tokenAddress);\n    }\n\n    function getUserBalanceIndex(address user, address tokenAddress)\n        private\n        view\n        returns (int)\n    {\n        Balance[] memory balanceList = balances[user];\n        int position = -1;\n\n        for (uint index = 0; index < balanceList.length; index++) {\n            if (balanceList[index].tokenAddress == tokenAddress) {\n                position = int(index);\n                break;\n            }\n        }\n\n        return position;\n    }\n\n    event NewTransaction(\n        address from,\n        address to,\n        address tokenAddress,\n        string message,\n        uint256 amount,\n        uint timestamp\n    );\n    event WithDraw(address user, uint256 amount, address tokenAddress);\n    event Deposit(address user, uint256 amount, address tokenAddress);\n}\n",
  "sourcePath": "C:\\Users\\Arogundade Ibrahim\\Documents\\web3\\dash\\contracts\\Dash.sol",
  "compiler": {
    "name": "solc",
    "version": "0.8.17+commit.8df45f5f.Emscripten.clang"
  },
  "schemaVersion": "3.4.10",
  "updatedAt": "2022-11-03T17:14:50.240Z",
  "devdoc": {
    "kind": "dev",
    "methods": {},
    "version": 1
  },
  "userdoc": {
    "kind": "user",
    "methods": {},
    "version": 1
  }
}