{
    "contractName": "Dash",
    "abi": [
        {
            "inputs": [
                {
                    "internalType": "address",
                    "name": "dashToken_",
                    "type": "address"
                }
            ],
            "stateMutability": "nonpayable",
            "type": "constructor"
        },
        {
            "anonymous": false,
            "inputs": [
                {
                    "indexed": false,
                    "internalType": "uint256",
                    "name": "id",
                    "type": "uint256"
                }
            ],
            "name": "ClosedLiquidity",
            "type": "event"
        },
        {
            "anonymous": false,
            "inputs": [
                {
                    "indexed": false,
                    "internalType": "address",
                    "name": "user",
                    "type": "address"
                },
                {
                    "indexed": false,
                    "internalType": "address",
                    "name": "by",
                    "type": "address"
                },
                {
                    "indexed": false,
                    "internalType": "bool",
                    "name": "isAdded",
                    "type": "bool"
                }
            ],
            "name": "NetworkAdded",
            "type": "event"
        },
        {
            "anonymous": false,
            "inputs": [
                {
                    "indexed": false,
                    "internalType": "uint256",
                    "name": "id",
                    "type": "uint256"
                },
                {
                    "indexed": false,
                    "internalType": "uint256",
                    "name": "amount",
                    "type": "uint256"
                },
                {
                    "indexed": false,
                    "internalType": "address",
                    "name": "userAddress",
                    "type": "address"
                },
                {
                    "indexed": false,
                    "internalType": "address",
                    "name": "owner",
                    "type": "address"
                }
            ],
            "name": "PaidLoan",
            "type": "event"
        },
        {
            "anonymous": false,
            "inputs": [
                {
                    "indexed": false,
                    "internalType": "uint256",
                    "name": "liquidityID",
                    "type": "uint256"
                },
                {
                    "indexed": false,
                    "internalType": "uint256",
                    "name": "amount",
                    "type": "uint256"
                },
                {
                    "indexed": false,
                    "internalType": "address",
                    "name": "tokenAddress",
                    "type": "address"
                },
                {
                    "indexed": false,
                    "internalType": "uint256",
                    "name": "interestRate",
                    "type": "uint256"
                },
                {
                    "indexed": false,
                    "internalType": "uint256",
                    "name": "minTakeOut",
                    "type": "uint256"
                },
                {
                    "indexed": false,
                    "internalType": "uint256",
                    "name": "maxTakeOut",
                    "type": "uint256"
                },
                {
                    "indexed": false,
                    "internalType": "uint256",
                    "name": "minDays",
                    "type": "uint256"
                },
                {
                    "indexed": false,
                    "internalType": "uint256",
                    "name": "maxDays",
                    "type": "uint256"
                },
                {
                    "indexed": false,
                    "internalType": "uint256",
                    "name": "minCreditScore",
                    "type": "uint256"
                },
                {
                    "indexed": false,
                    "internalType": "uint256",
                    "name": "createdAt",
                    "type": "uint256"
                },
                {
                    "indexed": false,
                    "internalType": "address",
                    "name": "userAddress",
                    "type": "address"
                }
            ],
            "name": "ProvidedLiquity",
            "type": "event"
        },
        {
            "anonymous": false,
            "inputs": [
                {
                    "indexed": false,
                    "internalType": "uint256",
                    "name": "id",
                    "type": "uint256"
                },
                {
                    "indexed": false,
                    "internalType": "uint256",
                    "name": "amount",
                    "type": "uint256"
                },
                {
                    "indexed": false,
                    "internalType": "address",
                    "name": "userAddress",
                    "type": "address"
                },
                {
                    "indexed": false,
                    "internalType": "address",
                    "name": "owner",
                    "type": "address"
                }
            ],
            "name": "TookLoan",
            "type": "event"
        },
        {
            "anonymous": false,
            "inputs": [
                {
                    "indexed": false,
                    "internalType": "uint256",
                    "name": "id",
                    "type": "uint256"
                },
                {
                    "indexed": false,
                    "internalType": "uint256",
                    "name": "amount",
                    "type": "uint256"
                }
            ],
            "name": "UpdatedLiquidity",
            "type": "event"
        },
        {
            "anonymous": false,
            "inputs": [
                {
                    "indexed": false,
                    "internalType": "string",
                    "name": "name",
                    "type": "string"
                },
                {
                    "indexed": false,
                    "internalType": "string",
                    "name": "photo",
                    "type": "string"
                },
                {
                    "indexed": false,
                    "internalType": "string",
                    "name": "email",
                    "type": "string"
                },
                {
                    "indexed": false,
                    "internalType": "string",
                    "name": "username",
                    "type": "string"
                },
                {
                    "indexed": false,
                    "internalType": "address",
                    "name": "userAddress",
                    "type": "address"
                },
                {
                    "indexed": false,
                    "internalType": "uint256",
                    "name": "creditScore",
                    "type": "uint256"
                },
                {
                    "indexed": false,
                    "internalType": "bool",
                    "name": "activeLoan",
                    "type": "bool"
                },
                {
                    "indexed": false,
                    "internalType": "string",
                    "name": "year",
                    "type": "string"
                },
                {
                    "indexed": false,
                    "internalType": "string",
                    "name": "month",
                    "type": "string"
                },
                {
                    "indexed": false,
                    "internalType": "string",
                    "name": "phone",
                    "type": "string"
                },
                {
                    "indexed": false,
                    "internalType": "string",
                    "name": "homeAddress",
                    "type": "string"
                }
            ],
            "name": "UserCreated",
            "type": "event"
        },
        {
            "inputs": [
                {
                    "internalType": "address",
                    "name": "",
                    "type": "address"
                },
                {
                    "internalType": "uint256",
                    "name": "",
                    "type": "uint256"
                }
            ],
            "name": "liquidities",
            "outputs": [
                {
                    "internalType": "uint256",
                    "name": "id",
                    "type": "uint256"
                },
                {
                    "internalType": "uint256",
                    "name": "amount",
                    "type": "uint256"
                },
                {
                    "internalType": "address",
                    "name": "tokenAddress",
                    "type": "address"
                },
                {
                    "internalType": "uint256",
                    "name": "interestRate",
                    "type": "uint256"
                },
                {
                    "internalType": "uint256",
                    "name": "minTakeOut",
                    "type": "uint256"
                },
                {
                    "internalType": "uint256",
                    "name": "maxTakeOut",
                    "type": "uint256"
                },
                {
                    "internalType": "uint256",
                    "name": "minDays",
                    "type": "uint256"
                },
                {
                    "internalType": "uint256",
                    "name": "maxDays",
                    "type": "uint256"
                },
                {
                    "internalType": "uint256",
                    "name": "minCreditScore",
                    "type": "uint256"
                },
                {
                    "internalType": "uint256",
                    "name": "createdAt",
                    "type": "uint256"
                }
            ],
            "stateMutability": "view",
            "type": "function",
            "constant": true
        },
        {
            "inputs": [
                {
                    "internalType": "address",
                    "name": "",
                    "type": "address"
                },
                {
                    "internalType": "uint256",
                    "name": "",
                    "type": "uint256"
                }
            ],
            "name": "loans",
            "outputs": [
                {
                    "internalType": "uint256",
                    "name": "id",
                    "type": "uint256"
                },
                {
                    "internalType": "uint256",
                    "name": "liquidity",
                    "type": "uint256"
                },
                {
                    "internalType": "uint256",
                    "name": "amount",
                    "type": "uint256"
                },
                {
                    "internalType": "address",
                    "name": "tokenAddress",
                    "type": "address"
                },
                {
                    "internalType": "uint256",
                    "name": "interestRate",
                    "type": "uint256"
                },
                {
                    "internalType": "address",
                    "name": "from",
                    "type": "address"
                },
                {
                    "internalType": "uint256",
                    "name": "createdAt",
                    "type": "uint256"
                },
                {
                    "internalType": "uint256",
                    "name": "paidAt",
                    "type": "uint256"
                }
            ],
            "stateMutability": "view",
            "type": "function",
            "constant": true
        },
        {
            "inputs": [],
            "name": "platformFee",
            "outputs": [
                {
                    "internalType": "uint256",
                    "name": "",
                    "type": "uint256"
                }
            ],
            "stateMutability": "view",
            "type": "function",
            "constant": true
        },
        {
            "inputs": [
                {
                    "internalType": "address",
                    "name": "",
                    "type": "address"
                }
            ],
            "name": "users",
            "outputs": [
                {
                    "internalType": "uint256",
                    "name": "id",
                    "type": "uint256"
                },
                {
                    "internalType": "uint256",
                    "name": "creditScore",
                    "type": "uint256"
                },
                {
                    "internalType": "bool",
                    "name": "activeLoan",
                    "type": "bool"
                },
                {
                    "internalType": "uint256",
                    "name": "createdAt",
                    "type": "uint256"
                }
            ],
            "stateMutability": "view",
            "type": "function",
            "constant": true
        },
        {
            "inputs": [
                {
                    "internalType": "string",
                    "name": "name",
                    "type": "string"
                },
                {
                    "internalType": "string",
                    "name": "photo",
                    "type": "string"
                },
                {
                    "internalType": "string",
                    "name": "email",
                    "type": "string"
                },
                {
                    "internalType": "string",
                    "name": "username",
                    "type": "string"
                },
                {
                    "internalType": "string",
                    "name": "year",
                    "type": "string"
                },
                {
                    "internalType": "string",
                    "name": "month",
                    "type": "string"
                },
                {
                    "internalType": "string",
                    "name": "phone",
                    "type": "string"
                },
                {
                    "internalType": "string",
                    "name": "homeAddress",
                    "type": "string"
                }
            ],
            "name": "createUser",
            "outputs": [],
            "stateMutability": "nonpayable",
            "type": "function"
        },
        {
            "inputs": [
                {
                    "internalType": "address",
                    "name": "user",
                    "type": "address"
                }
            ],
            "name": "addNetwork",
            "outputs": [],
            "stateMutability": "nonpayable",
            "type": "function"
        },
        {
            "inputs": [
                {
                    "internalType": "address",
                    "name": "user",
                    "type": "address"
                }
            ],
            "name": "removeNetwork",
            "outputs": [],
            "stateMutability": "nonpayable",
            "type": "function"
        },
        {
            "inputs": [
                {
                    "internalType": "uint256",
                    "name": "id",
                    "type": "uint256"
                },
                {
                    "internalType": "uint256",
                    "name": "amount",
                    "type": "uint256"
                },
                {
                    "internalType": "address",
                    "name": "owner",
                    "type": "address"
                },
                {
                    "internalType": "uint256",
                    "name": "duration",
                    "type": "uint256"
                }
            ],
            "name": "takeLoan",
            "outputs": [],
            "stateMutability": "nonpayable",
            "type": "function"
        },
        {
            "inputs": [
                {
                    "internalType": "uint256",
                    "name": "id",
                    "type": "uint256"
                },
                {
                    "internalType": "address",
                    "name": "owner",
                    "type": "address"
                }
            ],
            "name": "payLoan",
            "outputs": [],
            "stateMutability": "nonpayable",
            "type": "function"
        },
        {
            "inputs": [
                {
                    "internalType": "uint256",
                    "name": "id",
                    "type": "uint256"
                }
            ],
            "name": "closeLiquidity",
            "outputs": [],
            "stateMutability": "nonpayable",
            "type": "function"
        },
        {
            "inputs": [
                {
                    "internalType": "uint256",
                    "name": "amount",
                    "type": "uint256"
                },
                {
                    "internalType": "address",
                    "name": "tokenAddress",
                    "type": "address"
                },
                {
                    "internalType": "uint256",
                    "name": "interestRate",
                    "type": "uint256"
                },
                {
                    "internalType": "uint256",
                    "name": "minTakeOut",
                    "type": "uint256"
                },
                {
                    "internalType": "uint256",
                    "name": "maxTakeOut",
                    "type": "uint256"
                },
                {
                    "internalType": "uint256",
                    "name": "minDays",
                    "type": "uint256"
                },
                {
                    "internalType": "uint256",
                    "name": "maxDays",
                    "type": "uint256"
                },
                {
                    "internalType": "uint256",
                    "name": "minCreditScore",
                    "type": "uint256"
                }
            ],
            "name": "provideLiquity",
            "outputs": [],
            "stateMutability": "nonpayable",
            "type": "function"
        }
    ],
    "bytecode": "0x60806040526001600255602860065534801561001a57600080fd5b506040516120283803806120288339810160408190526100399161006c565b60008054336001600160a01b031991821617909155600780549091166001600160a01b039290921691909117905561009c565b60006020828403121561007e57600080fd5b81516001600160a01b038116811461009557600080fd5b9392505050565b611f7d806100ab6000396000f3fe608060405234801561001057600080fd5b50600436106100c95760003560e01c8063a87430ba11610081578063d567e4a41161005b578063d567e4a41461025e578063d988cb6c14610271578063eb3b299b1461028457600080fd5b8063a87430ba1461017f578063af03c793146101e0578063d52559d0146101f357600080fd5b806333380359116100b257806333380359146100ff5780634a184a871461011257806398c61c371461012557600080fd5b806326232a2e146100ce578063329aa414146100ea575b600080fd5b6100d760025481565b6040519081526020015b60405180910390f35b6100fd6100f8366004611a35565b610297565b005b6100fd61010d366004611a6a565b61050b565b6100fd610120366004611b4a565b610aba565b610138610133366004611c8a565b610c14565b604080519889526020890197909752958701949094526001600160a01b03928316606087015260808601919091521660a084015260c083015260e0820152610100016100e1565b6101ba61018d366004611cb4565b60086020526000908152604090208054600182015460028301546003909301549192909160ff9091169084565b6040805194855260208501939093529015159183019190915260608201526080016100e1565b6100fd6101ee366004611ccf565b610c83565b610206610201366004611c8a565b611253565b604080519a8b5260208b01999099526001600160a01b03909716978901979097526060880194909452608087019290925260a086015260c085015260e0840152610100830191909152610120820152610140016100e1565b6100fd61026c366004611cb4565b6112cd565b6100fd61027f366004611cfb565b611375565b6100fd610292366004611cb4565b6115db565b60006102a33383611687565b905080196102f85760405162461bcd60e51b815260206004820152601860248201527f21796f755f646f5f6f776e5f74686573655f746f6b656e73000000000000000060448201526064015b60405180910390fd5b33600090815260096020526040812080548390811061031957610319611d5b565b60009182526020918290206040805161014081018252600a90930290910180548352600181015493830184905260028101546001600160a01b0316918301919091526003810154606083015260048101546080830152600581015460a0830152600681015460c0830152600781015460e083015260088101546101008301526009015461012082015291506103f05760405162461bcd60e51b815260206004820152601360248201527f696e7375666669656365696e745f66756e64730000000000000000000000000060448201526064016102ef565b6040818101516020830151915163a9059cbb60e01b81523360048201526024810192909252906001600160a01b0382169063a9059cbb906044016020604051808303816000875af1158015610449573d6000803e3d6000fd5b505050506040513d601f19601f8201168201806040525081019061046d9190611d71565b506104cd604051806101400160405280600081526020016000815260200160006001600160a01b03168152602001600081526020016000815260200160008152602001600081526020016000815260200160008152602001600081525090565b80516040519081529092507f20c48a95a2e7a5844e4f456e8d83a72af0caceb90b567ae55d0b13c7942fa7989060200160405180910390a150505050565b6000831161055b5760405162461bcd60e51b815260206004820152601460248201527f2163616e5f74616b655f7a65726f5f746f6b656e00000000000000000000000060448201526064016102ef565b60006105678386611687565b905080196105b75760405162461bcd60e51b815260206004820152601160248201527f216c69717569646974795f65786973747300000000000000000000000000000060448201526064016102ef565b6001600160a01b03831660009081526009602052604081208054839081106105e1576105e1611d5b565b600091825260208083206040805161014081018252600a9094029091018054845260018101549284019290925260028201546001600160a01b0316908301526003810154606083015260048101546080830152600581015460a0830152600681015460c0830152600781015460e0830152600881015461010083015260090154610120820152915061067385336117b8565b905080196106c35760405162461bcd60e51b815260206004820152600c60248201527f21756e6174686f72697a6564000000000000000000000000000000000000000060448201526064016102ef565b3360009081526008602052604090206002015460ff16156107265760405162461bcd60e51b815260206004820152601260248201527f21616c72656164795f6f6e5f615f6c6f616e000000000000000000000000000060448201526064016102ef565b858260200151101561077a5760405162461bcd60e51b815260206004820152601160248201527f696e73756669636369656e745f706f6f6c00000000000000000000000000000060448201526064016102ef565b858260a0015110156107ce5760405162461bcd60e51b815260206004820152600860248201527f746f6f5f6d75636800000000000000000000000000000000000000000000000060448201526064016102ef565b85826080015111156108225760405162461bcd60e51b815260206004820152600a60248201527f746f6f5f6c6974746c650000000000000000000000000000000000000000000060448201526064016102ef565b838260e0015110156108765760405162461bcd60e51b815260206004820152600860248201527f746f6f5f6c6f6e6700000000000000000000000000000000000000000000000060448201526064016102ef565b838260c0015111156108ca5760405162461bcd60e51b815260206004820152600960248201527f746f6f5f73686f7274000000000000000000000000000000000000000000000060448201526064016102ef565b85826020018181516108dc9190611da9565b905250336000908152600860205260408120600201805460ff19166001179055600580549161090a83611dbc565b9190505550600a6000336001600160a01b03166001600160a01b0316815260200190815260200160002060405180610100016040528060055481526020018460000151815260200188815260200184604001516001600160a01b0316815260200184606001518152602001876001600160a01b031681526020014281526020016000815250908060018154018082558091505060019003906000526020600020906008020160009091909190915060008201518160000155602082015181600101556040820151816002015560608201518160030160006101000a8154816001600160a01b0302191690836001600160a01b031602179055506080820151816004015560a08201518160050160006101000a8154816001600160a01b0302191690836001600160a01b0316021790555060c0820151816006015560e0820151816007015550507fa0ebc41a23816f010249130cc1339f5639811d23db706ce8da5a0ef2f0d68af9600554873388604051610aa9949392919093845260208401929092526001600160a01b03908116604084015216606082015260800190565b60405180910390a150505050505050565b60038054906000610aca83611dbc565b90915550506040805160a08101825260035481526006546020808301919091526000828401819052426060840152338152600882528390206004018054845181840281018401909552808552929360808501939092830182828015610b5857602002820191906000526020600020905b81546001600160a01b03168152600190910190602001808311610b3a575b50505091909252505033600090815260086020908152604091829020835181558382015160018201559183015160028301805460ff19169115159190911790556060830151600383015560808301518051610bb992600485019201906119ae565b50506006546040517f676f4149b3c169700ae4fc11a98f7fa314e26c66113436c7d5f7688e340cd0549250610c02918b918b918b918b9133916000908d908d908d908d90611e1b565b60405180910390a15050505050505050565b600a6020528160005260406000208181548110610c3057600080fd5b60009182526020909120600890910201805460018201546002830154600384015460048501546005860154600687015460079097015495985093965091946001600160a01b039182169492939091169188565b6000610c8f3384611888565b90508019610cdf5760405162461bcd60e51b815260206004820152600c60248201527f216c6f616e5f657869737473000000000000000000000000000000000000000060448201526064016102ef565b336000908152600a60205260408120805483908110610d0057610d00611d5b565b6000918252602091829020604080516101008101825260089093029091018054835260018101549383019390935260028301549082015260038201546001600160a01b039081166060830152600483015460808301526005830154811660a08301819052600684015460c084015260079093015460e0830152909250841614610dcb5760405162461bcd60e51b815260206004820152600c60248201527f21756e6174686f72697a6564000000000000000000000000000000000000000060448201526064016102ef565b6000620151808260c0015142610de19190611da9565b610deb9190611ef3565b90506000610dfd83608001518361199b565b6007546040517fe1f21c67000000000000000000000000000000000000000000000000000000008152336004820152306024820152604481018390529192506001600160a01b03169063e1f21c6790606401600060405180830381600087803b158015610e6957600080fd5b505af1158015610e7d573d6000803e3d6000fd5b50506007546040516323b872dd60e01b8152336004820152306024820152604481018590526001600160a01b0390911692506323b872dd91506064016020604051808303816000875af1158015610ed8573d6000803e3d6000fd5b505050506040513d601f19601f82011682018060405250810190610efc9190611d71565b5060006064600254610f0e9190611ef3565b610f189083611f15565b60075460405163a9059cbb60e01b8152336004820152602481018390529192506001600160a01b03169063a9059cbb906044016020604051808303816000875af1158015610f6a573d6000803e3d6000fd5b505050506040513d601f19601f82011682018060405250810190610f8e9190611d71565b50610f998183611da9565b60016000828254610faa9190611f34565b925050819055506000610fc1878660200151611687565b9050806000191461115a576001600160a01b0387166000908152600960205260408120805483908110610ff657610ff6611d5b565b60009182526020918290206040805161014081018252600a90930290910180548352600181015493830184815260028201546001600160a01b0316928401929092526003810154606084015260048101546080840152600581015460a0840152600681015460c0840152600781015460e0840152600881015461010084015260090154610120830152909250849161108f908390611f34565b905250606086015160408088015190516323b872dd60e01b815233600482015230602482015260448101919091526001600160a01b038216906323b872dd906064016020604051808303816000875af11580156110f0573d6000803e3d6000fd5b505050506040513d601f19601f820116820180604052508101906111149190611d71565b50815160208084015160408051938452918301527fa78d1e81434a3d3c4b90a82e0df68035fc59d26e2185a51f8a66143c94c4814a910160405180910390a150506111e2565b606085015160408087015190516323b872dd60e01b81523360048201526001600160a01b038a811660248301526044820192909252908216906323b872dd906064016020604051808303816000875af11580156111bb573d6000803e3d6000fd5b505050506040513d601f19601f820116820180604052508101906111df9190611d71565b50505b4260e086015233600081815260086020908152604091829020600201805460ff191690558188015182518c815291820152908101919091526001600160a01b03881660608201527fc587e9e3e3efb794f68123bb71353a50af3e53fec0cdd4a4424d65aee62a1cd690608001610c02565b6009602052816000526040600020818154811061126f57600080fd5b60009182526020909120600a90910201805460018201546002830154600384015460048501546005860154600687015460078801546008890154600990990154979a509598506001600160a01b03909416969295919490939290918a565b60006112d933836117b8565b905080196113715733600081815260086020908152604080832060040180546001808201835591855293839020909301805473ffffffffffffffffffffffffffffffffffffffff19166001600160a01b038816908117909155815190815291820193909352918201527fef159a3fe67039f76f5f69589747e2f0132e5e79bc6a1ee9b3f47bfad176d005906060015b60405180910390a15b5050565b6004805490600061138583611dbc565b919050555060096000336001600160a01b03166001600160a01b0316815260200190815260200160002060405180610140016040528060045481526020018a8152602001896001600160a01b031681526020018881526020018781526020018681526020018581526020018481526020018381526020014281525090806001815401808255809150506001900390600052602060002090600a0201600090919091909150600082015181600001556020820151816001015560408201518160020160006101000a8154816001600160a01b0302191690836001600160a01b03160217905550606082015181600301556080820151816004015560a0820151816005015560c0820151816006015560e082015181600701556101008201518160080155610120820151816009015550506000879050806001600160a01b03166323b872dd33308c6040518463ffffffff1660e01b8152600401611508939291906001600160a01b039384168152919092166020820152604081019190915260600190565b6020604051808303816000875af1158015611527573d6000803e3d6000fd5b505050506040513d601f19601f8201168201806040525081019061154b9190611d71565b5060045460408051918252602082018b90526001600160a01b038a1682820152606082018990526080820188905260a0820187905260c0820186905260e0820185905261010082018490524261012083015233610140830152517f9c73435d730d29a508b2720903ba238df287009379a89db682694cc036aed5b7918190036101600190a1505050505050505050565b60006115e733836117b8565b905080600019146113715733600090815260086020526040902060040180548290811061161657611616611d5b565b6000918252602080832091909101805473ffffffffffffffffffffffffffffffffffffffff19169055604080516001600160a01b038616815233928101929092528101919091527fef159a3fe67039f76f5f69589747e2f0132e5e79bc6a1ee9b3f47bfad176d00590606001611368565b6001600160a01b038216600090815260096020908152604080832080548251818502810185019093528083528493849084015b828210156117565760008481526020908190206040805161014081018252600a8602909201805483526001808201548486015260028201546001600160a01b0316928401929092526003810154606084015260048101546080840152600581015460a0840152600681015460c0840152600781015460e084015260088101546101008401526009015461012083015290835290920191016116ba565b5050505090506000600019905060005b82518110156117ad578483828151811061178257611782611d5b565b6020026020010151600001510361179b578091506117ad565b806117a581611dbc565b915050611766565b509150505b92915050565b6001600160a01b03821660009081526008602090815260408083206004018054825181850281018501909352808352849383018282801561182257602002820191906000526020600020905b81546001600160a01b03168152600190910190602001808311611804575b505050505090506000600019905060005b82518110156117ad57846001600160a01b031683828151811061185857611858611d5b565b60200260200101516001600160a01b031603611876578091506117ad565b8061188081611dbc565b915050611833565b6001600160a01b0382166000908152600a6020908152604080832080548251818502810185019093528083528493849084015b82821015611944576000848152602090819020604080516101008101825260088602909201805483526001808201548486015260028201549284019290925260038101546001600160a01b0390811660608501526004820154608085015260058201541660a0840152600681015460c08401526007015460e083015290835290920191016118bb565b5050505090506000600019905060005b82518110156117ad578483828151811061197057611970611d5b565b60200260200101516000015103611989578091506117ad565b8061199381611dbc565b915050611954565b60006119a78284611f15565b9392505050565b828054828255906000526020600020908101928215611a10579160200282015b82811115611a10578251825473ffffffffffffffffffffffffffffffffffffffff19166001600160a01b039091161782556020909201916001909101906119ce565b50611a1c929150611a20565b5090565b5b80821115611a1c5760008155600101611a21565b600060208284031215611a4757600080fd5b5035919050565b80356001600160a01b0381168114611a6557600080fd5b919050565b60008060008060808587031215611a8057600080fd5b8435935060208501359250611a9760408601611a4e565b9396929550929360600135925050565b634e487b7160e01b600052604160045260246000fd5b600082601f830112611ace57600080fd5b813567ffffffffffffffff80821115611ae957611ae9611aa7565b604051601f8301601f19908116603f01168101908282118183101715611b1157611b11611aa7565b81604052838152866020858801011115611b2a57600080fd5b836020870160208301376000602085830101528094505050505092915050565b600080600080600080600080610100898b031215611b6757600080fd5b883567ffffffffffffffff80821115611b7f57600080fd5b611b8b8c838d01611abd565b995060208b0135915080821115611ba157600080fd5b611bad8c838d01611abd565b985060408b0135915080821115611bc357600080fd5b611bcf8c838d01611abd565b975060608b0135915080821115611be557600080fd5b611bf18c838d01611abd565b965060808b0135915080821115611c0757600080fd5b611c138c838d01611abd565b955060a08b0135915080821115611c2957600080fd5b611c358c838d01611abd565b945060c08b0135915080821115611c4b57600080fd5b611c578c838d01611abd565b935060e08b0135915080821115611c6d57600080fd5b50611c7a8b828c01611abd565b9150509295985092959890939650565b60008060408385031215611c9d57600080fd5b611ca683611a4e565b946020939093013593505050565b600060208284031215611cc657600080fd5b6119a782611a4e565b60008060408385031215611ce257600080fd5b82359150611cf260208401611a4e565b90509250929050565b600080600080600080600080610100898b031215611d1857600080fd5b88359750611d2860208a01611a4e565b979a9799505050506040860135956060810135956080820135955060a0820135945060c0820135935060e0909101359150565b634e487b7160e01b600052603260045260246000fd5b600060208284031215611d8357600080fd5b815180151581146119a757600080fd5b634e487b7160e01b600052601160045260246000fd5b818103818111156117b2576117b2611d93565b600060018201611dce57611dce611d93565b5060010190565b6000815180845260005b81811015611dfb57602081850181015186830182015201611ddf565b506000602082860101526020601f19601f83011685010191505092915050565b6000610160808352611e2f8184018f611dd5565b90508281036020840152611e43818e611dd5565b90508281036040840152611e57818d611dd5565b90508281036060840152611e6b818c611dd5565b6001600160a01b038b16608085015290508860a0840152611e9060c084018915159052565b82810360e0840152611ea28188611dd5565b9050828103610100840152611eb78187611dd5565b9050828103610120840152611ecc8186611dd5565b9050828103610140840152611ee18185611dd5565b9e9d5050505050505050505050505050565b600082611f1057634e487b7160e01b600052601260045260246000fd5b500490565b6000816000190483118215151615611f2f57611f2f611d93565b500290565b808201808211156117b2576117b2611d9356fea2646970667358221220f553b2f9cb7c231f44fc11449c3f1077e7bda26236ce3d88114934d299b2266c64736f6c63430008100033",
    "immutableReferences": {},
    "source": "// SPDX-License-Identifier: GPL-3.0\npragma solidity >=0.7.0 <0.9.0;\n\nimport {IERC20} from \"@openzeppelin/contracts/token/ERC20/iERC20.sol\";\nimport {DashToken} from \"./DashToken.sol\";\n\ncontract Dash {\n    address private deployer;\n    uint private contractRevenue;\n    uint public platformFee = 1; // 1% fee\n\n    uint private userID;\n    uint private liquidityID;\n    uint private loanID;\n\n    uint defaultCreditScore = 40;\n\n    DashToken private dashToken;\n\n    mapping(address => User) public users;\n    mapping(address => Liquidity[]) public liquidities;\n    mapping(address => Loan[]) public loans;\n\n    constructor(address dashToken_) {\n        deployer = msg.sender;\n        dashToken = DashToken(dashToken_);\n    }\n\n    struct Liquidity {\n        uint id;\n        uint256 amount;\n        address tokenAddress;\n        uint interestRate;\n        uint256 minTakeOut;\n        uint256 maxTakeOut;\n        uint minDays;\n        uint maxDays;\n        uint minCreditScore;\n        uint createdAt;\n    }\n\n    struct Loan {\n        uint id;\n        uint liquidity;\n        uint256 amount;\n        address tokenAddress;\n        uint interestRate;\n        address from;\n        uint createdAt;\n        uint paidAt;\n    }\n\n    struct User {\n        uint id;\n        uint creditScore;\n        bool activeLoan;\n        uint createdAt;\n        address[] networks;\n    }\n\n    function createUser(\n        string memory name,\n        string memory photo,\n        string memory email,\n        string memory username,\n        string memory year,\n        string memory month,\n        string memory phone,\n        string memory homeAddress\n    ) public {\n        // require(users[msg.sender].id == 0, \"!already_created_an_account\");\n\n        userID++;\n        users[msg.sender] = User(\n            userID,\n            defaultCreditScore,\n            false,\n            block.timestamp,\n            users[msg.sender].networks\n        );\n\n        emit UserCreated(\n            name,\n            photo,\n            email,\n            username,\n            msg.sender,\n            defaultCreditScore,\n            false,\n            year,\n            month,\n            phone,\n            homeAddress\n        );\n    }\n\n    function addNetwork(address user) public {\n        int userIndex = getUserNetworkIndex(msg.sender, user);\n        if (userIndex == -1) {\n            users[msg.sender].networks.push(user);\n            emit NetworkAdded(user, msg.sender, true);\n        }\n    }\n\n    function removeNetwork(address user) public {\n        int userIndex = getUserNetworkIndex(msg.sender, user);\n        if (userIndex != -1) {\n            delete users[msg.sender].networks[uint(userIndex)];\n            emit NetworkAdded(user, msg.sender, false);\n        }\n    }\n\n    function takeLoan(\n        uint id,\n        uint256 amount,\n        address owner,\n        uint duration\n    ) public {\n        require(amount > 0, \"!can_take_zero_token\");\n        int ownerLiquidityIndex = getUserLiquidityIndex(owner, id);\n        require(ownerLiquidityIndex != -1, \"!liquidity_exists\");\n\n        Liquidity memory liquidity = liquidities[owner][\n            uint(ownerLiquidityIndex)\n        ];\n\n        int userNetworkIndex = getUserNetworkIndex(owner, msg.sender);\n        require(userNetworkIndex != -1, \"!unathorized\");\n\n        require(!users[msg.sender].activeLoan, \"!already_on_a_loan\");\n\n        require(liquidity.amount >= amount, \"insuficcient_pool\");\n        require(liquidity.maxTakeOut >= amount, \"too_much\");\n        require(liquidity.minTakeOut <= amount, \"too_little\");\n        require(liquidity.maxDays >= duration, \"too_long\");\n        require(liquidity.minDays <= duration, \"too_short\");\n\n        liquidity.amount -= amount;\n\n        // user is now on a loan\n        users[msg.sender].activeLoan = true;\n\n        loanID++;\n        loans[msg.sender].push(\n            Loan(\n                loanID,\n                liquidity.id,\n                amount,\n                liquidity.tokenAddress,\n                liquidity.interestRate,\n                owner,\n                block.timestamp,\n                0\n            )\n        );\n\n        emit TookLoan(loanID, amount, msg.sender, owner);\n    }\n\n    function payLoan(uint id, address owner) public {\n        int userLoanIndex = getUserLoanIndex(msg.sender, id);\n        require(userLoanIndex != -1, \"!loan_exists\");\n\n        Loan memory loan = loans[msg.sender][uint(userLoanIndex)];\n        require(loan.from == owner, \"!unathorized\");\n\n        // pay interest\n        uint durationInDays = ((block.timestamp - loan.createdAt) / 1 days);\n        uint256 interest = calculateSimpleInterest(\n            loan.interestRate,\n            durationInDays\n        );\n\n        // pay to smart contract\n        dashToken.approve(msg.sender, address(this), interest);\n        dashToken.transferFrom(msg.sender, address(this), interest);\n\n        // pay interest to liquidity provider\n        // charge platform fee\n        uint amount = (interest * (platformFee / 100));\n        dashToken.transfer(msg.sender, amount);\n\n        // update profit\n        contractRevenue += (interest - amount);\n\n        // if liquidity still exist, add the funds back to the liquidty\n        int liquidityIndex = getUserLiquidityIndex(owner, loan.liquidity);\n\n        if (liquidityIndex != -1) {\n            // liquidity exists\n            Liquidity memory liquidity = liquidities[owner][\n                uint(liquidityIndex)\n            ];\n\n            // increase liquidity pool back\n            liquidity.amount += amount;\n\n            // pay loan to smart contract\n            IERC20 token = IERC20(loan.tokenAddress);\n\n            // token.approve(msg.sender, address(this), loan.amount);\n            token.transferFrom(msg.sender, address(this), loan.amount);\n\n            // let dependecies knows pool has _changed_\n            emit UpdatedLiquidity(liquidity.id, liquidity.amount);\n        } else {\n            // else send the funds to the liquidity creator wallet\n            IERC20 token = IERC20(loan.tokenAddress);\n\n            // token.approve(msg.sender, owner, loan.amount);\n            token.transferFrom(msg.sender, owner, loan.amount);\n        }\n\n        // mark loan as paid\n        loan.paidAt = block.timestamp;\n\n        // user is not on a loan\n        users[msg.sender].activeLoan = false;\n\n        emit PaidLoan(id, loan.amount, msg.sender, owner);\n    }\n\n    function closeLiquidity(uint id) public {\n        int userLiquidityIndex = getUserLiquidityIndex(msg.sender, id);\n        require(userLiquidityIndex != -1, \"!you_do_own_these_tokens\");\n\n        Liquidity memory liquidity = liquidities[msg.sender][\n            uint256(userLiquidityIndex)\n        ];\n\n        require(liquidity.amount > 0, \"insuffieceint_funds\");\n\n        // send tokens to user wallet\n        IERC20 token = IERC20(liquidity.tokenAddress);\n        token.transfer(msg.sender, liquidity.amount);\n\n        delete liquidity;\n\n        emit ClosedLiquidity(liquidity.id);\n    }\n\n    function provideLiquity(\n        uint256 amount,\n        address tokenAddress,\n        uint interestRate,\n        uint256 minTakeOut,\n        uint256 maxTakeOut,\n        uint minDays,\n        uint maxDays,\n        uint minCreditScore\n    ) public {\n        liquidityID++;\n        liquidities[msg.sender].push(\n            Liquidity(\n                liquidityID,\n                amount,\n                tokenAddress,\n                interestRate,\n                minTakeOut,\n                maxTakeOut,\n                minDays,\n                maxDays,\n                minCreditScore,\n                block.timestamp\n            )\n        );\n\n        // stake tokens from user wallet to the contract\n        IERC20 token = IERC20(tokenAddress);\n        // token.approve(msg.sender, owner, loan.amount);\n        token.transferFrom(msg.sender, address(this), amount);\n\n        emit ProvidedLiquity(\n            liquidityID,\n            amount,\n            tokenAddress,\n            interestRate,\n            minTakeOut,\n            maxTakeOut,\n            minDays,\n            maxDays,\n            minCreditScore,\n            block.timestamp,\n            msg.sender\n        );\n    }\n\n    function getUserLoanIndex(address user, uint id)\n        private\n        view\n        returns (int)\n    {\n        Loan[] memory loanList = loans[user];\n        int position = -1;\n\n        for (uint index = 0; index < loanList.length; index++) {\n            if (loanList[index].id == id) {\n                position = int(index);\n                break;\n            }\n        }\n\n        return position;\n    }\n\n    function getUserLiquidityIndex(address user, uint id)\n        private\n        view\n        returns (int)\n    {\n        Liquidity[] memory liquidityList = liquidities[user];\n        int position = -1;\n\n        for (uint index = 0; index < liquidityList.length; index++) {\n            if (liquidityList[index].id == id) {\n                position = int(index);\n                break;\n            }\n        }\n\n        return position;\n    }\n\n    function getUserNetworkIndex(address user, address network)\n        private\n        view\n        returns (int)\n    {\n        address[] memory networks = users[user].networks;\n        int position = -1;\n\n        for (uint index = 0; index < networks.length; index++) {\n            if (networks[index] == network) {\n                position = int(index);\n                break;\n            }\n        }\n\n        return position;\n    }\n\n    function calculateSimpleInterest(uint rate, uint duration)\n        private\n        pure\n        returns (uint256)\n    {\n        // amount = capital(1 + (rate * duration))\n        return (rate * duration);\n    }\n\n    event UserCreated(\n        string name,\n        string photo,\n        string email,\n        string username,\n        address userAddress,\n        uint creditScore,\n        bool activeLoan,\n        string year,\n        string month,\n        string phone,\n        string homeAddress\n    );\n    event NetworkAdded(address user, address by, bool isAdded);\n    event TookLoan(uint id, uint256 amount, address userAddress, address owner);\n    event PaidLoan(uint id, uint256 amount, address userAddress, address owner);\n    event ClosedLiquidity(uint id);\n    event UpdatedLiquidity(uint id, uint256 amount);\n    event ProvidedLiquity(\n        uint liquidityID,\n        uint256 amount,\n        address tokenAddress,\n        uint interestRate,\n        uint256 minTakeOut,\n        uint256 maxTakeOut,\n        uint minDays,\n        uint maxDays,\n        uint minCreditScore,\n        uint createdAt,\n        address userAddress\n    );\n}\n",
    "sourcePath": "C:\\Users\\Arogundade Ibrahim\\Documents\\web3\\dash\\contracts\\Dash.sol",
    "compiler": {
        "name": "solc",
        "version": "0.8.16+commit.07a7930e.Emscripten.clang"
    },
    "schemaVersion": "3.4.10",
    "updatedAt": "2022-11-05T10:59:20.678Z",
    "networkType": "ethereum",
    "devdoc": {
        "kind": "dev",
        "methods": {},
        "version": 1
    },
    "userdoc": {
        "kind": "user",
        "methods": {},
        "version": 1
    }
}