{
  "contractName": "Dash",
  "abi": [
    {
      "inputs": [
        {
          "internalType": "address",
          "name": "dashToken_",
          "type": "address"
        }
      ],
      "stateMutability": "nonpayable",
      "type": "constructor"
    },
    {
      "anonymous": false,
      "inputs": [
        {
          "indexed": false,
          "internalType": "uint256",
          "name": "id",
          "type": "uint256"
        }
      ],
      "name": "ClosedLiquidity",
      "type": "event"
    },
    {
      "anonymous": false,
      "inputs": [
        {
          "indexed": false,
          "internalType": "address",
          "name": "user",
          "type": "address"
        },
        {
          "indexed": false,
          "internalType": "uint256",
          "name": "score",
          "type": "uint256"
        }
      ],
      "name": "CreditScoreChanged",
      "type": "event"
    },
    {
      "anonymous": false,
      "inputs": [
        {
          "indexed": false,
          "internalType": "uint256",
          "name": "loanID",
          "type": "uint256"
        },
        {
          "indexed": false,
          "internalType": "uint256",
          "name": "liquidityID",
          "type": "uint256"
        },
        {
          "indexed": false,
          "internalType": "uint256",
          "name": "amount",
          "type": "uint256"
        },
        {
          "indexed": false,
          "internalType": "uint256",
          "name": "duration",
          "type": "uint256"
        },
        {
          "indexed": false,
          "internalType": "uint256",
          "name": "interestRate",
          "type": "uint256"
        },
        {
          "indexed": false,
          "internalType": "uint256",
          "name": "createdAt",
          "type": "uint256"
        },
        {
          "indexed": false,
          "internalType": "uint256",
          "name": "paidAt",
          "type": "uint256"
        }
      ],
      "name": "LoanCreated",
      "type": "event"
    },
    {
      "anonymous": false,
      "inputs": [
        {
          "indexed": false,
          "internalType": "address",
          "name": "user",
          "type": "address"
        },
        {
          "indexed": false,
          "internalType": "address",
          "name": "by",
          "type": "address"
        },
        {
          "indexed": false,
          "internalType": "bool",
          "name": "isAdded",
          "type": "bool"
        }
      ],
      "name": "NetworkAdded",
      "type": "event"
    },
    {
      "anonymous": false,
      "inputs": [
        {
          "indexed": false,
          "internalType": "uint256",
          "name": "liquidityID",
          "type": "uint256"
        },
        {
          "indexed": false,
          "internalType": "uint256",
          "name": "amount",
          "type": "uint256"
        },
        {
          "indexed": false,
          "internalType": "address",
          "name": "tokenAddress",
          "type": "address"
        },
        {
          "indexed": false,
          "internalType": "uint256",
          "name": "interestRate",
          "type": "uint256"
        },
        {
          "indexed": false,
          "internalType": "uint256",
          "name": "minTakeOut",
          "type": "uint256"
        },
        {
          "indexed": false,
          "internalType": "uint256",
          "name": "maxTakeOut",
          "type": "uint256"
        },
        {
          "indexed": false,
          "internalType": "uint256",
          "name": "minDays",
          "type": "uint256"
        },
        {
          "indexed": false,
          "internalType": "uint256",
          "name": "maxDays",
          "type": "uint256"
        },
        {
          "indexed": false,
          "internalType": "uint256",
          "name": "minCreditScore",
          "type": "uint256"
        },
        {
          "indexed": false,
          "internalType": "uint256",
          "name": "createdAt",
          "type": "uint256"
        },
        {
          "indexed": false,
          "internalType": "address",
          "name": "userAddress",
          "type": "address"
        }
      ],
      "name": "ProvidedLiquity",
      "type": "event"
    },
    {
      "anonymous": false,
      "inputs": [
        {
          "indexed": false,
          "internalType": "uint256",
          "name": "id",
          "type": "uint256"
        },
        {
          "indexed": false,
          "internalType": "uint256",
          "name": "amount",
          "type": "uint256"
        }
      ],
      "name": "UpdatedLiquidity",
      "type": "event"
    },
    {
      "anonymous": false,
      "inputs": [
        {
          "indexed": false,
          "internalType": "string",
          "name": "name",
          "type": "string"
        },
        {
          "indexed": false,
          "internalType": "string",
          "name": "photo",
          "type": "string"
        },
        {
          "indexed": false,
          "internalType": "string",
          "name": "email",
          "type": "string"
        },
        {
          "indexed": false,
          "internalType": "string",
          "name": "username",
          "type": "string"
        },
        {
          "indexed": false,
          "internalType": "address",
          "name": "userAddress",
          "type": "address"
        },
        {
          "indexed": false,
          "internalType": "uint256",
          "name": "creditScore",
          "type": "uint256"
        },
        {
          "indexed": false,
          "internalType": "bool",
          "name": "activeLoan",
          "type": "bool"
        },
        {
          "indexed": false,
          "internalType": "string",
          "name": "year",
          "type": "string"
        },
        {
          "indexed": false,
          "internalType": "string",
          "name": "month",
          "type": "string"
        },
        {
          "indexed": false,
          "internalType": "string",
          "name": "phone",
          "type": "string"
        },
        {
          "indexed": false,
          "internalType": "string",
          "name": "homeAddress",
          "type": "string"
        }
      ],
      "name": "UserCreated",
      "type": "event"
    },
    {
      "inputs": [
        {
          "internalType": "address",
          "name": "",
          "type": "address"
        },
        {
          "internalType": "uint256",
          "name": "",
          "type": "uint256"
        }
      ],
      "name": "liquidities",
      "outputs": [
        {
          "internalType": "uint256",
          "name": "id",
          "type": "uint256"
        },
        {
          "internalType": "uint256",
          "name": "amount",
          "type": "uint256"
        },
        {
          "internalType": "address",
          "name": "tokenAddress",
          "type": "address"
        },
        {
          "internalType": "uint256",
          "name": "interestRate",
          "type": "uint256"
        },
        {
          "internalType": "uint256",
          "name": "minTakeOut",
          "type": "uint256"
        },
        {
          "internalType": "uint256",
          "name": "maxTakeOut",
          "type": "uint256"
        },
        {
          "internalType": "uint256",
          "name": "minDays",
          "type": "uint256"
        },
        {
          "internalType": "uint256",
          "name": "maxDays",
          "type": "uint256"
        },
        {
          "internalType": "uint256",
          "name": "minCreditScore",
          "type": "uint256"
        },
        {
          "internalType": "uint256",
          "name": "createdAt",
          "type": "uint256"
        }
      ],
      "stateMutability": "view",
      "type": "function",
      "constant": true
    },
    {
      "inputs": [
        {
          "internalType": "address",
          "name": "",
          "type": "address"
        },
        {
          "internalType": "uint256",
          "name": "",
          "type": "uint256"
        }
      ],
      "name": "loans",
      "outputs": [
        {
          "internalType": "uint256",
          "name": "id",
          "type": "uint256"
        },
        {
          "internalType": "uint256",
          "name": "liquidity",
          "type": "uint256"
        },
        {
          "internalType": "uint256",
          "name": "amount",
          "type": "uint256"
        },
        {
          "internalType": "address",
          "name": "tokenAddress",
          "type": "address"
        },
        {
          "internalType": "uint256",
          "name": "interestRate",
          "type": "uint256"
        },
        {
          "internalType": "uint256",
          "name": "duration",
          "type": "uint256"
        },
        {
          "internalType": "address",
          "name": "from",
          "type": "address"
        },
        {
          "internalType": "uint256",
          "name": "createdAt",
          "type": "uint256"
        },
        {
          "internalType": "uint256",
          "name": "paidAt",
          "type": "uint256"
        }
      ],
      "stateMutability": "view",
      "type": "function",
      "constant": true
    },
    {
      "inputs": [],
      "name": "platformFee",
      "outputs": [
        {
          "internalType": "uint256",
          "name": "",
          "type": "uint256"
        }
      ],
      "stateMutability": "view",
      "type": "function",
      "constant": true
    },
    {
      "inputs": [
        {
          "internalType": "address",
          "name": "",
          "type": "address"
        }
      ],
      "name": "users",
      "outputs": [
        {
          "internalType": "uint256",
          "name": "id",
          "type": "uint256"
        },
        {
          "internalType": "uint256",
          "name": "creditScore",
          "type": "uint256"
        },
        {
          "internalType": "bool",
          "name": "activeLoan",
          "type": "bool"
        },
        {
          "internalType": "uint256",
          "name": "createdAt",
          "type": "uint256"
        }
      ],
      "stateMutability": "view",
      "type": "function",
      "constant": true
    },
    {
      "inputs": [
        {
          "internalType": "string",
          "name": "name",
          "type": "string"
        },
        {
          "internalType": "string",
          "name": "photo",
          "type": "string"
        },
        {
          "internalType": "string",
          "name": "email",
          "type": "string"
        },
        {
          "internalType": "string",
          "name": "username",
          "type": "string"
        },
        {
          "internalType": "string",
          "name": "year",
          "type": "string"
        },
        {
          "internalType": "string",
          "name": "month",
          "type": "string"
        },
        {
          "internalType": "string",
          "name": "phone",
          "type": "string"
        },
        {
          "internalType": "string",
          "name": "homeAddress",
          "type": "string"
        }
      ],
      "name": "createUser",
      "outputs": [],
      "stateMutability": "nonpayable",
      "type": "function"
    },
    {
      "inputs": [
        {
          "internalType": "address",
          "name": "user",
          "type": "address"
        }
      ],
      "name": "addNetwork",
      "outputs": [],
      "stateMutability": "nonpayable",
      "type": "function"
    },
    {
      "inputs": [
        {
          "internalType": "address",
          "name": "user",
          "type": "address"
        }
      ],
      "name": "removeNetwork",
      "outputs": [],
      "stateMutability": "nonpayable",
      "type": "function"
    },
    {
      "inputs": [
        {
          "internalType": "uint256",
          "name": "id",
          "type": "uint256"
        },
        {
          "internalType": "uint256",
          "name": "amount",
          "type": "uint256"
        },
        {
          "internalType": "address",
          "name": "owner",
          "type": "address"
        },
        {
          "internalType": "uint256",
          "name": "duration",
          "type": "uint256"
        }
      ],
      "name": "takeLoan",
      "outputs": [],
      "stateMutability": "nonpayable",
      "type": "function"
    },
    {
      "inputs": [
        {
          "internalType": "uint256",
          "name": "id",
          "type": "uint256"
        },
        {
          "internalType": "address",
          "name": "owner",
          "type": "address"
        }
      ],
      "name": "payLoan",
      "outputs": [],
      "stateMutability": "nonpayable",
      "type": "function"
    },
    {
      "inputs": [
        {
          "internalType": "uint256",
          "name": "id",
          "type": "uint256"
        }
      ],
      "name": "closeLiquidity",
      "outputs": [],
      "stateMutability": "nonpayable",
      "type": "function"
    },
    {
      "inputs": [
        {
          "internalType": "uint256",
          "name": "amount",
          "type": "uint256"
        },
        {
          "internalType": "address",
          "name": "tokenAddress",
          "type": "address"
        },
        {
          "internalType": "uint256",
          "name": "interestRate",
          "type": "uint256"
        },
        {
          "internalType": "uint256",
          "name": "minTakeOut",
          "type": "uint256"
        },
        {
          "internalType": "uint256",
          "name": "maxTakeOut",
          "type": "uint256"
        },
        {
          "internalType": "uint256",
          "name": "minDays",
          "type": "uint256"
        },
        {
          "internalType": "uint256",
          "name": "maxDays",
          "type": "uint256"
        },
        {
          "internalType": "uint256",
          "name": "minCreditScore",
          "type": "uint256"
        }
      ],
      "name": "provideLiquity",
      "outputs": [],
      "stateMutability": "nonpayable",
      "type": "function"
    }
  ],
  "bytecode": "0x60806040526001600255602860065534801561001a57600080fd5b50604051620021473803806200214783398101604081905261003b9161006e565b60008054336001600160a01b031991821617909155600780549091166001600160a01b039290921691909117905561009e565b60006020828403121561008057600080fd5b81516001600160a01b038116811461009757600080fd5b9392505050565b61209980620000ae6000396000f3fe608060405234801561001057600080fd5b50600436106100c95760003560e01c8063a87430ba11610081578063d567e4a41161005b578063d567e4a414610264578063d988cb6c14610277578063eb3b299b1461028a57600080fd5b8063a87430ba14610185578063af03c793146101e6578063d52559d0146101f957600080fd5b806333380359116100b257806333380359146100ff5780634a184a871461011257806398c61c371461012557600080fd5b806326232a2e146100ce578063329aa414146100ea575b600080fd5b6100d760025481565b6040519081526020015b60405180910390f35b6100fd6100f8366004611b51565b61029d565b005b6100fd61010d366004611b86565b610511565b6100fd610120366004611c66565b610a88565b610138610133366004611da6565b610bd0565b60408051998a5260208a0198909852968801959095526001600160a01b039384166060880152608087019290925260a08601521660c084015260e0830152610100820152610120016100e1565b6101c0610193366004611dd0565b60086020526000908152604090208054600182015460028301546003909301549192909160ff9091169084565b6040805194855260208501939093529015159183019190915260608201526080016100e1565b6100fd6101f4366004611deb565b610c45565b61020c610207366004611da6565b611364565b604080519a8b5260208b01999099526001600160a01b03909716978901979097526060880194909452608087019290925260a086015260c085015260e0840152610100830191909152610120820152610140016100e1565b6100fd610272366004611dd0565b6113de565b6100fd610285366004611e17565b611486565b6100fd610298366004611dd0565b6116ec565b60006102a93383611798565b905080196102fe5760405162461bcd60e51b815260206004820152601860248201527f21796f755f646f5f6f776e5f74686573655f746f6b656e73000000000000000060448201526064015b60405180910390fd5b33600090815260096020526040812080548390811061031f5761031f611e77565b60009182526020918290206040805161014081018252600a90930290910180548352600181015493830184905260028101546001600160a01b0316918301919091526003810154606083015260048101546080830152600581015460a0830152600681015460c0830152600781015460e083015260088101546101008301526009015461012082015291506103f65760405162461bcd60e51b815260206004820152601360248201527f696e7375666669656365696e745f66756e64730000000000000000000000000060448201526064016102f5565b6040818101516020830151915163a9059cbb60e01b81523360048201526024810192909252906001600160a01b0382169063a9059cbb906044016020604051808303816000875af115801561044f573d6000803e3d6000fd5b505050506040513d601f19601f820116820180604052508101906104739190611e8d565b506104d3604051806101400160405280600081526020016000815260200160006001600160a01b03168152602001600081526020016000815260200160008152602001600081526020016000815260200160008152602001600081525090565b80516040519081529092507f20c48a95a2e7a5844e4f456e8d83a72af0caceb90b567ae55d0b13c7942fa7989060200160405180910390a150505050565b600083116105615760405162461bcd60e51b815260206004820152601460248201527f2163616e5f74616b655f7a65726f5f746f6b656e00000000000000000000000060448201526064016102f5565b600061056d8386611798565b905080196105bd5760405162461bcd60e51b815260206004820152601160248201527f216c69717569646974795f65786973747300000000000000000000000000000060448201526064016102f5565b6001600160a01b03831660009081526009602052604081208054839081106105e7576105e7611e77565b600091825260208083206040805161014081018252600a9094029091018054845260018101549284019290925260028201546001600160a01b0316908301526003810154606083015260048101546080830152600581015460a0830152600681015460c0830152600781015460e0830152600881015461010083015260090154610120820152915061067985336118c9565b905080196106c95760405162461bcd60e51b815260206004820152600c60248201527f21756e6174686f72697a6564000000000000000000000000000000000000000060448201526064016102f5565b3360009081526008602052604090206002015460ff161561072c5760405162461bcd60e51b815260206004820152601260248201527f21616c72656164795f6f6e5f615f6c6f616e000000000000000000000000000060448201526064016102f5565b85826020015110156107805760405162461bcd60e51b815260206004820152601160248201527f696e73756669636369656e745f706f6f6c00000000000000000000000000000060448201526064016102f5565b858260a0015110156107d45760405162461bcd60e51b815260206004820152600860248201527f746f6f5f6d75636800000000000000000000000000000000000000000000000060448201526064016102f5565b85826080015111156108285760405162461bcd60e51b815260206004820152600a60248201527f746f6f5f6c6974746c650000000000000000000000000000000000000000000060448201526064016102f5565b838260e00151101561087c5760405162461bcd60e51b815260206004820152600860248201527f746f6f5f6c6f6e6700000000000000000000000000000000000000000000000060448201526064016102f5565b838260c0015111156108d05760405162461bcd60e51b815260206004820152600960248201527f746f6f5f73686f7274000000000000000000000000000000000000000000000060448201526064016102f5565b85826020018181516108e29190611ec5565b905250336000908152600860205260408120600201805460ff19166001179055600580549161091083611ed8565b90915550506040805161012081018252600580548252845160208084019182528385018b8152878601516001600160a01b0390811660608088019182528a01516080880190815260a088018d81528e841660c08a019081524260e08b0190815260006101008c01818152338252600a8a528d82208054600181810183559184529a9092208d516009909b02018a81559a51918b01829055975160028b01819055955160038b01805491891673ffffffffffffffffffffffffffffffffffffffff19928316179055945160048b0181905593519a8a018b9055915160068a0180549190971694169390931790945590516007870181905593516008909601869055975196977fb558fa006658bf2d3a9087e40a4d8208805483cc7725bce04f8da4ba7616d13397610a7697959693959294929391929190968752602087019590955260408601939093526060850191909152608084015260a083015260c082015260e00190565b60405180910390a15050505050505050565b60038054906000610a9883611ed8565b90915550506040805160a08101825260035481526006546020808301919091526000828401819052426060840152338152600882528390206004018054845181840281018401909552808552929360808501939092830182828015610b2657602002820191906000526020600020905b81546001600160a01b03168152600190910190602001808311610b08575b50505091909252505033600090815260086020908152604091829020835181558382015160018201559183015160028301805460ff19169115159190911790556060830151600383015560808301518051610b879260048501920190611aca565b50506006546040517f676f4149b3c169700ae4fc11a98f7fa314e26c66113436c7d5f7688e340cd0549250610a76918b918b918b918b9133916000908d908d908d908d90611f37565b600a6020528160005260406000208181548110610bec57600080fd5b600091825260209091206009909102018054600182015460028301546003840154600485015460058601546006870154600788015460089098015496995094975092956001600160a01b03928316959194909216919089565b6000610c513384611999565b90508019610ca15760405162461bcd60e51b815260206004820152600c60248201527f216c6f616e5f657869737473000000000000000000000000000000000000000060448201526064016102f5565b336000908152600a60205260408120805483908110610cc257610cc2611e77565b6000918252602091829020604080516101208101825260099093029091018054835260018101549383019390935260028301549082015260038201546001600160a01b03908116606083015260048301546080830152600583015460a08301526006830154811660c08301819052600784015460e0840152600890930154610100830152909250841614610d985760405162461bcd60e51b815260206004820152600c60248201527f21756e6174686f72697a6564000000000000000000000000000000000000000060448201526064016102f5565b6000620151808260e0015142610dae9190611ec5565b610db8919061200f565b90506000610dca836080015183611ab7565b6007546040517fe1f21c67000000000000000000000000000000000000000000000000000000008152336004820152306024820152604481018390529192506001600160a01b03169063e1f21c6790606401600060405180830381600087803b158015610e3657600080fd5b505af1158015610e4a573d6000803e3d6000fd5b50506007546040516323b872dd60e01b8152336004820152306024820152604481018590526001600160a01b0390911692506323b872dd91506064016020604051808303816000875af1158015610ea5573d6000803e3d6000fd5b505050506040513d601f19601f82011682018060405250810190610ec99190611e8d565b5060006064600254610edb919061200f565b610ee59083612031565b60075460405163a9059cbb60e01b8152336004820152602481018390529192506001600160a01b03169063a9059cbb906044016020604051808303816000875af1158015610f37573d6000803e3d6000fd5b505050506040513d601f19601f82011682018060405250810190610f5b9190611e8d565b50610f668183611ec5565b60016000828254610f779190612050565b925050819055506000610f8e878660200151611798565b90508060001914611127576001600160a01b0387166000908152600960205260408120805483908110610fc357610fc3611e77565b60009182526020918290206040805161014081018252600a90930290910180548352600181015493830184815260028201546001600160a01b0316928401929092526003810154606084015260048101546080840152600581015460a0840152600681015460c0840152600781015460e0840152600881015461010084015260090154610120830152909250849161105c908390612050565b905250606086015160408088015190516323b872dd60e01b815233600482015230602482015260448101919091526001600160a01b038216906323b872dd906064016020604051808303816000875af11580156110bd573d6000803e3d6000fd5b505050506040513d601f19601f820116820180604052508101906110e19190611e8d565b50815160208084015160408051938452918301527fa78d1e81434a3d3c4b90a82e0df68035fc59d26e2185a51f8a66143c94c4814a910160405180910390a150506111af565b606085015160408087015190516323b872dd60e01b81523360048201526001600160a01b038a811660248301526044820192909252908216906323b872dd906064016020604051808303816000875af1158015611188573d6000803e3d6000fd5b505050506040513d601f19601f820116820180604052508101906111ac9190611e8d565b50505b42610100860152336000908152600860205260409020600201805460ff1916905560a085015184111561123c573360009081526008602052604090206001015460051161122457336000908152600860205260408120600101805460059290611219908490611ec5565b909155506112919050565b33600090815260086020526040812060010155611291565b33600090815260086020526040902060010154605f1061127957336000908152600860205260408120600101805460059290611219908490612050565b33600090815260086020526040902060646001909101555b7fb558fa006658bf2d3a9087e40a4d8208805483cc7725bce04f8da4ba7616d1338560000151866020015187604001518860a0015189608001518a60e001518b61010001516040516113149796959493929190968752602087019590955260408601939093526060850191909152608084015260a083015260c082015260e00190565b60405180910390a133600081815260086020908152604091829020600101548251938452908301527f05933d00429c2f5bf744590ae0bbc26dd4e984be9acbb9197eec5f7127e6da649101610a76565b6009602052816000526040600020818154811061138057600080fd5b60009182526020909120600a90910201805460018201546002830154600384015460048501546005860154600687015460078801546008890154600990990154979a509598506001600160a01b03909416969295919490939290918a565b60006113ea33836118c9565b905080196114825733600081815260086020908152604080832060040180546001808201835591855293839020909301805473ffffffffffffffffffffffffffffffffffffffff19166001600160a01b038816908117909155815190815291820193909352918201527fef159a3fe67039f76f5f69589747e2f0132e5e79bc6a1ee9b3f47bfad176d005906060015b60405180910390a15b5050565b6004805490600061149683611ed8565b919050555060096000336001600160a01b03166001600160a01b0316815260200190815260200160002060405180610140016040528060045481526020018a8152602001896001600160a01b031681526020018881526020018781526020018681526020018581526020018481526020018381526020014281525090806001815401808255809150506001900390600052602060002090600a0201600090919091909150600082015181600001556020820151816001015560408201518160020160006101000a8154816001600160a01b0302191690836001600160a01b03160217905550606082015181600301556080820151816004015560a0820151816005015560c0820151816006015560e082015181600701556101008201518160080155610120820151816009015550506000879050806001600160a01b03166323b872dd33308c6040518463ffffffff1660e01b8152600401611619939291906001600160a01b039384168152919092166020820152604081019190915260600190565b6020604051808303816000875af1158015611638573d6000803e3d6000fd5b505050506040513d601f19601f8201168201806040525081019061165c9190611e8d565b5060045460408051918252602082018b90526001600160a01b038a1682820152606082018990526080820188905260a0820187905260c0820186905260e0820185905261010082018490524261012083015233610140830152517f9c73435d730d29a508b2720903ba238df287009379a89db682694cc036aed5b7918190036101600190a1505050505050505050565b60006116f833836118c9565b905080600019146114825733600090815260086020526040902060040180548290811061172757611727611e77565b6000918252602080832091909101805473ffffffffffffffffffffffffffffffffffffffff19169055604080516001600160a01b038616815233928101929092528101919091527fef159a3fe67039f76f5f69589747e2f0132e5e79bc6a1ee9b3f47bfad176d00590606001611479565b6001600160a01b038216600090815260096020908152604080832080548251818502810185019093528083528493849084015b828210156118675760008481526020908190206040805161014081018252600a8602909201805483526001808201548486015260028201546001600160a01b0316928401929092526003810154606084015260048101546080840152600581015460a0840152600681015460c0840152600781015460e084015260088101546101008401526009015461012083015290835290920191016117cb565b5050505090506000600019905060005b82518110156118be578483828151811061189357611893611e77565b602002602001015160000151036118ac578091506118be565b806118b681611ed8565b915050611877565b509150505b92915050565b6001600160a01b03821660009081526008602090815260408083206004018054825181850281018501909352808352849383018282801561193357602002820191906000526020600020905b81546001600160a01b03168152600190910190602001808311611915575b505050505090506000600019905060005b82518110156118be57846001600160a01b031683828151811061196957611969611e77565b60200260200101516001600160a01b031603611987578091506118be565b8061199181611ed8565b915050611944565b6001600160a01b0382166000908152600a6020908152604080832080548251818502810185019093528083528493849084015b82821015611a60576000848152602090819020604080516101208101825260098602909201805483526001808201548486015260028201549284019290925260038101546001600160a01b03908116606085015260048201546080850152600582015460a085015260068201541660c0840152600781015460e08401526008015461010083015290835290920191016119cc565b5050505090506000600019905060005b82518110156118be5784838281518110611a8c57611a8c611e77565b60200260200101516000015103611aa5578091506118be565b80611aaf81611ed8565b915050611a70565b6000611ac38284612031565b9392505050565b828054828255906000526020600020908101928215611b2c579160200282015b82811115611b2c578251825473ffffffffffffffffffffffffffffffffffffffff19166001600160a01b03909116178255602090920191600190910190611aea565b50611b38929150611b3c565b5090565b5b80821115611b385760008155600101611b3d565b600060208284031215611b6357600080fd5b5035919050565b80356001600160a01b0381168114611b8157600080fd5b919050565b60008060008060808587031215611b9c57600080fd5b8435935060208501359250611bb360408601611b6a565b9396929550929360600135925050565b634e487b7160e01b600052604160045260246000fd5b600082601f830112611bea57600080fd5b813567ffffffffffffffff80821115611c0557611c05611bc3565b604051601f8301601f19908116603f01168101908282118183101715611c2d57611c2d611bc3565b81604052838152866020858801011115611c4657600080fd5b836020870160208301376000602085830101528094505050505092915050565b600080600080600080600080610100898b031215611c8357600080fd5b883567ffffffffffffffff80821115611c9b57600080fd5b611ca78c838d01611bd9565b995060208b0135915080821115611cbd57600080fd5b611cc98c838d01611bd9565b985060408b0135915080821115611cdf57600080fd5b611ceb8c838d01611bd9565b975060608b0135915080821115611d0157600080fd5b611d0d8c838d01611bd9565b965060808b0135915080821115611d2357600080fd5b611d2f8c838d01611bd9565b955060a08b0135915080821115611d4557600080fd5b611d518c838d01611bd9565b945060c08b0135915080821115611d6757600080fd5b611d738c838d01611bd9565b935060e08b0135915080821115611d8957600080fd5b50611d968b828c01611bd9565b9150509295985092959890939650565b60008060408385031215611db957600080fd5b611dc283611b6a565b946020939093013593505050565b600060208284031215611de257600080fd5b611ac382611b6a565b60008060408385031215611dfe57600080fd5b82359150611e0e60208401611b6a565b90509250929050565b600080600080600080600080610100898b031215611e3457600080fd5b88359750611e4460208a01611b6a565b979a9799505050506040860135956060810135956080820135955060a0820135945060c0820135935060e0909101359150565b634e487b7160e01b600052603260045260246000fd5b600060208284031215611e9f57600080fd5b81518015158114611ac357600080fd5b634e487b7160e01b600052601160045260246000fd5b818103818111156118c3576118c3611eaf565b600060018201611eea57611eea611eaf565b5060010190565b6000815180845260005b81811015611f1757602081850181015186830182015201611efb565b506000602082860101526020601f19601f83011685010191505092915050565b6000610160808352611f4b8184018f611ef1565b90508281036020840152611f5f818e611ef1565b90508281036040840152611f73818d611ef1565b90508281036060840152611f87818c611ef1565b6001600160a01b038b16608085015290508860a0840152611fac60c084018915159052565b82810360e0840152611fbe8188611ef1565b9050828103610100840152611fd38187611ef1565b9050828103610120840152611fe88186611ef1565b9050828103610140840152611ffd8185611ef1565b9e9d5050505050505050505050505050565b60008261202c57634e487b7160e01b600052601260045260246000fd5b500490565b600081600019048311821515161561204b5761204b611eaf565b500290565b808201808211156118c3576118c3611eaf56fea2646970667358221220cda0e556a1c07c03ba0aad76e8735ee17eb186d71d339315686abe20cb2fcb1864736f6c63430008100033",
  "immutableReferences": {},
  "source": "// SPDX-License-Identifier: GPL-3.0\npragma solidity >=0.7.0 <0.9.0;\n\nimport {IERC20} from \"@openzeppelin/contracts/token/ERC20/iERC20.sol\";\nimport {DashToken} from \"./DashToken.sol\";\n\ncontract Dash {\n    address private deployer;\n    uint private contractRevenue;\n    uint public platformFee = 1; // 1% fee\n\n    uint private userID;\n    uint private liquidityID;\n    uint private loanID;\n\n    uint defaultCreditScore = 40;\n\n    DashToken private dashToken;\n\n    mapping(address => User) public users;\n    mapping(address => Liquidity[]) public liquidities;\n    mapping(address => Loan[]) public loans;\n\n    constructor(address dashToken_) {\n        deployer = msg.sender;\n        dashToken = DashToken(dashToken_);\n    }\n\n    struct Liquidity {\n        uint id;\n        uint256 amount;\n        address tokenAddress;\n        uint interestRate;\n        uint256 minTakeOut;\n        uint256 maxTakeOut;\n        uint minDays;\n        uint maxDays;\n        uint minCreditScore;\n        uint createdAt;\n    }\n\n    struct Loan {\n        uint id;\n        uint liquidity;\n        uint256 amount;\n        address tokenAddress;\n        uint interestRate;\n        uint duration;\n        address from;\n        uint createdAt;\n        uint paidAt;\n    }\n\n    struct User {\n        uint id;\n        uint creditScore;\n        bool activeLoan;\n        uint createdAt;\n        address[] networks;\n    }\n\n    function createUser(\n        string memory name,\n        string memory photo,\n        string memory email,\n        string memory username,\n        string memory year,\n        string memory month,\n        string memory phone,\n        string memory homeAddress\n    ) public {\n        // require(users[msg.sender].id == 0, \"!already_created_an_account\");\n\n        userID++;\n        users[msg.sender] = User(\n            userID,\n            defaultCreditScore,\n            false,\n            block.timestamp,\n            users[msg.sender].networks\n        );\n\n        emit UserCreated(\n            name,\n            photo,\n            email,\n            username,\n            msg.sender,\n            defaultCreditScore,\n            false,\n            year,\n            month,\n            phone,\n            homeAddress\n        );\n    }\n\n    function addNetwork(address user) public {\n        int userIndex = getUserNetworkIndex(msg.sender, user);\n        if (userIndex == -1) {\n            users[msg.sender].networks.push(user);\n            emit NetworkAdded(user, msg.sender, true);\n        }\n    }\n\n    function removeNetwork(address user) public {\n        int userIndex = getUserNetworkIndex(msg.sender, user);\n        if (userIndex != -1) {\n            delete users[msg.sender].networks[uint(userIndex)];\n            emit NetworkAdded(user, msg.sender, false);\n        }\n    }\n\n    function takeLoan(\n        uint id,\n        uint256 amount,\n        address owner,\n        uint duration\n    ) public {\n        require(amount > 0, \"!can_take_zero_token\");\n        int ownerLiquidityIndex = getUserLiquidityIndex(owner, id);\n        require(ownerLiquidityIndex != -1, \"!liquidity_exists\");\n\n        Liquidity memory liquidity = liquidities[owner][\n            uint(ownerLiquidityIndex)\n        ];\n\n        int userNetworkIndex = getUserNetworkIndex(owner, msg.sender);\n        require(userNetworkIndex != -1, \"!unathorized\");\n\n        require(!users[msg.sender].activeLoan, \"!already_on_a_loan\");\n\n        require(liquidity.amount >= amount, \"insuficcient_pool\");\n        require(liquidity.maxTakeOut >= amount, \"too_much\");\n        require(liquidity.minTakeOut <= amount, \"too_little\");\n        require(liquidity.maxDays >= duration, \"too_long\");\n        require(liquidity.minDays <= duration, \"too_short\");\n\n        liquidity.amount -= amount;\n\n        // user is now on a loan\n        users[msg.sender].activeLoan = true;\n\n        loanID++;\n\n        Loan memory loan = Loan(\n            loanID,\n            liquidity.id,\n            amount,\n            liquidity.tokenAddress,\n            liquidity.interestRate,\n            duration,\n            owner,\n            block.timestamp,\n            0\n        );\n\n        loans[msg.sender].push(loan);\n\n        emit LoanCreated(\n            loan.id,\n            loan.liquidity,\n            loan.amount,\n            loan.duration,\n            loan.interestRate,\n            loan.createdAt,\n            loan.paidAt\n        );\n    }\n\n    function payLoan(uint id, address owner) public {\n        int userLoanIndex = getUserLoanIndex(msg.sender, id);\n        require(userLoanIndex != -1, \"!loan_exists\");\n\n        Loan memory loan = loans[msg.sender][uint(userLoanIndex)];\n        require(loan.from == owner, \"!unathorized\");\n\n        // pay interest\n        uint durationInDays = ((block.timestamp - loan.createdAt) / 1 days);\n        uint256 interest = calculateSimpleInterest(\n            loan.interestRate,\n            durationInDays\n        );\n\n        // pay to smart contract\n        dashToken.approve(msg.sender, address(this), interest);\n        dashToken.transferFrom(msg.sender, address(this), interest);\n\n        // pay interest to liquidity provider\n        // charge platform fee\n        uint amount = (interest * (platformFee / 100));\n        dashToken.transfer(msg.sender, amount);\n\n        // update profit\n        contractRevenue += (interest - amount);\n\n        // if liquidity still exist, add the funds back to the liquidty\n        int liquidityIndex = getUserLiquidityIndex(owner, loan.liquidity);\n\n        if (liquidityIndex != -1) {\n            // liquidity exists\n            Liquidity memory liquidity = liquidities[owner][\n                uint(liquidityIndex)\n            ];\n\n            // increase liquidity pool back\n            liquidity.amount += amount;\n\n            // pay loan to smart contract\n            IERC20 token = IERC20(loan.tokenAddress);\n\n            // token.approve(msg.sender, address(this), loan.amount);\n            token.transferFrom(msg.sender, address(this), loan.amount);\n\n            // let dependecies knows pool has _changed_\n            emit UpdatedLiquidity(liquidity.id, liquidity.amount);\n        } else {\n            // else send the funds to the liquidity creator wallet\n            IERC20 token = IERC20(loan.tokenAddress);\n\n            // token.approve(msg.sender, owner, loan.amount);\n            token.transferFrom(msg.sender, owner, loan.amount);\n        }\n\n        // mark loan as paid\n        loan.paidAt = block.timestamp;\n\n        // user is not on a loan\n        users[msg.sender].activeLoan = false;\n\n        // credit score mechanism\n        if (durationInDays > loan.duration) {\n            if (users[msg.sender].creditScore >= 5) {\n                users[msg.sender].creditScore -= 5;\n            } else {\n                users[msg.sender].creditScore = 0;\n            }\n        } else {\n            if (users[msg.sender].creditScore <= 95) {\n                users[msg.sender].creditScore += 5;\n            } else {\n                users[msg.sender].creditScore = 100;\n            }\n        }\n\n        emit LoanCreated(\n            loan.id,\n            loan.liquidity,\n            loan.amount,\n            loan.duration,\n            loan.interestRate,\n            loan.createdAt,\n            loan.paidAt\n        );\n\n        emit CreditScoreChanged(msg.sender, users[msg.sender].creditScore);\n    }\n\n    function closeLiquidity(uint id) public {\n        int userLiquidityIndex = getUserLiquidityIndex(msg.sender, id);\n        require(userLiquidityIndex != -1, \"!you_do_own_these_tokens\");\n\n        Liquidity memory liquidity = liquidities[msg.sender][\n            uint256(userLiquidityIndex)\n        ];\n\n        require(liquidity.amount > 0, \"insuffieceint_funds\");\n\n        // send tokens to user wallet\n        IERC20 token = IERC20(liquidity.tokenAddress);\n        token.transfer(msg.sender, liquidity.amount);\n\n        delete liquidity;\n\n        emit ClosedLiquidity(liquidity.id);\n    }\n\n    function provideLiquity(\n        uint256 amount,\n        address tokenAddress,\n        uint interestRate,\n        uint256 minTakeOut,\n        uint256 maxTakeOut,\n        uint minDays,\n        uint maxDays,\n        uint minCreditScore\n    ) public {\n        liquidityID++;\n        liquidities[msg.sender].push(\n            Liquidity(\n                liquidityID,\n                amount,\n                tokenAddress,\n                interestRate,\n                minTakeOut,\n                maxTakeOut,\n                minDays,\n                maxDays,\n                minCreditScore,\n                block.timestamp\n            )\n        );\n\n        // stake tokens from user wallet to the contract\n        IERC20 token = IERC20(tokenAddress);\n        // token.approve(msg.sender, owner, loan.amount);\n        token.transferFrom(msg.sender, address(this), amount);\n\n        emit ProvidedLiquity(\n            liquidityID,\n            amount,\n            tokenAddress,\n            interestRate,\n            minTakeOut,\n            maxTakeOut,\n            minDays,\n            maxDays,\n            minCreditScore,\n            block.timestamp,\n            msg.sender\n        );\n    }\n\n    function getUserLoanIndex(address user, uint id)\n        private\n        view\n        returns (int)\n    {\n        Loan[] memory loanList = loans[user];\n        int position = -1;\n\n        for (uint index = 0; index < loanList.length; index++) {\n            if (loanList[index].id == id) {\n                position = int(index);\n                break;\n            }\n        }\n\n        return position;\n    }\n\n    function getUserLiquidityIndex(address user, uint id)\n        private\n        view\n        returns (int)\n    {\n        Liquidity[] memory liquidityList = liquidities[user];\n        int position = -1;\n\n        for (uint index = 0; index < liquidityList.length; index++) {\n            if (liquidityList[index].id == id) {\n                position = int(index);\n                break;\n            }\n        }\n\n        return position;\n    }\n\n    function getUserNetworkIndex(address user, address network)\n        private\n        view\n        returns (int)\n    {\n        address[] memory networks = users[user].networks;\n        int position = -1;\n\n        for (uint index = 0; index < networks.length; index++) {\n            if (networks[index] == network) {\n                position = int(index);\n                break;\n            }\n        }\n\n        return position;\n    }\n\n    function calculateSimpleInterest(uint rate, uint duration)\n        private\n        pure\n        returns (uint256)\n    {\n        // amount = capital(1 + (rate * duration))\n        return (rate * duration);\n    }\n\n    event UserCreated(\n        string name,\n        string photo,\n        string email,\n        string username,\n        address userAddress,\n        uint creditScore,\n        bool activeLoan,\n        string year,\n        string month,\n        string phone,\n        string homeAddress\n    );\n    event CreditScoreChanged(address user, uint score);\n    event NetworkAdded(address user, address by, bool isAdded);\n    event LoanCreated(\n        uint loanID,\n        uint liquidityID,\n        uint256 amount,\n        uint duration,\n        uint interestRate,\n        uint createdAt,\n        uint paidAt\n    );\n    event ProvidedLiquity(\n        uint liquidityID,\n        uint256 amount,\n        address tokenAddress,\n        uint interestRate,\n        uint256 minTakeOut,\n        uint256 maxTakeOut,\n        uint minDays,\n        uint maxDays,\n        uint minCreditScore,\n        uint createdAt,\n        address userAddress\n    );\n    event ClosedLiquidity(uint id);\n    event UpdatedLiquidity(uint id, uint256 amount);\n}\n",
  "sourcePath": "C:\\Users\\Arogundade Ibrahim\\Documents\\web3\\dash\\contracts\\Dash.sol",
  "compiler": {
    "name": "solc",
    "version": "0.8.16+commit.07a7930e.Emscripten.clang"
  },
  "schemaVersion": "3.4.10",
  "updatedAt": "2022-11-05T13:39:57.200Z",
  "networkType": "ethereum",
  "devdoc": {
    "kind": "dev",
    "methods": {},
    "version": 1
  },
  "userdoc": {
    "kind": "user",
    "methods": {},
    "version": 1
  }
}